{
  "_format": "hh-sol-artifact-1",
  "contractName": "PriceOracle",
  "sourceName": "contracts/price-oracle/PriceOracle.sol",
  "abi": [
    {
      "inputs": [
        {
          "internalType": "contract ISANN",
          "name": "_sann",
          "type": "address"
        }
      ],
      "stateMutability": "nonpayable",
      "type": "constructor"
    },
    {
      "anonymous": false,
      "inputs": [
        {
          "indexed": false,
          "internalType": "uint8",
          "name": "version",
          "type": "uint8"
        }
      ],
      "name": "Initialized",
      "type": "event"
    },
    {
      "anonymous": false,
      "inputs": [
        {
          "indexed": false,
          "internalType": "uint256",
          "name": "identifier",
          "type": "uint256"
        },
        {
          "indexed": false,
          "internalType": "uint8",
          "name": "letter",
          "type": "uint8"
        },
        {
          "indexed": false,
          "internalType": "uint64",
          "name": "newPrice",
          "type": "uint64"
        }
      ],
      "name": "SetPrice",
      "type": "event"
    },
    {
      "inputs": [
        {
          "internalType": "uint256",
          "name": "amount",
          "type": "uint256"
        }
      ],
      "name": "attoUSDToWei",
      "outputs": [
        {
          "internalType": "uint256",
          "name": "",
          "type": "uint256"
        }
      ],
      "stateMutability": "view",
      "type": "function"
    },
    {
      "inputs": [
        {
          "internalType": "uint256",
          "name": "_startPremium",
          "type": "uint256"
        },
        {
          "internalType": "uint256",
          "name": "elapsed",
          "type": "uint256"
        }
      ],
      "name": "decayedPremium",
      "outputs": [
        {
          "internalType": "uint256",
          "name": "",
          "type": "uint256"
        }
      ],
      "stateMutability": "pure",
      "type": "function"
    },
    {
      "inputs": [],
      "name": "endValue",
      "outputs": [
        {
          "internalType": "uint256",
          "name": "",
          "type": "uint256"
        }
      ],
      "stateMutability": "view",
      "type": "function"
    },
    {
      "inputs": [
        {
          "internalType": "uint256",
          "name": "identifier",
          "type": "uint256"
        }
      ],
      "name": "initTldPriceModel",
      "outputs": [],
      "stateMutability": "nonpayable",
      "type": "function"
    },
    {
      "inputs": [
        {
          "internalType": "contract AggregatorInterface",
          "name": "_usdOracle",
          "type": "address"
        },
        {
          "internalType": "uint256",
          "name": "_startPremium",
          "type": "uint256"
        },
        {
          "internalType": "uint256",
          "name": "totalDays",
          "type": "uint256"
        }
      ],
      "name": "initialize",
      "outputs": [],
      "stateMutability": "nonpayable",
      "type": "function"
    },
    {
      "inputs": [
        {
          "internalType": "string",
          "name": "name",
          "type": "string"
        },
        {
          "internalType": "uint256",
          "name": "expires",
          "type": "uint256"
        },
        {
          "internalType": "uint256",
          "name": "duration",
          "type": "uint256"
        }
      ],
      "name": "premium",
      "outputs": [
        {
          "internalType": "uint256",
          "name": "",
          "type": "uint256"
        }
      ],
      "stateMutability": "view",
      "type": "function"
    },
    {
      "inputs": [
        {
          "internalType": "string",
          "name": "name",
          "type": "string"
        },
        {
          "internalType": "uint256",
          "name": "expires",
          "type": "uint256"
        },
        {
          "internalType": "uint256",
          "name": "duration",
          "type": "uint256"
        },
        {
          "internalType": "uint256",
          "name": "identifier",
          "type": "uint256"
        }
      ],
      "name": "price",
      "outputs": [
        {
          "components": [
            {
              "internalType": "uint256",
              "name": "base",
              "type": "uint256"
            },
            {
              "internalType": "uint256",
              "name": "premium",
              "type": "uint256"
            }
          ],
          "internalType": "struct IPriceOracle.Price",
          "name": "",
          "type": "tuple"
        }
      ],
      "stateMutability": "view",
      "type": "function"
    },
    {
      "inputs": [
        {
          "internalType": "string",
          "name": "name",
          "type": "string"
        },
        {
          "internalType": "uint256",
          "name": "expires",
          "type": "uint256"
        },
        {
          "internalType": "uint256",
          "name": "duration",
          "type": "uint256"
        },
        {
          "internalType": "uint256",
          "name": "identifier",
          "type": "uint256"
        }
      ],
      "name": "priceInWei",
      "outputs": [
        {
          "components": [
            {
              "internalType": "uint256",
              "name": "base",
              "type": "uint256"
            },
            {
              "internalType": "uint256",
              "name": "premium",
              "type": "uint256"
            }
          ],
          "internalType": "struct IPriceOracle.Price",
          "name": "",
          "type": "tuple"
        }
      ],
      "stateMutability": "view",
      "type": "function"
    },
    {
      "inputs": [],
      "name": "sann",
      "outputs": [
        {
          "internalType": "contract ISANN",
          "name": "",
          "type": "address"
        }
      ],
      "stateMutability": "view",
      "type": "function"
    },
    {
      "inputs": [
        {
          "internalType": "uint256",
          "name": "identifier",
          "type": "uint256"
        },
        {
          "internalType": "uint8",
          "name": "letter",
          "type": "uint8"
        },
        {
          "internalType": "uint64",
          "name": "newPrice",
          "type": "uint64"
        }
      ],
      "name": "setTldPriceModel",
      "outputs": [],
      "stateMutability": "nonpayable",
      "type": "function"
    },
    {
      "inputs": [
        {
          "internalType": "address",
          "name": "_usdOracle",
          "type": "address"
        }
      ],
      "name": "setUsdOracle",
      "outputs": [],
      "stateMutability": "nonpayable",
      "type": "function"
    },
    {
      "inputs": [],
      "name": "startPremium",
      "outputs": [
        {
          "internalType": "uint256",
          "name": "",
          "type": "uint256"
        }
      ],
      "stateMutability": "view",
      "type": "function"
    },
    {
      "inputs": [],
      "name": "usdOracle",
      "outputs": [
        {
          "internalType": "contract AggregatorInterface",
          "name": "",
          "type": "address"
        }
      ],
      "stateMutability": "view",
      "type": "function"
    },
    {
      "inputs": [
        {
          "internalType": "uint256",
          "name": "amount",
          "type": "uint256"
        }
      ],
      "name": "weiToAttoUSD",
      "outputs": [
        {
          "internalType": "uint256",
          "name": "",
          "type": "uint256"
        }
      ],
      "stateMutability": "view",
      "type": "function"
    }
  ],
  "bytecode": "0x608060405234801561001057600080fd5b506040516115f83803806115f883398101604081905261002f91610054565b600080546001600160a01b0319166001600160a01b0392909216919091179055610084565b60006020828403121561006657600080fd5b81516001600160a01b038116811461007d57600080fd5b9392505050565b611565806100936000396000f3fe608060405234801561001057600080fd5b50600436106100ea5760003560e01c8063c8a4271f1161008c578063d1467f8611610066578063d1467f86146101eb578063d1d0ee10146101fe578063d46da38714610211578063f48bda981461022457600080fd5b8063c8a4271f1461019a578063c9920ebe146101c5578063cd1e520f146101d857600080fd5b80636c01c874116100c85780636c01c8741461014c5780637a1ac61e1461015f578063a34e359614610174578063b740af791461018757600080fd5b80630502c675146100ef57806316e72abb1461012257806359e1777c14610139575b600080fd5b6101026100fd36600461112f565b61022d565b604080518251815260209283015192810192909252015b60405180910390f35b61012b60035481565b604051908152602001610119565b61012b610147366004611189565b61035d565b61012b61015a3660046111ab565b6103fa565b61017261016d3660046111d9565b61050b565b005b61012b61018236600461120e565b6106f1565b61017261019536600461125f565b610742565b6004546101ad906001600160a01b031681565b6040516001600160a01b039091168152602001610119565b6101026101d336600461112f565b6107f7565b6101726101e63660046111ab565b610853565b61012b6101f93660046111ab565b610930565b61017261020c36600461128b565b610a5d565b6000546101ad906001600160a01b031681565b61012b60025481565b6040805180820190915260008082526020820152600061028287878080601f016020809104026020016040519081016040528093929190818152602001838380828437600092019190915250610bb992505050565b905060008060058311156102985750600561029b565b50815b600085815260016020908152604080832060ff8516845290915290205467ffffffffffffffff1667fffffffffffffffe1981016102e25767ffffffffffffffff92506102f9565b6102f68767ffffffffffffffff83166112f0565b92505b604051806040016040528084815260200161034d8c8c8080601f0160208091040260200160405190810160405280939291908181526020018383808284376000920191909152508e92508d9150610cbc9050565b90529a9950505050505050505050565b60008062015180610376670de0b6b3a7640000856112f0565b6103809190611307565b90506000610396670de0b6b3a764000083611307565b905084811c60006103af670de0b6b3a7640000846112f0565b6103b99085611329565b90506000670de0b6b3a76400006103d383620100006112f0565b6103dd9190611307565b905060006103eb8285610d28565b96505050505050505b92915050565b60048054604080516350d25bcd60e01b8152905160009384936001600160a01b0316926350d25bcd92818301926020928290030181865afa158015610443573d6000803e3d6000fd5b505050506040513d601f19601f82011682018060405250810190610467919061133c565b90506000600460009054906101000a90046001600160a01b03166001600160a01b031663313ce5676040518163ffffffff1660e01b8152600401602060405180830381865afa1580156104be573d6000803e3d6000fd5b505050506040513d601f19601f820116820180604052508101906104e29190611355565b90506104ef81600a611456565b6104f983866112f0565b6105039190611307565b949350505050565b600054600160a81b900460ff161580801561053357506000546001600160a01b90910460ff16105b806105545750303b1580156105545750600054600160a01b900460ff166001145b6105bc5760405162461bcd60e51b815260206004820152602e60248201527f496e697469616c697a61626c653a20636f6e747261637420697320616c72656160448201526d191e481a5b9a5d1a585b1a5e995960921b60648201526084015b60405180910390fd5b6000805460ff60a01b1916600160a01b17905580156105e9576000805460ff60a81b1916600160a81b1790555b6000546040805163cdcd7fb560e01b8152905133926001600160a01b03169163cdcd7fb59160048083019260209291908290030181865afa158015610632573d6000803e3d6000fd5b505050506040513d601f19601f820116820180604052508101906106569190611465565b6001600160a01b03161461067c5760405162461bcd60e51b81526004016105b390611482565b600480546001600160a01b0319166001600160a01b038616179055600283905582821c60035580156106eb576000805460ff60a81b19169055604051600181527f7f26b83ff96e1f2b6a682f133852f6798a09c465da95921460cefb3847402498906020015b60405180910390a15b50505050565b60006107396101f986868080601f016020809104026020016040519081016040528093929190818152602001838380828437600092019190915250889250879150610cbc9050565b95945050505050565b6000546040805163cdcd7fb560e01b8152905133926001600160a01b03169163cdcd7fb59160048083019260209291908290030181865afa15801561078b573d6000803e3d6000fd5b505050506040513d601f19601f820116820180604052508101906107af9190611465565b6001600160a01b0316146107d55760405162461bcd60e51b81526004016105b390611482565b600480546001600160a01b0319166001600160a01b0392909216919091179055565b6040805180820190915260008082526020820152600061081a878787878761022d565b905060405180604001604052806108348360000151610930565b81526020016108468360200151610930565b9052979650505050505050565b60005460408051636a0dfac160e01b8152905133926001600160a01b031691636a0dfac19160048083019260209291908290030181865afa15801561089c573d6000803e3d6000fd5b505050506040513d601f19601f820116820180604052508101906108c09190611465565b6001600160a01b0316146109245760405162461bcd60e51b815260206004820152602560248201527f41636365737369626c653a2063616c6c6572206973206e6f742074686520666160448201526463746f727960d81b60648201526084016105b3565b61092d81611048565b50565b600067fffffffffffffffe198201610951575067ffffffffffffffff919050565b6000600460009054906101000a90046001600160a01b03166001600160a01b03166350d25bcd6040518163ffffffff1660e01b8152600401602060405180830381865afa1580156109a6573d6000803e3d6000fd5b505050506040513d601f19601f820116820180604052508101906109ca919061133c565b90506000600460009054906101000a90046001600160a01b03166001600160a01b031663313ce5676040518163ffffffff1660e01b8152600401602060405180830381865afa158015610a21573d6000803e3d6000fd5b505050506040513d601f19601f82011682018060405250810190610a459190611355565b905081610a5382600a611456565b6104f990866112f0565b60005460405162e4decd60e31b815260048101859052849133916001600160a01b0390911690630726f66890602401602060405180830381865afa158015610aa9573d6000803e3d6000fd5b505050506040513d601f19601f82011682018060405250810190610acd9190611465565b6001600160a01b031614610b2f5760405162461bcd60e51b8152602060048201526024808201527f4f776e61626c653a2063616c6c6572206973206e6f742074686520746c64206f6044820152633bb732b960e11b60648201526084016105b3565b60058360ff161115610b4057600080fd5b600084815260016020908152604080832060ff871680855290835292819020805467ffffffffffffffff191667ffffffffffffffff87169081179091558151888152928301939093528101919091527f2b60dfe49050ce9c23d540477cc3f3d85857400266dd2236add884e52d440760906060016106e2565b8051600090819081905b80821015610cb3576000858381518110610bdf57610bdf6114ce565b01602001516001600160f81b0319169050600160ff1b811015610c0e57610c076001846114e4565b9250610ca0565b600760fd1b6001600160f81b031982161015610c2f57610c076002846114e4565b600f60fc1b6001600160f81b031982161015610c5057610c076003846114e4565b601f60fb1b6001600160f81b031982161015610c7157610c076004846114e4565b603f60fa1b6001600160f81b031982161015610c9257610c076005846114e4565b610c9d6006846114e4565b92505b5082610cab816114f7565b935050610bc3565b50909392505050565b6000610ccb6276a700846114e4565b925042831115610cdd57506000610d21565b6000610ce98442611329565b90506000610cf96002548361035d565b90506003548110610d1a57600354610d119082611329565b92505050610d21565b6000925050505b9392505050565b60006001831615610d5b57670de0b6b3a7640000610d4e670de0ad151d094180846112f0565b610d589190611307565b91505b6002831615610d8c57670de0b6b3a7640000610d7f670de0a37699596800846112f0565b610d899190611307565b91505b6004831615610dbd57670de0b6b3a7640000610db0670de09039a5fa5100846112f0565b610dba9190611307565b91505b6008831615610dee57670de0b6b3a7640000610de1670de069c00f3e1200846112f0565b610deb9190611307565b91505b6010831615610e1f57670de0b6b3a7640000610e12670de01cce21c94400846112f0565b610e1c9190611307565b91505b6020831615610e5057670de0b6b3a7640000610e43670ddf82ef46ce1000846112f0565b610e4d9190611307565b91505b6040831615610e8157670de0b6b3a7640000610e74670dde4f458f8e8d80846112f0565b610e7e9190611307565b91505b6080831615610eb257670de0b6b3a7640000610ea5670ddbe84213d5f080846112f0565b610eaf9190611307565b91505b610100831615610ee457670de0b6b3a7640000610ed7670dd71b7aa6df5b80846112f0565b610ee19190611307565b91505b610200831615610f1657670de0b6b3a7640000610f09670dcd86e7f28cde00846112f0565b610f139190611307565b91505b610400831615610f4857670de0b6b3a7640000610f3b670dba71a3084ad680846112f0565b610f459190611307565b91505b610800831615610f7a57670de0b6b3a7640000610f6d670d94961b13dbde80846112f0565b610f779190611307565b91505b611000831615610fac57670de0b6b3a7640000610f9f670d4a171c35c98380846112f0565b610fa99190611307565b91505b612000831615610fde57670de0b6b3a7640000610fd1670cb9da519ccfb700846112f0565b610fdb9190611307565b91505b61400083161561101057670de0b6b3a7640000611003670bab76d59c18d680846112f0565b61100d9190611307565b91505b61800083161561104257670de0b6b3a76400006110356709d025defee4df80846112f0565b61103f9190611307565b91505b50919050565b60015b60058160ff16116110e257600082815260016020908152604080832060ff851680855290835292819020805467ffffffffffffffff191667ffffffffffffffff9081179091558151868152928301939093528101919091527f2b60dfe49050ce9c23d540477cc3f3d85857400266dd2236add884e52d4407609060600160405180910390a1806110da81611510565b91505061104b565b5050565b60008083601f8401126110f857600080fd5b50813567ffffffffffffffff81111561111057600080fd5b60208301915083602082850101111561112857600080fd5b9250929050565b60008060008060006080868803121561114757600080fd5b853567ffffffffffffffff81111561115e57600080fd5b61116a888289016110e6565b9099909850602088013597604081013597506060013595509350505050565b6000806040838503121561119c57600080fd5b50508035926020909101359150565b6000602082840312156111bd57600080fd5b5035919050565b6001600160a01b038116811461092d57600080fd5b6000806000606084860312156111ee57600080fd5b83356111f9816111c4565b95602085013595506040909401359392505050565b6000806000806060858703121561122457600080fd5b843567ffffffffffffffff81111561123b57600080fd5b611247878288016110e6565b90989097506020870135966040013595509350505050565b60006020828403121561127157600080fd5b8135610d21816111c4565b60ff8116811461092d57600080fd5b6000806000606084860312156112a057600080fd5b8335925060208401356112b28161127c565b9150604084013567ffffffffffffffff811681146112cf57600080fd5b809150509250925092565b634e487b7160e01b600052601160045260246000fd5b80820281158282048414176103f4576103f46112da565b60008261132457634e487b7160e01b600052601260045260246000fd5b500490565b818103818111156103f4576103f46112da565b60006020828403121561134e57600080fd5b5051919050565b60006020828403121561136757600080fd5b8151610d218161127c565b600181815b808511156113ad578160001904821115611393576113936112da565b808516156113a057918102915b93841c9390800290611377565b509250929050565b6000826113c4575060016103f4565b816113d1575060006103f4565b81600181146113e757600281146113f15761140d565b60019150506103f4565b60ff841115611402576114026112da565b50506001821b6103f4565b5060208310610133831016604e8410600b8410161715611430575081810a6103f4565b61143a8383611372565b806000190482111561144e5761144e6112da565b029392505050565b6000610d2160ff8416836113b5565b60006020828403121561147757600080fd5b8151610d21816111c4565b6020808252602c908201527f41636365737369626c653a2063616c6c6572206973206e6f742074686520706c60408201526b30ba3337b9369030b236b4b760a11b606082015260800190565b634e487b7160e01b600052603260045260246000fd5b808201808211156103f4576103f46112da565b600060018201611509576115096112da565b5060010190565b600060ff821660ff8103611526576115266112da565b6001019291505056fea26469706673582212202c8d5f56131502ec9ab3f9ae30fe536f5cb9d0618b682af07b9bc6943ed0205664736f6c63430008120033",
  "linkReferences": {},
  "deployedLinkReferences": {}
}