{
  "_format": "hh-sol-artifact-1",
  "contractName": "ReferralHub",
  "sourceName": "contracts/referral/ReferralHub.sol",
  "abi": [
    {
      "inputs": [
        {
          "internalType": "contract ISANN",
          "name": "_sann",
          "type": "address"
        }
      ],
      "stateMutability": "nonpayable",
      "type": "constructor"
    },
    {
      "anonymous": false,
      "inputs": [
        {
          "indexed": true,
          "internalType": "address",
          "name": "addr",
          "type": "address"
        },
        {
          "indexed": false,
          "internalType": "uint256",
          "name": "amount",
          "type": "uint256"
        }
      ],
      "name": "DepositRecord",
      "type": "event"
    },
    {
      "anonymous": false,
      "inputs": [
        {
          "indexed": false,
          "internalType": "uint8",
          "name": "version",
          "type": "uint8"
        }
      ],
      "name": "Initialized",
      "type": "event"
    },
    {
      "anonymous": false,
      "inputs": [
        {
          "indexed": false,
          "internalType": "uint256",
          "name": "identifier",
          "type": "uint256"
        },
        {
          "indexed": true,
          "internalType": "address",
          "name": "addr",
          "type": "address"
        }
      ],
      "name": "NewReferralRecord",
      "type": "event"
    },
    {
      "anonymous": false,
      "inputs": [
        {
          "indexed": false,
          "internalType": "uint256",
          "name": "identifier",
          "type": "uint256"
        },
        {
          "indexed": false,
          "internalType": "uint256",
          "name": "level",
          "type": "uint256"
        },
        {
          "indexed": false,
          "internalType": "uint256",
          "name": "minimumCount",
          "type": "uint256"
        },
        {
          "indexed": false,
          "internalType": "uint256",
          "name": "referrerRate",
          "type": "uint256"
        },
        {
          "indexed": false,
          "internalType": "uint256",
          "name": "refereeRate",
          "type": "uint256"
        }
      ],
      "name": "SetComissionChart",
      "type": "event"
    },
    {
      "anonymous": false,
      "inputs": [
        {
          "indexed": true,
          "internalType": "address",
          "name": "addr",
          "type": "address"
        },
        {
          "indexed": false,
          "internalType": "uint256",
          "name": "amount",
          "type": "uint256"
        }
      ],
      "name": "WithdrawRecord",
      "type": "event"
    },
    {
      "inputs": [
        {
          "internalType": "uint256",
          "name": "_identifier",
          "type": "uint256"
        },
        {
          "internalType": "string",
          "name": "_name",
          "type": "string"
        },
        {
          "internalType": "address",
          "name": "_buyer",
          "type": "address"
        },
        {
          "internalType": "uint256",
          "name": "_duration",
          "type": "uint256"
        },
        {
          "internalType": "uint256",
          "name": "_cost",
          "type": "uint256"
        },
        {
          "internalType": "uint256",
          "name": "_revenue",
          "type": "uint256"
        },
        {
          "internalType": "uint256",
          "name": "_platformFee",
          "type": "uint256"
        },
        {
          "internalType": "bytes",
          "name": "_extraData",
          "type": "bytes"
        }
      ],
      "name": "calcRenewReward",
      "outputs": [
        {
          "components": [
            {
              "internalType": "address",
              "name": "rewardReceiver",
              "type": "address"
            },
            {
              "internalType": "uint256",
              "name": "rewardAmount",
              "type": "uint256"
            }
          ],
          "internalType": "struct IRenewRewardHook.RenewReward[]",
          "name": "rewards",
          "type": "tuple[]"
        }
      ],
      "stateMutability": "view",
      "type": "function"
    },
    {
      "inputs": [
        {
          "internalType": "uint256",
          "name": "_identifier",
          "type": "uint256"
        },
        {
          "internalType": "string",
          "name": "_name",
          "type": "string"
        },
        {
          "internalType": "address",
          "name": "_buyer",
          "type": "address"
        },
        {
          "internalType": "uint256",
          "name": "_duration",
          "type": "uint256"
        },
        {
          "internalType": "uint256",
          "name": "_cost",
          "type": "uint256"
        },
        {
          "internalType": "uint256",
          "name": "_revenue",
          "type": "uint256"
        },
        {
          "internalType": "uint256",
          "name": "_platformFee",
          "type": "uint256"
        },
        {
          "internalType": "bytes",
          "name": "_extraData",
          "type": "bytes"
        }
      ],
      "name": "calcReward",
      "outputs": [
        {
          "components": [
            {
              "internalType": "address",
              "name": "rewardReceiver",
              "type": "address"
            },
            {
              "internalType": "uint256",
              "name": "rewardAmount",
              "type": "uint256"
            }
          ],
          "internalType": "struct IRewardHook.Reward[]",
          "name": "rewards",
          "type": "tuple[]"
        }
      ],
      "stateMutability": "view",
      "type": "function"
    },
    {
      "inputs": [
        {
          "internalType": "uint256",
          "name": "",
          "type": "uint256"
        },
        {
          "internalType": "uint256",
          "name": "",
          "type": "uint256"
        }
      ],
      "name": "comissionCharts",
      "outputs": [
        {
          "internalType": "uint256",
          "name": "minimumReferralCount",
          "type": "uint256"
        },
        {
          "internalType": "uint256",
          "name": "referrerRate",
          "type": "uint256"
        },
        {
          "internalType": "uint256",
          "name": "refereeRate",
          "type": "uint256"
        },
        {
          "internalType": "bool",
          "name": "isValid",
          "type": "bool"
        }
      ],
      "stateMutability": "view",
      "type": "function"
    },
    {
      "inputs": [
        {
          "internalType": "uint256",
          "name": "identifier",
          "type": "uint256"
        },
        {
          "internalType": "uint256",
          "name": "price",
          "type": "uint256"
        },
        {
          "internalType": "address",
          "name": "addr",
          "type": "address"
        }
      ],
      "name": "getReferralCommisionFee",
      "outputs": [
        {
          "internalType": "uint256",
          "name": "",
          "type": "uint256"
        },
        {
          "internalType": "uint256",
          "name": "",
          "type": "uint256"
        }
      ],
      "stateMutability": "view",
      "type": "function"
    },
    {
      "inputs": [
        {
          "internalType": "uint256",
          "name": "identifier",
          "type": "uint256"
        },
        {
          "internalType": "address",
          "name": "addr",
          "type": "address"
        }
      ],
      "name": "getReferralDetails",
      "outputs": [
        {
          "internalType": "uint256",
          "name": "",
          "type": "uint256"
        },
        {
          "internalType": "uint256",
          "name": "",
          "type": "uint256"
        },
        {
          "internalType": "uint256",
          "name": "",
          "type": "uint256"
        },
        {
          "internalType": "uint256",
          "name": "",
          "type": "uint256"
        }
      ],
      "stateMutability": "view",
      "type": "function"
    },
    {
      "inputs": [
        {
          "internalType": "contract IPriceOracle",
          "name": "_priceOracle",
          "type": "address"
        }
      ],
      "name": "initialize",
      "outputs": [],
      "stateMutability": "nonpayable",
      "type": "function"
    },
    {
      "inputs": [],
      "name": "priceOracle",
      "outputs": [
        {
          "internalType": "contract IPriceOracle",
          "name": "",
          "type": "address"
        }
      ],
      "stateMutability": "view",
      "type": "function"
    },
    {
      "inputs": [
        {
          "internalType": "address",
          "name": "",
          "type": "address"
        }
      ],
      "name": "referralBalance",
      "outputs": [
        {
          "internalType": "uint256",
          "name": "",
          "type": "uint256"
        }
      ],
      "stateMutability": "view",
      "type": "function"
    },
    {
      "inputs": [
        {
          "internalType": "uint256",
          "name": "",
          "type": "uint256"
        },
        {
          "internalType": "address",
          "name": "",
          "type": "address"
        }
      ],
      "name": "referralCounts",
      "outputs": [
        {
          "internalType": "uint256",
          "name": "",
          "type": "uint256"
        }
      ],
      "stateMutability": "view",
      "type": "function"
    },
    {
      "inputs": [
        {
          "internalType": "uint256",
          "name": "_identifier",
          "type": "uint256"
        },
        {
          "internalType": "string",
          "name": "_name",
          "type": "string"
        },
        {
          "internalType": "address",
          "name": "_buyer",
          "type": "address"
        },
        {
          "internalType": "uint256",
          "name": "_duration",
          "type": "uint256"
        },
        {
          "internalType": "uint256",
          "name": "_cost",
          "type": "uint256"
        },
        {
          "internalType": "uint256",
          "name": "_revenue",
          "type": "uint256"
        },
        {
          "internalType": "uint256",
          "name": "_platformFee",
          "type": "uint256"
        },
        {
          "internalType": "bytes",
          "name": "_extraData",
          "type": "bytes"
        }
      ],
      "name": "reward",
      "outputs": [],
      "stateMutability": "payable",
      "type": "function"
    },
    {
      "inputs": [
        {
          "internalType": "uint256",
          "name": "_identifier",
          "type": "uint256"
        },
        {
          "internalType": "string",
          "name": "_name",
          "type": "string"
        },
        {
          "internalType": "address",
          "name": "_buyer",
          "type": "address"
        },
        {
          "internalType": "uint256",
          "name": "_duration",
          "type": "uint256"
        },
        {
          "internalType": "uint256",
          "name": "_cost",
          "type": "uint256"
        },
        {
          "internalType": "uint256",
          "name": "_revenue",
          "type": "uint256"
        },
        {
          "internalType": "uint256",
          "name": "_platformFee",
          "type": "uint256"
        },
        {
          "internalType": "bytes",
          "name": "_extraData",
          "type": "bytes"
        }
      ],
      "name": "rewardRenew",
      "outputs": [],
      "stateMutability": "payable",
      "type": "function"
    },
    {
      "inputs": [],
      "name": "sann",
      "outputs": [
        {
          "internalType": "contract ISANN",
          "name": "",
          "type": "address"
        }
      ],
      "stateMutability": "view",
      "type": "function"
    },
    {
      "inputs": [
        {
          "internalType": "uint256",
          "name": "identifier",
          "type": "uint256"
        },
        {
          "internalType": "uint256",
          "name": "level",
          "type": "uint256"
        },
        {
          "internalType": "uint256",
          "name": "minimumCount",
          "type": "uint256"
        },
        {
          "internalType": "uint256",
          "name": "referrerRate",
          "type": "uint256"
        },
        {
          "internalType": "uint256",
          "name": "refereeRate",
          "type": "uint256"
        }
      ],
      "name": "setComissionChart",
      "outputs": [],
      "stateMutability": "nonpayable",
      "type": "function"
    },
    {
      "inputs": [
        {
          "internalType": "contract IPriceOracle",
          "name": "_priceOracle",
          "type": "address"
        }
      ],
      "name": "setPriceOracle",
      "outputs": [],
      "stateMutability": "nonpayable",
      "type": "function"
    },
    {
      "inputs": [],
      "name": "withdraw",
      "outputs": [],
      "stateMutability": "nonpayable",
      "type": "function"
    }
  ],
  "bytecode": "0x608060405234801561001057600080fd5b5060405161192338038061192383398101604081905261002f91610061565b6001600081905580546001600160a01b03909216620100000262010000600160b01b0319909216919091179055610091565b60006020828403121561007357600080fd5b81516001600160a01b038116811461008a57600080fd5b9392505050565b611883806100a06000396000f3fe6080604052600436106100e85760003560e01c8063530e784f1161008a57806376b0bb7d1161005957806376b0bb7d146101d0578063c4d66de814610312578063d46da38714610332578063fe9ebef61461035857600080fd5b8063530e784f1461025f578063563bfecc1461027f578063658303b9146102ba5780636b2d538e146102f257600080fd5b806322a6f8db116100c657806322a6f8db146101d05780632630c12f146101e55780633ccfd60b1461021d57806347b1ba8c1461023257600080fd5b806305132e97146100ed57806312d2fbf4146101635780631e8a33c0146101a3575b600080fd5b3480156100f957600080fd5b5061013c6101083660046112e5565b6002602081815260009384526040808520909152918352912080546001820154928201546003909201549092919060ff1684565b60408051948552602085019390935291830152151560608201526080015b60405180910390f35b34801561016f57600080fd5b5061018361017e36600461131f565b61038d565b60408051948552602085019390935291830152606082015260800161015a565b3480156101af57600080fd5b506101c36101be366004611398565b6103c4565b60405161015a9190611450565b6101e36101de366004611398565b6103e9565b005b3480156101f157600080fd5b50600554610205906001600160a01b031681565b6040516001600160a01b03909116815260200161015a565b34801561022957600080fd5b506101e3610514565b34801561023e57600080fd5b5061025261024d366004611398565b6105f7565b60405161015a91906114b0565b34801561026b57600080fd5b506101e361027a366004611503565b61074d565b34801561028b57600080fd5b506102ac61029a366004611503565b60046020526000908152604090205481565b60405190815260200161015a565b3480156102c657600080fd5b506102ac6102d536600461131f565b600360209081526000928352604080842090915290825290205481565b3480156102fe57600080fd5b506101e361030d366004611527565b61085a565b34801561031e57600080fd5b506101e361032d366004611503565b610a93565b34801561033e57600080fd5b50600154610205906201000090046001600160a01b031681565b34801561036457600080fd5b50610378610373366004611562565b610cac565b6040805192835260208301919091520161015a565b600080600080600061039f8787610d15565b905060008060006103b08a85610d3f565b959c919b5099509397509295505050505050565b60606103d88b8b8b8b8b8b8b8b8b8b610dea565b90505b9a9950505050505050505050565b600154604080517ff3400419000000000000000000000000000000000000000000000000000000008152905133926201000090046001600160a01b03169163f34004199160048083019260209291908290030181865afa158015610451573d6000803e3d6000fd5b505050506040513d601f19601f82011682018060405250810190610475919061159b565b6001600160a01b0316146104f65760405162461bcd60e51b815260206004820152602c60248201527f41636365737369626c653a2063616c6c6572206973206e6f742074686520746c60448201527f6420636f6e74726f6c6c6572000000000000000000000000000000000000000060648201526084015b60405180910390fd5b6105088a8a8a8a8a8a8a8a8a8a610fba565b50505050505050505050565b61051c611212565b33600090815260046020526040902054806105795760405162461bcd60e51b815260206004820152601460248201527f496e73756666696369656e742062616c616e636500000000000000000000000060448201526064016104ed565b336000818152600460205260408082208290555183156108fc0291849190818181858888f193505050501580156105b4573d6000803e3d6000fd5b5060405181815233907f1444cc8f0615b3e96dbcc45a6265e68e309db2513e9276fd9dcae4f2e8b57ccf9060200160405180910390a2506105f56001600055565b565b6060600061060d8c8c8c8c8c8c8c8c8c8c610dea565b60408051600280825260608201909252919250816020015b604080518082019091526000808252602082015281526020019060019003908161062557905050915060405180604001604052808260008151811061066c5761066c6115ce565b6020026020010151600001516001600160a01b0316815260200182600081518110610699576106996115ce565b602002602001015160200151815250826000815181106106bb576106bb6115ce565b60200260200101819052506040518060400160405280826001815181106106e4576106e46115ce565b6020026020010151600001516001600160a01b0316815260200182600181518110610711576107116115ce565b60200260200101516020015181525082600181518110610733576107336115ce565b6020026020010181905250509a9950505050505050505050565b6001546040805163cdcd7fb560e01b8152905133926201000090046001600160a01b03169163cdcd7fb59160048083019260209291908290030181865afa15801561079c573d6000803e3d6000fd5b505050506040513d601f19601f820116820180604052508101906107c0919061159b565b6001600160a01b03161461082b5760405162461bcd60e51b815260206004820152602c60248201527f41636365737369626c653a2063616c6c6572206973206e6f742074686520706c60448201526b30ba3337b9369030b236b4b760a11b60648201526084016104ed565b6005805473ffffffffffffffffffffffffffffffffffffffff19166001600160a01b0392909216919091179055565b6001546040517f0726f66800000000000000000000000000000000000000000000000000000000815286913391620100009091046001600160a01b031690630726f668906108b090859060040190815260200190565b602060405180830381865afa1580156108cd573d6000803e3d6000fd5b505050506040513d601f19601f820116820180604052508101906108f1919061159b565b6001600160a01b03161461096c5760405162461bcd60e51b8152602060048201526024808201527f4f776e61626c653a2063616c6c6572206973206e6f742074686520746c64206f60448201527f776e65720000000000000000000000000000000000000000000000000000000060648201526084016104ed565b846001811015801561097f5750600a8111155b6109cb5760405162461bcd60e51b815260206004820152600d60248201527f496e76616c6964206c6576656c0000000000000000000000000000000000000060448201526064016104ed565b60408051608081018252868152602080820187815282840187815260016060850181815260008e815260028087528882208f8352909652879020955186559251908501555191830191909155516003909101805491151560ff19909216919091179055517fc044e617719157f617f169cfc6ddd5a7037e16cc94e8d2a1fe2ec7ca760ed87d90610a829089908990899089908990948552602085019390935260408401919091526060830152608082015260a00190565b60405180910390a150505050505050565b600154610100900460ff1615808015610ab057506001805460ff16105b80610ac95750303b158015610ac957506001805460ff16145b610b3b5760405162461bcd60e51b815260206004820152602e60248201527f496e697469616c697a61626c653a20636f6e747261637420697320616c72656160448201527f647920696e697469616c697a656400000000000000000000000000000000000060648201526084016104ed565b6001805460ff1916811790558015610b5d576001805461ff0019166101001790555b6001546040805163cdcd7fb560e01b8152905133926201000090046001600160a01b03169163cdcd7fb59160048083019260209291908290030181865afa158015610bac573d6000803e3d6000fd5b505050506040513d601f19601f82011682018060405250810190610bd0919061159b565b6001600160a01b031614610c3b5760405162461bcd60e51b815260206004820152602c60248201527f41636365737369626c653a2063616c6c6572206973206e6f742074686520706c60448201526b30ba3337b9369030b236b4b760a11b60648201526084016104ed565b6005805473ffffffffffffffffffffffffffffffffffffffff19166001600160a01b0384161790558015610ca8576001805461ff00191681556040519081527f7f26b83ff96e1f2b6a682f133852f6798a09c465da95921460cefb38474024989060200160405180910390a15b5050565b6000808080600181610cbe8988610d15565b9050610cca8982610d3f565b9095509350915060006064610cdf868b6115fa565b610ce99190611611565b905060006064610cf9868c6115fa565b610d039190611611565b919b919a509098505050505050505050565b60008281526003602090815260408083206001600160a01b03851684529091529020545b92915050565b6000808060018180805b600089815260026020908152604080832087845290915290206003015460ff168015610d8e575060008981526002602090815260408083208784529091529020548810155b8015610d9b5750600a8411155b15610ddd575050506000868152600260208181526040808420858552909152909120600180820154919092015490918390610dd69082611633565b9350610d49565b9891975095509350505050565b6040805160028082526060828101909352816020015b6040805180820190915260008082526020820152815260200190600190039081610e00579050506040805160208101909152600081529091506000839003610e4857506103db565b6000610e56848601866116fc565b9050806060015151600003610e6c5750506103db565b8060600151806020019051810190610e8491906117d5565b6005546040517fd1467f86000000000000000000000000000000000000000000000000000000008152600481018b905291935060009250829182916001600160a01b03169063d1467f8690602401602060405180830381865afa158015610eef573d6000803e3d6000fd5b505050506040513d601f19601f82011682018060405250810190610f139190611821565b9050610f248f828660000151610cac565b8093508194505050604051806040016040528085600001516001600160a01b031681526020018481525085600081518110610f6157610f616115ce565b602002602001018190525060405180604001604052808d6001600160a01b031681526020018381525085600181518110610f9d57610f9d6115ce565b6020026020010181905250505050509a9950505050505050505050565b6000610fce8b8b8b8b8b8b8b8b8b8b6103c4565b905060008082600081518110610fe657610fe66115ce565b602002602001015160200151915082600181518110611007576110076115ce565b602002602001015160200151905061103d8d8460008151811061102c5761102c6115ce565b60200260200101516000015161126b565b811561109c5781600460008560008151811061105b5761105b6115ce565b6020026020010151600001516001600160a01b03166001600160a01b0316815260200190815260200160002060008282546110969190611633565b90915550505b80156110fb578060046000856001815181106110ba576110ba6115ce565b6020026020010151600001516001600160a01b03166001600160a01b0316815260200190815260200160002060008282546110f59190611633565b90915550505b60006111078284611633565b9050803410156111595760405162461bcd60e51b815260206004820152601060248201527f496e73756666696369656e74204665650000000000000000000000000000000060448201526064016104ed565b803411156112025760003361116e833461183a565b604051600081818185875af1925050503d80600081146111aa576040519150601f19603f3d011682016040523d82523d6000602084013e6111af565b606091505b50509050806112005760405162461bcd60e51b815260206004820152601460248201527f4661696c656420746f2073656e6420457468657200000000000000000000000060448201526064016104ed565b505b5050505050505050505050505050565b6002600054036112645760405162461bcd60e51b815260206004820152601f60248201527f5265656e7472616e637947756172643a207265656e7472616e742063616c6c0060448201526064016104ed565b6002600055565b60008281526003602090815260408083206001600160a01b0385168452909152812080546001929061129e908490611633565b90915550506040518281526001600160a01b038216907f42132e5fd9f1c00789f8d205ef64b1b1adb38cebb0a0d0f3cdc1a4e9bd38d6089060200160405180910390a25050565b600080604083850312156112f857600080fd5b50508035926020909101359150565b6001600160a01b038116811461131c57600080fd5b50565b6000806040838503121561133257600080fd5b82359150602083013561134481611307565b809150509250929050565b60008083601f84011261136157600080fd5b50813567ffffffffffffffff81111561137957600080fd5b60208301915083602082850101111561139157600080fd5b9250929050565b6000806000806000806000806000806101008b8d0312156113b857600080fd5b8a35995060208b013567ffffffffffffffff808211156113d757600080fd5b6113e38e838f0161134f565b909b50995060408d013591506113f882611307565b90975060608c0135965060808c0135955060a08c0135945060c08c0135935060e08c0135908082111561142a57600080fd5b506114378d828e0161134f565b915080935050809150509295989b9194979a5092959850565b602080825282518282018190526000919060409081850190868401855b828110156114a35761149384835180516001600160a01b03168252602090810151910152565b928401929085019060010161146d565b5091979650505050505050565b602080825282518282018190526000919060409081850190868401855b828110156114a3576114f384835180516001600160a01b03168252602090810151910152565b92840192908501906001016114cd565b60006020828403121561151557600080fd5b813561152081611307565b9392505050565b600080600080600060a0868803121561153f57600080fd5b505083359560208501359550604085013594606081013594506080013592509050565b60008060006060848603121561157757600080fd5b8335925060208401359150604084013561159081611307565b809150509250925092565b6000602082840312156115ad57600080fd5b815161152081611307565b634e487b7160e01b600052604160045260246000fd5b634e487b7160e01b600052603260045260246000fd5b634e487b7160e01b600052601160045260246000fd5b8082028115828204841417610d3957610d396115e4565b60008261162e57634e487b7160e01b600052601260045260246000fd5b500490565b80820180821115610d3957610d396115e4565b6040516080810167ffffffffffffffff81118282101715611669576116696115b8565b60405290565b600082601f83011261168057600080fd5b813567ffffffffffffffff8082111561169b5761169b6115b8565b604051601f8301601f19908116603f011681019082821181831017156116c3576116c36115b8565b816040528381528660208588010111156116dc57600080fd5b836020870160208301376000602085830101528094505050505092915050565b60006020828403121561170e57600080fd5b813567ffffffffffffffff8082111561172657600080fd5b908301906080828603121561173a57600080fd5b611742611646565b82358281111561175157600080fd5b61175d8782860161166f565b82525060208301358281111561177257600080fd5b61177e8782860161166f565b60208301525060408301358281111561179657600080fd5b6117a28782860161166f565b6040830152506060830135828111156117ba57600080fd5b6117c68782860161166f565b60608301525095945050505050565b6000602082840312156117e757600080fd5b6040516020810181811067ffffffffffffffff8211171561180a5761180a6115b8565b604052825161181881611307565b81529392505050565b60006020828403121561183357600080fd5b5051919050565b81810381811115610d3957610d396115e456fea26469706673582212209edef3c4b1469592d3c0f25a4de23b15d78c097fd26be749d5de0cfde265978964736f6c63430008120033",
  "linkReferences": {},
  "deployedLinkReferences": {}
}