{
  "_format": "hh-sol-artifact-1",
  "contractName": "ReferralHub",
  "sourceName": "contracts/referral/ReferralHub.sol",
  "abi": [
    {
      "inputs": [
        {
          "internalType": "contract ISANN",
          "name": "_sann",
          "type": "address"
        }
      ],
      "stateMutability": "nonpayable",
      "type": "constructor"
    },
    {
      "anonymous": false,
      "inputs": [
        {
          "indexed": true,
          "internalType": "address",
          "name": "addr",
          "type": "address"
        },
        {
          "indexed": false,
          "internalType": "uint256",
          "name": "amount",
          "type": "uint256"
        }
      ],
      "name": "DepositRecord",
      "type": "event"
    },
    {
      "anonymous": false,
      "inputs": [
        {
          "indexed": false,
          "internalType": "uint8",
          "name": "version",
          "type": "uint8"
        }
      ],
      "name": "Initialized",
      "type": "event"
    },
    {
      "anonymous": false,
      "inputs": [
        {
          "indexed": false,
          "internalType": "uint256",
          "name": "identifier",
          "type": "uint256"
        },
        {
          "indexed": true,
          "internalType": "address",
          "name": "addr",
          "type": "address"
        }
      ],
      "name": "NewReferralRecord",
      "type": "event"
    },
    {
      "anonymous": false,
      "inputs": [
        {
          "indexed": false,
          "internalType": "uint256",
          "name": "identifier",
          "type": "uint256"
        },
        {
          "indexed": false,
          "internalType": "uint256",
          "name": "level",
          "type": "uint256"
        },
        {
          "indexed": false,
          "internalType": "uint256",
          "name": "minimumCount",
          "type": "uint256"
        },
        {
          "indexed": false,
          "internalType": "uint256",
          "name": "referrerRate",
          "type": "uint256"
        },
        {
          "indexed": false,
          "internalType": "uint256",
          "name": "refereeRate",
          "type": "uint256"
        }
      ],
      "name": "SetComissionChart",
      "type": "event"
    },
    {
      "anonymous": false,
      "inputs": [
        {
          "indexed": true,
          "internalType": "address",
          "name": "addr",
          "type": "address"
        },
        {
          "indexed": false,
          "internalType": "uint256",
          "name": "amount",
          "type": "uint256"
        }
      ],
      "name": "WithdrawRecord",
      "type": "event"
    },
    {
      "inputs": [
        {
          "internalType": "uint256",
          "name": "_identifier",
          "type": "uint256"
        },
        {
          "internalType": "string",
          "name": "_name",
          "type": "string"
        },
        {
          "internalType": "address",
          "name": "_buyer",
          "type": "address"
        },
        {
          "internalType": "uint256",
          "name": "_duration",
          "type": "uint256"
        },
        {
          "internalType": "uint256",
          "name": "_cost",
          "type": "uint256"
        },
        {
          "internalType": "uint256",
          "name": "_revenue",
          "type": "uint256"
        },
        {
          "internalType": "uint256",
          "name": "_platformFee",
          "type": "uint256"
        },
        {
          "internalType": "bytes",
          "name": "_extraData",
          "type": "bytes"
        }
      ],
      "name": "calcRenewReward",
      "outputs": [
        {
          "components": [
            {
              "internalType": "address",
              "name": "rewardReceiver",
              "type": "address"
            },
            {
              "internalType": "uint256",
              "name": "rewardAmount",
              "type": "uint256"
            }
          ],
          "internalType": "struct IRenewRewardHook.RenewReward[]",
          "name": "rewards",
          "type": "tuple[]"
        }
      ],
      "stateMutability": "view",
      "type": "function"
    },
    {
      "inputs": [
        {
          "internalType": "uint256",
          "name": "_identifier",
          "type": "uint256"
        },
        {
          "internalType": "string",
          "name": "_name",
          "type": "string"
        },
        {
          "internalType": "address",
          "name": "_buyer",
          "type": "address"
        },
        {
          "internalType": "uint256",
          "name": "_duration",
          "type": "uint256"
        },
        {
          "internalType": "uint256",
          "name": "_cost",
          "type": "uint256"
        },
        {
          "internalType": "uint256",
          "name": "_revenue",
          "type": "uint256"
        },
        {
          "internalType": "uint256",
          "name": "_platformFee",
          "type": "uint256"
        },
        {
          "internalType": "bytes",
          "name": "_extraData",
          "type": "bytes"
        }
      ],
      "name": "calcReward",
      "outputs": [
        {
          "components": [
            {
              "internalType": "address",
              "name": "rewardReceiver",
              "type": "address"
            },
            {
              "internalType": "uint256",
              "name": "rewardAmount",
              "type": "uint256"
            }
          ],
          "internalType": "struct IRewardHook.Reward[]",
          "name": "rewards",
          "type": "tuple[]"
        }
      ],
      "stateMutability": "view",
      "type": "function"
    },
    {
      "inputs": [
        {
          "internalType": "uint256",
          "name": "",
          "type": "uint256"
        },
        {
          "internalType": "uint256",
          "name": "",
          "type": "uint256"
        }
      ],
      "name": "comissionCharts",
      "outputs": [
        {
          "internalType": "uint256",
          "name": "minimumReferralCount",
          "type": "uint256"
        },
        {
          "internalType": "uint256",
          "name": "referrerRate",
          "type": "uint256"
        },
        {
          "internalType": "uint256",
          "name": "refereeRate",
          "type": "uint256"
        },
        {
          "internalType": "bool",
          "name": "isValid",
          "type": "bool"
        }
      ],
      "stateMutability": "view",
      "type": "function"
    },
    {
      "inputs": [
        {
          "internalType": "uint256",
          "name": "identifier",
          "type": "uint256"
        },
        {
          "internalType": "uint256",
          "name": "price",
          "type": "uint256"
        },
        {
          "internalType": "address",
          "name": "addr",
          "type": "address"
        }
      ],
      "name": "getReferralCommisionFee",
      "outputs": [
        {
          "internalType": "uint256",
          "name": "",
          "type": "uint256"
        },
        {
          "internalType": "uint256",
          "name": "",
          "type": "uint256"
        }
      ],
      "stateMutability": "view",
      "type": "function"
    },
    {
      "inputs": [
        {
          "internalType": "uint256",
          "name": "identifier",
          "type": "uint256"
        },
        {
          "internalType": "address",
          "name": "addr",
          "type": "address"
        }
      ],
      "name": "getReferralDetails",
      "outputs": [
        {
          "internalType": "uint256",
          "name": "",
          "type": "uint256"
        },
        {
          "internalType": "uint256",
          "name": "",
          "type": "uint256"
        },
        {
          "internalType": "uint256",
          "name": "",
          "type": "uint256"
        },
        {
          "internalType": "uint256",
          "name": "",
          "type": "uint256"
        }
      ],
      "stateMutability": "view",
      "type": "function"
    },
    {
      "inputs": [
        {
          "internalType": "contract IPriceOracle",
          "name": "_priceOracle",
          "type": "address"
        }
      ],
      "name": "initialize",
      "outputs": [],
      "stateMutability": "nonpayable",
      "type": "function"
    },
    {
      "inputs": [],
      "name": "priceOracle",
      "outputs": [
        {
          "internalType": "contract IPriceOracle",
          "name": "",
          "type": "address"
        }
      ],
      "stateMutability": "view",
      "type": "function"
    },
    {
      "inputs": [
        {
          "internalType": "address",
          "name": "",
          "type": "address"
        }
      ],
      "name": "referralBalance",
      "outputs": [
        {
          "internalType": "uint256",
          "name": "",
          "type": "uint256"
        }
      ],
      "stateMutability": "view",
      "type": "function"
    },
    {
      "inputs": [
        {
          "internalType": "uint256",
          "name": "",
          "type": "uint256"
        },
        {
          "internalType": "address",
          "name": "",
          "type": "address"
        }
      ],
      "name": "referralCounts",
      "outputs": [
        {
          "internalType": "uint256",
          "name": "",
          "type": "uint256"
        }
      ],
      "stateMutability": "view",
      "type": "function"
    },
    {
      "inputs": [
        {
          "internalType": "uint256",
          "name": "_identifier",
          "type": "uint256"
        },
        {
          "internalType": "string",
          "name": "_name",
          "type": "string"
        },
        {
          "internalType": "address",
          "name": "_buyer",
          "type": "address"
        },
        {
          "internalType": "uint256",
          "name": "_duration",
          "type": "uint256"
        },
        {
          "internalType": "uint256",
          "name": "_cost",
          "type": "uint256"
        },
        {
          "internalType": "uint256",
          "name": "_revenue",
          "type": "uint256"
        },
        {
          "internalType": "uint256",
          "name": "_platformFee",
          "type": "uint256"
        },
        {
          "internalType": "bytes",
          "name": "_extraData",
          "type": "bytes"
        }
      ],
      "name": "reward",
      "outputs": [],
      "stateMutability": "payable",
      "type": "function"
    },
    {
      "inputs": [
        {
          "internalType": "uint256",
          "name": "_identifier",
          "type": "uint256"
        },
        {
          "internalType": "string",
          "name": "_name",
          "type": "string"
        },
        {
          "internalType": "address",
          "name": "_buyer",
          "type": "address"
        },
        {
          "internalType": "uint256",
          "name": "_duration",
          "type": "uint256"
        },
        {
          "internalType": "uint256",
          "name": "_cost",
          "type": "uint256"
        },
        {
          "internalType": "uint256",
          "name": "_revenue",
          "type": "uint256"
        },
        {
          "internalType": "uint256",
          "name": "_platformFee",
          "type": "uint256"
        },
        {
          "internalType": "bytes",
          "name": "_extraData",
          "type": "bytes"
        }
      ],
      "name": "rewardRenew",
      "outputs": [],
      "stateMutability": "payable",
      "type": "function"
    },
    {
      "inputs": [],
      "name": "sann",
      "outputs": [
        {
          "internalType": "contract ISANN",
          "name": "",
          "type": "address"
        }
      ],
      "stateMutability": "view",
      "type": "function"
    },
    {
      "inputs": [
        {
          "internalType": "uint256",
          "name": "identifier",
          "type": "uint256"
        },
        {
          "internalType": "uint256",
          "name": "level",
          "type": "uint256"
        },
        {
          "internalType": "uint256",
          "name": "minimumCount",
          "type": "uint256"
        },
        {
          "internalType": "uint256",
          "name": "referrerRate",
          "type": "uint256"
        },
        {
          "internalType": "uint256",
          "name": "refereeRate",
          "type": "uint256"
        }
      ],
      "name": "setComissionChart",
      "outputs": [],
      "stateMutability": "nonpayable",
      "type": "function"
    },
    {
      "inputs": [
        {
          "internalType": "contract IPriceOracle",
          "name": "_priceOracle",
          "type": "address"
        }
      ],
      "name": "setPriceOracle",
      "outputs": [],
      "stateMutability": "nonpayable",
      "type": "function"
    },
    {
      "inputs": [],
      "name": "withdraw",
      "outputs": [],
      "stateMutability": "nonpayable",
      "type": "function"
    }
  ],
  "bytecode": "0x608060405234801561001057600080fd5b5060405161181738038061181783398101604081905261002f91610061565b6001600081905580546001600160a01b03909216620100000262010000600160b01b0319909216919091179055610091565b60006020828403121561007357600080fd5b81516001600160a01b038116811461008a57600080fd5b9392505050565b611777806100a06000396000f3fe6080604052600436106100e85760003560e01c8063530e784f1161008a57806376b0bb7d1161005957806376b0bb7d146101d0578063c4d66de814610312578063d46da38714610332578063fe9ebef61461035857600080fd5b8063530e784f1461025f578063563bfecc1461027f578063658303b9146102ba5780636b2d538e146102f257600080fd5b806322a6f8db116100c657806322a6f8db146101d05780632630c12f146101e55780633ccfd60b1461021d57806347b1ba8c1461023257600080fd5b806305132e97146100ed57806312d2fbf4146101635780631e8a33c0146101a3575b600080fd5b3480156100f957600080fd5b5061013c61010836600461118d565b6002602081815260009384526040808520909152918352912080546001820154928201546003909201549092919060ff1684565b60408051948552602085019390935291830152151560608201526080015b60405180910390f35b34801561016f57600080fd5b5061018361017e3660046111c7565b61038d565b60408051948552602085019390935291830152606082015260800161015a565b3480156101af57600080fd5b506101c36101be366004611240565b6103c4565b60405161015a91906112f8565b6101e36101de366004611240565b6103e9565b005b3480156101f157600080fd5b50600554610205906001600160a01b031681565b6040516001600160a01b03909116815260200161015a565b34801561022957600080fd5b506101e36104ea565b34801561023e57600080fd5b5061025261024d366004611240565b6105c4565b60405161015a9190611358565b34801561026b57600080fd5b506101e361027a3660046113ab565b61071a565b34801561028b57600080fd5b506102ac61029a3660046113ab565b60046020526000908152604090205481565b60405190815260200161015a565b3480156102c657600080fd5b506102ac6102d53660046111c7565b600360209081526000928352604080842090915290825290205481565b3480156102fe57600080fd5b506101e361030d3660046113cf565b6107d5565b34801561031e57600080fd5b506101e361032d3660046113ab565b6109cb565b34801561033e57600080fd5b50600154610205906201000090046001600160a01b031681565b34801561036457600080fd5b5061037861037336600461140a565b610b83565b6040805192835260208301919091520161015a565b600080600080600061039f8787610bec565b905060008060006103b08a85610c16565b959c919b5099509397509295505050505050565b60606103d88b8b8b8b8b8b8b8b8b8b610cc1565b90505b9a9950505050505050505050565b6001546040805163f340041960e01b8152905133926201000090046001600160a01b03169163f34004199160048083019260209291908290030181865afa158015610438573d6000803e3d6000fd5b505050506040513d601f19601f8201168201806040525081019061045c9190611443565b6001600160a01b0316146104cc5760405162461bcd60e51b815260206004820152602c60248201527f41636365737369626c653a2063616c6c6572206973206e6f742074686520746c60448201526b321031b7b73a3937b63632b960a11b60648201526084015b60405180910390fd5b6104de8a8a8a8a8a8a8a8a8a8a610e78565b50505050505050505050565b6104f26110ba565b33600090815260046020526040902054806105465760405162461bcd60e51b8152602060048201526014602482015273496e73756666696369656e742062616c616e636560601b60448201526064016104c3565b336000818152600460205260408082208290555183156108fc0291849190818181858888f19350505050158015610581573d6000803e3d6000fd5b5060405181815233907f1444cc8f0615b3e96dbcc45a6265e68e309db2513e9276fd9dcae4f2e8b57ccf9060200160405180910390a2506105c26001600055565b565b606060006105da8c8c8c8c8c8c8c8c8c8c610cc1565b60408051600280825260608201909252919250816020015b60408051808201909152600080825260208201528152602001906001900390816105f257905050915060405180604001604052808260008151811061063957610639611476565b6020026020010151600001516001600160a01b031681526020018260008151811061066657610666611476565b6020026020010151602001518152508260008151811061068857610688611476565b60200260200101819052506040518060400160405280826001815181106106b1576106b1611476565b6020026020010151600001516001600160a01b03168152602001826001815181106106de576106de611476565b6020026020010151602001518152508260018151811061070057610700611476565b6020026020010181905250509a9950505050505050505050565b6001546040805163cdcd7fb560e01b8152905133926201000090046001600160a01b03169163cdcd7fb59160048083019260209291908290030181865afa158015610769573d6000803e3d6000fd5b505050506040513d601f19601f8201168201806040525081019061078d9190611443565b6001600160a01b0316146107b35760405162461bcd60e51b81526004016104c39061148c565b600580546001600160a01b0319166001600160a01b0392909216919091179055565b60015460405162e4decd60e31b815286913391620100009091046001600160a01b031690630726f6689061081190859060040190815260200190565b602060405180830381865afa15801561082e573d6000803e3d6000fd5b505050506040513d601f19601f820116820180604052508101906108529190611443565b6001600160a01b0316146108b45760405162461bcd60e51b8152602060048201526024808201527f4f776e61626c653a2063616c6c6572206973206e6f742074686520746c64206f6044820152633bb732b960e11b60648201526084016104c3565b84600181101580156108c75750600a8111155b6109035760405162461bcd60e51b815260206004820152600d60248201526c125b9d985b1a59081b195d995b609a1b60448201526064016104c3565b60408051608081018252868152602080820187815282840187815260016060850181815260008e815260028087528882208f8352909652879020955186559251908501555191830191909155516003909101805491151560ff19909216919091179055517fc044e617719157f617f169cfc6ddd5a7037e16cc94e8d2a1fe2ec7ca760ed87d906109ba9089908990899089908990948552602085019390935260408401919091526060830152608082015260a00190565b60405180910390a150505050505050565b600154610100900460ff16158080156109e857506001805460ff16105b80610a015750303b158015610a0157506001805460ff16145b610a645760405162461bcd60e51b815260206004820152602e60248201527f496e697469616c697a61626c653a20636f6e747261637420697320616c72656160448201526d191e481a5b9a5d1a585b1a5e995960921b60648201526084016104c3565b6001805460ff1916811790558015610a86576001805461ff0019166101001790555b6001546040805163cdcd7fb560e01b8152905133926201000090046001600160a01b03169163cdcd7fb59160048083019260209291908290030181865afa158015610ad5573d6000803e3d6000fd5b505050506040513d601f19601f82011682018060405250810190610af99190611443565b6001600160a01b031614610b1f5760405162461bcd60e51b81526004016104c39061148c565b600580546001600160a01b0319166001600160a01b0384161790558015610b7f576001805461ff00191681556040519081527f7f26b83ff96e1f2b6a682f133852f6798a09c465da95921460cefb38474024989060200160405180910390a15b5050565b6000808080600181610b958988610bec565b9050610ba18982610c16565b9095509350915060006064610bb6868b6114ee565b610bc09190611505565b905060006064610bd0868c6114ee565b610bda9190611505565b919b919a509098505050505050505050565b60008281526003602090815260408083206001600160a01b03851684529091529020545b92915050565b6000808060018180805b600089815260026020908152604080832087845290915290206003015460ff168015610c65575060008981526002602090815260408083208784529091529020548810155b8015610c725750600a8411155b15610cb4575050506000868152600260208181526040808420858552909152909120600180820154919092015490918390610cad9082611527565b9350610c20565b9891975095509350505050565b6040805160028082526060828101909352816020015b6040805180820190915260008082526020820152815260200190600190039081610cd7579050506040805160208101909152600081529091506000839003610d1f57506103db565b6000610d2d848601866115f0565b9050806060015151600003610d435750506103db565b8060600151806020019051810190610d5b91906116c9565b6005546040516368a33fc360e11b8152600481018b905291935060009250829182916001600160a01b03169063d1467f8690602401602060405180830381865afa158015610dad573d6000803e3d6000fd5b505050506040513d601f19601f82011682018060405250810190610dd19190611715565b9050610de28f828660000151610b83565b8093508194505050604051806040016040528085600001516001600160a01b031681526020018481525085600081518110610e1f57610e1f611476565b602002602001018190525060405180604001604052808d6001600160a01b031681526020018381525085600181518110610e5b57610e5b611476565b6020026020010181905250505050509a9950505050505050505050565b6000610e8c8b8b8b8b8b8b8b8b8b8b6103c4565b905060008082600081518110610ea457610ea4611476565b602002602001015160200151915082600181518110610ec557610ec5611476565b6020026020010151602001519050610efb8d84600081518110610eea57610eea611476565b602002602001015160000151611113565b8115610f5a57816004600085600081518110610f1957610f19611476565b6020026020010151600001516001600160a01b03166001600160a01b031681526020019081526020016000206000828254610f549190611527565b90915550505b8015610fb957806004600085600181518110610f7857610f78611476565b6020026020010151600001516001600160a01b03166001600160a01b031681526020019081526020016000206000828254610fb39190611527565b90915550505b6000610fc58284611527565b90508034101561100a5760405162461bcd60e51b815260206004820152601060248201526f496e73756666696369656e742046656560801b60448201526064016104c3565b803411156110aa5760003361101f833461172e565b604051600081818185875af1925050503d806000811461105b576040519150601f19603f3d011682016040523d82523d6000602084013e611060565b606091505b50509050806110a85760405162461bcd60e51b81526020600482015260146024820152732330b4b632b2103a379039b2b7321022ba3432b960611b60448201526064016104c3565b505b5050505050505050505050505050565b60026000540361110c5760405162461bcd60e51b815260206004820152601f60248201527f5265656e7472616e637947756172643a207265656e7472616e742063616c6c0060448201526064016104c3565b6002600055565b60008281526003602090815260408083206001600160a01b03851684529091528120805460019290611146908490611527565b90915550506040518281526001600160a01b038216907f42132e5fd9f1c00789f8d205ef64b1b1adb38cebb0a0d0f3cdc1a4e9bd38d6089060200160405180910390a25050565b600080604083850312156111a057600080fd5b50508035926020909101359150565b6001600160a01b03811681146111c457600080fd5b50565b600080604083850312156111da57600080fd5b8235915060208301356111ec816111af565b809150509250929050565b60008083601f84011261120957600080fd5b50813567ffffffffffffffff81111561122157600080fd5b60208301915083602082850101111561123957600080fd5b9250929050565b6000806000806000806000806000806101008b8d03121561126057600080fd5b8a35995060208b013567ffffffffffffffff8082111561127f57600080fd5b61128b8e838f016111f7565b909b50995060408d013591506112a0826111af565b90975060608c0135965060808c0135955060a08c0135945060c08c0135935060e08c013590808211156112d257600080fd5b506112df8d828e016111f7565b915080935050809150509295989b9194979a5092959850565b602080825282518282018190526000919060409081850190868401855b8281101561134b5761133b84835180516001600160a01b03168252602090810151910152565b9284019290850190600101611315565b5091979650505050505050565b602080825282518282018190526000919060409081850190868401855b8281101561134b5761139b84835180516001600160a01b03168252602090810151910152565b9284019290850190600101611375565b6000602082840312156113bd57600080fd5b81356113c8816111af565b9392505050565b600080600080600060a086880312156113e757600080fd5b505083359560208501359550604085013594606081013594506080013592509050565b60008060006060848603121561141f57600080fd5b83359250602084013591506040840135611438816111af565b809150509250925092565b60006020828403121561145557600080fd5b81516113c8816111af565b634e487b7160e01b600052604160045260246000fd5b634e487b7160e01b600052603260045260246000fd5b6020808252602c908201527f41636365737369626c653a2063616c6c6572206973206e6f742074686520706c60408201526b30ba3337b9369030b236b4b760a11b606082015260800190565b634e487b7160e01b600052601160045260246000fd5b8082028115828204841417610c1057610c106114d8565b60008261152257634e487b7160e01b600052601260045260246000fd5b500490565b80820180821115610c1057610c106114d8565b6040516080810167ffffffffffffffff8111828210171561155d5761155d611460565b60405290565b600082601f83011261157457600080fd5b813567ffffffffffffffff8082111561158f5761158f611460565b604051601f8301601f19908116603f011681019082821181831017156115b7576115b7611460565b816040528381528660208588010111156115d057600080fd5b836020870160208301376000602085830101528094505050505092915050565b60006020828403121561160257600080fd5b813567ffffffffffffffff8082111561161a57600080fd5b908301906080828603121561162e57600080fd5b61163661153a565b82358281111561164557600080fd5b61165187828601611563565b82525060208301358281111561166657600080fd5b61167287828601611563565b60208301525060408301358281111561168a57600080fd5b61169687828601611563565b6040830152506060830135828111156116ae57600080fd5b6116ba87828601611563565b60608301525095945050505050565b6000602082840312156116db57600080fd5b6040516020810181811067ffffffffffffffff821117156116fe576116fe611460565b604052825161170c816111af565b81529392505050565b60006020828403121561172757600080fd5b5051919050565b81810381811115610c1057610c106114d856fea264697066735822122037528b396e69e73209e7a1f3ad0f4833ac3231de4d6051c16f5e143f85661e2f64736f6c63430008120033",
  "linkReferences": {},
  "deployedLinkReferences": {}
}