{
  "_format": "hh-sol-artifact-1",
  "contractName": "EthStaking",
  "sourceName": "contracts/staking/EthStaking.sol",
  "abi": [
    {
      "anonymous": false,
      "inputs": [
        {
          "indexed": true,
          "internalType": "address",
          "name": "user",
          "type": "address"
        },
        {
          "indexed": false,
          "internalType": "uint256",
          "name": "amount",
          "type": "uint256"
        }
      ],
      "name": "Staked",
      "type": "event"
    },
    {
      "anonymous": false,
      "inputs": [
        {
          "indexed": true,
          "internalType": "address",
          "name": "user",
          "type": "address"
        },
        {
          "indexed": false,
          "internalType": "uint256",
          "name": "amount",
          "type": "uint256"
        }
      ],
      "name": "UnStake",
      "type": "event"
    },
    {
      "inputs": [],
      "name": "MINIMUM_STAKE",
      "outputs": [
        {
          "internalType": "uint256",
          "name": "",
          "type": "uint256"
        }
      ],
      "stateMutability": "view",
      "type": "function"
    },
    {
      "inputs": [],
      "name": "getStakeDetails",
      "outputs": [
        {
          "internalType": "address",
          "name": "owner",
          "type": "address"
        },
        {
          "internalType": "uint256",
          "name": "identifier",
          "type": "uint256"
        },
        {
          "internalType": "uint256",
          "name": "stakedAmount",
          "type": "uint256"
        }
      ],
      "stateMutability": "view",
      "type": "function"
    },
    {
      "inputs": [
        {
          "internalType": "address",
          "name": "",
          "type": "address"
        }
      ],
      "name": "identifiers",
      "outputs": [
        {
          "internalType": "uint256",
          "name": "",
          "type": "uint256"
        }
      ],
      "stateMutability": "view",
      "type": "function"
    },
    {
      "inputs": [
        {
          "internalType": "uint256",
          "name": "identifier",
          "type": "uint256"
        },
        {
          "internalType": "string",
          "name": "tld",
          "type": "string"
        }
      ],
      "name": "stake",
      "outputs": [],
      "stateMutability": "payable",
      "type": "function"
    },
    {
      "inputs": [
        {
          "internalType": "address",
          "name": "",
          "type": "address"
        }
      ],
      "name": "stakes",
      "outputs": [
        {
          "internalType": "uint256",
          "name": "",
          "type": "uint256"
        }
      ],
      "stateMutability": "view",
      "type": "function"
    },
    {
      "inputs": [
        {
          "internalType": "uint256",
          "name": "",
          "type": "uint256"
        }
      ],
      "name": "tldList",
      "outputs": [
        {
          "internalType": "string",
          "name": "",
          "type": "string"
        }
      ],
      "stateMutability": "view",
      "type": "function"
    },
    {
      "inputs": [],
      "name": "unStake",
      "outputs": [],
      "stateMutability": "nonpayable",
      "type": "function"
    }
  ],
  "bytecode": "0x670de0b6b3a764000060029081556003610160818152620cae8d60eb1b610180526080908152600a6101a090815269313637b1b5b1b430b4b760b11b6101c05260a05260066101e09081526563727970746f60d01b6102005260c0526004610220908152636d6f646560e01b6102405260e052610260828152621cdbdb60ea1b61028052610100526102a09283526106f760f41b6102c052610120929092526103206040526102e08181526230b93160e91b6103005261014052620000c6916007620000db565b50348015620000d457600080fd5b5062000323565b82805482825590600052602060002090810192821562000126579160200282015b8281111562000126578251829062000115908262000257565b5091602001919060010190620000fc565b506200013492915062000138565b5090565b80821115620001345760006200014f828262000159565b5060010162000138565b5080546200016790620001c8565b6000825580601f1062000178575050565b601f0160209004906000526020600020908101906200019891906200019b565b50565b5b808211156200013457600081556001016200019c565b634e487b7160e01b600052604160045260246000fd5b600181811c90821680620001dd57607f821691505b602082108103620001fe57634e487b7160e01b600052602260045260246000fd5b50919050565b601f8211156200025257600081815260208120601f850160051c810160208610156200022d5750805b601f850160051c820191505b818110156200024e5782815560010162000239565b5050505b505050565b81516001600160401b03811115620002735762000273620001b2565b6200028b81620002848454620001c8565b8462000204565b602080601f831160018114620002c35760008415620002aa5750858301515b600019600386901b1c1916600185901b1785556200024e565b600085815260208120601f198616915b82811015620002f457888601518255948401946001909101908401620002d3565b5085821015620003135787850151600019600388901b60f8161c191681555b5050505050600190811b01905550565b61078880620003336000396000f3fe6080604052600436106100705760003560e01c806373cf575a1161004e57806373cf575a146100f857806392ef42581461010f578063bdeb810e1461014f578063e7e4e1f71461017c57600080fd5b806308dbbb031461007557806316934fc41461009e5780635c171473146100cb575b600080fd5b34801561008157600080fd5b5061008b60025481565b6040519081526020015b60405180910390f35b3480156100aa57600080fd5b5061008b6100b93660046104f1565b60006020819052908152604090205481565b3480156100d757600080fd5b5061008b6100e63660046104f1565b60016020526000908152604090205481565b34801561010457600080fd5b5061010d61018f565b005b34801561011b57600080fd5b5033600081815260016020908152604080832054838352928190205481519485529184019290925290820152606001610095565b34801561015b57600080fd5b5061016f61016a36600461052e565b610265565b6040516100959190610547565b61010d61018a366004610595565b610311565b33600090815260208190526040902054806101f15760405162461bcd60e51b815260206004820152601460248201527f4e6f207374616b6520746f20776974686472617700000000000000000000000060448201526064015b60405180910390fd5b336000818152602081905260408082208290555183156108fc0291849190818181858888f1935050505015801561022c573d6000803e3d6000fd5b5060405181815233907fb24546d975e2628748efc9aced80665e0fad66272033e5c0ea25fd3afac997959060200160405180910390a250565b6003818154811061027557600080fd5b90600052602060002001600091509050805461029090610611565b80601f01602080910402602001604051908101604052809291908181526020018280546102bc90610611565b80156103095780601f106102de57610100808354040283529160200191610309565b820191906000526020600020905b8154815290600101906020018083116102ec57829003601f168201915b505050505081565b6002543410156103635760405162461bcd60e51b815260206004820152601b60248201527f496e73756666696369656e74207374616b696e6720616d6f756e74000000000060448201526064016101e8565b61036d828261044a565b156103e05760405162461bcd60e51b815260206004820152602c60248201527f544c4420796f7527726520747279696e6720746f20726567697374657220616c60448201527f726561647920657869737473000000000000000000000000000000000000000060648201526084016101e8565b336000908152600160209081526040808320869055908290528120805434929061040b908490610661565b909155505060405134815233907f9e71bc8eea02a63969f509818f2dafb9254532904319f9dbda79b67bd34a5f3d9060200160405180910390a2505050565b6000805b6003548110156104e557838360405160200161046b929190610674565b604051602081830303815290604052805190602001206003828154811061049457610494610684565b906000526020600020016040516020016104ae919061069a565b60405160208183030381529060405280519060200120036104d35760019150506104eb565b806104dd81610739565b91505061044e565b50600090505b92915050565b60006020828403121561050357600080fd5b813573ffffffffffffffffffffffffffffffffffffffff8116811461052757600080fd5b9392505050565b60006020828403121561054057600080fd5b5035919050565b600060208083528351808285015260005b8181101561057457858101830151858201604001528201610558565b506000604082860101526040601f19601f8301168501019250505092915050565b6000806000604084860312156105aa57600080fd5b83359250602084013567ffffffffffffffff808211156105c957600080fd5b818601915086601f8301126105dd57600080fd5b8135818111156105ec57600080fd5b8760208285010111156105fe57600080fd5b6020830194508093505050509250925092565b600181811c9082168061062557607f821691505b60208210810361064557634e487b7160e01b600052602260045260246000fd5b50919050565b634e487b7160e01b600052601160045260246000fd5b808201808211156104eb576104eb61064b565b8183823760009101908152919050565b634e487b7160e01b600052603260045260246000fd5b600080835481600182811c9150808316806106b657607f831692505b602080841082036106d557634e487b7160e01b86526022600452602486fd5b8180156106e957600181146106fe5761072b565b60ff198616895284151585028901965061072b565b60008a81526020902060005b868110156107235781548b82015290850190830161070a565b505084890196505b509498975050505050505050565b60006001820161074b5761074b61064b565b506001019056fea264697066735822122055ca367b5f9f55fd60a5f43400f7ad04db88c113d9348b0fa78c845f4accec7164736f6c63430008120033",
  "linkReferences": {},
  "deployedLinkReferences": {}
}