{
  "_format": "hh-sol-artifact-1",
  "contractName": "EthStaking",
  "sourceName": "contracts/staking/EthStaking.sol",
  "abi": [
    {
      "anonymous": false,
      "inputs": [
        {
          "indexed": true,
          "internalType": "address",
          "name": "user",
          "type": "address"
        },
        {
          "indexed": false,
          "internalType": "uint256",
          "name": "amount",
          "type": "uint256"
        }
      ],
      "name": "Staked",
      "type": "event"
    },
    {
      "anonymous": false,
      "inputs": [
        {
          "indexed": true,
          "internalType": "address",
          "name": "user",
          "type": "address"
        },
        {
          "indexed": false,
          "internalType": "uint256",
          "name": "amount",
          "type": "uint256"
        }
      ],
      "name": "UnStake",
      "type": "event"
    },
    {
      "inputs": [],
      "name": "MINIMUM_STAKE",
      "outputs": [
        {
          "internalType": "uint256",
          "name": "",
          "type": "uint256"
        }
      ],
      "stateMutability": "view",
      "type": "function"
    },
    {
      "inputs": [],
      "name": "getStakeDetails",
      "outputs": [
        {
          "internalType": "address",
          "name": "owner",
          "type": "address"
        },
        {
          "internalType": "uint256",
          "name": "identifier",
          "type": "uint256"
        },
        {
          "internalType": "uint256",
          "name": "stakedAmount",
          "type": "uint256"
        }
      ],
      "stateMutability": "view",
      "type": "function"
    },
    {
      "inputs": [
        {
          "internalType": "address",
          "name": "",
          "type": "address"
        }
      ],
      "name": "identifiers",
      "outputs": [
        {
          "internalType": "uint256",
          "name": "",
          "type": "uint256"
        }
      ],
      "stateMutability": "view",
      "type": "function"
    },
    {
      "inputs": [
        {
          "internalType": "uint256",
          "name": "identifier",
          "type": "uint256"
        }
      ],
      "name": "stake",
      "outputs": [],
      "stateMutability": "payable",
      "type": "function"
    },
    {
      "inputs": [
        {
          "internalType": "address",
          "name": "",
          "type": "address"
        }
      ],
      "name": "stakes",
      "outputs": [
        {
          "internalType": "uint256",
          "name": "",
          "type": "uint256"
        }
      ],
      "stateMutability": "view",
      "type": "function"
    },
    {
      "inputs": [],
      "name": "unStake",
      "outputs": [],
      "stateMutability": "nonpayable",
      "type": "function"
    }
  ],
  "bytecode": "0x608060405234801561001057600080fd5b50610476806100206000396000f3fe6080604052600436106100655760003560e01c806373cf575a1161004357806373cf575a146100f357806392ef42581461010a578063a694fc3a1461015157600080fd5b806308dbbb031461006a57806316934fc4146100995780635c171473146100c6575b600080fd5b34801561007657600080fd5b50610086670de0b6b3a764000081565b6040519081526020015b60405180910390f35b3480156100a557600080fd5b506100866100b43660046103aa565b60006020819052908152604090205481565b3480156100d257600080fd5b506100866100e13660046103aa565b60016020526000908152604090205481565b3480156100ff57600080fd5b50610108610164565b005b34801561011657600080fd5b5061011f61023b565b6040805173ffffffffffffffffffffffffffffffffffffffff9094168452602084019290925290820152606001610090565b61010861015f3660046103e7565b6102f0565b33600090815260208190526040902054806101c65760405162461bcd60e51b815260206004820152601460248201527f4e6f207374616b6520746f20776974686472617700000000000000000000000060448201526064015b60405180910390fd5b336000818152602081905260408082208290555183156108fc0291849190818181858888f19350505050158015610201573d6000803e3d6000fd5b5060405181815233907fb24546d975e2628748efc9aced80665e0fad66272033e5c0ea25fd3afac99795906020015b60405180910390a250565b3360009081526020819052604081205481908190670de0b6b3a764000011156102cc5760405162461bcd60e51b815260206004820152602960248201527f596f75206d757374207374616b652074686520726571756972656420616d6f7560448201527f6e74206f6620455448000000000000000000000000000000000000000000000060648201526084016101bd565b50503360008181526001602090815260408083205491839052909120549192509192565b670de0b6b3a76400003410156103485760405162461bcd60e51b815260206004820152601b60248201527f496e73756666696369656e74207374616b696e6720616d6f756e74000000000060448201526064016101bd565b3360009081526001602090815260408083208490559082905281208054349290610373908490610400565b909155505060405134815233907f9e71bc8eea02a63969f509818f2dafb9254532904319f9dbda79b67bd34a5f3d90602001610230565b6000602082840312156103bc57600080fd5b813573ffffffffffffffffffffffffffffffffffffffff811681146103e057600080fd5b9392505050565b6000602082840312156103f957600080fd5b5035919050565b8082018082111561043a577f4e487b7100000000000000000000000000000000000000000000000000000000600052601160045260246000fd5b9291505056fea2646970667358221220ef96a162937af6f6f8b529bb14362087718d87a9287036eeb20390795c025c2864736f6c63430008120033",
  "linkReferences": {},
  "deployedLinkReferences": {}
}