{
  "_format": "hh-sol-artifact-1",
  "contractName": "PlatformConfig",
  "sourceName": "contracts/admin/PlatformConfig.sol",
  "abi": [
    {
      "inputs": [
        {
          "internalType": "contract ISANN",
          "name": "_sann",
          "type": "address"
        }
      ],
      "stateMutability": "nonpayable",
      "type": "constructor"
    },
    {
      "anonymous": false,
      "inputs": [
        {
          "indexed": false,
          "internalType": "uint256",
          "name": "identifier",
          "type": "uint256"
        },
        {
          "indexed": false,
          "internalType": "uint256",
          "name": "minPlatformFee",
          "type": "uint256"
        },
        {
          "indexed": false,
          "internalType": "uint256",
          "name": "feeRateBps",
          "type": "uint256"
        },
        {
          "indexed": false,
          "internalType": "bool",
          "name": "enabled",
          "type": "bool"
        }
      ],
      "name": "SetCustomizedPlatformFee",
      "type": "event"
    },
    {
      "anonymous": false,
      "inputs": [
        {
          "indexed": false,
          "internalType": "uint256",
          "name": "defaultMinPlatformFee",
          "type": "uint256"
        }
      ],
      "name": "SetDefaultMinPlatformFee",
      "type": "event"
    },
    {
      "anonymous": false,
      "inputs": [
        {
          "indexed": false,
          "internalType": "uint256",
          "name": "defaultRateBps",
          "type": "uint256"
        }
      ],
      "name": "SetDefaultRateBps",
      "type": "event"
    },
    {
      "anonymous": false,
      "inputs": [
        {
          "indexed": false,
          "internalType": "address",
          "name": "platformFeeCollector",
          "type": "address"
        }
      ],
      "name": "SetPlatformFeeCollector",
      "type": "event"
    },
    {
      "inputs": [],
      "name": "MAX_FEE_RATE_BPS",
      "outputs": [
        {
          "internalType": "uint256",
          "name": "",
          "type": "uint256"
        }
      ],
      "stateMutability": "view",
      "type": "function"
    },
    {
      "inputs": [
        {
          "internalType": "uint256",
          "name": "identifier",
          "type": "uint256"
        },
        {
          "internalType": "uint256",
          "name": "cost",
          "type": "uint256"
        }
      ],
      "name": "computeBasicPlatformFee",
      "outputs": [
        {
          "internalType": "uint256",
          "name": "",
          "type": "uint256"
        }
      ],
      "stateMutability": "view",
      "type": "function"
    },
    {
      "inputs": [
        {
          "internalType": "uint256",
          "name": "identifier",
          "type": "uint256"
        },
        {
          "internalType": "uint256",
          "name": "cost",
          "type": "uint256"
        }
      ],
      "name": "computePlatformFee",
      "outputs": [
        {
          "internalType": "uint256",
          "name": "",
          "type": "uint256"
        }
      ],
      "stateMutability": "view",
      "type": "function"
    },
    {
      "inputs": [
        {
          "internalType": "uint256",
          "name": "",
          "type": "uint256"
        }
      ],
      "name": "customizedConfigs",
      "outputs": [
        {
          "internalType": "uint256",
          "name": "minPlatformFee",
          "type": "uint256"
        },
        {
          "internalType": "uint256",
          "name": "feeRateBps",
          "type": "uint256"
        },
        {
          "internalType": "bool",
          "name": "enabled",
          "type": "bool"
        }
      ],
      "stateMutability": "view",
      "type": "function"
    },
    {
      "inputs": [],
      "name": "defaultMinPlatformFee",
      "outputs": [
        {
          "internalType": "uint256",
          "name": "",
          "type": "uint256"
        }
      ],
      "stateMutability": "view",
      "type": "function"
    },
    {
      "inputs": [],
      "name": "defaultRateBps",
      "outputs": [
        {
          "internalType": "uint256",
          "name": "",
          "type": "uint256"
        }
      ],
      "stateMutability": "view",
      "type": "function"
    },
    {
      "inputs": [
        {
          "internalType": "uint256",
          "name": "identifier",
          "type": "uint256"
        }
      ],
      "name": "getMinPlatformFee",
      "outputs": [
        {
          "internalType": "uint256",
          "name": "",
          "type": "uint256"
        }
      ],
      "stateMutability": "view",
      "type": "function"
    },
    {
      "inputs": [
        {
          "internalType": "uint256",
          "name": "identifier",
          "type": "uint256"
        }
      ],
      "name": "getPlatformFeeRateBps",
      "outputs": [
        {
          "internalType": "uint256",
          "name": "",
          "type": "uint256"
        }
      ],
      "stateMutability": "view",
      "type": "function"
    },
    {
      "inputs": [
        {
          "internalType": "uint256",
          "name": "_minPlatformFee",
          "type": "uint256"
        },
        {
          "internalType": "uint256",
          "name": "_rate",
          "type": "uint256"
        },
        {
          "internalType": "address",
          "name": "_platformFeeCollector",
          "type": "address"
        }
      ],
      "name": "initialize",
      "outputs": [],
      "stateMutability": "nonpayable",
      "type": "function"
    },
    {
      "inputs": [],
      "name": "platformFeeCollector",
      "outputs": [
        {
          "internalType": "address",
          "name": "",
          "type": "address"
        }
      ],
      "stateMutability": "view",
      "type": "function"
    },
    {
      "inputs": [],
      "name": "sann",
      "outputs": [
        {
          "internalType": "contract ISANN",
          "name": "",
          "type": "address"
        }
      ],
      "stateMutability": "view",
      "type": "function"
    },
    {
      "inputs": [
        {
          "internalType": "uint256",
          "name": "_identifier",
          "type": "uint256"
        },
        {
          "internalType": "uint256",
          "name": "_minPlatformFee",
          "type": "uint256"
        },
        {
          "internalType": "uint256",
          "name": "_rate",
          "type": "uint256"
        },
        {
          "internalType": "bool",
          "name": "_enabled",
          "type": "bool"
        }
      ],
      "name": "setCustomizedPlatformFee",
      "outputs": [],
      "stateMutability": "nonpayable",
      "type": "function"
    },
    {
      "inputs": [
        {
          "internalType": "uint256",
          "name": "_minPlatformFee",
          "type": "uint256"
        }
      ],
      "name": "setDefaultMinPlatformFee",
      "outputs": [],
      "stateMutability": "nonpayable",
      "type": "function"
    },
    {
      "inputs": [
        {
          "internalType": "uint256",
          "name": "_rate",
          "type": "uint256"
        }
      ],
      "name": "setDefaultRateBps",
      "outputs": [],
      "stateMutability": "nonpayable",
      "type": "function"
    },
    {
      "inputs": [
        {
          "internalType": "address",
          "name": "_platformFeeCollector",
          "type": "address"
        }
      ],
      "name": "setPlatformFeeCollector",
      "outputs": [],
      "stateMutability": "nonpayable",
      "type": "function"
    }
  ],
  "bytecode": "0x608060405234801561001057600080fd5b50604051610b38380380610b3883398101604081905261002f91610054565b600080546001600160a01b0319166001600160a01b0392909216919091179055610084565b60006020828403121561006657600080fd5b81516001600160a01b038116811461007d57600080fd5b9392505050565b610aa5806100936000396000f3fe608060405234801561001057600080fd5b50600436106100f55760003560e01c80639972d94411610097578063d604947411610066578063d6049474146101da578063d7c3189d146101ed578063dfc90cf214610200578063fbb7264c1461021357600080fd5b80639972d9441461018e578063a6ab36f2146101a1578063ccfc3870146101b4578063d46da387146101c757600080fd5b806356a7500b116100d357806356a7500b146101325780636b9337191461014757806373567b901461015a578063853a65f91461016357600080fd5b806319d2cc50146100fa578063328467a71461011657806338ad91591461011f575b600080fd5b61010360045481565b6040519081526020015b60405180910390f35b61010361271081565b61010361012d3660046108c9565b610261565b6101456101403660046108eb565b610293565b005b6101036101553660046108eb565b61036b565b61010360035481565b600254610176906001600160a01b031681565b6040516001600160a01b03909116815260200161010d565b61010361019c3660046108c9565b61039f565b6101456101af36600461091c565b6103ee565b6101456101c2366004610955565b610592565b600054610176906001600160a01b031681565b6101456101e83660046108eb565b61069d565b6101036101fb3660046108eb565b6107b0565b61014561020e36600461099b565b6107e8565b6102446102213660046108eb565b600160208190526000918252604090912080549181015460029091015460ff1683565b60408051938452602084019290925215159082015260600161010d565b60008061026d846107b0565b9050600061271061027e83866109bf565b61028891906109e4565b925050505b92915050565b6000546040805163cdcd7fb560e01b8152905133926001600160a01b03169163cdcd7fb59160048083019260209291908290030181865afa1580156102dc573d6000803e3d6000fd5b505050506040513d601f19601f820116820180604052508101906103009190610a06565b6001600160a01b03161461032f5760405162461bcd60e51b815260040161032690610a23565b60405180910390fd5b60038190556040518181527fe8947e3f4168e31a2062248b305f9e07814844bdfe333c3cf109ef80212b3c01906020015b60405180910390a150565b60035460008281526001602052604081206002015490919060ff161561028d57505060009081526001602052604090205490565b6000806103ab846107b0565b905060006103b88561036b565b905060006127106103c984876109bf565b6103d391906109e4565b90508181106103e257806103e4565b815b9695505050505050565b6000546040805163cdcd7fb560e01b8152905133926001600160a01b03169163cdcd7fb59160048083019260209291908290030181865afa158015610437573d6000803e3d6000fd5b505050506040513d601f19601f8201168201806040525081019061045b9190610a06565b6001600160a01b0316146104815760405162461bcd60e51b815260040161032690610a23565b60038390556040518381527fe8947e3f4168e31a2062248b305f9e07814844bdfe333c3cf109ef80212b3c019060200160405180910390a16127108211156105045760405162461bcd60e51b8152602060048201526016602482015275696e76616c69642064656661756c745261746542707360501b6044820152606401610326565b60048290556040518281527f5a9175df97ce8d1507f64271d8ef7224fee13a9d998202cf7afa60ea70af21e49060200160405180910390a1600280546001600160a01b0319166001600160a01b0383169081179091556040519081527f471d66ca34ad905824a417c5791159e9701bab98a5f1c256951fe48da9ab9f199060200160405180910390a1505050565b6000546040805163cdcd7fb560e01b8152905133926001600160a01b03169163cdcd7fb59160048083019260209291908290030181865afa1580156105db573d6000803e3d6000fd5b505050506040513d601f19601f820116820180604052508101906105ff9190610a06565b6001600160a01b0316146106255760405162461bcd60e51b815260040161032690610a23565b6000848152600160208181526040928390208681559182018590556002909101805484151560ff1990911681179091558251878152918201869052818301859052606082015290517f861e0eb3eb1f636a76f7d421754f76fc3c00f7e4e6a1128639dc7c6a1056386c9181900360800190a150505050565b6000546040805163cdcd7fb560e01b8152905133926001600160a01b03169163cdcd7fb59160048083019260209291908290030181865afa1580156106e6573d6000803e3d6000fd5b505050506040513d601f19601f8201168201806040525081019061070a9190610a06565b6001600160a01b0316146107305760405162461bcd60e51b815260040161032690610a23565b61271081111561077b5760405162461bcd60e51b8152602060048201526016602482015275696e76616c69642064656661756c745261746542707360501b6044820152606401610326565b60048190556040518181527f5a9175df97ce8d1507f64271d8ef7224fee13a9d998202cf7afa60ea70af21e490602001610360565b60045460008281526001602052604081206002015490919060ff161561028d5750506000908152600160208190526040909120015490565b6000546040805163cdcd7fb560e01b8152905133926001600160a01b03169163cdcd7fb59160048083019260209291908290030181865afa158015610831573d6000803e3d6000fd5b505050506040513d601f19601f820116820180604052508101906108559190610a06565b6001600160a01b03161461087b5760405162461bcd60e51b815260040161032690610a23565b600280546001600160a01b0319166001600160a01b0383169081179091556040519081527f471d66ca34ad905824a417c5791159e9701bab98a5f1c256951fe48da9ab9f1990602001610360565b600080604083850312156108dc57600080fd5b50508035926020909101359150565b6000602082840312156108fd57600080fd5b5035919050565b6001600160a01b038116811461091957600080fd5b50565b60008060006060848603121561093157600080fd5b8335925060208401359150604084013561094a81610904565b809150509250925092565b6000806000806080858703121561096b57600080fd5b8435935060208501359250604085013591506060850135801515811461099057600080fd5b939692955090935050565b6000602082840312156109ad57600080fd5b81356109b881610904565b9392505050565b808202811582820484141761028d57634e487b7160e01b600052601160045260246000fd5b600082610a0157634e487b7160e01b600052601260045260246000fd5b500490565b600060208284031215610a1857600080fd5b81516109b881610904565b6020808252602c908201527f41636365737369626c653a2063616c6c6572206973206e6f742074686520706c60408201526b30ba3337b9369030b236b4b760a11b60608201526080019056fea26469706673582212202f1d88c2e936504895de203e1174bff33d9c6ccb3106919b41b848137290e2f264736f6c63430008120033",
  "linkReferences": {},
  "deployedLinkReferences": {}
}