{
  "_format": "hh-sol-artifact-1",
  "contractName": "DummyUpgradeableRegistrar",
  "sourceName": "test/controller/mocks/DummyUpgradeableRegistrar.sol",
  "abi": [
    {
      "inputs": [
        {
          "internalType": "uint256",
          "name": "identifier",
          "type": "uint256"
        },
        {
          "internalType": "uint256",
          "name": "duration",
          "type": "uint256"
        }
      ],
      "name": "DurationTooShort",
      "type": "error"
    },
    {
      "inputs": [
        {
          "internalType": "uint256",
          "name": "identifier",
          "type": "uint256"
        },
        {
          "internalType": "string",
          "name": "name",
          "type": "string"
        }
      ],
      "name": "NameNotAvailable",
      "type": "error"
    },
    {
      "inputs": [],
      "name": "NotQualifiedRegister",
      "type": "error"
    },
    {
      "inputs": [
        {
          "internalType": "uint256",
          "name": "realPrice",
          "type": "uint256"
        }
      ],
      "name": "SimulatePrice",
      "type": "error"
    },
    {
      "anonymous": false,
      "inputs": [
        {
          "indexed": false,
          "internalType": "address",
          "name": "previousAdmin",
          "type": "address"
        },
        {
          "indexed": false,
          "internalType": "address",
          "name": "newAdmin",
          "type": "address"
        }
      ],
      "name": "AdminChanged",
      "type": "event"
    },
    {
      "anonymous": false,
      "inputs": [
        {
          "indexed": true,
          "internalType": "address",
          "name": "beacon",
          "type": "address"
        }
      ],
      "name": "BeaconUpgraded",
      "type": "event"
    },
    {
      "anonymous": false,
      "inputs": [
        {
          "indexed": false,
          "internalType": "uint8",
          "name": "version",
          "type": "uint8"
        }
      ],
      "name": "Initialized",
      "type": "event"
    },
    {
      "anonymous": false,
      "inputs": [
        {
          "indexed": false,
          "internalType": "uint256",
          "name": "identifier",
          "type": "uint256"
        },
        {
          "indexed": false,
          "internalType": "string",
          "name": "name",
          "type": "string"
        },
        {
          "indexed": true,
          "internalType": "bytes32",
          "name": "label",
          "type": "bytes32"
        },
        {
          "indexed": true,
          "internalType": "address",
          "name": "owner",
          "type": "address"
        },
        {
          "indexed": false,
          "internalType": "uint256",
          "name": "baseCost",
          "type": "uint256"
        },
        {
          "indexed": false,
          "internalType": "uint256",
          "name": "expires",
          "type": "uint256"
        }
      ],
      "name": "NameRegistered",
      "type": "event"
    },
    {
      "anonymous": false,
      "inputs": [
        {
          "indexed": false,
          "internalType": "uint256",
          "name": "identifier",
          "type": "uint256"
        },
        {
          "indexed": false,
          "internalType": "string",
          "name": "name",
          "type": "string"
        },
        {
          "indexed": true,
          "internalType": "bytes32",
          "name": "label",
          "type": "bytes32"
        },
        {
          "indexed": false,
          "internalType": "uint256",
          "name": "cost",
          "type": "uint256"
        },
        {
          "indexed": false,
          "internalType": "uint256",
          "name": "expires",
          "type": "uint256"
        }
      ],
      "name": "NameRenewed",
      "type": "event"
    },
    {
      "anonymous": false,
      "inputs": [
        {
          "indexed": false,
          "internalType": "uint256",
          "name": "identifier",
          "type": "uint256"
        },
        {
          "indexed": false,
          "internalType": "bool",
          "name": "hasMintCap",
          "type": "bool"
        }
      ],
      "name": "SetHasMintCap",
      "type": "event"
    },
    {
      "anonymous": false,
      "inputs": [
        {
          "indexed": false,
          "internalType": "uint256",
          "name": "identifier",
          "type": "uint256"
        },
        {
          "indexed": false,
          "internalType": "uint256",
          "name": "maxDomainLength",
          "type": "uint256"
        }
      ],
      "name": "SetMaxDomainLength",
      "type": "event"
    },
    {
      "anonymous": false,
      "inputs": [
        {
          "indexed": false,
          "internalType": "uint256",
          "name": "identifier",
          "type": "uint256"
        },
        {
          "indexed": false,
          "internalType": "uint256",
          "name": "minDomainLength",
          "type": "uint256"
        }
      ],
      "name": "SetMinDomainLength",
      "type": "event"
    },
    {
      "anonymous": false,
      "inputs": [
        {
          "indexed": false,
          "internalType": "uint256",
          "name": "identifier",
          "type": "uint256"
        },
        {
          "indexed": false,
          "internalType": "uint256",
          "name": "minRegistrationDuration",
          "type": "uint256"
        }
      ],
      "name": "SetMinRegistrationDuration",
      "type": "event"
    },
    {
      "anonymous": false,
      "inputs": [
        {
          "indexed": false,
          "internalType": "uint256",
          "name": "identifier",
          "type": "uint256"
        },
        {
          "indexed": false,
          "internalType": "uint256",
          "name": "minRenewDuration",
          "type": "uint256"
        }
      ],
      "name": "SetMinRenewDuration",
      "type": "event"
    },
    {
      "anonymous": false,
      "inputs": [
        {
          "indexed": false,
          "internalType": "uint256",
          "name": "identifier",
          "type": "uint256"
        },
        {
          "indexed": false,
          "internalType": "uint256",
          "name": "mintCap",
          "type": "uint256"
        }
      ],
      "name": "SetMintCap",
      "type": "event"
    },
    {
      "anonymous": false,
      "inputs": [
        {
          "indexed": false,
          "internalType": "uint256",
          "name": "identifier",
          "type": "uint256"
        },
        {
          "indexed": false,
          "internalType": "address",
          "name": "hook",
          "type": "address"
        }
      ],
      "name": "SetPointHook",
      "type": "event"
    },
    {
      "anonymous": false,
      "inputs": [
        {
          "indexed": false,
          "internalType": "uint256",
          "name": "identifier",
          "type": "uint256"
        },
        {
          "indexed": false,
          "internalType": "address",
          "name": "hook",
          "type": "address"
        }
      ],
      "name": "SetPriceHook",
      "type": "event"
    },
    {
      "anonymous": false,
      "inputs": [
        {
          "indexed": false,
          "internalType": "uint256",
          "name": "identifier",
          "type": "uint256"
        },
        {
          "indexed": false,
          "internalType": "address",
          "name": "hook",
          "type": "address"
        }
      ],
      "name": "SetQualificationHook",
      "type": "event"
    },
    {
      "anonymous": false,
      "inputs": [
        {
          "indexed": false,
          "internalType": "uint256",
          "name": "identifier",
          "type": "uint256"
        },
        {
          "indexed": false,
          "internalType": "address",
          "name": "hook",
          "type": "address"
        }
      ],
      "name": "SetRenewPointHook",
      "type": "event"
    },
    {
      "anonymous": false,
      "inputs": [
        {
          "indexed": false,
          "internalType": "uint256",
          "name": "identifier",
          "type": "uint256"
        },
        {
          "indexed": false,
          "internalType": "address",
          "name": "hook",
          "type": "address"
        }
      ],
      "name": "SetRenewPriceHook",
      "type": "event"
    },
    {
      "anonymous": false,
      "inputs": [
        {
          "indexed": false,
          "internalType": "uint256",
          "name": "identifier",
          "type": "uint256"
        },
        {
          "indexed": false,
          "internalType": "address",
          "name": "hook",
          "type": "address"
        }
      ],
      "name": "SetRenewRewardHook",
      "type": "event"
    },
    {
      "anonymous": false,
      "inputs": [
        {
          "indexed": false,
          "internalType": "uint256",
          "name": "identifier",
          "type": "uint256"
        },
        {
          "indexed": false,
          "internalType": "address",
          "name": "hook",
          "type": "address"
        }
      ],
      "name": "SetRewardHook",
      "type": "event"
    },
    {
      "anonymous": false,
      "inputs": [
        {
          "indexed": false,
          "internalType": "uint256",
          "name": "identifier",
          "type": "uint256"
        },
        {
          "indexed": false,
          "internalType": "address",
          "name": "base",
          "type": "address"
        }
      ],
      "name": "SetTldBase",
      "type": "event"
    },
    {
      "anonymous": false,
      "inputs": [
        {
          "indexed": false,
          "internalType": "uint256",
          "name": "identifier",
          "type": "uint256"
        },
        {
          "indexed": false,
          "internalType": "address",
          "name": "priceOracle",
          "type": "address"
        }
      ],
      "name": "SetTldPriceOracle",
      "type": "event"
    },
    {
      "anonymous": false,
      "inputs": [
        {
          "indexed": true,
          "internalType": "address",
          "name": "implementation",
          "type": "address"
        }
      ],
      "name": "Upgraded",
      "type": "event"
    },
    {
      "inputs": [
        {
          "internalType": "uint256",
          "name": "identifier",
          "type": "uint256"
        },
        {
          "internalType": "string",
          "name": "name",
          "type": "string"
        }
      ],
      "name": "available",
      "outputs": [
        {
          "internalType": "bool",
          "name": "",
          "type": "bool"
        }
      ],
      "stateMutability": "view",
      "type": "function"
    },
    {
      "inputs": [
        {
          "internalType": "uint256",
          "name": "identifier",
          "type": "uint256"
        },
        {
          "internalType": "string[]",
          "name": "names",
          "type": "string[]"
        },
        {
          "internalType": "address",
          "name": "owner",
          "type": "address"
        },
        {
          "internalType": "uint256",
          "name": "duration",
          "type": "uint256"
        },
        {
          "internalType": "address",
          "name": "resolver",
          "type": "address"
        },
        {
          "internalType": "bool",
          "name": "setTldName",
          "type": "bool"
        },
        {
          "internalType": "bytes[]",
          "name": "extraData",
          "type": "bytes[]"
        }
      ],
      "name": "bulkRegister",
      "outputs": [
        {
          "internalType": "uint256",
          "name": "",
          "type": "uint256"
        }
      ],
      "stateMutability": "payable",
      "type": "function"
    },
    {
      "inputs": [
        {
          "internalType": "uint256",
          "name": "identifier",
          "type": "uint256"
        },
        {
          "internalType": "string[]",
          "name": "names",
          "type": "string[]"
        },
        {
          "internalType": "address",
          "name": "owner",
          "type": "address"
        },
        {
          "internalType": "uint256",
          "name": "duration",
          "type": "uint256"
        },
        {
          "internalType": "address",
          "name": "resolver",
          "type": "address"
        },
        {
          "internalType": "bool",
          "name": "setTldName",
          "type": "bool"
        },
        {
          "internalType": "bytes[]",
          "name": "extraData",
          "type": "bytes[]"
        }
      ],
      "name": "bulkRegisterSimulate",
      "outputs": [
        {
          "internalType": "uint256",
          "name": "",
          "type": "uint256"
        }
      ],
      "stateMutability": "payable",
      "type": "function"
    },
    {
      "inputs": [
        {
          "internalType": "uint256",
          "name": "identifier",
          "type": "uint256"
        },
        {
          "internalType": "string[]",
          "name": "names",
          "type": "string[]"
        },
        {
          "internalType": "uint256",
          "name": "duration",
          "type": "uint256"
        },
        {
          "internalType": "bytes[]",
          "name": "extraData",
          "type": "bytes[]"
        }
      ],
      "name": "bulkRenew",
      "outputs": [
        {
          "internalType": "uint256",
          "name": "",
          "type": "uint256"
        }
      ],
      "stateMutability": "payable",
      "type": "function"
    },
    {
      "inputs": [
        {
          "internalType": "uint256",
          "name": "identifier",
          "type": "uint256"
        },
        {
          "internalType": "string[]",
          "name": "names",
          "type": "string[]"
        },
        {
          "internalType": "uint256",
          "name": "duration",
          "type": "uint256"
        },
        {
          "internalType": "address",
          "name": "initiatedBy",
          "type": "address"
        },
        {
          "internalType": "bytes[]",
          "name": "extraData",
          "type": "bytes[]"
        }
      ],
      "name": "bulkRenewSimulate",
      "outputs": [
        {
          "internalType": "uint256",
          "name": "",
          "type": "uint256"
        }
      ],
      "stateMutability": "payable",
      "type": "function"
    },
    {
      "inputs": [
        {
          "internalType": "uint256",
          "name": "identifier",
          "type": "uint256"
        },
        {
          "internalType": "string[]",
          "name": "names",
          "type": "string[]"
        },
        {
          "internalType": "uint256",
          "name": "duration",
          "type": "uint256"
        }
      ],
      "name": "bulkRentPrice",
      "outputs": [
        {
          "internalType": "uint256",
          "name": "total",
          "type": "uint256"
        }
      ],
      "stateMutability": "view",
      "type": "function"
    },
    {
      "inputs": [],
      "name": "defaultPriceOracle",
      "outputs": [
        {
          "internalType": "contract IPriceOracle",
          "name": "",
          "type": "address"
        }
      ],
      "stateMutability": "view",
      "type": "function"
    },
    {
      "inputs": [],
      "name": "dummyString",
      "outputs": [
        {
          "internalType": "string",
          "name": "",
          "type": "string"
        }
      ],
      "stateMutability": "pure",
      "type": "function"
    },
    {
      "inputs": [
        {
          "internalType": "uint256",
          "name": "identifier",
          "type": "uint256"
        }
      ],
      "name": "getPriceOracle",
      "outputs": [
        {
          "internalType": "contract IPriceOracle",
          "name": "",
          "type": "address"
        }
      ],
      "stateMutability": "view",
      "type": "function"
    },
    {
      "inputs": [
        {
          "internalType": "contract ISANN",
          "name": "_sann",
          "type": "address"
        },
        {
          "internalType": "contract IPlatformConfig",
          "name": "_platformConfig",
          "type": "address"
        },
        {
          "internalType": "contract IPrepaidPlatformFee",
          "name": "_prepaidPlatformFee",
          "type": "address"
        },
        {
          "internalType": "contract IPriceOracle",
          "name": "_priceOracle",
          "type": "address"
        },
        {
          "internalType": "contract IReverseRegistrar",
          "name": "_reverseRegistrar",
          "type": "address"
        }
      ],
      "name": "initialize",
      "outputs": [],
      "stateMutability": "nonpayable",
      "type": "function"
    },
    {
      "inputs": [],
      "name": "platformConfig",
      "outputs": [
        {
          "internalType": "contract IPlatformConfig",
          "name": "",
          "type": "address"
        }
      ],
      "stateMutability": "view",
      "type": "function"
    },
    {
      "inputs": [],
      "name": "platformFeeBalance",
      "outputs": [
        {
          "internalType": "uint256",
          "name": "",
          "type": "uint256"
        }
      ],
      "stateMutability": "view",
      "type": "function"
    },
    {
      "inputs": [],
      "name": "prepaidPlatformFee",
      "outputs": [
        {
          "internalType": "contract IPrepaidPlatformFee",
          "name": "",
          "type": "address"
        }
      ],
      "stateMutability": "view",
      "type": "function"
    },
    {
      "inputs": [
        {
          "internalType": "uint256",
          "name": "identifier",
          "type": "uint256"
        },
        {
          "internalType": "string",
          "name": "_name",
          "type": "string"
        },
        {
          "internalType": "address",
          "name": "_buyer",
          "type": "address"
        },
        {
          "internalType": "uint256",
          "name": "_duration",
          "type": "uint256"
        },
        {
          "internalType": "bytes",
          "name": "_extraData",
          "type": "bytes"
        }
      ],
      "name": "priceAfterDiscount",
      "outputs": [
        {
          "internalType": "uint256",
          "name": "cost",
          "type": "uint256"
        }
      ],
      "stateMutability": "view",
      "type": "function"
    },
    {
      "inputs": [],
      "name": "proxiableUUID",
      "outputs": [
        {
          "internalType": "bytes32",
          "name": "",
          "type": "bytes32"
        }
      ],
      "stateMutability": "view",
      "type": "function"
    },
    {
      "inputs": [
        {
          "internalType": "address",
          "name": "_token",
          "type": "address"
        },
        {
          "internalType": "address",
          "name": "_to",
          "type": "address"
        },
        {
          "internalType": "uint256",
          "name": "_amount",
          "type": "uint256"
        }
      ],
      "name": "recoverFunds",
      "outputs": [],
      "stateMutability": "nonpayable",
      "type": "function"
    },
    {
      "inputs": [
        {
          "internalType": "uint256",
          "name": "identifier",
          "type": "uint256"
        },
        {
          "internalType": "string",
          "name": "name",
          "type": "string"
        },
        {
          "internalType": "uint256",
          "name": "duration",
          "type": "uint256"
        }
      ],
      "name": "rentPrice",
      "outputs": [
        {
          "components": [
            {
              "internalType": "uint256",
              "name": "base",
              "type": "uint256"
            },
            {
              "internalType": "uint256",
              "name": "premium",
              "type": "uint256"
            }
          ],
          "internalType": "struct IPriceOracle.Price",
          "name": "price",
          "type": "tuple"
        }
      ],
      "stateMutability": "view",
      "type": "function"
    },
    {
      "inputs": [
        {
          "internalType": "uint256",
          "name": "identifier",
          "type": "uint256"
        },
        {
          "internalType": "string",
          "name": "name",
          "type": "string"
        },
        {
          "internalType": "uint256",
          "name": "duration",
          "type": "uint256"
        }
      ],
      "name": "rentPriceInUSD",
      "outputs": [
        {
          "components": [
            {
              "internalType": "uint256",
              "name": "base",
              "type": "uint256"
            },
            {
              "internalType": "uint256",
              "name": "premium",
              "type": "uint256"
            }
          ],
          "internalType": "struct IPriceOracle.Price",
          "name": "price",
          "type": "tuple"
        }
      ],
      "stateMutability": "view",
      "type": "function"
    },
    {
      "inputs": [],
      "name": "reverseRegistrar",
      "outputs": [
        {
          "internalType": "contract IReverseRegistrar",
          "name": "",
          "type": "address"
        }
      ],
      "stateMutability": "view",
      "type": "function"
    },
    {
      "inputs": [],
      "name": "sann",
      "outputs": [
        {
          "internalType": "contract ISANN",
          "name": "",
          "type": "address"
        }
      ],
      "stateMutability": "view",
      "type": "function"
    },
    {
      "inputs": [
        {
          "internalType": "uint256",
          "name": "identifier",
          "type": "uint256"
        },
        {
          "internalType": "uint256",
          "name": "_maxDomainLength",
          "type": "uint256"
        }
      ],
      "name": "setMaxDomainLength",
      "outputs": [],
      "stateMutability": "nonpayable",
      "type": "function"
    },
    {
      "inputs": [
        {
          "internalType": "uint256",
          "name": "identifier",
          "type": "uint256"
        },
        {
          "internalType": "uint256",
          "name": "_minDomainLength",
          "type": "uint256"
        }
      ],
      "name": "setMinDomainLength",
      "outputs": [],
      "stateMutability": "nonpayable",
      "type": "function"
    },
    {
      "inputs": [
        {
          "internalType": "uint256",
          "name": "identifier",
          "type": "uint256"
        },
        {
          "internalType": "uint256",
          "name": "_minRegistrationDuration",
          "type": "uint256"
        }
      ],
      "name": "setMinRegistrationDuration",
      "outputs": [],
      "stateMutability": "nonpayable",
      "type": "function"
    },
    {
      "inputs": [
        {
          "internalType": "uint256",
          "name": "identifier",
          "type": "uint256"
        },
        {
          "internalType": "uint256",
          "name": "_minRenewDuration",
          "type": "uint256"
        }
      ],
      "name": "setMinRenewDuration",
      "outputs": [],
      "stateMutability": "nonpayable",
      "type": "function"
    },
    {
      "inputs": [
        {
          "internalType": "uint256",
          "name": "identifier",
          "type": "uint256"
        },
        {
          "internalType": "uint256",
          "name": "_mintCap",
          "type": "uint256"
        }
      ],
      "name": "setMintCap",
      "outputs": [],
      "stateMutability": "nonpayable",
      "type": "function"
    },
    {
      "inputs": [
        {
          "internalType": "uint256",
          "name": "identifier",
          "type": "uint256"
        },
        {
          "internalType": "address",
          "name": "_hook",
          "type": "address"
        }
      ],
      "name": "setPointHook",
      "outputs": [],
      "stateMutability": "nonpayable",
      "type": "function"
    },
    {
      "inputs": [
        {
          "internalType": "uint256",
          "name": "identifier",
          "type": "uint256"
        },
        {
          "internalType": "address",
          "name": "_hook",
          "type": "address"
        }
      ],
      "name": "setPriceHook",
      "outputs": [],
      "stateMutability": "nonpayable",
      "type": "function"
    },
    {
      "inputs": [
        {
          "internalType": "uint256",
          "name": "identifier",
          "type": "uint256"
        },
        {
          "internalType": "address",
          "name": "_hook",
          "type": "address"
        }
      ],
      "name": "setQualificationHook",
      "outputs": [],
      "stateMutability": "nonpayable",
      "type": "function"
    },
    {
      "inputs": [
        {
          "internalType": "uint256",
          "name": "identifier",
          "type": "uint256"
        },
        {
          "internalType": "address",
          "name": "_hook",
          "type": "address"
        }
      ],
      "name": "setRenewPointHook",
      "outputs": [],
      "stateMutability": "nonpayable",
      "type": "function"
    },
    {
      "inputs": [
        {
          "internalType": "uint256",
          "name": "identifier",
          "type": "uint256"
        },
        {
          "internalType": "address",
          "name": "_hook",
          "type": "address"
        }
      ],
      "name": "setRenewPriceHook",
      "outputs": [],
      "stateMutability": "nonpayable",
      "type": "function"
    },
    {
      "inputs": [
        {
          "internalType": "uint256",
          "name": "identifier",
          "type": "uint256"
        },
        {
          "internalType": "address",
          "name": "_hook",
          "type": "address"
        }
      ],
      "name": "setRenewRewardHook",
      "outputs": [],
      "stateMutability": "nonpayable",
      "type": "function"
    },
    {
      "inputs": [
        {
          "internalType": "uint256",
          "name": "identifier",
          "type": "uint256"
        },
        {
          "internalType": "address",
          "name": "_hook",
          "type": "address"
        }
      ],
      "name": "setRewardHook",
      "outputs": [],
      "stateMutability": "nonpayable",
      "type": "function"
    },
    {
      "inputs": [
        {
          "internalType": "uint256",
          "name": "identifier",
          "type": "uint256"
        },
        {
          "components": [
            {
              "internalType": "uint256",
              "name": "minDomainLength",
              "type": "uint256"
            },
            {
              "internalType": "uint256",
              "name": "maxDomainLength",
              "type": "uint256"
            },
            {
              "internalType": "uint256",
              "name": "minRegistrationDuration",
              "type": "uint256"
            },
            {
              "internalType": "uint256",
              "name": "minRenewDuration",
              "type": "uint256"
            },
            {
              "internalType": "uint256",
              "name": "mintCap",
              "type": "uint256"
            }
          ],
          "internalType": "struct TldConfig",
          "name": "_config",
          "type": "tuple"
        }
      ],
      "name": "setTldConfigs",
      "outputs": [],
      "stateMutability": "nonpayable",
      "type": "function"
    },
    {
      "inputs": [
        {
          "internalType": "uint256",
          "name": "identifier",
          "type": "uint256"
        },
        {
          "internalType": "address",
          "name": "_qualificationHook",
          "type": "address"
        },
        {
          "internalType": "address",
          "name": "_priceHook",
          "type": "address"
        },
        {
          "internalType": "address",
          "name": "_rewardHook",
          "type": "address"
        },
        {
          "internalType": "address",
          "name": "_renewPriceHook",
          "type": "address"
        },
        {
          "internalType": "address",
          "name": "_renewRewardHook",
          "type": "address"
        }
      ],
      "name": "setTldHooks",
      "outputs": [],
      "stateMutability": "nonpayable",
      "type": "function"
    },
    {
      "inputs": [
        {
          "internalType": "uint256",
          "name": "identifier",
          "type": "uint256"
        },
        {
          "internalType": "address",
          "name": "priceOracle",
          "type": "address"
        }
      ],
      "name": "setTldPriceOracle",
      "outputs": [],
      "stateMutability": "nonpayable",
      "type": "function"
    },
    {
      "inputs": [
        {
          "internalType": "uint256",
          "name": "",
          "type": "uint256"
        }
      ],
      "name": "tldConfigs",
      "outputs": [
        {
          "internalType": "uint256",
          "name": "minDomainLength",
          "type": "uint256"
        },
        {
          "internalType": "uint256",
          "name": "maxDomainLength",
          "type": "uint256"
        },
        {
          "internalType": "uint256",
          "name": "minRegistrationDuration",
          "type": "uint256"
        },
        {
          "internalType": "uint256",
          "name": "minRenewDuration",
          "type": "uint256"
        },
        {
          "internalType": "uint256",
          "name": "mintCap",
          "type": "uint256"
        }
      ],
      "stateMutability": "view",
      "type": "function"
    },
    {
      "inputs": [
        {
          "internalType": "uint256",
          "name": "",
          "type": "uint256"
        }
      ],
      "name": "tldHooks",
      "outputs": [
        {
          "internalType": "contract IQualificationHook",
          "name": "qualificationHook",
          "type": "address"
        },
        {
          "internalType": "contract IPriceHook",
          "name": "priceHook",
          "type": "address"
        },
        {
          "internalType": "contract IPointHook",
          "name": "pointHook",
          "type": "address"
        },
        {
          "internalType": "contract IRewardHook",
          "name": "rewardHook",
          "type": "address"
        },
        {
          "internalType": "contract IRenewPriceHook",
          "name": "renewPriceHook",
          "type": "address"
        },
        {
          "internalType": "contract IRenewPointHook",
          "name": "renewPointHook",
          "type": "address"
        },
        {
          "internalType": "contract IRenewRewardHook",
          "name": "renewRewardHook",
          "type": "address"
        }
      ],
      "stateMutability": "view",
      "type": "function"
    },
    {
      "inputs": [
        {
          "internalType": "uint256",
          "name": "",
          "type": "uint256"
        }
      ],
      "name": "tldPriceOracles",
      "outputs": [
        {
          "internalType": "contract IPriceOracle",
          "name": "",
          "type": "address"
        }
      ],
      "stateMutability": "view",
      "type": "function"
    },
    {
      "inputs": [
        {
          "internalType": "uint256",
          "name": "",
          "type": "uint256"
        }
      ],
      "name": "tldRevenues",
      "outputs": [
        {
          "internalType": "uint256",
          "name": "",
          "type": "uint256"
        }
      ],
      "stateMutability": "view",
      "type": "function"
    },
    {
      "inputs": [
        {
          "internalType": "address",
          "name": "newImplementation",
          "type": "address"
        }
      ],
      "name": "upgradeTo",
      "outputs": [],
      "stateMutability": "nonpayable",
      "type": "function"
    },
    {
      "inputs": [
        {
          "internalType": "address",
          "name": "newImplementation",
          "type": "address"
        },
        {
          "internalType": "bytes",
          "name": "data",
          "type": "bytes"
        }
      ],
      "name": "upgradeToAndCall",
      "outputs": [],
      "stateMutability": "payable",
      "type": "function"
    },
    {
      "inputs": [
        {
          "internalType": "uint256",
          "name": "identifier",
          "type": "uint256"
        }
      ],
      "name": "withdraw",
      "outputs": [],
      "stateMutability": "nonpayable",
      "type": "function"
    },
    {
      "inputs": [],
      "name": "withdrawPlatformFee",
      "outputs": [],
      "stateMutability": "nonpayable",
      "type": "function"
    },
    {
      "stateMutability": "payable",
      "type": "receive"
    }
  ],
  "bytecode": "0x60a0604052306080523480156200001557600080fd5b506200002062000026565b620000e7565b600054610100900460ff1615620000935760405162461bcd60e51b815260206004820152602760248201527f496e697469616c697a61626c653a20636f6e747261637420697320696e697469604482015266616c697a696e6760c81b606482015260840160405180910390fd5b60005460ff90811614620000e5576000805460ff191660ff9081179091556040519081527f7f26b83ff96e1f2b6a682f133852f6798a09c465da95921460cefb38474024989060200160405180910390a15b565b6080516156906200011f6000396000818161126d015281816112ad0152818161134c0152818161138c015261141b01526156906000f3fe6080604052600436106102605760003560e01c80638086985311610144578063d2bc8adc116100b6578063e6bc7ea21161007a578063e6bc7ea2146107de578063e944463c146107fe578063f1af9c5e1461081e578063f2f47b841461083e578063fd5bc42e146108b0578063fdd32ec4146108d057600080fd5b8063d2bc8adc14610742578063d45e7ed014610762578063d46da38714610782578063de48bbcb146107a8578063e3c98ba0146107c857600080fd5b8063ac7ad44311610108578063ac7ad44314610681578063b34de3e7146106bc578063b442c8cf146106dc578063b863dcdd146106ef578063c048cb201461070f578063ccb787cb1461072f57600080fd5b806380869853146105ee57806382a352e71461060e5780639fb27d1d1461062e578063a289cf841461064e578063a494e5cf1461066e57600080fd5b806332692b89116101dd57806352d1902d116101a157806352d1902d14610539578063576b3a641461054e5780635d3590d51461056e57806363dfd0e81461058e578063669ce5cd146105ae5780636909579b146105ce57600080fd5b806332692b89146104855780633659cfe61461049857806343d6807b146104b85780634d24e236146105065780634f1ef2861461052657600080fd5b80631f038947116102245780631f038947146103d4578063202cefd5146103f457806323a7c86d146104095780632cb130d4146104295780632e1a7d4d1461046557600080fd5b806302d8f56d1461026c578063076730c7146102ac57806308d2396f146102ce5780631459457a146102fe5780631be0d2af1461031e57600080fd5b3661026757005b600080fd5b34801561027857600080fd5b5061029961028736600461485e565b60386020526000908152604090205481565b6040519081526020015b60405180910390f35b3480156102b857600080fd5b506102cc6102c736600461488c565b6108f0565b005b3480156102da57600080fd5b506102ee6102e9366004614904565b610a0a565b60405190151581526020016102a3565b34801561030a57600080fd5b506102cc61031936600461494f565b610b23565b34801561032a57600080fd5b5061038b61033936600461485e565b60356020526000908152604090208054600182015460028301546003840154600485015460058601546006909601546001600160a01b0395861696948616959384169492841693918216928216911687565b604080516001600160a01b039889168152968816602088015294871694860194909452918516606085015284166080840152831660a083015290911660c082015260e0016102a3565b3480156103e057600080fd5b506102cc6103ef3660046149c0565b610c88565b34801561040057600080fd5b506102cc610d78565b34801561041557600080fd5b506102cc6104243660046149c0565b610f0a565b34801561043557600080fd5b50604080518082018252600d81526c2732bb902932b3b4b9ba3930b960991b602082015290516102a39190614a32565b34801561047157600080fd5b506102cc61048036600461485e565b610ffa565b610299610493366004614a89565b611162565b3480156104a457600080fd5b506102cc6104b3366004614b0b565b611263565b3480156104c457600080fd5b506104ee6104d336600461485e565b6036602052600090815260409020546001600160a01b031681565b6040516001600160a01b0390911681526020016102a3565b34801561051257600080fd5b506001546104ee906001600160a01b031681565b6102cc610534366004614b95565b611342565b34801561054557600080fd5b5061029961140e565b34801561055a57600080fd5b50603a546104ee906001600160a01b031681565b34801561057a57600080fd5b506102cc610589366004614c27565b6114c1565b34801561059a57600080fd5b506102cc6105a936600461488c565b6115cd565b3480156105ba57600080fd5b506102cc6105c936600461488c565b6116d7565b3480156105da57600080fd5b506104ee6105e936600461485e565b6117de565b3480156105fa57600080fd5b50603b546104ee906001600160a01b031681565b34801561061a57600080fd5b506102cc610629366004614c68565b611814565b34801561063a57600080fd5b506102cc6106493660046149c0565b611a64565b34801561065a57600080fd5b506037546104ee906001600160a01b031681565b61029961067c366004614cef565b611b66565b34801561068d57600080fd5b506106a161069c366004614db1565b611be7565b604080518251815260209283015192810192909252016102a3565b3480156106c857600080fd5b506102cc6106d736600461488c565b611c87565b6102996106ea366004614e03565b611d8e565b3480156106fb57600080fd5b506102cc61070a3660046149c0565b611e77565b34801561071b57600080fd5b506102cc61072a366004614e9a565b611fdc565b61029961073d366004614cef565b6120c7565b34801561074e57600080fd5b506102cc61075d36600461488c565b612130565b34801561076e57600080fd5b506102cc61077d36600461488c565b612237565b34801561078e57600080fd5b506000546104ee906201000090046001600160a01b031681565b3480156107b457600080fd5b506102996107c3366004614ed2565b61233e565b3480156107d457600080fd5b5061029960395481565b3480156107ea57600080fd5b506102cc6107f936600461488c565b6123b6565b34801561080a57600080fd5b506102cc61081936600461488c565b6124b8565b34801561082a57600080fd5b506102cc6108393660046149c0565b6125bf565b34801561084a57600080fd5b5061088861085936600461485e565b603460205260009081526040902080546001820154600283015460038401546004909401549293919290919085565b604080519586526020860194909452928401919091526060830152608082015260a0016102a3565b3480156108bc57600080fd5b506106a16108cb366004614db1565b61272e565b3480156108dc57600080fd5b506102996108eb366004614f11565b612784565b60005460405162e4decd60e31b815283913391620100009091046001600160a01b031690630726f6689061092c90859060040190815260200190565b602060405180830381865afa158015610949573d6000803e3d6000fd5b505050506040513d601f19601f8201168201806040525081019061096d9190614f95565b6001600160a01b03161461099c5760405162461bcd60e51b815260040161099390614fb2565b60405180910390fd5b6000838152603560209081526040918290206003810180546001600160a01b0319166001600160a01b038716908117909155835187815292830152917fe204b1408cc4313756b658144b601fe723a958484dc182f37e0ded386a94ef7d91015b60405180910390a150505050565b60008054604051632c7263b560e01b81526004810186905282916201000090046001600160a01b031690632c7263b590602401602060405180830381865afa158015610a5a573d6000803e3d6000fd5b505050506040513d601f19601f82011682018060405250810190610a7e9190614f95565b905060008484604051610a92929190614ff6565b60405180910390209050610aa78686866128c7565b8015610b1757506040516312dc929d60e31b8152600481018290526001600160a01b038316906396e494e890602401602060405180830381865afa158015610af3573d6000803e3d6000fd5b505050506040513d601f19601f82011682018060405250810190610b179190615006565b925050505b9392505050565b600054610100900460ff1615808015610b435750600054600160ff909116105b80610b5d5750303b158015610b5d575060005460ff166001145b610bc05760405162461bcd60e51b815260206004820152602e60248201527f496e697469616c697a61626c653a20636f6e747261637420697320616c72656160448201526d191e481a5b9a5d1a585b1a5e995960921b6064820152608401610993565b6000805460ff191660011790558015610be3576000805461ff0019166101001790555b603780546001600160a01b038087166001600160a01b031992831617909255603a8054868416908316179055603b805492851692909116919091179055610c2986612ac7565b610c3285612b18565b610c3a612b61565b8015610c80576000805461ff0019169055604051600181527f7f26b83ff96e1f2b6a682f133852f6798a09c465da95921460cefb38474024989060200160405180910390a15b505050505050565b60005460405162e4decd60e31b815283913391620100009091046001600160a01b031690630726f66890610cc490859060040190815260200190565b602060405180830381865afa158015610ce1573d6000803e3d6000fd5b505050506040513d601f19601f82011682018060405250810190610d059190614f95565b6001600160a01b031614610d2b5760405162461bcd60e51b815260040161099390614fb2565b600083815260346020908152604091829020600381018590558251868152918201859052917fcce38ffda70360ed2c66d1a39c523ef1d8aa472a5606b6c0a528d5ecf2fe52fe91016109fc565b6001546040805163853a65f960e01b8152905133926001600160a01b03169163853a65f99160048083019260209291908290030181865afa158015610dc1573d6000803e3d6000fd5b505050506040513d601f19601f82011682018060405250810190610de59190614f95565b6001600160a01b031614610e555760405162461bcd60e51b815260206004820152603160248201527f4f776e61626c653a2063616c6c6572206973206e6f742074686520706c61746660448201527037b936903332b29031b7b63632b1ba37b960791b6064820152608401610993565b60398054600090915580610e9e5760405162461bcd60e51b815260206004820152601060248201526f696e73756666696369656e742066656560801b6044820152606401610993565b604051600090339083908381818185875af1925050503d8060008114610ee0576040519150601f19603f3d011682016040523d82523d6000602084013e610ee5565b606091505b5050905080610f065760405162461bcd60e51b815260040161099390615023565b5050565b60005460405162e4decd60e31b815283913391620100009091046001600160a01b031690630726f66890610f4690859060040190815260200190565b602060405180830381865afa158015610f63573d6000803e3d6000fd5b505050506040513d601f19601f82011682018060405250810190610f879190614f95565b6001600160a01b031614610fad5760405162461bcd60e51b815260040161099390614fb2565b600083815260346020908152604091829020600281018590558251868152918201859052917fe8c4cdf070fb09893e85544385665a343aef60941524ba76f869c565982c4c2891016109fc565b60005460405162e4decd60e31b815282913391620100009091046001600160a01b031690630726f6689061103690859060040190815260200190565b602060405180830381865afa158015611053573d6000803e3d6000fd5b505050506040513d601f19601f820116820180604052508101906110779190614f95565b6001600160a01b03161461109d5760405162461bcd60e51b815260040161099390614fb2565b60008281526038602052604081208054919055806110f45760405162461bcd60e51b8152602060048201526014602482015273696e73756666696369656e7420726576656e756560601b6044820152606401610993565b604051600090339083908381818185875af1925050503d8060008114611136576040519150601f19603f3d011682016040523d82523d6000602084013e61113b565b606091505b505090508061115c5760405162461bcd60e51b815260040161099390615023565b50505050565b60008080805b87811015611247576000808987036111d7576111cd8c8c8c8681811061119057611190615051565b90506020028101906111a29190615067565b8c338d8d8a8181106111b6576111b6615051565b90506020028101906111c89190615067565b612b92565b909250905061121a565b6112148c8c8c868181106111ed576111ed615051565b90506020028101906111ff9190615067565b8c338d8d60008181106111b6576111b6615051565b90925090505b61122482856150c3565b935061123081866150c3565b94505050808061123f906150d6565b915050611168565b5060006112558a8385612d85565b9a9950505050505050505050565b6001600160a01b037f00000000000000000000000000000000000000000000000000000000000000001630036112ab5760405162461bcd60e51b8152600401610993906150ef565b7f00000000000000000000000000000000000000000000000000000000000000006001600160a01b03166112f4600080516020615614833981519152546001600160a01b031690565b6001600160a01b03161461131a5760405162461bcd60e51b81526004016109939061513b565b61132381613000565b6040805160008082526020820190925261133f91839190613099565b50565b6001600160a01b037f000000000000000000000000000000000000000000000000000000000000000016300361138a5760405162461bcd60e51b8152600401610993906150ef565b7f00000000000000000000000000000000000000000000000000000000000000006001600160a01b03166113d3600080516020615614833981519152546001600160a01b031690565b6001600160a01b0316146113f95760405162461bcd60e51b81526004016109939061513b565b61140282613000565b610f0682826001613099565b6000306001600160a01b037f000000000000000000000000000000000000000000000000000000000000000016146114ae5760405162461bcd60e51b815260206004820152603860248201527f555550535570677261646561626c653a206d757374206e6f742062652063616c60448201527f6c6564207468726f7567682064656c656761746563616c6c00000000000000006064820152608401610993565b5060008051602061561483398151915290565b6000546040805163cdcd7fb560e01b8152905133926201000090046001600160a01b03169163cdcd7fb59160048083019260209291908290030181865afa158015611510573d6000803e3d6000fd5b505050506040513d601f19601f820116820180604052508101906115349190614f95565b6001600160a01b03161461155a5760405162461bcd60e51b815260040161099390615187565b60405163a9059cbb60e01b81526001600160a01b0383811660048301526024820183905284169063a9059cbb906044016020604051808303816000875af11580156115a9573d6000803e3d6000fd5b505050506040513d601f19601f8201168201806040525081019061115c9190615006565b60005460405162e4decd60e31b815283913391620100009091046001600160a01b031690630726f6689061160990859060040190815260200190565b602060405180830381865afa158015611626573d6000803e3d6000fd5b505050506040513d601f19601f8201168201806040525081019061164a9190614f95565b6001600160a01b0316146116705760405162461bcd60e51b815260040161099390614fb2565b60008381526036602090815260409182902080546001600160a01b0319166001600160a01b0386169081179091558251868152918201527f0e65447dcb916c8017fbe654fdd00b172fec1f0e7803018a37050e700c20a37f910160405180910390a1505050565b60005460405162e4decd60e31b815283913391620100009091046001600160a01b031690630726f6689061171390859060040190815260200190565b602060405180830381865afa158015611730573d6000803e3d6000fd5b505050506040513d601f19601f820116820180604052508101906117549190614f95565b6001600160a01b03161461177a5760405162461bcd60e51b815260040161099390614fb2565b6000838152603560209081526040918290206005810180546001600160a01b0319166001600160a01b038716908117909155835187815292830152917fcf1f0d17ea01938c06cba546f89b9b7dda5f259ef5b77a4733ec642bceb008eb91016109fc565b6000818152603660205260408120546001600160a01b03168061180e575050603a546001600160a01b0316919050565b92915050565b60005460405162e4decd60e31b815287913391620100009091046001600160a01b031690630726f6689061185090859060040190815260200190565b602060405180830381865afa15801561186d573d6000803e3d6000fd5b505050506040513d601f19601f820116820180604052508101906118919190614f95565b6001600160a01b0316146118b75760405162461bcd60e51b815260040161099390614fb2565b60008781526035602090815260409182902080546001600160a01b03199081166001600160a01b038b8116918217845560018401805484168c831617905560038401805484168b831617905560048401805484168a83161790556006840180549093169088161790915583518b815292830152917fac577474c2505adbd93b1ddd44b3a31ec78fe871b97a97dd15f2ae2fdea45776910160405180910390a1604080518981526001600160a01b03881660208201527fc7f42afd8cbc412e62bfa6e8bc2866776a5ac1caaaf585d2faf16ccde19fbef5910160405180910390a1604080518981526001600160a01b03871660208201527fe204b1408cc4313756b658144b601fe723a958484dc182f37e0ded386a94ef7d910160405180910390a1604080518981526001600160a01b03861660208201527f34b3dc41ee7dd660208f82c4dea165b04dbc34ba2272219bc0be902798d8904b910160405180910390a1604080518981526001600160a01b03851660208201527fbce6be89b296a4efbc6a0e570267d046bcd4816102c86bfc0388b54eb0bb676a910160405180910390a15050505050505050565b60005460405162e4decd60e31b815283913391620100009091046001600160a01b031690630726f66890611aa090859060040190815260200190565b602060405180830381865afa158015611abd573d6000803e3d6000fd5b505050506040513d601f19601f82011682018060405250810190611ae19190614f95565b6001600160a01b031614611b075760405162461bcd60e51b815260040161099390614fb2565b60008381526034602052604090208215611b275760048101839055611b30565b60001960048201555b60408051858152602081018590527fd0705bce265d909a183d44137621ac0cead8ebcd1a59e86bab7fe1da3ad566da91016109fc565b60003315611b7357600080fd5b6040805160a0810182526001600160a01b03808a16808352602083015291810188905290861660608201528415156080820152600080611bb78d8d8d868a8a613204565b915091506000611bc88e8484612d85565b905080604051633573016360e01b815260040161099391815260200190565b60408051808201909152600080825260208201526000611c06866117de565b604051630502c67560e01b81529091506001600160a01b03821690630502c67590611c3d9088908890429089908d906004016151fc565b6040805180830381865afa158015611c59573d6000803e3d6000fd5b505050506040513d601f19601f82011682018060405250810190611c7d919061522d565b9695505050505050565b60005460405162e4decd60e31b815283913391620100009091046001600160a01b031690630726f66890611cc390859060040190815260200190565b602060405180830381865afa158015611ce0573d6000803e3d6000fd5b505050506040513d601f19601f82011682018060405250810190611d049190614f95565b6001600160a01b031614611d2a5760405162461bcd60e51b815260040161099390614fb2565b6000838152603560209081526040918290206002810180546001600160a01b0319166001600160a01b038716908117909155835187815292830152917f8a1b187e18ba1cf07ac179c27384169e67be275060c3b2dc512da41492be9fee91016109fc565b60003315611d9b57600080fd5b60008060005b88811015611e69576000808a8703611df957611def8d8d8d86818110611dc957611dc9615051565b9050602002810190611ddb9190615067565b8d8d8d8d8a8181106111b6576111b6615051565b9092509050611e3c565b611e368d8d8d86818110611e0f57611e0f615051565b9050602002810190611e219190615067565b8d8d8d8d60008181106111b6576111b6615051565b90925090505b611e4682856150c3565b9350611e5281866150c3565b945050508080611e61906150d6565b915050611da1565b506000611bc88b8385612d85565b60005460405162e4decd60e31b815283913391620100009091046001600160a01b031690630726f66890611eb390859060040190815260200190565b602060405180830381865afa158015611ed0573d6000803e3d6000fd5b505050506040513d601f19601f82011682018060405250810190611ef49190614f95565b6001600160a01b031614611f1a5760405162461bcd60e51b815260040161099390614fb2565b60008381526034602052604090208054831015611f9f5760405162461bcd60e51b815260206004820152603b60248201527f6d6178446f6d61696e4c656e677468206d75737420626520677265617465722060448201527f6f7220657175616c20746f206d696e446f6d61696e4c656e67746800000000006064820152608401610993565b6001810183905560408051858152602081018590527f5cc178cc645fedac2530cae167f2d00984528d986ad85e645f0283deac25fcf291016109fc565b60005460405162e4decd60e31b815283913391620100009091046001600160a01b031690630726f6689061201890859060040190815260200190565b602060405180830381865afa158015612035573d6000803e3d6000fd5b505050506040513d601f19601f820116820180604052508101906120599190614f95565b6001600160a01b03161461207f5760405162461bcd60e51b815260040161099390614fb2565b61208d838360200135611e77565b6120988383356125bf565b6120a6838360800135611a64565b6120b4838360400135610f0a565b6120c2838360600135610c88565b505050565b6040805160a0810182523381526001600160a01b03888116602083015291810187905290851660608201528315156080820152600090818061210d8d8d8d868a8a613204565b91509150600061211e8e8484612d85565b9e9d5050505050505050505050505050565b60005460405162e4decd60e31b815283913391620100009091046001600160a01b031690630726f6689061216c90859060040190815260200190565b602060405180830381865afa158015612189573d6000803e3d6000fd5b505050506040513d601f19601f820116820180604052508101906121ad9190614f95565b6001600160a01b0316146121d35760405162461bcd60e51b815260040161099390614fb2565b6000838152603560209081526040918290206004810180546001600160a01b0319166001600160a01b038716908117909155835187815292830152917f34b3dc41ee7dd660208f82c4dea165b04dbc34ba2272219bc0be902798d8904b91016109fc565b60005460405162e4decd60e31b815283913391620100009091046001600160a01b031690630726f6689061227390859060040190815260200190565b602060405180830381865afa158015612290573d6000803e3d6000fd5b505050506040513d601f19601f820116820180604052508101906122b49190614f95565b6001600160a01b0316146122da5760405162461bcd60e51b815260040161099390614fb2565b6000838152603560209081526040918290206006810180546001600160a01b0319166001600160a01b038716908117909155835187815292830152917fbce6be89b296a4efbc6a0e570267d046bcd4816102c86bfc0388b54eb0bb676a91016109fc565b6000805b838110156123ad57600061237a8787878581811061236257612362615051565b90506020028101906123749190615067565b8761272e565b6020810151815191925061238d916150c3565b61239790846150c3565b92505080806123a5906150d6565b915050612342565b50949350505050565b60005460405162e4decd60e31b815283913391620100009091046001600160a01b031690630726f668906123f290859060040190815260200190565b602060405180830381865afa15801561240f573d6000803e3d6000fd5b505050506040513d601f19601f820116820180604052508101906124339190614f95565b6001600160a01b0316146124595760405162461bcd60e51b815260040161099390614fb2565b60008381526035602090815260409182902080546001600160a01b0319166001600160a01b0386169081178255835187815292830152917fac577474c2505adbd93b1ddd44b3a31ec78fe871b97a97dd15f2ae2fdea4577691016109fc565b60005460405162e4decd60e31b815283913391620100009091046001600160a01b031690630726f668906124f490859060040190815260200190565b602060405180830381865afa158015612511573d6000803e3d6000fd5b505050506040513d601f19601f820116820180604052508101906125359190614f95565b6001600160a01b03161461255b5760405162461bcd60e51b815260040161099390614fb2565b6000838152603560209081526040918290206001810180546001600160a01b0319166001600160a01b038716908117909155835187815292830152917fc7f42afd8cbc412e62bfa6e8bc2866776a5ac1caaaf585d2faf16ccde19fbef591016109fc565b60005460405162e4decd60e31b815283913391620100009091046001600160a01b031690630726f668906125fb90859060040190815260200190565b602060405180830381865afa158015612618573d6000803e3d6000fd5b505050506040513d601f19601f8201168201806040525081019061263c9190614f95565b6001600160a01b0316146126625760405162461bcd60e51b815260040161099390614fb2565b60008381526034602052604090208215801590612683575080600101548311155b6126f55760405162461bcd60e51b815260206004820152603860248201527f6d696e446f6d61696e4c656e677468206d757374206265206c657373206f722060448201527f657175616c20746f206d6178446f6d61696e4c656e67746800000000000000006064820152608401610993565b82815560408051858152602081018590527f5a76e4dbb1f005eb83fcaadd13ceb68b0e0b3e0114c4c53fb8d38e3f9070379191016109fc565b6040805180820190915260008082526020820152600061274d866117de565b6040516364c9075f60e11b81529091506001600160a01b0382169063c9920ebe90611c3d9088908890429089908d906004016151fc565b60008061279389898988611be7565b602081015181519192506127a6916150c3565b60008a8152603560205260409020600181015491935091506001600160a01b0316156128505760018101546040516393ba731b60e01b81526001600160a01b03909116906393ba731b9061280c908c908c908c908c908c908a908d908d9060040161527b565b602060405180830381865afa158015612829573d6000803e3d6000fd5b505050506040513d601f19601f8201168201806040525081019061284d91906152d4565b91505b600061285b8a6117de565b6040516368a33fc360e11b8152600481018590529091506001600160a01b0382169063d1467f8690602401602060405180830381865afa1580156128a3573d6000803e3d6000fd5b505050506040513d601f19601f8201168201806040525081019061125591906152d4565b60008381526034602052604080822082549151632c7263b560e01b81526004810187905290918391620100009091046001600160a01b031690632c7263b590602401602060405180830381865afa158015612926573d6000803e3d6000fd5b505050506040513d601f19601f8201168201806040525081019061294a9190614f95565b9050816000015461299086868080601f0160208091040260200160405190810160405280939291908181526020018383808284376000920191909152506132f392505050565b10156129a157600092505050610b1c565b81600101546129e586868080601f0160208091040260200160405190810160405280939291908181526020018383808284376000920191909152506132f392505050565b11156129f657600092505050610b1c565b612a3585858080601f0160208091040260200160405190810160405280939291908181526020018383808284376000920191909152506133f692505050565b612a4457600092505050610b1c565b806001600160a01b0316636f3d8fe86040518163ffffffff1660e01b8152600401602060405180830381865afa158015612a82573d6000803e3d6000fd5b505050506040513d601f19601f82011682018060405250810190612aa691906152d4565b826004015411612abb57600092505050610b1c565b50600195945050505050565b600054610100900460ff16612aee5760405162461bcd60e51b8152600401610993906152ed565b600080546001600160a01b03909216620100000262010000600160b01b0319909216919091179055565b600054610100900460ff16612b3f5760405162461bcd60e51b8152600401610993906152ed565b600180546001600160a01b0319166001600160a01b0392909216919091179055565b600054610100900460ff16612b885760405162461bcd60e51b8152600401610993906152ed565b612b90613608565b565b600080612b9d613636565b60008981526034602052604090206003810154871015612bda57604051634086703360e11b8152600481018b905260248101889052604401610993565b50600080612bea8b8b8b8b611be7565b60208101518151919250612bfd916150c3565b60008c8152603560205260409020600481015491935091506001600160a01b031615612c45576004810154612c42906001600160a01b03168c8c8c8b8d888d8d61368d565b91505b6001546040516338ad915960e01b8152600481018d9052602481018490526001600160a01b03909116906338ad915990604401602060405180830381865afa158015612c95573d6000803e3d6000fd5b505050506040513d601f19601f82011682018060405250810190612cb991906152d4565b9250818310612ccb5760009350612cd8565b612cd58383615338565b93505b60058101546001600160a01b031615612d2c576005810154612d0b906001600160a01b03168c8c8c8b8d888a8e8e6136e9565b93509150828210612d2757612d208383615338565b9350612d2c565b600093505b60068101546001600160a01b031615612d60576006810154612d60906001600160a01b03168c8c8c8b8d888b8b8f8f613828565b612d6d8b8b8b8b86613931565b5050612d796001600255565b97509795505050505050565b600080612d91856117de565b905060006001600160a01b03821663d1467f86612dae86886150c3565b6040518263ffffffff1660e01b8152600401612dcc91815260200190565b602060405180830381865afa158015612de9573d6000803e3d6000fd5b505050506040513d601f19601f82011682018060405250810190612e0d91906152d4565b905080341015612e545760405162461bcd60e51b8152602060048201526012602482015271496e73756666696369656e742066756e647360701b6044820152606401610993565b6000612e608234615338565b90508015612ed257604051600090339083908381818185875af1925050503d8060008114612eaa576040519150601f19603f3d011682016040523d82523d6000602084013e612eaf565b606091505b5050905080612ed05760405162461bcd60e51b815260040161099390615023565b505b60008515612f5d576040516368a33fc360e11b8152600481018790526001600160a01b0385169063d1467f8690602401602060405180830381865afa158015612f1f573d6000803e3d6000fd5b505050506040513d601f19601f82011682018060405250810190612f4391906152d4565b90508060396000828254612f5791906150c3565b90915550505b828615612fd0576040516368a33fc360e11b8152600481018990526001600160a01b0386169063d1467f8690602401602060405180830381865afa158015612fa9573d6000803e3d6000fd5b505050506040513d601f19601f82011682018060405250810190612fcd91906152d4565b90505b60008981526038602052604081208054839290612fee9084906150c3565b90915550939998505050505050505050565b6000546040805163cdcd7fb560e01b8152905133926201000090046001600160a01b03169163cdcd7fb59160048083019260209291908290030181865afa15801561304f573d6000803e3d6000fd5b505050506040513d601f19601f820116820180604052508101906130739190614f95565b6001600160a01b03161461133f5760405162461bcd60e51b815260040161099390615187565b7f4910fdfa16fed3260ed0e7147f7cc6da11a60208b5b9406d12a635614ffd91435460ff16156130cc576120c283613a81565b826001600160a01b03166352d1902d6040518163ffffffff1660e01b8152600401602060405180830381865afa925050508015613126575060408051601f3d908101601f19168201909252613123918101906152d4565b60015b6131895760405162461bcd60e51b815260206004820152602e60248201527f45524331393637557067726164653a206e657720696d706c656d656e7461746960448201526d6f6e206973206e6f74205555505360901b6064820152608401610993565b60008051602061561483398151915281146131f85760405162461bcd60e51b815260206004820152602960248201527f45524331393637557067726164653a20756e737570706f727465642070726f786044820152681a58589b195555525160ba1b6064820152608401610993565b506120c2838383613b1d565b60008060005b868110156132e7576000808886036132785761326e8b8b8b8681811061323257613232615051565b90506020028101906132449190615067565b8b8b8b8981811061325757613257615051565b90506020028101906132699190615067565b613b42565b90925090506132ba565b6132b48b8b8b8681811061328e5761328e615051565b90506020028101906132a09190615067565b8b8b8b600081811061325757613257615051565b90925090505b6132c482866150c3565b94506132d081856150c3565b9350505080806132df906150d6565b91505061320a565b50965096945050505050565b8051600090819081905b808210156133ed57600085838151811061331957613319615051565b01602001516001600160f81b0319169050600160ff1b811015613348576133416001846150c3565b92506133da565b600760fd1b6001600160f81b031982161015613369576133416002846150c3565b600f60fc1b6001600160f81b03198216101561338a576133416003846150c3565b601f60fb1b6001600160f81b0319821610156133ab576133416004846150c3565b603f60fa1b6001600160f81b0319821610156133cc576133416005846150c3565b6133d76006846150c3565b92505b50826133e5816150d6565b9350506132fd565b50909392505050565b60008082905060038151101561340f5750600192915050565b60005b600282516134209190615338565b8110156135fe5781818151811061343957613439615051565b6020910101516001600160f81b031916607160f91b1480156134895750816134628260016150c3565b8151811061347257613472615051565b6020910101516001600160f81b031916600160ff1b145b15613546578161349a8260026150c3565b815181106134aa576134aa615051565b6020910101516001600160f81b031916608b60f81b14806134f95750816134d28260026150c3565b815181106134e2576134e2615051565b6020910101516001600160f81b031916602360fa1b145b8061353257508161350b8260026150c3565b8151811061351b5761351b615051565b6020910101516001600160f81b031916608d60f81b145b15613541575060009392505050565b6135ec565b81818151811061355857613558615051565b01602001516001600160f81b03191660ef60f81b036135ec578161357d8260016150c3565b8151811061358d5761358d615051565b6020910101516001600160f81b03191660bb60f81b1480156135dd5750816135b68260026150c3565b815181106135c6576135c6615051565b6020910101516001600160f81b03191660bf60f81b145b156135ec575060009392505050565b806135f6816150d6565b915050613412565b5060019392505050565b600054610100900460ff1661362f5760405162461bcd60e51b8152600401610993906152ed565b6001600255565b60028054036136875760405162461bcd60e51b815260206004820152601f60248201527f5265656e7472616e637947756172643a207265656e7472616e742063616c6c006044820152606401610993565b60028055565b604051630b6ca89760e01b81526000906001600160a01b038b1690630b6ca897906136ca908c908c908c908c908c908c908c908c9060040161527b565b6020604051808303816000875af11580156128a3573d6000803e3d6000fd5b6000806000808d6001600160a01b031663392130da8e8e8e8e8e8e8e8e8e6040518a63ffffffff1660e01b815260040161372b9998979695949392919061534b565b60408051808303816000875af1158015613749573d6000803e3d6000fd5b505050506040513d601f19601f8201168201806040525081019061376d91906153ac565b915091508188101561377e57600080fd5b6137888289615338565b97508681111561379b57506000956137a8565b6137a58188615338565b96505b8015613814576037546040516395d4be7f60e01b8152600481018f9052602481018390526001600160a01b03909116906395d4be7f90604401600060405180830381600087803b1580156137fb57600080fd5b505af115801561380f573d6000803e3d6000fd5b505050505b50959c949b50939950505050505050505050565b60006138338b6117de565b6040516368a33fc360e11b8152600481018790529091506000906001600160a01b0383169063d1467f8690602401602060405180830381865afa15801561387e573d6000803e3d6000fd5b505050506040513d601f19601f820116820180604052508101906138a291906152d4565b9050348111156138b157600080fd5b8c6001600160a01b03166376b0bb7d828e8e8e8e8e8e8e8e8e8e6040518c63ffffffff1660e01b81526004016138f09a999897969594939291906153d0565b6000604051808303818588803b15801561390957600080fd5b505af115801561391d573d6000803e3d6000fd5b505050505050505050505050505050505050565b60008054604051632c7263b560e01b815260048101889052620100009091046001600160a01b031690632c7263b590602401602060405180830381865afa158015613980573d6000803e3d6000fd5b505050506040513d601f19601f820116820180604052508101906139a49190614f95565b9050600085856040516139b8929190614ff6565b60405190819003812063c475abff60e01b8252600482018190526024820186905291506000906001600160a01b0384169063c475abff906044016020604051808303816000875af1158015613a11573d6000803e3d6000fd5b505050506040513d601f19601f82011682018060405250810190613a3591906152d4565b9050817f784220c4d2cf9a5d0361368e22f52f257be5f1e4819cf161d06f62dcec9721168989898886604051613a6f959493929190615437565b60405180910390a25050505050505050565b6001600160a01b0381163b613aee5760405162461bcd60e51b815260206004820152602d60248201527f455243313936373a206e657720696d706c656d656e746174696f6e206973206e60448201526c1bdd08184818dbdb9d1c9858dd609a1b6064820152608401610993565b60008051602061561483398151915280546001600160a01b0319166001600160a01b0392909216919091179055565b613b2683613e15565b600082511180613b335750805b156120c25761115c8383613e55565b600080613b4d613636565b613b58888888610a0a565b613b7b5787878760405163191cb15d60e31b815260040161099393929190615465565b6000888152603460205260409081902060028101549187015190911115613bc657888660400151604051634086703360e11b8152600401610993929190918252602082015260400190565b50600088815260356020526040902080546001600160a01b031615613c0957805486516040880151613c09926001600160a01b0316918c918c918c918b8b613e7a565b600080613c1c8b8b8b8b60400151611be7565b60208101518151919250613c2f916150c3565b60018401549092506001600160a01b0316159050613c7257600182015487516040890151613c6f926001600160a01b0316918d918d918d91878d8d613f23565b90505b60015460405163265cb65160e21b8152600481018c9052602481018390526001600160a01b0390911690639972d94490604401602060405180830381865afa158015613cc2573d6000803e3d6000fd5b505050506040513d601f19601f82011682018060405250810190613ce691906152d4565b9250808310613cf85760009350613d05565b613d028382615338565b93505b60028201546001600160a01b031615613d6257600282015487516040890151613d41926001600160a01b0316918d918d918d91878a8e8e613f60565b93509050828110613d5d57613d568382615338565b9350613d62565b600093505b60038201546001600160a01b031615613d9f57600382015487516040890151613d9f926001600160a01b0316918d918d918d91878b8b8f8f613fa2565b613dba8a8a8a8a602001518b604001518c606001518761406a565b86608001518015613de4575086602001516001600160a01b031687600001516001600160a01b0316145b15613dfe57613dfe8a8a8a8a606001518b60200151614462565b5050613e0a6001600255565b965096945050505050565b613e1e81613a81565b6040516001600160a01b038216907fbc7cd75a20ee27fd9adebab32041f755214dbc6bffa90cc0225b39da2e5c2d3b90600090a250565b6060610b1c83836040518060600160405280602781526020016156346027913961474a565b6040516336625cc360e01b81526000906001600160a01b038a16906336625cc390613eb5908b908b908b908b908b908b908b90600401615488565b6020604051808303816000875af1158015613ed4573d6000803e3d6000fd5b505050506040513d601f19601f82011682018060405250810190613ef89190615006565b905080613f1857604051630f059a9560e21b815260040160405180910390fd5b505050505050505050565b6040516380fd9d8d60e01b81526000906001600160a01b038b16906380fd9d8d906136ca908c908c908c908c908c908c908c908c9060040161527b565b6000806000808d6001600160a01b031663347652e38e8e8e8e8e8e8e8e8e6040518a63ffffffff1660e01b815260040161372b9998979695949392919061534b565b6000613fad8b6117de565b6040516368a33fc360e11b8152600481018790529091506000906001600160a01b0383169063d1467f8690602401602060405180830381865afa158015613ff8573d6000803e3d6000fd5b505050506040513d601f19601f8201168201806040525081019061401c91906152d4565b90503481111561402b57600080fd5b8c6001600160a01b03166322a6f8db828e8e8e8e8e8e8e8e8e8e6040518c63ffffffff1660e01b81526004016138f09a999897969594939291906153d0565b600080878760405161407d929190614ff6565b60405190819003812060008054632c7263b560e01b8452600484018d9052919350839290916201000090046001600160a01b031690632c7263b590602401602060405180830381865afa1580156140d8573d6000803e3d6000fd5b505050506040513d601f19601f820116820180604052508101906140fc9190614f95565b604051633f2891eb60e21b815260048101849052306024820152604481018990529091506001600160a01b0382169063fca247ac906064016020604051808303816000875af1158015614153573d6000803e3d6000fd5b505050506040513d601f19601f8201168201806040525081019061417791906152d4565b9350876001600160a01b0316837ffff5126f1caa0828f41366705e553eafc996d02fffa924bf2c463a00a17600dc8d8d8d8a8a6040516141bb959493929190615437565b60405180910390a36000816001600160a01b031663ddf7fcb06040518163ffffffff1660e01b8152600401602060405180830381865afa158015614203573d6000803e3d6000fd5b505050506040513d601f19601f8201168201806040525081019061422791906152d4565b6040805160208101929092528101859052606001604051602081830303815290604052805190602001209050816001600160a01b031663bc344ca16040518163ffffffff1660e01b8152600401602060405180830381865afa158015614291573d6000803e3d6000fd5b505050506040513d601f19601f820116820180604052508101906142b59190614f95565b604051630c4b7b8560e11b8152600481018390526001600160a01b0389811660248301529190911690631896f70a90604401600060405180830381600087803b15801561430157600080fd5b505af1158015614315573d6000803e3d6000fd5b505050506001600160a01b0389161561438a5760405162d5fa2b60e81b8152600481018290526001600160a01b038a8116602483015288169063d5fa2b0090604401600060405180830381600087803b15801561437157600080fd5b505af1158015614385573d6000803e3d6000fd5b505050505b604051630a3b53db60e21b8152600481018490526001600160a01b038a811660248301528316906328ed4f6c90604401600060405180830381600087803b1580156143d457600080fd5b505af11580156143e8573d6000803e3d6000fd5b50506040516323b872dd60e01b81523060048201526001600160a01b038c8116602483015260448201879052851692506323b872dd9150606401600060405180830381600087803b15801561443c57600080fd5b505af1158015614450573d6000803e3d6000fd5b50505050505050505050505050505050565b6000805460405163128497ff60e31b815260048101889052620100009091046001600160a01b031690639424bff890602401600060405180830381865afa1580156144b1573d6000803e3d6000fd5b505050506040513d6000823e601f3d908101601f191682016040526144d991908101906154cb565b603b54604051632ffef98760e21b81523360048201529192506000916001600160a01b039091169063bffbe61c90602401602060405180830381865afa158015614527573d6000803e3d6000fd5b505050506040513d601f19601f8201168201806040525081019061454b91906152d4565b60405163691f343160e01b8152600481018290529091506000906001600160a01b0386169063691f343190602401600060405180830381865afa158015614596573d6000803e3d6000fd5b505050506040513d6000823e601f3d908101601f191682016040526145be91908101906154cb565b9050805160000361468957603b546040516001600160a01b0390911690637a806d6b903390879089906145f7908d908d90602001615538565b60408051601f1981840301815290829052614616918a9060200161554e565b6040516020818303038152906040526040518563ffffffff1660e01b8152600401614644949392919061557d565b6020604051808303816000875af1158015614663573d6000803e3d6000fd5b505050506040513d601f19601f8201168201806040525081019061468791906152d4565b505b603b546040516001600160a01b03909116906397c3a355903390879089908d906146b9908e908e90602001615538565b60408051601f19818403018152908290526146d8918b9060200161554e565b6040516020818303038152906040526040518663ffffffff1660e01b81526004016147079594939291906155b1565b6020604051808303816000875af1158015614726573d6000803e3d6000fd5b505050506040513d601f19601f82011682018060405250810190613f1891906152d4565b6060600080856001600160a01b03168560405161476791906155f7565b600060405180830381855af49150503d80600081146147a2576040519150601f19603f3d011682016040523d82523d6000602084013e6147a7565b606091505b5091509150610b17868383876060831561482257825160000361481b576001600160a01b0385163b61481b5760405162461bcd60e51b815260206004820152601d60248201527f416464726573733a2063616c6c20746f206e6f6e2d636f6e74726163740000006044820152606401610993565b508161482c565b61482c8383614834565b949350505050565b8151156148445781518083602001fd5b8060405162461bcd60e51b81526004016109939190614a32565b60006020828403121561487057600080fd5b5035919050565b6001600160a01b038116811461133f57600080fd5b6000806040838503121561489f57600080fd5b8235915060208301356148b181614877565b809150509250929050565b60008083601f8401126148ce57600080fd5b5081356001600160401b038111156148e557600080fd5b6020830191508360208285010111156148fd57600080fd5b9250929050565b60008060006040848603121561491957600080fd5b8335925060208401356001600160401b0381111561493657600080fd5b614942868287016148bc565b9497909650939450505050565b600080600080600060a0868803121561496757600080fd5b853561497281614877565b9450602086013561498281614877565b9350604086013561499281614877565b925060608601356149a281614877565b915060808601356149b281614877565b809150509295509295909350565b600080604083850312156149d357600080fd5b50508035926020909101359150565b60005b838110156149fd5781810151838201526020016149e5565b50506000910152565b60008151808452614a1e8160208601602086016149e2565b601f01601f19169290920160200192915050565b602081526000610b1c6020830184614a06565b60008083601f840112614a5757600080fd5b5081356001600160401b03811115614a6e57600080fd5b6020830191508360208260051b85010111156148fd57600080fd5b60008060008060008060808789031215614aa257600080fd5b8635955060208701356001600160401b0380821115614ac057600080fd5b614acc8a838b01614a45565b9097509550604089013594506060890135915080821115614aec57600080fd5b50614af989828a01614a45565b979a9699509497509295939492505050565b600060208284031215614b1d57600080fd5b8135610b1c81614877565b634e487b7160e01b600052604160045260246000fd5b604051601f8201601f191681016001600160401b0381118282101715614b6657614b66614b28565b604052919050565b60006001600160401b03821115614b8757614b87614b28565b50601f01601f191660200190565b60008060408385031215614ba857600080fd5b8235614bb381614877565b915060208301356001600160401b03811115614bce57600080fd5b8301601f81018513614bdf57600080fd5b8035614bf2614bed82614b6e565b614b3e565b818152866020838501011115614c0757600080fd5b816020840160208301376000602083830101528093505050509250929050565b600080600060608486031215614c3c57600080fd5b8335614c4781614877565b92506020840135614c5781614877565b929592945050506040919091013590565b60008060008060008060c08789031215614c8157600080fd5b863595506020870135614c9381614877565b94506040870135614ca381614877565b93506060870135614cb381614877565b92506080870135614cc381614877565b915060a0870135614cd381614877565b809150509295509295509295565b801515811461133f57600080fd5b600080600080600080600080600060e08a8c031215614d0d57600080fd5b8935985060208a01356001600160401b0380821115614d2b57600080fd5b614d378d838e01614a45565b909a50985060408c01359150614d4c82614877565b90965060608b0135955060808b013590614d6582614877565b90945060a08b013590614d7782614ce1565b90935060c08b01359080821115614d8d57600080fd5b50614d9a8c828d01614a45565b915080935050809150509295985092959850929598565b60008060008060608587031215614dc757600080fd5b8435935060208501356001600160401b03811115614de457600080fd5b614df0878288016148bc565b9598909750949560400135949350505050565b600080600080600080600060a0888a031215614e1e57600080fd5b8735965060208801356001600160401b0380821115614e3c57600080fd5b614e488b838c01614a45565b909850965060408a0135955060608a01359150614e6482614877565b90935060808901359080821115614e7a57600080fd5b50614e878a828b01614a45565b989b979a50959850939692959293505050565b60008082840360c0811215614eae57600080fd5b8335925060a0601f1982011215614ec457600080fd5b506020830190509250929050565b60008060008060608587031215614ee857600080fd5b8435935060208501356001600160401b03811115614f0557600080fd5b614df087828801614a45565b600080600080600080600060a0888a031215614f2c57600080fd5b8735965060208801356001600160401b0380821115614f4a57600080fd5b614f568b838c016148bc565b909850965060408a01359150614f6b82614877565b9094506060890135935060808901359080821115614f8857600080fd5b50614e878a828b016148bc565b600060208284031215614fa757600080fd5b8151610b1c81614877565b60208082526024908201527f4f776e61626c653a2063616c6c6572206973206e6f742074686520746c64206f6040820152633bb732b960e11b606082015260800190565b8183823760009101908152919050565b60006020828403121561501857600080fd5b8151610b1c81614ce1565b6020808252601490820152732330b4b632b2103a379039b2b7321022ba3432b960611b604082015260600190565b634e487b7160e01b600052603260045260246000fd5b6000808335601e1984360301811261507e57600080fd5b8301803591506001600160401b0382111561509857600080fd5b6020019150368190038213156148fd57600080fd5b634e487b7160e01b600052601160045260246000fd5b8082018082111561180e5761180e6150ad565b6000600182016150e8576150e86150ad565b5060010190565b6020808252602c908201527f46756e6374696f6e206d7573742062652063616c6c6564207468726f7567682060408201526b19195b1959d85d1958d85b1b60a21b606082015260800190565b6020808252602c908201527f46756e6374696f6e206d7573742062652063616c6c6564207468726f7567682060408201526b6163746976652070726f787960a01b606082015260800190565b6020808252602c908201527f41636365737369626c653a2063616c6c6572206973206e6f742074686520706c60408201526b30ba3337b9369030b236b4b760a11b606082015260800190565b81835281816020850137506000828201602090810191909152601f909101601f19169091010190565b6080815260006152106080830187896151d3565b602083019590955250604081019290925260609091015292915050565b60006040828403121561523f57600080fd5b604051604081018181106001600160401b038211171561526157615261614b28565b604052825181526020928301519281019290925250919050565b88815260c06020820152600061529560c08301898b6151d3565b6001600160a01b0388166040840152606083018790526080830186905282810360a08401526152c58185876151d3565b9b9a5050505050505050505050565b6000602082840312156152e657600080fd5b5051919050565b6020808252602b908201527f496e697469616c697a61626c653a20636f6e7472616374206973206e6f74206960408201526a6e697469616c697a696e6760a81b606082015260800190565b8181038181111561180e5761180e6150ad565b89815260e06020820152600061536560e083018a8c6151d3565b6001600160a01b0389166040840152606083018890526080830187905260a0830186905282810360c084015261539c8185876151d3565b9c9b505050505050505050505050565b600080604083850312156153bf57600080fd5b505080516020909101519092909150565b60006101008c83528060208401526153eb8184018c8e6151d3565b905060018060a01b038a1660408401528860608401528760808401528660a08401528560c084015282810360e08401526154268185876151d3565b9d9c50505050505050505050505050565b8581526080602082015260006154516080830186886151d3565b604083019490945250606001529392505050565b83815260406020820152600061547f6040830184866151d3565b95945050505050565b87815260a0602082015260006154a260a08301888a6151d3565b6001600160a01b03871660408401526060830186905282810360808401526112558185876151d3565b6000602082840312156154dd57600080fd5b81516001600160401b038111156154f357600080fd5b8201601f8101841361550457600080fd5b8051615512614bed82614b6e565b81815285602083850101111561552757600080fd5b61547f8260208301602086016149e2565b81838237601760f91b9101908152600101919050565b600083516155608184602088016149e2565b8351908301906155748183602088016149e2565b01949350505050565b6001600160a01b038581168252848116602083015283166040820152608060608201819052600090611c7d90830184614a06565b6001600160a01b0386811682528581166020830152841660408201526060810183905260a0608082018190526000906155ec90830184614a06565b979650505050505050565b600082516156098184602087016149e2565b919091019291505056fe360894a13ba1a3210667c828492db98dca3e2076cc3735a920a3ca505d382bbc416464726573733a206c6f772d6c6576656c2064656c65676174652063616c6c206661696c6564a2646970667358221220968025ce8806beb7ccc15511c7b01841d5d31fa37070061fd18daf5a2ff1423b64736f6c63430008120033",
  "linkReferences": {},
  "deployedLinkReferences": {}
}