{
  "_format": "hh-sol-artifact-1",
  "contractName": "DefaultQualificationHook",
  "sourceName": "contracts/hook/DefaultQualificationHook.sol",
  "abi": [
    {
      "inputs": [
        {
          "internalType": "contract ISANN",
          "name": "_sann",
          "type": "address"
        },
        {
          "internalType": "uint256",
          "name": "_identifier",
          "type": "uint256"
        },
        {
          "internalType": "contract PreRegistrationState",
          "name": "_state",
          "type": "address"
        },
        {
          "internalType": "uint256",
          "name": "_publicRegistrationStartTime",
          "type": "uint256"
        },
        {
          "internalType": "bool",
          "name": "_publicRegistrationPaused",
          "type": "bool"
        }
      ],
      "stateMutability": "nonpayable",
      "type": "constructor"
    },
    {
      "inputs": [],
      "name": "PublicRegistrationNotStarted",
      "type": "error"
    },
    {
      "inputs": [],
      "name": "PublicRegistrationStarted",
      "type": "error"
    },
    {
      "anonymous": false,
      "inputs": [
        {
          "indexed": false,
          "internalType": "uint256",
          "name": "identifier",
          "type": "uint256"
        },
        {
          "indexed": false,
          "internalType": "bool",
          "name": "paused",
          "type": "bool"
        }
      ],
      "name": "SetPublicRegistrationPaused",
      "type": "event"
    },
    {
      "anonymous": false,
      "inputs": [
        {
          "indexed": false,
          "internalType": "uint256",
          "name": "identifier",
          "type": "uint256"
        },
        {
          "indexed": false,
          "internalType": "uint256",
          "name": "startTime",
          "type": "uint256"
        }
      ],
      "name": "SetPublicRegistrationStartTime",
      "type": "event"
    },
    {
      "inputs": [],
      "name": "identifier",
      "outputs": [
        {
          "internalType": "uint256",
          "name": "",
          "type": "uint256"
        }
      ],
      "stateMutability": "view",
      "type": "function"
    },
    {
      "inputs": [
        {
          "internalType": "uint256",
          "name": "_identifier",
          "type": "uint256"
        },
        {
          "internalType": "string",
          "name": "_name",
          "type": "string"
        },
        {
          "internalType": "address",
          "name": "_buyer",
          "type": "address"
        },
        {
          "internalType": "uint256",
          "name": "_duration",
          "type": "uint256"
        },
        {
          "internalType": "bytes",
          "name": "_extraData",
          "type": "bytes"
        }
      ],
      "name": "isQualified",
      "outputs": [
        {
          "internalType": "bool",
          "name": "",
          "type": "bool"
        }
      ],
      "stateMutability": "view",
      "type": "function"
    },
    {
      "inputs": [],
      "name": "preRegiState",
      "outputs": [
        {
          "internalType": "contract PreRegistrationState",
          "name": "",
          "type": "address"
        }
      ],
      "stateMutability": "view",
      "type": "function"
    },
    {
      "inputs": [],
      "name": "publicRegistrationPaused",
      "outputs": [
        {
          "internalType": "bool",
          "name": "",
          "type": "bool"
        }
      ],
      "stateMutability": "view",
      "type": "function"
    },
    {
      "inputs": [],
      "name": "publicRegistrationStartTime",
      "outputs": [
        {
          "internalType": "uint256",
          "name": "",
          "type": "uint256"
        }
      ],
      "stateMutability": "view",
      "type": "function"
    },
    {
      "inputs": [
        {
          "internalType": "uint256",
          "name": "_identifier",
          "type": "uint256"
        },
        {
          "internalType": "string",
          "name": "_name",
          "type": "string"
        },
        {
          "internalType": "address",
          "name": "_buyer",
          "type": "address"
        },
        {
          "internalType": "uint256",
          "name": "_duration",
          "type": "uint256"
        },
        {
          "internalType": "bytes",
          "name": "_extraData",
          "type": "bytes"
        }
      ],
      "name": "qualify",
      "outputs": [
        {
          "internalType": "bool",
          "name": "",
          "type": "bool"
        }
      ],
      "stateMutability": "nonpayable",
      "type": "function"
    },
    {
      "inputs": [],
      "name": "sann",
      "outputs": [
        {
          "internalType": "contract ISANN",
          "name": "",
          "type": "address"
        }
      ],
      "stateMutability": "view",
      "type": "function"
    },
    {
      "inputs": [
        {
          "internalType": "address",
          "name": "_state",
          "type": "address"
        }
      ],
      "name": "setPreRegistrationState",
      "outputs": [],
      "stateMutability": "nonpayable",
      "type": "function"
    },
    {
      "inputs": [
        {
          "internalType": "bool",
          "name": "_paused",
          "type": "bool"
        }
      ],
      "name": "setPublicRegistrationPaused",
      "outputs": [],
      "stateMutability": "nonpayable",
      "type": "function"
    },
    {
      "inputs": [
        {
          "internalType": "uint256",
          "name": "_publicRegistrationStartTime",
          "type": "uint256"
        }
      ],
      "name": "setPublicRegistrationStartTime",
      "outputs": [],
      "stateMutability": "nonpayable",
      "type": "function"
    }
  ],
  "bytecode": "0x60a06040523480156200001157600080fd5b50604051620013b4380380620013b483398101604081905262000034916200023d565b600080546001600160a01b0319166001600160a01b03878116919091178255608086905260028054610100600160a81b0319166101008784168102919091179182905590041615620000fd57600260019054906101000a90046001600160a01b03166001600160a01b03166318969e3c6040518163ffffffff1660e01b8152600401602060405180830381865afa158015620000d4573d6000803e3d6000fd5b505050506040513d601f19601f82011682018060405250810190620000fa9190620002a9565b90505b828111156200018c5760405162461bcd60e51b815260206004820152604b60248201527f6e6577207075626c6963526567697374726174696f6e537461727454696d652060448201527f6d7573742062652067726561746572207468616e20707265526567697374726160648201526a74696f6e456e6454696d6560a81b608482015260a40160405180910390fd5b60018390556002805460ff191683151517905560805160408051918252602082018590527f7209932ed961cda2151a57a4ad04f2fba1ce7dd5f0ebedc991802aa16dd97a1f910160405180910390a16080516040805191825283151560208301527f5602d41126ea699a93f4ab359d93e8701e97587ef6ecaf53ba0bfcfbc9b9443b910160405180910390a1505050505050620002c3565b6001600160a01b03811681146200023a57600080fd5b50565b600080600080600060a086880312156200025657600080fd5b8551620002638162000224565b6020870151604088015191965094506200027d8162000224565b60608701516080880151919450925080151581146200029b57600080fd5b809150509295509295909350565b600060208284031215620002bc57600080fd5b5051919050565b6080516110ab620003096000396000818161011301528181610345015281816104240152818161048d0152818161056c015281816107b7015261083b01526110ab6000f3fe608060405234801561001057600080fd5b506004361061009e5760003560e01c8063a81e3af211610066578063a81e3af214610158578063bd03fbb81461016b578063d023c79c14610174578063d46da38714610187578063eea8fe0a1461019a57600080fd5b8063273310e3146100a357806336625cc3146100d85780635b299fb5146100fb5780637998a1c41461010e5780637b242c7814610143575b600080fd5b6002546100bb9061010090046001600160a01b031681565b6040516001600160a01b0390911681526020015b60405180910390f35b6100eb6100e6366004610eab565b6101a7565b60405190151581526020016100cf565b6100eb610109366004610eab565b610314565b6101357f000000000000000000000000000000000000000000000000000000000000000081565b6040519081526020016100cf565b610156610151366004610f51565b610334565b005b610156610166366004610f75565b61047c565b61013560015481565b610156610182366004610f92565b61055b565b6000546100bb906001600160a01b031681565b6002546100eb9060ff1681565b600080546040805163f340041960e01b8152905133926001600160a01b03169163f34004199160048083019260209291908290030181865afa1580156101f1573d6000803e3d6000fd5b505050506040513d601f19601f820116820180604052508101906102159190610fab565b6001600160a01b0316146102855760405162461bcd60e51b815260206004820152602c60248201527f41636365737369626c653a2063616c6c6572206973206e6f742074686520746c60448201526b321031b7b73a3937b63632b960a11b60648201526084015b60405180910390fd5b6000806102978a8a8a8a8a8a8a61080f565b9150915080156103075760025460405163465f649960e11b81526001600160a01b03898116600483015261010090920490911690638cbec93290602401600060405180830381600087803b1580156102ee57600080fd5b505af1158015610302573d6000803e3d6000fd5b505050505b5098975050505050505050565b6000806103268989898989898961080f565b509998505050505050505050565b60005460405162e4decd60e31b81527f0000000000000000000000000000000000000000000000000000000000000000600482018190529133916001600160a01b0390911690630726f66890602401602060405180830381865afa1580156103a0573d6000803e3d6000fd5b505050506040513d601f19601f820116820180604052508101906103c49190610fab565b6001600160a01b0316146103ea5760405162461bcd60e51b815260040161027c90610fc8565b60015442101561040d57604051630136f26f60e61b815260040160405180910390fd5b6002805460ff1916831515908117909155604080517f0000000000000000000000000000000000000000000000000000000000000000815260208101929092527f5602d41126ea699a93f4ab359d93e8701e97587ef6ecaf53ba0bfcfbc9b9443b910160405180910390a15050565b60005460405162e4decd60e31b81527f0000000000000000000000000000000000000000000000000000000000000000600482018190529133916001600160a01b0390911690630726f66890602401602060405180830381865afa1580156104e8573d6000803e3d6000fd5b505050506040513d601f19601f8201168201806040525081019061050c9190610fab565b6001600160a01b0316146105325760405162461bcd60e51b815260040161027c90610fc8565b50600280546001600160a01b0390921661010002610100600160a81b0319909216919091179055565b60005460405162e4decd60e31b81527f0000000000000000000000000000000000000000000000000000000000000000600482018190529133916001600160a01b0390911690630726f66890602401602060405180830381865afa1580156105c7573d6000803e3d6000fd5b505050506040513d601f19601f820116820180604052508101906105eb9190610fab565b6001600160a01b0316146106115760405162461bcd60e51b815260040161027c90610fc8565b600154421061063357604051630e5ea0ab60e21b815260040160405180910390fd5b8142106106a85760405162461bcd60e51b815260206004820152603860248201527f6e6577207075626c6963526567697374726174696f6e537461727454696d652060448201527f6d7573742062652067726561746572207468616e206e6f770000000000000000606482015260840161027c565b6000600260019054906101000a90046001600160a01b03166001600160a01b03166318969e3c6040518163ffffffff1660e01b8152600401602060405180830381865afa1580156106fd573d6000803e3d6000fd5b505050506040513d601f19601f82011682018060405250810190610721919061100c565b90508281106107ac5760405162461bcd60e51b815260206004820152604b60248201527f6e6577207075626c6963526567697374726174696f6e537461727454696d652060448201527f6d7573742062652067726561746572207468616e20707265526567697374726160648201526a74696f6e456e6454696d6560a81b608482015260a40161027c565b6001839055604080517f00000000000000000000000000000000000000000000000000000000000000008152602081018590527f7209932ed961cda2151a57a4ad04f2fba1ce7dd5f0ebedc991802aa16dd97a1f910160405180910390a1505050565b60008060008888604051610824929190611025565b60405190819003812060005462e4decd60e31b83527f000000000000000000000000000000000000000000000000000000000000000060048401529092506001600160a01b0389811692911690630726f66890602401602060405180830381865afa158015610897573d6000803e3d6000fd5b505050506040513d601f19601f820116820180604052508101906108bb9190610fab565b6001600160a01b031603610998576001544210156109985760025461010090046001600160a01b03161561098a576000600260019054906101000a90046001600160a01b03166001600160a01b031663ffeaf35f6040518163ffffffff1660e01b8152600401602060405180830381865afa15801561093e573d6000803e3d6000fd5b505050506040513d601f19601f82011682018060405250810190610962919061100c565b905080158061097057508042105b156109845760016000935093505050610e3e565b50610998565b600160009250925050610e3e565b60025461010090046001600160a01b031615610e0557600260019054906101000a90046001600160a01b03166001600160a01b031663b6fc138f6040518163ffffffff1660e01b8152600401602060405180830381865afa158015610a01573d6000803e3d6000fd5b505050506040513d601f19601f82011682018060405250810190610a259190611035565b15610beb57600260019054906101000a90046001600160a01b03166001600160a01b031663045535b76040518163ffffffff1660e01b8152600401602060405180830381865afa158015610a7d573d6000803e3d6000fd5b505050506040513d601f19601f82011682018060405250810190610aa1919061100c565b4211610ab4576000809250925050610e3e565b600260019054906101000a90046001600160a01b03166001600160a01b0316639efdb7cf6040518163ffffffff1660e01b8152600401602060405180830381865afa158015610b07573d6000803e3d6000fd5b505050506040513d601f19601f82011682018060405250810190610b2b9190611035565b15610beb57600254604051628cb5d760e81b81526004810183905260009161010090046001600160a01b031690638cb5d70090602401602060405180830381865afa158015610b7e573d6000803e3d6000fd5b505050506040513d601f19601f82011682018060405250810190610ba29190610fab565b9050876001600160a01b0316816001600160a01b031603610bcc5760016000935093505050610e3e565b6001600160a01b03811615610be957600080935093505050610e3e565b505b600260019054906101000a90046001600160a01b03166001600160a01b031663dd3cb4a96040518163ffffffff1660e01b8152600401602060405180830381865afa158015610c3e573d6000803e3d6000fd5b505050506040513d601f19601f82011682018060405250810190610c629190611035565b15610e0557600260019054906101000a90046001600160a01b03166001600160a01b031663c989d0756040518163ffffffff1660e01b8152600401602060405180830381865afa158015610cba573d6000803e3d6000fd5b505050506040513d601f19601f82011682018060405250810190610cde919061100c565b421015610cf2576000809250925050610e3e565b600260019054906101000a90046001600160a01b03166001600160a01b031663c39887f56040518163ffffffff1660e01b8152600401602060405180830381865afa158015610d45573d6000803e3d6000fd5b505050506040513d601f19601f82011682018060405250810190610d69919061100c565b4211610e05576002546040516308068a3960e31b81526001600160a01b0389811660048301526000926101009004169063403451c890602401602060405180830381865afa158015610dbf573d6000803e3d6000fd5b505050506040513d601f19601f82011682018060405250810190610de39190611052565b60ff1611610df8576000809250925050610e3e565b6001809250925050610e3e565b600154421015610e1c576000809250925050610e3e565b60025460ff1615610e34576000809250925050610e3e565b6001600092509250505b97509795505050505050565b60008083601f840112610e5c57600080fd5b50813567ffffffffffffffff811115610e7457600080fd5b602083019150836020828501011115610e8c57600080fd5b9250929050565b6001600160a01b0381168114610ea857600080fd5b50565b600080600080600080600060a0888a031215610ec657600080fd5b87359650602088013567ffffffffffffffff80821115610ee557600080fd5b610ef18b838c01610e4a565b909850965060408a01359150610f0682610e93565b9094506060890135935060808901359080821115610f2357600080fd5b50610f308a828b01610e4a565b989b979a50959850939692959293505050565b8015158114610ea857600080fd5b600060208284031215610f6357600080fd5b8135610f6e81610f43565b9392505050565b600060208284031215610f8757600080fd5b8135610f6e81610e93565b600060208284031215610fa457600080fd5b5035919050565b600060208284031215610fbd57600080fd5b8151610f6e81610e93565b60208082526024908201527f4f776e61626c653a2063616c6c6572206973206e6f742074686520746c64206f6040820152633bb732b960e11b606082015260800190565b60006020828403121561101e57600080fd5b5051919050565b8183823760009101908152919050565b60006020828403121561104757600080fd5b8151610f6e81610f43565b60006020828403121561106457600080fd5b815160ff81168114610f6e57600080fdfea2646970667358221220770490d336a73bc767cf6b0240c5f3059ecf3a61f5c892a64ab8dae634f4488c64736f6c63430008120033",
  "linkReferences": {},
  "deployedLinkReferences": {}
}