{
  "_format": "hh-sol-artifact-1",
  "contractName": "PublicResolver",
  "sourceName": "contracts/resolvers/PublicResolver.sol",
  "abi": [
    {
      "inputs": [
        {
          "internalType": "address",
          "name": "owner",
          "type": "address"
        }
      ],
      "stateMutability": "nonpayable",
      "type": "constructor"
    },
    {
      "anonymous": false,
      "inputs": [
        {
          "indexed": true,
          "internalType": "bytes32",
          "name": "node",
          "type": "bytes32"
        },
        {
          "indexed": true,
          "internalType": "uint256",
          "name": "contentType",
          "type": "uint256"
        }
      ],
      "name": "ABIChanged",
      "type": "event"
    },
    {
      "anonymous": false,
      "inputs": [
        {
          "indexed": true,
          "internalType": "bytes32",
          "name": "node",
          "type": "bytes32"
        },
        {
          "indexed": false,
          "internalType": "address",
          "name": "a",
          "type": "address"
        }
      ],
      "name": "AddrChanged",
      "type": "event"
    },
    {
      "anonymous": false,
      "inputs": [
        {
          "indexed": true,
          "internalType": "bytes32",
          "name": "node",
          "type": "bytes32"
        },
        {
          "indexed": false,
          "internalType": "uint256",
          "name": "coinType",
          "type": "uint256"
        },
        {
          "indexed": false,
          "internalType": "bytes",
          "name": "newAddress",
          "type": "bytes"
        }
      ],
      "name": "AddressChanged",
      "type": "event"
    },
    {
      "anonymous": false,
      "inputs": [
        {
          "indexed": true,
          "internalType": "address",
          "name": "owner",
          "type": "address"
        },
        {
          "indexed": true,
          "internalType": "address",
          "name": "operator",
          "type": "address"
        },
        {
          "indexed": false,
          "internalType": "bool",
          "name": "approved",
          "type": "bool"
        }
      ],
      "name": "ApprovalForAll",
      "type": "event"
    },
    {
      "anonymous": false,
      "inputs": [
        {
          "indexed": true,
          "internalType": "bytes32",
          "name": "node",
          "type": "bytes32"
        },
        {
          "indexed": false,
          "internalType": "bytes",
          "name": "hash",
          "type": "bytes"
        }
      ],
      "name": "ContenthashChanged",
      "type": "event"
    },
    {
      "anonymous": false,
      "inputs": [
        {
          "indexed": false,
          "internalType": "uint8",
          "name": "version",
          "type": "uint8"
        }
      ],
      "name": "Initialized",
      "type": "event"
    },
    {
      "anonymous": false,
      "inputs": [
        {
          "indexed": true,
          "internalType": "bytes32",
          "name": "node",
          "type": "bytes32"
        },
        {
          "indexed": true,
          "internalType": "bytes4",
          "name": "interfaceID",
          "type": "bytes4"
        },
        {
          "indexed": false,
          "internalType": "address",
          "name": "implementer",
          "type": "address"
        }
      ],
      "name": "InterfaceChanged",
      "type": "event"
    },
    {
      "anonymous": false,
      "inputs": [
        {
          "indexed": true,
          "internalType": "bytes32",
          "name": "node",
          "type": "bytes32"
        },
        {
          "indexed": false,
          "internalType": "string",
          "name": "name",
          "type": "string"
        }
      ],
      "name": "NameChanged",
      "type": "event"
    },
    {
      "anonymous": false,
      "inputs": [
        {
          "indexed": true,
          "internalType": "address",
          "name": "previousOwner",
          "type": "address"
        },
        {
          "indexed": true,
          "internalType": "address",
          "name": "newOwner",
          "type": "address"
        }
      ],
      "name": "OwnershipTransferred",
      "type": "event"
    },
    {
      "anonymous": false,
      "inputs": [
        {
          "indexed": true,
          "internalType": "bytes32",
          "name": "node",
          "type": "bytes32"
        },
        {
          "indexed": false,
          "internalType": "bytes32",
          "name": "x",
          "type": "bytes32"
        },
        {
          "indexed": false,
          "internalType": "bytes32",
          "name": "y",
          "type": "bytes32"
        }
      ],
      "name": "PubkeyChanged",
      "type": "event"
    },
    {
      "anonymous": false,
      "inputs": [
        {
          "indexed": true,
          "internalType": "bytes32",
          "name": "node",
          "type": "bytes32"
        },
        {
          "indexed": true,
          "internalType": "string",
          "name": "indexedKey",
          "type": "string"
        },
        {
          "indexed": false,
          "internalType": "string",
          "name": "key",
          "type": "string"
        },
        {
          "indexed": false,
          "internalType": "string",
          "name": "value",
          "type": "string"
        }
      ],
      "name": "TextChanged",
      "type": "event"
    },
    {
      "anonymous": false,
      "inputs": [
        {
          "indexed": true,
          "internalType": "bytes32",
          "name": "node",
          "type": "bytes32"
        },
        {
          "indexed": false,
          "internalType": "uint256",
          "name": "identifier",
          "type": "uint256"
        },
        {
          "indexed": false,
          "internalType": "string",
          "name": "name",
          "type": "string"
        }
      ],
      "name": "TldNameChanged",
      "type": "event"
    },
    {
      "anonymous": false,
      "inputs": [
        {
          "indexed": true,
          "internalType": "bytes32",
          "name": "node",
          "type": "bytes32"
        },
        {
          "indexed": false,
          "internalType": "uint64",
          "name": "newVersion",
          "type": "uint64"
        }
      ],
      "name": "VersionChanged",
      "type": "event"
    },
    {
      "inputs": [
        {
          "internalType": "bytes32",
          "name": "node",
          "type": "bytes32"
        },
        {
          "internalType": "uint256",
          "name": "contentTypes",
          "type": "uint256"
        }
      ],
      "name": "ABI",
      "outputs": [
        {
          "internalType": "uint256",
          "name": "",
          "type": "uint256"
        },
        {
          "internalType": "bytes",
          "name": "",
          "type": "bytes"
        }
      ],
      "stateMutability": "view",
      "type": "function"
    },
    {
      "inputs": [
        {
          "internalType": "bytes32",
          "name": "node",
          "type": "bytes32"
        }
      ],
      "name": "addr",
      "outputs": [
        {
          "internalType": "address payable",
          "name": "",
          "type": "address"
        }
      ],
      "stateMutability": "view",
      "type": "function"
    },
    {
      "inputs": [
        {
          "internalType": "bytes32",
          "name": "node",
          "type": "bytes32"
        },
        {
          "internalType": "uint256",
          "name": "coinType",
          "type": "uint256"
        }
      ],
      "name": "addr",
      "outputs": [
        {
          "internalType": "bytes",
          "name": "",
          "type": "bytes"
        }
      ],
      "stateMutability": "view",
      "type": "function"
    },
    {
      "inputs": [
        {
          "internalType": "bytes32",
          "name": "node",
          "type": "bytes32"
        }
      ],
      "name": "clearRecords",
      "outputs": [],
      "stateMutability": "nonpayable",
      "type": "function"
    },
    {
      "inputs": [
        {
          "internalType": "bytes32",
          "name": "node",
          "type": "bytes32"
        }
      ],
      "name": "contenthash",
      "outputs": [
        {
          "internalType": "bytes",
          "name": "",
          "type": "bytes"
        }
      ],
      "stateMutability": "view",
      "type": "function"
    },
    {
      "inputs": [],
      "name": "defaultCoinType",
      "outputs": [
        {
          "internalType": "uint256",
          "name": "",
          "type": "uint256"
        }
      ],
      "stateMutability": "view",
      "type": "function"
    },
    {
      "inputs": [
        {
          "internalType": "contract ISidRegistry",
          "name": "_sidRegistry",
          "type": "address"
        },
        {
          "internalType": "address",
          "name": "_trustedController",
          "type": "address"
        },
        {
          "internalType": "uint256",
          "name": "_defaultCoinType",
          "type": "uint256"
        }
      ],
      "name": "initialize",
      "outputs": [],
      "stateMutability": "nonpayable",
      "type": "function"
    },
    {
      "inputs": [
        {
          "internalType": "bytes32",
          "name": "node",
          "type": "bytes32"
        },
        {
          "internalType": "bytes4",
          "name": "interfaceID",
          "type": "bytes4"
        }
      ],
      "name": "interfaceImplementer",
      "outputs": [
        {
          "internalType": "address",
          "name": "",
          "type": "address"
        }
      ],
      "stateMutability": "view",
      "type": "function"
    },
    {
      "inputs": [
        {
          "internalType": "address",
          "name": "account",
          "type": "address"
        },
        {
          "internalType": "address",
          "name": "operator",
          "type": "address"
        }
      ],
      "name": "isApprovedForAll",
      "outputs": [
        {
          "internalType": "bool",
          "name": "",
          "type": "bool"
        }
      ],
      "stateMutability": "view",
      "type": "function"
    },
    {
      "inputs": [
        {
          "internalType": "bytes[]",
          "name": "data",
          "type": "bytes[]"
        }
      ],
      "name": "multicall",
      "outputs": [
        {
          "internalType": "bytes[]",
          "name": "results",
          "type": "bytes[]"
        }
      ],
      "stateMutability": "nonpayable",
      "type": "function"
    },
    {
      "inputs": [
        {
          "internalType": "bytes32",
          "name": "node",
          "type": "bytes32"
        }
      ],
      "name": "name",
      "outputs": [
        {
          "internalType": "string",
          "name": "",
          "type": "string"
        }
      ],
      "stateMutability": "view",
      "type": "function"
    },
    {
      "inputs": [],
      "name": "owner",
      "outputs": [
        {
          "internalType": "address",
          "name": "",
          "type": "address"
        }
      ],
      "stateMutability": "view",
      "type": "function"
    },
    {
      "inputs": [
        {
          "internalType": "bytes32",
          "name": "node",
          "type": "bytes32"
        }
      ],
      "name": "pubkey",
      "outputs": [
        {
          "internalType": "bytes32",
          "name": "x",
          "type": "bytes32"
        },
        {
          "internalType": "bytes32",
          "name": "y",
          "type": "bytes32"
        }
      ],
      "stateMutability": "view",
      "type": "function"
    },
    {
      "inputs": [
        {
          "internalType": "bytes32",
          "name": "",
          "type": "bytes32"
        }
      ],
      "name": "recordVersions",
      "outputs": [
        {
          "internalType": "uint64",
          "name": "",
          "type": "uint64"
        }
      ],
      "stateMutability": "view",
      "type": "function"
    },
    {
      "inputs": [
        {
          "internalType": "address",
          "name": "controller",
          "type": "address"
        }
      ],
      "name": "removeTrustedController",
      "outputs": [],
      "stateMutability": "nonpayable",
      "type": "function"
    },
    {
      "inputs": [],
      "name": "renounceOwnership",
      "outputs": [],
      "stateMutability": "nonpayable",
      "type": "function"
    },
    {
      "inputs": [
        {
          "internalType": "bytes32",
          "name": "node",
          "type": "bytes32"
        },
        {
          "internalType": "uint256",
          "name": "contentType",
          "type": "uint256"
        },
        {
          "internalType": "bytes",
          "name": "data",
          "type": "bytes"
        }
      ],
      "name": "setABI",
      "outputs": [],
      "stateMutability": "nonpayable",
      "type": "function"
    },
    {
      "inputs": [
        {
          "internalType": "bytes32",
          "name": "node",
          "type": "bytes32"
        },
        {
          "internalType": "uint256",
          "name": "coinType",
          "type": "uint256"
        },
        {
          "internalType": "bytes",
          "name": "a",
          "type": "bytes"
        }
      ],
      "name": "setAddr",
      "outputs": [],
      "stateMutability": "nonpayable",
      "type": "function"
    },
    {
      "inputs": [
        {
          "internalType": "bytes32",
          "name": "node",
          "type": "bytes32"
        },
        {
          "internalType": "address",
          "name": "a",
          "type": "address"
        }
      ],
      "name": "setAddr",
      "outputs": [],
      "stateMutability": "nonpayable",
      "type": "function"
    },
    {
      "inputs": [
        {
          "internalType": "address",
          "name": "operator",
          "type": "address"
        },
        {
          "internalType": "bool",
          "name": "approved",
          "type": "bool"
        }
      ],
      "name": "setApprovalForAll",
      "outputs": [],
      "stateMutability": "nonpayable",
      "type": "function"
    },
    {
      "inputs": [
        {
          "internalType": "bytes32",
          "name": "node",
          "type": "bytes32"
        },
        {
          "internalType": "bytes",
          "name": "hash",
          "type": "bytes"
        }
      ],
      "name": "setContenthash",
      "outputs": [],
      "stateMutability": "nonpayable",
      "type": "function"
    },
    {
      "inputs": [
        {
          "internalType": "bytes32",
          "name": "node",
          "type": "bytes32"
        },
        {
          "internalType": "bytes4",
          "name": "interfaceID",
          "type": "bytes4"
        },
        {
          "internalType": "address",
          "name": "implementer",
          "type": "address"
        }
      ],
      "name": "setInterface",
      "outputs": [],
      "stateMutability": "nonpayable",
      "type": "function"
    },
    {
      "inputs": [
        {
          "internalType": "bytes32",
          "name": "node",
          "type": "bytes32"
        },
        {
          "internalType": "string",
          "name": "newName",
          "type": "string"
        }
      ],
      "name": "setName",
      "outputs": [],
      "stateMutability": "nonpayable",
      "type": "function"
    },
    {
      "inputs": [
        {
          "internalType": "address",
          "name": "newController",
          "type": "address"
        }
      ],
      "name": "setNewTrustedController",
      "outputs": [],
      "stateMutability": "nonpayable",
      "type": "function"
    },
    {
      "inputs": [
        {
          "internalType": "bytes32",
          "name": "node",
          "type": "bytes32"
        },
        {
          "internalType": "bytes32",
          "name": "x",
          "type": "bytes32"
        },
        {
          "internalType": "bytes32",
          "name": "y",
          "type": "bytes32"
        }
      ],
      "name": "setPubkey",
      "outputs": [],
      "stateMutability": "nonpayable",
      "type": "function"
    },
    {
      "inputs": [
        {
          "internalType": "bytes32",
          "name": "node",
          "type": "bytes32"
        },
        {
          "internalType": "string",
          "name": "key",
          "type": "string"
        },
        {
          "internalType": "string",
          "name": "value",
          "type": "string"
        }
      ],
      "name": "setText",
      "outputs": [],
      "stateMutability": "nonpayable",
      "type": "function"
    },
    {
      "inputs": [
        {
          "internalType": "bytes32",
          "name": "node",
          "type": "bytes32"
        },
        {
          "internalType": "uint256",
          "name": "identifier",
          "type": "uint256"
        },
        {
          "internalType": "string",
          "name": "newName",
          "type": "string"
        }
      ],
      "name": "setTldName",
      "outputs": [],
      "stateMutability": "nonpayable",
      "type": "function"
    },
    {
      "inputs": [],
      "name": "sidRegistry",
      "outputs": [
        {
          "internalType": "contract ISidRegistry",
          "name": "",
          "type": "address"
        }
      ],
      "stateMutability": "view",
      "type": "function"
    },
    {
      "inputs": [
        {
          "internalType": "bytes4",
          "name": "interfaceID",
          "type": "bytes4"
        }
      ],
      "name": "supportsInterface",
      "outputs": [
        {
          "internalType": "bool",
          "name": "",
          "type": "bool"
        }
      ],
      "stateMutability": "pure",
      "type": "function"
    },
    {
      "inputs": [
        {
          "internalType": "bytes32",
          "name": "node",
          "type": "bytes32"
        },
        {
          "internalType": "string",
          "name": "key",
          "type": "string"
        }
      ],
      "name": "text",
      "outputs": [
        {
          "internalType": "string",
          "name": "",
          "type": "string"
        }
      ],
      "stateMutability": "view",
      "type": "function"
    },
    {
      "inputs": [
        {
          "internalType": "bytes32",
          "name": "node",
          "type": "bytes32"
        },
        {
          "internalType": "uint256",
          "name": "identifier",
          "type": "uint256"
        }
      ],
      "name": "tldName",
      "outputs": [
        {
          "internalType": "string",
          "name": "",
          "type": "string"
        }
      ],
      "stateMutability": "view",
      "type": "function"
    },
    {
      "inputs": [
        {
          "internalType": "bytes32",
          "name": "",
          "type": "bytes32"
        },
        {
          "internalType": "uint256",
          "name": "",
          "type": "uint256"
        }
      ],
      "name": "tldNames",
      "outputs": [
        {
          "internalType": "string",
          "name": "",
          "type": "string"
        }
      ],
      "stateMutability": "view",
      "type": "function"
    },
    {
      "inputs": [
        {
          "internalType": "address",
          "name": "newOwner",
          "type": "address"
        }
      ],
      "name": "transferOwnership",
      "outputs": [],
      "stateMutability": "nonpayable",
      "type": "function"
    }
  ],
  "bytecode": "0x60806040523480156200001157600080fd5b50604051620024c2380380620024c2833981016040819052620000349162000184565b6200003f3362000051565b6200004a81620000a3565b50620001b6565b600a80546001600160a01b038381166001600160a01b0319831681179093556040519116919082907f8be0079c531659141344cd1fd0a4f28419497f9722a3daafe3b4186f6b6457e090600090a35050565b620000ad62000126565b6001600160a01b038116620001185760405162461bcd60e51b815260206004820152602660248201527f4f776e61626c653a206e6577206f776e657220697320746865207a65726f206160448201526564647265737360d01b60648201526084015b60405180910390fd5b620001238162000051565b50565b600a546001600160a01b03163314620001825760405162461bcd60e51b815260206004820181905260248201527f4f776e61626c653a2063616c6c6572206973206e6f7420746865206f776e657260448201526064016200010f565b565b6000602082840312156200019757600080fd5b81516001600160a01b0381168114620001af57600080fd5b9392505050565b6122fc80620001c66000396000f3fe608060405234801561001057600080fd5b50600436106101fb5760003560e01c8063773722131161011a578063c46d4366116100ad578063e59d895d1161007c578063e59d895d146104d5578063e985e9c5146104e8578063f1cb7e0614610524578063f2fde38b14610537578063f9482e1a1461054a57600080fd5b8063c46d436614610416578063c869023314610429578063d5fa2b0014610481578063d700ff331461049457600080fd5b8063ac9650d8116100e9578063ac9650d8146103bd578063bc1c58d1146103dd578063bd38ab88146103f0578063bf2b07c71461040357600080fd5b806377372213146103735780638b95dd71146103865780638da5cb5b14610399578063a22cb465146103aa57600080fd5b80633603d75811610192578063623195b011610161578063623195b01461032e578063691f343114610341578063715018a61461035457806375e44f1f1461035c57600080fd5b80633603d758146102d55780633b3b57de146102e857806344cba186146102fb57806359d1d43c1461030e57600080fd5b80631794bb3c116101ce5780631794bb3c1461027b5780632203ab561461028e57806329cd62ea146102af578063304e6ade146102c257600080fd5b806301ffc9a7146102005780630ac3f0021461022857806310f13a8c1461023d578063124a319c14610250575b600080fd5b61021361020e3660046119a5565b61055d565b60405190151581526020015b60405180910390f35b61023b6102363660046119d5565b61056e565b005b61023b61024b366004611a33565b61059a565b61026361025e366004611aac565b610666565b6040516001600160a01b03909116815260200161021f565b61023b610289366004611ad8565b6108b7565b6102a161029c366004611b19565b610a2b565b60405161021f929190611b8b565b61023b6102bd366004611bac565b610b61565b61023b6102d0366004611bd8565b610bfb565b61023b6102e3366004611c23565b610c76565b6102636102f6366004611c23565b610d17565b61023b6103093660046119d5565b610d4a565b61032161031c366004611bd8565b610d73565b60405161021f9190611c3c565b61023b61033c366004611c4f565b610e52565b61032161034f366004611c23565b610eee565b61023b610fac565b61036560035481565b60405190815260200161021f565b61023b610381366004611bd8565b610fc0565b61023b610394366004611cb7565b61103b565b600a546001600160a01b0316610263565b61023b6103b8366004611d7a565b6110cb565b6103d06103cb366004611db8565b6111a1565b60405161021f9190611e2c565b6103216103eb366004611c23565b6112bb565b6103216103fe366004611b19565b6112f4565b610321610411366004611b19565b611399565b61023b610424366004611c4f565b611447565b61046c610437366004611c23565b600081815260208181526040808320546001600160401b03168352600782528083209383529290522080546001909101549091565b6040805192835260208301919091520161021f565b61023b61048f366004611e8e565b6114c2565b6104bd6104a2366004611c23565b6000602081905290815260409020546001600160401b031681565b6040516001600160401b03909116815260200161021f565b61023b6104e3366004611eb3565b6114ea565b6102136104f6366004611ef3565b6001600160a01b039182166000908152600d6020908152604080832093909416825291909152205460ff1690565b610321610532366004611b19565b611590565b61023b6105453660046119d5565b6115d1565b600b54610263906001600160a01b031681565b60006105688261164a565b92915050565b61057661166f565b6001600160a01b03166000908152600c60205260409020805460ff19166001179055565b846105a4816116c9565b6105ad57600080fd5b600086815260208181526040808320546001600160401b0316835260088252808320898452909152908190209051849184916105ec9089908990611f21565b90815260200160405180910390209182610607929190611fb9565b508484604051610618929190611f21565b6040518091039020867f448bc014f1536726cf8d54ff3d6481ed3cbc683c2591ca204274009afa09b1a18787878760405161065694939291906120a1565b60405180910390a3505050505050565b600082815260208181526040808320546001600160401b031683526005825280832085845282528083206001600160e01b0319851684529091528120546001600160a01b031680156106b9579050610568565b60006106c485610d17565b90506001600160a01b0381166106df57600092505050610568565b6040516301ffc9a760e01b602482015260009081906001600160a01b0384169060440160408051601f198184030181529181526020820180516001600160e01b03166301ffc9a760e01b1790525161073791906120d3565b600060405180830381855afa9150503d8060008114610772576040519150601f19603f3d011682016040523d82523d6000602084013e610777565b606091505b509150915081158061078a575060208151105b806107b4575080601f815181106107a3576107a36120ef565b01602001516001600160f81b031916155b156107c6576000945050505050610568565b6040516001600160e01b0319871660248201526001600160a01b0384169060440160408051601f198184030181529181526020820180516001600160e01b03166301ffc9a760e01b1790525161081c91906120d3565b600060405180830381855afa9150503d8060008114610857576040519150601f19603f3d011682016040523d82523d6000602084013e61085c565b606091505b509092509050811580610870575060208151105b8061089a575080601f81518110610889576108896120ef565b01602001516001600160f81b031916155b156108ac576000945050505050610568565b509095945050505050565b600a54600160a81b900460ff16158080156108df5750600a546001600160a01b90910460ff16105b806109005750303b1580156109005750600a54600160a01b900460ff166001145b6109685760405162461bcd60e51b815260206004820152602e60248201527f496e697469616c697a61626c653a20636f6e747261637420697320616c72656160448201526d191e481a5b9a5d1a585b1a5e995960921b60648201526084015b60405180910390fd5b600a805460ff60a01b1916600160a01b179055801561099557600a805460ff60a81b1916600160a81b1790555b61099d61166f565b600b80546001600160a01b0319166001600160a01b038681169190911790915583166000908152600c60205260409020805460ff1916600117905560038290558015610a2557600a805460ff60a81b19169055604051600181527f7f26b83ff96e1f2b6a682f133852f6798a09c465da95921460cefb38474024989060200160405180910390a15b50505050565b600082815260208181526040808320546001600160401b03168352600180835281842086855290925282206060915b848111610b415780851615801590610a8a575060008181526020839052604081208054610a8690611f31565b9050115b15610b395780826000838152602001908152602001600020808054610aae90611f31565b80601f0160208091040260200160405190810160405280929190818152602001828054610ada90611f31565b8015610b275780601f10610afc57610100808354040283529160200191610b27565b820191906000526020600020905b815481529060010190602001808311610b0a57829003601f168201915b50505050509050935093505050610b5a565b60011b610a5a565b5060006040518060200160405280600081525092509250505b9250929050565b82610b6b816116c9565b610b7457600080fd5b60408051808201825284815260208082018581526000888152808352848120546001600160401b031681526007835284812089825283528490209251835551600190920191909155815185815290810184905285917f1d6f5e03d3f63eb58751986629a5439baee5079ff04f345becb66e23eb154e4691015b60405180910390a250505050565b82610c05816116c9565b610c0e57600080fd5b600084815260208181526040808320546001600160401b03168352600482528083208784529091529020610c43838583611fb9565b50837fe379c1624ed7e714cc0937528a32359d69d5281337765313dba4e081b72d75788484604051610bed929190612105565b80610c80816116c9565b610c8957600080fd5b600082815260208190526040812080546001600160401b031691610cac8361212f565b82546101009290920a6001600160401b03818102199093169183160217909155600084815260208181526040918290205491519190921681528492507fc6621ccb8f3f5a04bb6502154b2caf6adf5983fe76dfef1cfc9c42e3579db444910160405180910390a25050565b600080610d2683600354611590565b90508051600003610d3a5750600092915050565b610d4381611797565b9392505050565b610d5261166f565b6001600160a01b03166000908152600c60205260409020805460ff19169055565b600083815260208181526040808320546001600160401b031683526008825280832086845290915290819020905160609190610db29085908590611f21565b90815260200160405180910390208054610dcb90611f31565b80601f0160208091040260200160405190810160405280929190818152602001828054610df790611f31565b8015610e445780601f10610e1957610100808354040283529160200191610e44565b820191906000526020600020905b815481529060010190602001808311610e2757829003601f168201915b505050505090509392505050565b83610e5c816116c9565b610e6557600080fd5b83610e71600182612155565b1615610e7c57600080fd5b600085815260208181526040808320546001600160401b031683526001825280832088845282528083208784529091529020610eb9838583611fb9565b50604051849086907faa121bbeef5f32f5961a2a28966e769023910fc9479059ee3495d4c1a696efe390600090a35050505050565b600081815260208181526040808320546001600160401b03168352600682528083208484529091529020805460609190610f2790611f31565b80601f0160208091040260200160405190810160405280929190818152602001828054610f5390611f31565b8015610fa05780601f10610f7557610100808354040283529160200191610fa0565b820191906000526020600020905b815481529060010190602001808311610f8357829003601f168201915b50505050509050919050565b610fb461166f565b610fbe60006117b6565b565b82610fca816116c9565b610fd357600080fd5b600084815260208181526040808320546001600160401b03168352600682528083208784529091529020611008838583611fb9565b50837fb7d29e911041e8d9b843369e890bcb72c9388692ba48b65ac54e7214c4c348f78484604051610bed929190612105565b82611045816116c9565b61104e57600080fd5b837f65412581168e88a1e60c6459d7f44ae83ad0832e670826c05a4e2476b57af7528484604051611080929190611b8b565b60405180910390a2600084815260208181526040808320546001600160401b0316835260028252808320878452825280832086845290915290206110c48382612168565b5050505050565b6001600160a01b03821633036111355760405162461bcd60e51b815260206004820152602960248201527f455243313135353a2073657474696e6720617070726f76616c20737461747573604482015268103337b91039b2b63360b91b606482015260840161095f565b336000818152600d602090815260408083206001600160a01b03871680855290835292819020805460ff191686151590811790915590519081529192917f17307eab39ab6107e8899845ad3d59bd9653f200f220920489ca2b5937696c31910160405180910390a35050565b6060816001600160401b038111156111bb576111bb611ca1565b6040519080825280602002602001820160405280156111ee57816020015b60608152602001906001900390816111d95790505b50905060005b828110156112b45760008030868685818110611212576112126120ef565b90506020028101906112249190612227565b604051611232929190611f21565b600060405180830381855af49150503d806000811461126d576040519150601f19603f3d011682016040523d82523d6000602084013e611272565b606091505b50915091508161128157600080fd5b80848481518110611294576112946120ef565b6020026020010181905250505080806112ac9061226d565b9150506111f4565b5092915050565b600081815260208181526040808320546001600160401b03168352600482528083208484529091529020805460609190610f2790611f31565b60096020908152600092835260408084209091529082529020805461131890611f31565b80601f016020809104026020016040519081016040528092919081815260200182805461134490611f31565b80156113915780601f1061136657610100808354040283529160200191611391565b820191906000526020600020905b81548152906001019060200180831161137457829003601f168201915b505050505081565b600082815260096020908152604080832084845290915290208054606091906113c190611f31565b80601f01602080910402602001604051908101604052809291908181526020018280546113ed90611f31565b801561143a5780601f1061140f5761010080835404028352916020019161143a565b820191906000526020600020905b81548152906001019060200180831161141d57829003601f168201915b5050505050905092915050565b83611451816116c9565b61145a57600080fd5b6000858152600960209081526040808320878452909152902061147e838583611fb9565b50847f5d09f22c5b27f567555451c92d940f671f5937d0d20f43da05db420401668c808585856040516114b393929190612286565b60405180910390a25050505050565b816114cc816116c9565b6114d557600080fd5b6114e58360035461039485611808565b505050565b826114f4816116c9565b6114fd57600080fd5b600084815260208181526040808320546001600160401b031683526005825280832087845282528083206001600160e01b031987168085529083529281902080546001600160a01b0319166001600160a01b038716908117909155905190815286917f7c69f06bea0bdef565b709e93a147836b0063ba2dd89f02d0b7e8d931e6a6daa910160405180910390a350505050565b600082815260208181526040808320546001600160401b0316835260028252808320858452825280832084845290915290208054606091906113c190611f31565b6115d961166f565b6001600160a01b03811661163e5760405162461bcd60e51b815260206004820152602660248201527f4f776e61626c653a206e6577206f776e657220697320746865207a65726f206160448201526564647265737360d01b606482015260840161095f565b611647816117b6565b50565b60006001600160e01b0319821663bf2b07c760e01b1480610568575061056882611838565b600a546001600160a01b03163314610fbe5760405162461bcd60e51b815260206004820181905260248201527f4f776e61626c653a2063616c6c6572206973206e6f7420746865206f776e6572604482015260640161095f565b336000908152600c602052604081205460ff16156116e957506001919050565b600b546040516302571be360e01b8152600481018490526000916001600160a01b0316906302571be390602401602060405180830381865afa158015611733573d6000803e3d6000fd5b505050506040513d601f19601f8201168201806040525081019061175791906122a9565b90506001600160a01b038116331480610d4357506001600160a01b0381166000908152600d6020908152604080832033845290915290205460ff16610d43565b600081516014146117a757600080fd5b5060200151600160601b900490565b600a80546001600160a01b038381166001600160a01b0319831681179093556040519116919082907f8be0079c531659141344cd1fd0a4f28419497f9722a3daafe3b4186f6b6457e090600090a35050565b604080516014808252818301909252606091602082018180368337505050600160601b9290920260208301525090565b60006001600160e01b03198216631674750f60e21b148061056857506105688260006001600160e01b0319821663c869023360e01b148061056857506105688260006001600160e01b0319821663691f343160e01b148061056857506105688260006001600160e01b031982166304928c6760e21b148061056857506105688260006001600160e01b0319821663bc1c58d160e01b148061056857506105688260006001600160e01b03198216631d9dabef60e11b148061190957506001600160e01b031982166378e5bf0360e11b145b8061056857506105688260006001600160e01b03198216631101d5ab60e11b148061056857506105688260006001600160e01b0319821663d700ff3360e01b148061056857506105688260006001600160e01b03198216631592ca1b60e31b148061056857506301ffc9a760e01b6001600160e01b0319831614610568565b80356001600160e01b0319811681146119a057600080fd5b919050565b6000602082840312156119b757600080fd5b610d4382611988565b6001600160a01b038116811461164757600080fd5b6000602082840312156119e757600080fd5b8135610d43816119c0565b60008083601f840112611a0457600080fd5b5081356001600160401b03811115611a1b57600080fd5b602083019150836020828501011115610b5a57600080fd5b600080600080600060608688031215611a4b57600080fd5b8535945060208601356001600160401b0380821115611a6957600080fd5b611a7589838a016119f2565b90965094506040880135915080821115611a8e57600080fd5b50611a9b888289016119f2565b969995985093965092949392505050565b60008060408385031215611abf57600080fd5b82359150611acf60208401611988565b90509250929050565b600080600060608486031215611aed57600080fd5b8335611af8816119c0565b92506020840135611b08816119c0565b929592945050506040919091013590565b60008060408385031215611b2c57600080fd5b50508035926020909101359150565b60005b83811015611b56578181015183820152602001611b3e565b50506000910152565b60008151808452611b77816020860160208601611b3b565b601f01601f19169290920160200192915050565b828152604060208201526000611ba46040830184611b5f565b949350505050565b600080600060608486031215611bc157600080fd5b505081359360208301359350604090920135919050565b600080600060408486031215611bed57600080fd5b8335925060208401356001600160401b03811115611c0a57600080fd5b611c16868287016119f2565b9497909650939450505050565b600060208284031215611c3557600080fd5b5035919050565b602081526000610d436020830184611b5f565b60008060008060608587031215611c6557600080fd5b843593506020850135925060408501356001600160401b03811115611c8957600080fd5b611c95878288016119f2565b95989497509550505050565b634e487b7160e01b600052604160045260246000fd5b600080600060608486031215611ccc57600080fd5b833592506020840135915060408401356001600160401b0380821115611cf157600080fd5b818601915086601f830112611d0557600080fd5b813581811115611d1757611d17611ca1565b604051601f8201601f19908116603f01168101908382118183101715611d3f57611d3f611ca1565b81604052828152896020848701011115611d5857600080fd5b8260208601602083013760006020848301015280955050505050509250925092565b60008060408385031215611d8d57600080fd5b8235611d98816119c0565b915060208301358015158114611dad57600080fd5b809150509250929050565b60008060208385031215611dcb57600080fd5b82356001600160401b0380821115611de257600080fd5b818501915085601f830112611df657600080fd5b813581811115611e0557600080fd5b8660208260051b8501011115611e1a57600080fd5b60209290920196919550909350505050565b6000602080830181845280855180835260408601915060408160051b870101925083870160005b82811015611e8157603f19888603018452611e6f858351611b5f565b94509285019290850190600101611e53565b5092979650505050505050565b60008060408385031215611ea157600080fd5b823591506020830135611dad816119c0565b600080600060608486031215611ec857600080fd5b83359250611ed860208501611988565b91506040840135611ee8816119c0565b809150509250925092565b60008060408385031215611f0657600080fd5b8235611f11816119c0565b91506020830135611dad816119c0565b8183823760009101908152919050565b600181811c90821680611f4557607f821691505b602082108103611f6557634e487b7160e01b600052602260045260246000fd5b50919050565b601f8211156114e557600081815260208120601f850160051c81016020861015611f925750805b601f850160051c820191505b81811015611fb157828155600101611f9e565b505050505050565b6001600160401b03831115611fd057611fd0611ca1565b611fe483611fde8354611f31565b83611f6b565b6000601f84116001811461201857600085156120005750838201355b600019600387901b1c1916600186901b1783556110c4565b600083815260209020601f19861690835b828110156120495786850135825560209485019460019092019101612029565b50868210156120665760001960f88860031b161c19848701351681555b505060018560011b0183555050505050565b81835281816020850137506000828201602090810191909152601f909101601f19169091010190565b6040815260006120b5604083018688612078565b82810360208401526120c8818587612078565b979650505050505050565b600082516120e5818460208701611b3b565b9190910192915050565b634e487b7160e01b600052603260045260246000fd5b602081526000611ba4602083018486612078565b634e487b7160e01b600052601160045260246000fd5b60006001600160401b0380831681810361214b5761214b612119565b6001019392505050565b8181038181111561056857610568612119565b81516001600160401b0381111561218157612181611ca1565b6121958161218f8454611f31565b84611f6b565b602080601f8311600181146121ca57600084156121b25750858301515b600019600386901b1c1916600185901b178555611fb1565b600085815260208120601f198616915b828110156121f9578886015182559484019460019091019084016121da565b50858210156122175787850151600019600388901b60f8161c191681555b5050505050600190811b01905550565b6000808335601e1984360301811261223e57600080fd5b8301803591506001600160401b0382111561225857600080fd5b602001915036819003821315610b5a57600080fd5b60006001820161227f5761227f612119565b5060010190565b8381526040602082015260006122a0604083018486612078565b95945050505050565b6000602082840312156122bb57600080fd5b8151610d43816119c056fea2646970667358221220c0c0f7e0a7917661132d237f7accf19d81556d260270abc951c605b9f5ee074664736f6c63430008120033",
  "linkReferences": {},
  "deployedLinkReferences": {}
}