{
  "_format": "hh-sol-artifact-1",
  "contractName": "GiftCardVoucher",
  "sourceName": "contracts/giftcard/GiftCardVoucher.sol",
  "abi": [
    {
      "inputs": [
        {
          "internalType": "contract ISANN",
          "name": "_sann",
          "type": "address"
        }
      ],
      "stateMutability": "nonpayable",
      "type": "constructor"
    },
    {
      "anonymous": false,
      "inputs": [
        {
          "indexed": true,
          "internalType": "uint256",
          "name": "tokenId",
          "type": "uint256"
        },
        {
          "indexed": true,
          "internalType": "uint256",
          "name": "price",
          "type": "uint256"
        },
        {
          "indexed": true,
          "internalType": "uint256",
          "name": "identifier",
          "type": "uint256"
        }
      ],
      "name": "CustomizedVoucherAdded",
      "type": "event"
    },
    {
      "inputs": [
        {
          "internalType": "uint256",
          "name": "identifier",
          "type": "uint256"
        },
        {
          "internalType": "uint256",
          "name": "price",
          "type": "uint256"
        }
      ],
      "name": "addCustomizedVoucher",
      "outputs": [
        {
          "internalType": "uint256",
          "name": "",
          "type": "uint256"
        }
      ],
      "stateMutability": "nonpayable",
      "type": "function"
    },
    {
      "inputs": [
        {
          "internalType": "uint256",
          "name": "tokenId",
          "type": "uint256"
        }
      ],
      "name": "getTokenIdTld",
      "outputs": [
        {
          "internalType": "uint256",
          "name": "",
          "type": "uint256"
        }
      ],
      "stateMutability": "view",
      "type": "function"
    },
    {
      "inputs": [
        {
          "internalType": "uint256[]",
          "name": "ids",
          "type": "uint256[]"
        }
      ],
      "name": "isSameTld",
      "outputs": [
        {
          "internalType": "bool",
          "name": "",
          "type": "bool"
        }
      ],
      "stateMutability": "view",
      "type": "function"
    },
    {
      "inputs": [
        {
          "internalType": "uint256[]",
          "name": "ids",
          "type": "uint256[]"
        }
      ],
      "name": "isValidVoucherIds",
      "outputs": [
        {
          "internalType": "bool",
          "name": "",
          "type": "bool"
        }
      ],
      "stateMutability": "view",
      "type": "function"
    },
    {
      "inputs": [],
      "name": "sann",
      "outputs": [
        {
          "internalType": "contract ISANN",
          "name": "",
          "type": "address"
        }
      ],
      "stateMutability": "view",
      "type": "function"
    },
    {
      "inputs": [
        {
          "internalType": "uint256[]",
          "name": "ids",
          "type": "uint256[]"
        },
        {
          "internalType": "uint256[]",
          "name": "amounts",
          "type": "uint256[]"
        }
      ],
      "name": "totalValue",
      "outputs": [
        {
          "internalType": "uint256",
          "name": "",
          "type": "uint256"
        }
      ],
      "stateMutability": "view",
      "type": "function"
    },
    {
      "inputs": [
        {
          "internalType": "uint256",
          "name": "",
          "type": "uint256"
        }
      ],
      "name": "voucherTlds",
      "outputs": [
        {
          "internalType": "uint256",
          "name": "",
          "type": "uint256"
        }
      ],
      "stateMutability": "view",
      "type": "function"
    },
    {
      "inputs": [
        {
          "internalType": "uint256",
          "name": "",
          "type": "uint256"
        }
      ],
      "name": "voucherValues",
      "outputs": [
        {
          "internalType": "uint256",
          "name": "",
          "type": "uint256"
        }
      ],
      "stateMutability": "view",
      "type": "function"
    }
  ],
  "bytecode": "0x608060405234801561001057600080fd5b506040516107fe3803806107fe83398101604081905261002f91610054565b600080546001600160a01b0319166001600160a01b0392909216919091179055610084565b60006020828403121561006657600080fd5b81516001600160a01b038116811461007d57600080fd5b9392505050565b61076b806100936000396000f3fe608060405234801561001057600080fd5b50600436106100885760003560e01c8063992ba3461161005b578063992ba34614610109578063b35f6eb61461011c578063d46da3871461012f578063dc6331af1461015a57600080fd5b80630cd7aab81461008d57806321e27342146100c057806358198158146100e35780638e210f0b146100f6575b600080fd5b6100ad61009b366004610561565b60016020526000908152604090205481565b6040519081526020015b60405180910390f35b6100d36100ce3660046105c6565b61017a565b60405190151581526020016100b7565b6100ad6100f1366004610608565b610267565b6100ad610104366004610561565b61040d565b6100ad61011736600461062a565b610478565b6100d361012a3660046105c6565b6104fc565b600054610142906001600160a01b031681565b6040516001600160a01b0390911681526020016100b7565b6100ad610168366004610561565b60026020526000908152604090205481565b600080805b8381101561025a57600085858381811061019b5761019b610696565b90506020020135905060026000828152602001908152602001600020546000036102075760405162461bcd60e51b8152602060048201526018602482015277546f6b656e4964277320746c64206e6f742065786973747360401b60448201526064015b60405180910390fd5b82600003610225576000908152600260205260409020549150610248565b60008181526002602052604090205483146102465760009350505050610261565b505b80610252816106c2565b91505061017f565b5060019150505b92915050565b6000805460405162e4decd60e31b815260048101859052849133916001600160a01b0390911690630726f66890602401602060405180830381865afa1580156102b4573d6000803e3d6000fd5b505050506040513d601f19601f820116820180604052508101906102d891906106db565b6001600160a01b03161461033a5760405162461bcd60e51b8152602060048201526024808201527f4f776e61626c653a2063616c6c6572206973206e6f742074686520746c64206f6044820152633bb732b960e11b60648201526084016101fe565b6040805160208082018790528183018690528251808303840181526060909201835281519181019190912060008181526001909252919020548190156103bb5760405162461bcd60e51b8152602060048201526016602482015275766f756368657220616c72656164792065787369747360501b60448201526064016101fe565b60008181526001602090815260408083208890556002909152808220889055518791879184917f79986ef28f0add827f18d537bebcdc5b9709c19fabde5d0197187740faf46b7991a495945050505050565b60008181526002602052604081205481036104655760405162461bcd60e51b8152602060048201526018602482015277546f6b656e4964277320746c64206e6f742065786973747360401b60448201526064016101fe565b5060009081526002602052604090205490565b600080805b858110156104f25784848281811061049757610497610696565b90506020020135600160008989858181106104b4576104b4610696565b905060200201358152602001908152602001600020546104d4919061070b565b6104de9083610722565b9150806104ea816106c2565b91505061047d565b5095945050505050565b6000805b82811015610557576001600085858481811061051e5761051e610696565b90506020020135815260200190815260200160002054600003610545576000915050610261565b8061054f816106c2565b915050610500565b5060019392505050565b60006020828403121561057357600080fd5b5035919050565b60008083601f84011261058c57600080fd5b50813567ffffffffffffffff8111156105a457600080fd5b6020830191508360208260051b85010111156105bf57600080fd5b9250929050565b600080602083850312156105d957600080fd5b823567ffffffffffffffff8111156105f057600080fd5b6105fc8582860161057a565b90969095509350505050565b6000806040838503121561061b57600080fd5b50508035926020909101359150565b6000806000806040858703121561064057600080fd5b843567ffffffffffffffff8082111561065857600080fd5b6106648883890161057a565b9096509450602087013591508082111561067d57600080fd5b5061068a8782880161057a565b95989497509550505050565b634e487b7160e01b600052603260045260246000fd5b634e487b7160e01b600052601160045260246000fd5b6000600182016106d4576106d46106ac565b5060010190565b6000602082840312156106ed57600080fd5b81516001600160a01b038116811461070457600080fd5b9392505050565b8082028115828204841417610261576102616106ac565b80820180821115610261576102616106ac56fea264697066735822122075fbc96f69a811519942cebab1f02f7b72066d8e2f34d8be273a72c49a4b4f9964736f6c63430008120033",
  "linkReferences": {},
  "deployedLinkReferences": {}
}