{
  "_format": "hh-sol-artifact-1",
  "contractName": "GiftCardController",
  "sourceName": "contracts/giftcard/GiftCardController.sol",
  "abi": [
    {
      "inputs": [
        {
          "internalType": "contract ISANN",
          "name": "_sann",
          "type": "address"
        },
        {
          "internalType": "contract GiftCardBase",
          "name": "_base",
          "type": "address"
        },
        {
          "internalType": "contract GiftCardVoucher",
          "name": "_voucher",
          "type": "address"
        },
        {
          "internalType": "contract GiftCardLedger",
          "name": "_ledger",
          "type": "address"
        },
        {
          "internalType": "contract IPriceOracle",
          "name": "_priceOracle",
          "type": "address"
        },
        {
          "internalType": "contract IPlatformConfig",
          "name": "_platformConfig",
          "type": "address"
        },
        {
          "internalType": "contract PrepaidPlatformFee",
          "name": "_prepaidPlatformFee",
          "type": "address"
        }
      ],
      "stateMutability": "nonpayable",
      "type": "constructor"
    },
    {
      "anonymous": false,
      "inputs": [
        {
          "indexed": false,
          "internalType": "address",
          "name": "priceOracle",
          "type": "address"
        }
      ],
      "name": "SetPriceOracle",
      "type": "event"
    },
    {
      "inputs": [],
      "name": "base",
      "outputs": [
        {
          "internalType": "contract GiftCardBase",
          "name": "",
          "type": "address"
        }
      ],
      "stateMutability": "view",
      "type": "function"
    },
    {
      "inputs": [
        {
          "internalType": "uint256",
          "name": "identifier",
          "type": "uint256"
        },
        {
          "internalType": "uint256[]",
          "name": "ids",
          "type": "uint256[]"
        },
        {
          "internalType": "uint256[]",
          "name": "amounts",
          "type": "uint256[]"
        }
      ],
      "name": "batchRedeem",
      "outputs": [],
      "stateMutability": "nonpayable",
      "type": "function"
    },
    {
      "inputs": [
        {
          "internalType": "uint256[]",
          "name": "ids",
          "type": "uint256[]"
        },
        {
          "internalType": "uint256[]",
          "name": "amounts",
          "type": "uint256[]"
        }
      ],
      "name": "batchRegister",
      "outputs": [],
      "stateMutability": "payable",
      "type": "function"
    },
    {
      "inputs": [],
      "name": "ledger",
      "outputs": [
        {
          "internalType": "contract GiftCardLedger",
          "name": "",
          "type": "address"
        }
      ],
      "stateMutability": "view",
      "type": "function"
    },
    {
      "inputs": [],
      "name": "platformConfig",
      "outputs": [
        {
          "internalType": "contract IPlatformConfig",
          "name": "",
          "type": "address"
        }
      ],
      "stateMutability": "view",
      "type": "function"
    },
    {
      "inputs": [],
      "name": "prepaidPlatformFee",
      "outputs": [
        {
          "internalType": "contract PrepaidPlatformFee",
          "name": "",
          "type": "address"
        }
      ],
      "stateMutability": "view",
      "type": "function"
    },
    {
      "inputs": [
        {
          "internalType": "uint256[]",
          "name": "ids",
          "type": "uint256[]"
        },
        {
          "internalType": "uint256[]",
          "name": "amounts",
          "type": "uint256[]"
        }
      ],
      "name": "price",
      "outputs": [
        {
          "internalType": "uint256",
          "name": "",
          "type": "uint256"
        }
      ],
      "stateMutability": "view",
      "type": "function"
    },
    {
      "inputs": [],
      "name": "priceOracle",
      "outputs": [
        {
          "internalType": "contract IPriceOracle",
          "name": "",
          "type": "address"
        }
      ],
      "stateMutability": "view",
      "type": "function"
    },
    {
      "inputs": [],
      "name": "sann",
      "outputs": [
        {
          "internalType": "contract ISANN",
          "name": "",
          "type": "address"
        }
      ],
      "stateMutability": "view",
      "type": "function"
    },
    {
      "inputs": [
        {
          "internalType": "address",
          "name": "_priceOracle",
          "type": "address"
        }
      ],
      "name": "setPriceOracle",
      "outputs": [],
      "stateMutability": "nonpayable",
      "type": "function"
    },
    {
      "inputs": [
        {
          "internalType": "uint256",
          "name": "",
          "type": "uint256"
        }
      ],
      "name": "tldGiftCardRevenues",
      "outputs": [
        {
          "internalType": "uint256",
          "name": "",
          "type": "uint256"
        }
      ],
      "stateMutability": "view",
      "type": "function"
    },
    {
      "inputs": [],
      "name": "voucher",
      "outputs": [
        {
          "internalType": "contract GiftCardVoucher",
          "name": "",
          "type": "address"
        }
      ],
      "stateMutability": "view",
      "type": "function"
    },
    {
      "inputs": [
        {
          "internalType": "uint256",
          "name": "identifier",
          "type": "uint256"
        }
      ],
      "name": "withdraw",
      "outputs": [],
      "stateMutability": "nonpayable",
      "type": "function"
    }
  ],
  "bytecode": "0x60806040523480156200001157600080fd5b506040516200153038038062001530833981016040819052620000349162000216565b600080546001600160a01b0319166001600160a01b03898116919091179091558616620000a85760405162461bcd60e51b815260206004820152601460248201527f496e76616c69642062617365206164647265737300000000000000000000000060448201526064015b60405180910390fd5b6001600160a01b038516620001005760405162461bcd60e51b815260206004820152601760248201527f496e76616c696420766f7563686572206164647265737300000000000000000060448201526064016200009f565b6001600160a01b038316620001585760405162461bcd60e51b815260206004820152601c60248201527f496e76616c6964207072696365206f7261636c6520616464726573730000000060448201526064016200009f565b600180546001600160a01b03199081166001600160a01b0389811691909117909255600280548216888416179055600380548216878416179055600680548216868416908117909155600480548316868516179055600580549092169284169290921790556040519081527f88a686e0e341d9099f2f990c3aa759a86822142a67579064b43ded9354a256629060200160405180910390a150505050505050620002c1565b6001600160a01b03811681146200021357600080fd5b50565b600080600080600080600060e0888a0312156200023257600080fd5b87516200023f81620001fd565b60208901519097506200025281620001fd565b60408901519096506200026581620001fd565b60608901519095506200027881620001fd565b60808901519094506200028b81620001fd565b60a08901519093506200029e81620001fd565b60c0890151909250620002b181620001fd565b8091505092959891949750929550565b61125f80620002d16000396000f3fe6080604052600436106100c25760003560e01c806356397c351161007f578063acb8e01411610059578063acb8e01414610207578063acfc0e2e14610234578063cdda418c14610254578063d46da3871461027457600080fd5b806356397c35146101b457806383a2e281146101d4578063a289cf84146101e757600080fd5b80630579d25d146100c75780632630c12f146100fa5780632e1a7d4d146101325780634d24e236146101545780635001f3b514610174578063530e784f14610194575b600080fd5b3480156100d357600080fd5b506100e76100e2366004610f7a565b610294565b6040519081526020015b60405180910390f35b34801561010657600080fd5b5060065461011a906001600160a01b031681565b6040516001600160a01b0390911681526020016100f1565b34801561013e57600080fd5b5061015261014d366004610fe6565b610388565b005b34801561016057600080fd5b5060045461011a906001600160a01b031681565b34801561018057600080fd5b5060015461011a906001600160a01b031681565b3480156101a057600080fd5b506101526101af366004611017565b610549565b3480156101c057600080fd5b5060035461011a906001600160a01b031681565b6101526101e2366004610f7a565b6106cb565b3480156101f357600080fd5b5060055461011a906001600160a01b031681565b34801561021357600080fd5b506100e7610222366004610fe6565b60076020526000908152604090205481565b34801561024057600080fd5b5061015261024f36600461103b565b610c05565b34801561026057600080fd5b5060025461011a906001600160a01b031681565b34801561028057600080fd5b5060005461011a906001600160a01b031681565b600254604051634c95d1a360e11b815260009182916001600160a01b039091169063992ba346906102cf9089908990899089906004016110e7565b602060405180830381865afa1580156102ec573d6000803e3d6000fd5b505050506040513d601f19601f820116820180604052508101906103109190611119565b6006546040516368a33fc360e11b8152600481018390529192506001600160a01b03169063d1467f8690602401602060405180830381865afa15801561035a573d6000803e3d6000fd5b505050506040513d601f19601f8201168201806040525081019061037e9190611119565b9695505050505050565b60005460405162e4decd60e31b815260048101839052829133916001600160a01b0390911690630726f66890602401602060405180830381865afa1580156103d4573d6000803e3d6000fd5b505050506040513d601f19601f820116820180604052508101906103f89190611132565b6001600160a01b03161461045f5760405162461bcd60e51b8152602060048201526024808201527f4f776e61626c653a2063616c6c6572206973206e6f742074686520746c64206f6044820152633bb732b960e11b60648201526084015b60405180910390fd5b60008281526007602052604081208054919055806104b45760405162461bcd60e51b8152602060048201526012602482015271696e73756666696369656e742076616c756560701b6044820152606401610456565b604051600090339083908381818185875af1925050503d80600081146104f6576040519150601f19603f3d011682016040523d82523d6000602084013e6104fb565b606091505b50509050806105435760405162461bcd60e51b81526020600482015260146024820152732330b4b632b2103a379039b2b7321022ba3432b960611b6044820152606401610456565b50505050565b6000546040805163cdcd7fb560e01b8152905133926001600160a01b03169163cdcd7fb59160048083019260209291908290030181865afa158015610592573d6000803e3d6000fd5b505050506040513d601f19601f820116820180604052508101906105b69190611132565b6001600160a01b0316146106215760405162461bcd60e51b815260206004820152602c60248201527f41636365737369626c653a2063616c6c6572206973206e6f742074686520706c60448201526b30ba3337b9369030b236b4b760a11b6064820152608401610456565b6001600160a01b0381166106775760405162461bcd60e51b815260206004820152601c60248201527f496e76616c6964207072696365206f7261636c652061646472657373000000006044820152606401610456565b600680546001600160a01b0319166001600160a01b0383169081179091556040519081527f88a686e0e341d9099f2f990c3aa759a86822142a67579064b43ded9354a256629060200160405180910390a150565b6002546040516359afb75b60e11b81526001600160a01b039091169063b35f6eb6906106fd908790879060040161114f565b602060405180830381865afa15801561071a573d6000803e3d6000fd5b505050506040513d601f19601f8201168201806040525081019061073e919061116b565b61077f5760405162461bcd60e51b8152602060048201526012602482015271125b9d985b1a59081d9bdd58da195c881a5960721b6044820152606401610456565b6002546040516310f139a160e11b81526001600160a01b03909116906321e27342906107b1908790879060040161114f565b602060405180830381865afa1580156107ce573d6000803e3d6000fd5b505050506040513d601f19601f820116820180604052508101906107f2919061116b565b6108315760405162461bcd60e51b815260206004820152601060248201526f135d5cdd081899481cd85b59481d1b1960821b6044820152606401610456565b6002546000906001600160a01b0316638e210f0b868684816108555761085561118d565b905060200201356040518263ffffffff1660e01b815260040161087a91815260200190565b602060405180830381865afa158015610897573d6000803e3d6000fd5b505050506040513d601f19601f820116820180604052508101906108bb9190611119565b905060006108cb86868686610294565b9050803410156109125760405162461bcd60e51b8152602060048201526012602482015271496e73756666696369656e742066756e647360701b6044820152606401610456565b600154604051638cbdd36160e01b81526001600160a01b0390911690638cbdd3619061094a9033908a908a908a908a906004016111a3565b600060405180830381600087803b15801561096457600080fd5b505af1158015610978573d6000803e3d6000fd5b5050505060008060009054906101000a90046001600160a01b03166001600160a01b031663f34004196040518163ffffffff1660e01b8152600401602060405180830381865afa1580156109d0573d6000803e3d6000fd5b505050506040513d601f19601f820116820180604052508101906109f49190611132565b90506001600160a01b038116610a455760405162461bcd60e51b815260206004820152601660248201527524b73b30b634b2103a36321031b7b73a3937b63632b960511b6044820152606401610456565b600480546040516338ad915960e01b8152918201859052602482018490526000916001600160a01b03909116906338ad915990604401602060405180830381865afa158015610a98573d6000803e3d6000fd5b505050506040513d601f19601f82011682018060405250810190610abc9190611119565b90508015610b255760055460405163b6b55f2560e01b8152600481018690526001600160a01b039091169063b6b55f259083906024016000604051808303818588803b158015610b0b57600080fd5b505af1158015610b1f573d6000803e3d6000fd5b50505050505b80831115610b5b57610b3781846111fd565b60008581526007602052604081208054909190610b55908490611216565b90915550505b82341115610bfb57600033610b7085346111fd565b604051600081818185875af1925050503d8060008114610bac576040519150601f19603f3d011682016040523d82523d6000602084013e610bb1565b606091505b5050905080610bf95760405162461bcd60e51b81526020600482015260146024820152732330b4b632b2103a379039b2b7321022ba3432b960611b6044820152606401610456565b505b5050505050505050565b6002546040516310f139a160e11b81526001600160a01b03909116906321e2734290610c37908790879060040161114f565b602060405180830381865afa158015610c54573d6000803e3d6000fd5b505050506040513d601f19601f82011682018060405250810190610c78919061116b565b610cb75760405162461bcd60e51b815260206004820152601060248201526f135d5cdd081899481cd85b59481d1b1960821b6044820152606401610456565b82610cf55760405162461bcd60e51b815260206004820152600e60248201526d456d70747920746f6b656e49647360901b6044820152606401610456565b60025485906001600160a01b0316638e210f0b8686600081610d1957610d1961118d565b905060200201356040518263ffffffff1660e01b8152600401610d3e91815260200190565b602060405180830381865afa158015610d5b573d6000803e3d6000fd5b505050506040513d601f19601f82011682018060405250810190610d7f9190611119565b14610dd65760405162461bcd60e51b815260206004820152602160248201527f4964656e74696669657220646f73656e2774206d6174636820746f6b656e49646044820152607360f81b6064820152608401610456565b600154604051637b75893d60e11b81526001600160a01b039091169063f6eb127a90610e0e90339088908890889088906004016111a3565b600060405180830381600087803b158015610e2857600080fd5b505af1158015610e3c573d6000803e3d6000fd5b5050600254604051634c95d1a360e11b8152600093506001600160a01b03909116915063992ba34690610e799088908890889088906004016110e7565b602060405180830381865afa158015610e96573d6000803e3d6000fd5b505050506040513d601f19601f82011682018060405250810190610eba9190611119565b60035460405163d878016160e01b815260048101899052336024820152604481018390529192506001600160a01b03169063d878016190606401600060405180830381600087803b158015610f0e57600080fd5b505af1158015610f22573d6000803e3d6000fd5b50505050505050505050565b60008083601f840112610f4057600080fd5b50813567ffffffffffffffff811115610f5857600080fd5b6020830191508360208260051b8501011115610f7357600080fd5b9250929050565b60008060008060408587031215610f9057600080fd5b843567ffffffffffffffff80821115610fa857600080fd5b610fb488838901610f2e565b90965094506020870135915080821115610fcd57600080fd5b50610fda87828801610f2e565b95989497509550505050565b600060208284031215610ff857600080fd5b5035919050565b6001600160a01b038116811461101457600080fd5b50565b60006020828403121561102957600080fd5b813561103481610fff565b9392505050565b60008060008060006060868803121561105357600080fd5b85359450602086013567ffffffffffffffff8082111561107257600080fd5b61107e89838a01610f2e565b9096509450604088013591508082111561109757600080fd5b506110a488828901610f2e565b969995985093965092949392505050565b81835260006001600160fb1b038311156110ce57600080fd5b8260051b80836020870137939093016020019392505050565b6040815260006110fb6040830186886110b5565b828103602084015261110e8185876110b5565b979650505050505050565b60006020828403121561112b57600080fd5b5051919050565b60006020828403121561114457600080fd5b815161103481610fff565b6020815260006111636020830184866110b5565b949350505050565b60006020828403121561117d57600080fd5b8151801515811461103457600080fd5b634e487b7160e01b600052603260045260246000fd5b6001600160a01b03861681526060602082018190526000906111c890830186886110b5565b82810360408401526111db8185876110b5565b98975050505050505050565b634e487b7160e01b600052601160045260246000fd5b81810381811115611210576112106111e7565b92915050565b80820180821115611210576112106111e756fea2646970667358221220f04f9b2fdc5a37632d1ba03d3e520ad6c19819e0be4f8ebfeefa9bfb68f38bbf64736f6c63430008120033",
  "linkReferences": {},
  "deployedLinkReferences": {}
}