{
  "_format": "hh-sol-artifact-1",
  "contractName": "Create2Factory",
  "sourceName": "contracts/create2factory/Create2Factory.sol",
  "abi": [
    {
      "anonymous": false,
      "inputs": [
        {
          "indexed": true,
          "internalType": "address",
          "name": "deploymentAddress",
          "type": "address"
        }
      ],
      "name": "ContractDeployed",
      "type": "event"
    },
    {
      "inputs": [
        {
          "internalType": "address",
          "name": "",
          "type": "address"
        }
      ],
      "name": "_deployed",
      "outputs": [
        {
          "internalType": "bool",
          "name": "",
          "type": "bool"
        }
      ],
      "stateMutability": "view",
      "type": "function"
    },
    {
      "inputs": [
        {
          "internalType": "bytes32",
          "name": "salt",
          "type": "bytes32"
        },
        {
          "internalType": "bytes",
          "name": "initCode",
          "type": "bytes"
        }
      ],
      "name": "findCreate2Address",
      "outputs": [
        {
          "internalType": "address",
          "name": "deploymentAddress",
          "type": "address"
        }
      ],
      "stateMutability": "view",
      "type": "function"
    },
    {
      "inputs": [
        {
          "internalType": "bytes32",
          "name": "salt",
          "type": "bytes32"
        },
        {
          "internalType": "bytes32",
          "name": "initCodeHash",
          "type": "bytes32"
        }
      ],
      "name": "findCreate2AddressViaHash",
      "outputs": [
        {
          "internalType": "address",
          "name": "deploymentAddress",
          "type": "address"
        }
      ],
      "stateMutability": "view",
      "type": "function"
    },
    {
      "inputs": [
        {
          "internalType": "address",
          "name": "deploymentAddress",
          "type": "address"
        }
      ],
      "name": "hasBeenDeployed",
      "outputs": [
        {
          "internalType": "bool",
          "name": "",
          "type": "bool"
        }
      ],
      "stateMutability": "view",
      "type": "function"
    },
    {
      "inputs": [
        {
          "internalType": "bytes32",
          "name": "salt",
          "type": "bytes32"
        },
        {
          "internalType": "bytes",
          "name": "initializationCode",
          "type": "bytes"
        }
      ],
      "name": "safeCreate2",
      "outputs": [
        {
          "internalType": "address",
          "name": "deploymentAddress",
          "type": "address"
        }
      ],
      "stateMutability": "payable",
      "type": "function"
    }
  ],
  "bytecode": "0x608060405234801561001057600080fd5b506105a5806100206000396000f3fe60806040526004361061004a5760003560e01c806308508b8f1461004f5780633b67d8091461009d57806364e03087146100cd57806385cf97ab146100f8578063a49a7c9014610118575b600080fd5b34801561005b57600080fd5b5061008861006a366004610431565b6001600160a01b031660009081526020819052604090205460ff1690565b60405190151581526020015b60405180910390f35b3480156100a957600080fd5b506100886100b8366004610431565b60006020819052908152604090205460ff1681565b6100e06100db36600461045a565b610138565b6040516001600160a01b039091168152602001610094565b34801561010457600080fd5b506100e061011336600461045a565b610354565b34801561012457600080fd5b506100e06101333660046104d6565b6103d7565b60008083838080601f016020809104026020016040519081016040528093929190818152602001838380828437600092018290525060405194955093309350899250610189915085906020016104f8565b604051602081830303815290604052805190602001206040516020016101b193929190610527565b60408051601f1981840301815291815281516020928301206001600160a01b03811660009081529283905291205490915060ff161561025d5760405162461bcd60e51b815260206004820152603f60248201527f496e76616c696420636f6e7472616374206372656174696f6e202d20636f6e7460448201527f726163742068617320616c7265616479206265656e206465706c6f7965642e0060648201526084015b60405180910390fd5b81602001825187818334f594505050806001600160a01b0316836001600160a01b0316146103025760405162461bcd60e51b815260206004820152604660248201527f4661696c656420746f206465706c6f7920636f6e7472616374207573696e672060448201527f70726f76696465642073616c7420616e6420696e697469616c697a6174696f6e6064820152651031b7b2329760d11b608482015260a401610254565b6001600160a01b038316600081815260208190526040808220805460ff19166001179055517f8ffcdc15a283d706d38281f500270d8b5a656918f555de0913d7455e3e6bc1bf9190a250509392505050565b60003084848460405160200161036b92919061055f565b6040516020818303038152906040528051906020012060405160200161039393929190610527565b60408051601f1981840301815291815281516020928301206001600160a01b03811660009081529283905291205490915060ff16156103d0575060005b9392505050565b60003083836040516020016103ee93929190610527565b60408051601f1981840301815291815281516020928301206001600160a01b03811660009081529283905291205490915060ff161561042b575060005b92915050565b60006020828403121561044357600080fd5b81356001600160a01b03811681146103d057600080fd5b60008060006040848603121561046f57600080fd5b83359250602084013567ffffffffffffffff8082111561048e57600080fd5b818601915086601f8301126104a257600080fd5b8135818111156104b157600080fd5b8760208285010111156104c357600080fd5b6020830194508093505050509250925092565b600080604083850312156104e957600080fd5b50508035926020909101359150565b6000825160005b8181101561051957602081860181015185830152016104ff565b506000920191825250919050565b6001600160f81b0319815260609390931b6bffffffffffffffffffffffff191660018401526015830191909152603582015260550190565b818382376000910190815291905056fea2646970667358221220a51fe14f56f36b61f3972e7918bff4159c7f9f0b40e3aac9445fb3a971eeb91864736f6c63430008120033",
  "linkReferences": {},
  "deployedLinkReferences": {}
}