{
  "_format": "hh-sol-artifact-1",
  "contractName": "Staking",
  "sourceName": "contracts/staking/Staking.sol",
  "abi": [
    {
      "inputs": [
        {
          "internalType": "uint256",
          "name": "_minimumStake",
          "type": "uint256"
        }
      ],
      "stateMutability": "nonpayable",
      "type": "constructor"
    },
    {
      "anonymous": false,
      "inputs": [
        {
          "indexed": true,
          "internalType": "address",
          "name": "previousOwner",
          "type": "address"
        },
        {
          "indexed": true,
          "internalType": "address",
          "name": "newOwner",
          "type": "address"
        }
      ],
      "name": "OwnershipTransferred",
      "type": "event"
    },
    {
      "anonymous": false,
      "inputs": [
        {
          "indexed": true,
          "internalType": "address",
          "name": "user",
          "type": "address"
        },
        {
          "indexed": false,
          "internalType": "uint256",
          "name": "amount",
          "type": "uint256"
        }
      ],
      "name": "Staked",
      "type": "event"
    },
    {
      "anonymous": false,
      "inputs": [
        {
          "indexed": true,
          "internalType": "address",
          "name": "user",
          "type": "address"
        },
        {
          "indexed": false,
          "internalType": "uint256",
          "name": "amount",
          "type": "uint256"
        }
      ],
      "name": "UnStake",
      "type": "event"
    },
    {
      "inputs": [],
      "name": "MINIMUM_STAKE",
      "outputs": [
        {
          "internalType": "uint256",
          "name": "",
          "type": "uint256"
        }
      ],
      "stateMutability": "view",
      "type": "function"
    },
    {
      "inputs": [
        {
          "internalType": "string",
          "name": "tld",
          "type": "string"
        }
      ],
      "name": "checkAvailability",
      "outputs": [
        {
          "internalType": "bool",
          "name": "",
          "type": "bool"
        }
      ],
      "stateMutability": "view",
      "type": "function"
    },
    {
      "inputs": [],
      "name": "getStakeDetails",
      "outputs": [
        {
          "internalType": "address",
          "name": "owner",
          "type": "address"
        },
        {
          "internalType": "uint256",
          "name": "identifier",
          "type": "uint256"
        },
        {
          "internalType": "uint256",
          "name": "stakedAmount",
          "type": "uint256"
        }
      ],
      "stateMutability": "view",
      "type": "function"
    },
    {
      "inputs": [
        {
          "internalType": "address",
          "name": "tldOwner",
          "type": "address"
        }
      ],
      "name": "hasStaked",
      "outputs": [
        {
          "internalType": "bool",
          "name": "isStaked",
          "type": "bool"
        }
      ],
      "stateMutability": "view",
      "type": "function"
    },
    {
      "inputs": [
        {
          "internalType": "address",
          "name": "",
          "type": "address"
        }
      ],
      "name": "identifiers",
      "outputs": [
        {
          "internalType": "uint256",
          "name": "",
          "type": "uint256"
        }
      ],
      "stateMutability": "view",
      "type": "function"
    },
    {
      "inputs": [],
      "name": "owner",
      "outputs": [
        {
          "internalType": "address",
          "name": "",
          "type": "address"
        }
      ],
      "stateMutability": "view",
      "type": "function"
    },
    {
      "inputs": [],
      "name": "renounceOwnership",
      "outputs": [],
      "stateMutability": "nonpayable",
      "type": "function"
    },
    {
      "inputs": [
        {
          "internalType": "uint256",
          "name": "amount",
          "type": "uint256"
        }
      ],
      "name": "setStakeLimit",
      "outputs": [],
      "stateMutability": "nonpayable",
      "type": "function"
    },
    {
      "inputs": [
        {
          "internalType": "uint256",
          "name": "identifier",
          "type": "uint256"
        },
        {
          "internalType": "string",
          "name": "tld",
          "type": "string"
        }
      ],
      "name": "stake",
      "outputs": [],
      "stateMutability": "payable",
      "type": "function"
    },
    {
      "inputs": [
        {
          "internalType": "address",
          "name": "",
          "type": "address"
        }
      ],
      "name": "stakes",
      "outputs": [
        {
          "internalType": "uint256",
          "name": "",
          "type": "uint256"
        }
      ],
      "stateMutability": "view",
      "type": "function"
    },
    {
      "inputs": [
        {
          "internalType": "uint256",
          "name": "",
          "type": "uint256"
        }
      ],
      "name": "tldRegistered",
      "outputs": [
        {
          "internalType": "string",
          "name": "",
          "type": "string"
        }
      ],
      "stateMutability": "view",
      "type": "function"
    },
    {
      "inputs": [
        {
          "internalType": "address",
          "name": "newOwner",
          "type": "address"
        }
      ],
      "name": "transferOwnership",
      "outputs": [],
      "stateMutability": "nonpayable",
      "type": "function"
    },
    {
      "inputs": [],
      "name": "unStake",
      "outputs": [],
      "stateMutability": "nonpayable",
      "type": "function"
    }
  ],
  "bytecode": "0x608060405234801561001057600080fd5b50604051610b5d380380610b5d83398101604081905261002f91610090565b61003833610040565b6003556100a9565b600080546001600160a01b038381166001600160a01b0319831681178455604051919092169283917f8be0079c531659141344cd1fd0a4f28419497f9722a3daafe3b4186f6b6457e09190a35050565b6000602082840312156100a257600080fd5b5051919050565b610aa5806100b86000396000f3fe6080604052600436106100c25760003560e01c806392ef42581161007f578063decd8ec711610059578063decd8ec71461022f578063e1409a401461025c578063e7e4e1f71461027c578063f2fde38b1461028f57600080fd5b806392ef42581461019e578063a1c9b213146101df578063c93c8f34146101ff57600080fd5b806308dbbb03146100c757806316934fc4146100f05780635c1714731461011d578063715018a61461014a57806373cf575a146101615780638da5cb5b14610176575b600080fd5b3480156100d357600080fd5b506100dd60035481565b6040519081526020015b60405180910390f35b3480156100fc57600080fd5b506100dd61010b3660046107c0565b60016020526000908152604090205481565b34801561012957600080fd5b506100dd6101383660046107c0565b60026020526000908152604090205481565b34801561015657600080fd5b5061015f6102af565b005b34801561016d57600080fd5b5061015f6102c3565b34801561018257600080fd5b506000546040516001600160a01b0390911681526020016100e7565b3480156101aa57600080fd5b5033600081815260026020908152604080832054600183529281902054815194855291840192909252908201526060016100e7565b3480156101eb57600080fd5b5061015f6101fa3660046107f0565b610390565b34801561020b57600080fd5b5061021f61021a3660046107c0565b61039d565b60405190151581526020016100e7565b34801561023b57600080fd5b5061024f61024a3660046107f0565b610423565b6040516100e79190610809565b34801561026857600080fd5b5061021f6102773660046108a0565b6104cf565b61015f61028a3660046108e2565b610575565b34801561029b57600080fd5b5061015f6102aa3660046107c0565b61069d565b6102b7610716565b6102c16000610770565b565b336000908152600160205260409020548061031c5760405162461bcd60e51b81526020600482015260146024820152734e6f207374616b6520746f20776974686472617760601b60448201526064015b60405180910390fd5b336000818152600160205260408082208290555183156108fc0291849190818181858888f19350505050158015610357573d6000803e3d6000fd5b5060405181815233907fb24546d975e2628748efc9aced80665e0fad66272033e5c0ea25fd3afac997959060200160405180910390a250565b610398610716565b600355565b6003546001600160a01b0382166000908152600160205260408120549091111561041b5760405162461bcd60e51b815260206004820152602960248201527f596f75206d757374207374616b652074686520726571756972656420616d6f756044820152680dce840decc408aa8960bb1b6064820152608401610313565b506001919050565b6004818154811061043357600080fd5b90600052602060002001600091509050805461044e9061092e565b80601f016020809104026020016040519081016040528092919081815260200182805461047a9061092e565b80156104c75780601f1061049c576101008083540402835291602001916104c7565b820191906000526020600020905b8154815290600101906020018083116104aa57829003601f168201915b505050505081565b600080805b60045481101561056a5784846040516020016104f1929190610968565b604051602081830303815290604052805190602001206004828154811061051a5761051a610978565b90600052602060002001604051602001610534919061098e565b6040516020818303038152906040528051906020012003610558576001915061056a565b8061056281610a43565b9150506104d4565b501590505b92915050565b6003543410156105c75760405162461bcd60e51b815260206004820152601b60248201527f496e73756666696369656e74207374616b696e6720616d6f756e7400000000006044820152606401610313565b6105d182826104cf565b6106325760405162461bcd60e51b815260206004820152602c60248201527f544c4420796f7527726520747279696e6720746f20726567697374657220616c60448201526b72656164792065786973747360a01b6064820152608401610313565b33600090815260026020908152604080832086905560019091528120805434929061065e908490610a5c565b909155505060405134815233907f9e71bc8eea02a63969f509818f2dafb9254532904319f9dbda79b67bd34a5f3d9060200160405180910390a2505050565b6106a5610716565b6001600160a01b03811661070a5760405162461bcd60e51b815260206004820152602660248201527f4f776e61626c653a206e6577206f776e657220697320746865207a65726f206160448201526564647265737360d01b6064820152608401610313565b61071381610770565b50565b6000546001600160a01b031633146102c15760405162461bcd60e51b815260206004820181905260248201527f4f776e61626c653a2063616c6c6572206973206e6f7420746865206f776e65726044820152606401610313565b600080546001600160a01b038381166001600160a01b0319831681178455604051919092169283917f8be0079c531659141344cd1fd0a4f28419497f9722a3daafe3b4186f6b6457e09190a35050565b6000602082840312156107d257600080fd5b81356001600160a01b03811681146107e957600080fd5b9392505050565b60006020828403121561080257600080fd5b5035919050565b600060208083528351808285015260005b818110156108365785810183015185820160400152820161081a565b506000604082860101526040601f19601f8301168501019250505092915050565b60008083601f84011261086957600080fd5b50813567ffffffffffffffff81111561088157600080fd5b60208301915083602082850101111561089957600080fd5b9250929050565b600080602083850312156108b357600080fd5b823567ffffffffffffffff8111156108ca57600080fd5b6108d685828601610857565b90969095509350505050565b6000806000604084860312156108f757600080fd5b83359250602084013567ffffffffffffffff81111561091557600080fd5b61092186828701610857565b9497909650939450505050565b600181811c9082168061094257607f821691505b60208210810361096257634e487b7160e01b600052602260045260246000fd5b50919050565b8183823760009101908152919050565b634e487b7160e01b600052603260045260246000fd5b600080835481600182811c9150808316806109aa57607f831692505b602080841082036109c957634e487b7160e01b86526022600452602486fd5b8180156109dd57600181146109f257610a1f565b60ff1986168952841515850289019650610a1f565b60008a81526020902060005b86811015610a175781548b8201529085019083016109fe565b505084890196505b509498975050505050505050565b634e487b7160e01b600052601160045260246000fd5b600060018201610a5557610a55610a2d565b5060010190565b8082018082111561056f5761056f610a2d56fea2646970667358221220901461a33c043dd6d7750c0271b96c90b9140cc2afad3f7b1e2a00f5bc4269cd64736f6c63430008120033",
  "linkReferences": {},
  "deployedLinkReferences": {}
}