{
  "_format": "hh-sol-artifact-1",
  "contractName": "GiftCardBase",
  "sourceName": "contracts/giftcard/GiftCardBase.sol",
  "abi": [
    {
      "inputs": [
        {
          "internalType": "contract ISANN",
          "name": "_sann",
          "type": "address"
        }
      ],
      "stateMutability": "nonpayable",
      "type": "constructor"
    },
    {
      "anonymous": false,
      "inputs": [
        {
          "indexed": true,
          "internalType": "address",
          "name": "account",
          "type": "address"
        },
        {
          "indexed": true,
          "internalType": "address",
          "name": "operator",
          "type": "address"
        },
        {
          "indexed": false,
          "internalType": "bool",
          "name": "approved",
          "type": "bool"
        }
      ],
      "name": "ApprovalForAll",
      "type": "event"
    },
    {
      "anonymous": false,
      "inputs": [
        {
          "indexed": true,
          "internalType": "address",
          "name": "controller",
          "type": "address"
        }
      ],
      "name": "ControllerAdded",
      "type": "event"
    },
    {
      "anonymous": false,
      "inputs": [
        {
          "indexed": true,
          "internalType": "address",
          "name": "controller",
          "type": "address"
        }
      ],
      "name": "ControllerRemoved",
      "type": "event"
    },
    {
      "anonymous": false,
      "inputs": [
        {
          "indexed": false,
          "internalType": "address",
          "name": "account",
          "type": "address"
        }
      ],
      "name": "Paused",
      "type": "event"
    },
    {
      "anonymous": false,
      "inputs": [
        {
          "indexed": true,
          "internalType": "address",
          "name": "operator",
          "type": "address"
        },
        {
          "indexed": true,
          "internalType": "address",
          "name": "from",
          "type": "address"
        },
        {
          "indexed": true,
          "internalType": "address",
          "name": "to",
          "type": "address"
        },
        {
          "indexed": false,
          "internalType": "uint256[]",
          "name": "ids",
          "type": "uint256[]"
        },
        {
          "indexed": false,
          "internalType": "uint256[]",
          "name": "values",
          "type": "uint256[]"
        }
      ],
      "name": "TransferBatch",
      "type": "event"
    },
    {
      "anonymous": false,
      "inputs": [
        {
          "indexed": true,
          "internalType": "address",
          "name": "operator",
          "type": "address"
        },
        {
          "indexed": true,
          "internalType": "address",
          "name": "from",
          "type": "address"
        },
        {
          "indexed": true,
          "internalType": "address",
          "name": "to",
          "type": "address"
        },
        {
          "indexed": false,
          "internalType": "uint256",
          "name": "id",
          "type": "uint256"
        },
        {
          "indexed": false,
          "internalType": "uint256",
          "name": "value",
          "type": "uint256"
        }
      ],
      "name": "TransferSingle",
      "type": "event"
    },
    {
      "anonymous": false,
      "inputs": [
        {
          "indexed": false,
          "internalType": "string",
          "name": "value",
          "type": "string"
        },
        {
          "indexed": true,
          "internalType": "uint256",
          "name": "id",
          "type": "uint256"
        }
      ],
      "name": "URI",
      "type": "event"
    },
    {
      "anonymous": false,
      "inputs": [
        {
          "indexed": false,
          "internalType": "address",
          "name": "account",
          "type": "address"
        }
      ],
      "name": "Unpaused",
      "type": "event"
    },
    {
      "inputs": [
        {
          "internalType": "address",
          "name": "controller",
          "type": "address"
        }
      ],
      "name": "addController",
      "outputs": [],
      "stateMutability": "nonpayable",
      "type": "function"
    },
    {
      "inputs": [
        {
          "internalType": "address",
          "name": "account",
          "type": "address"
        },
        {
          "internalType": "uint256",
          "name": "id",
          "type": "uint256"
        }
      ],
      "name": "balanceOf",
      "outputs": [
        {
          "internalType": "uint256",
          "name": "",
          "type": "uint256"
        }
      ],
      "stateMutability": "view",
      "type": "function"
    },
    {
      "inputs": [
        {
          "internalType": "address[]",
          "name": "accounts",
          "type": "address[]"
        },
        {
          "internalType": "uint256[]",
          "name": "ids",
          "type": "uint256[]"
        }
      ],
      "name": "balanceOfBatch",
      "outputs": [
        {
          "internalType": "uint256[]",
          "name": "",
          "type": "uint256[]"
        }
      ],
      "stateMutability": "view",
      "type": "function"
    },
    {
      "inputs": [
        {
          "internalType": "address",
          "name": "account",
          "type": "address"
        },
        {
          "internalType": "uint256[]",
          "name": "ids",
          "type": "uint256[]"
        },
        {
          "internalType": "uint256[]",
          "name": "amounts",
          "type": "uint256[]"
        }
      ],
      "name": "batchBurn",
      "outputs": [],
      "stateMutability": "nonpayable",
      "type": "function"
    },
    {
      "inputs": [
        {
          "internalType": "address",
          "name": "to",
          "type": "address"
        },
        {
          "internalType": "uint256[]",
          "name": "ids",
          "type": "uint256[]"
        },
        {
          "internalType": "uint256[]",
          "name": "amounts",
          "type": "uint256[]"
        }
      ],
      "name": "batchRegister",
      "outputs": [],
      "stateMutability": "nonpayable",
      "type": "function"
    },
    {
      "inputs": [
        {
          "internalType": "address",
          "name": "",
          "type": "address"
        }
      ],
      "name": "controllers",
      "outputs": [
        {
          "internalType": "bool",
          "name": "",
          "type": "bool"
        }
      ],
      "stateMutability": "view",
      "type": "function"
    },
    {
      "inputs": [
        {
          "internalType": "address",
          "name": "account",
          "type": "address"
        },
        {
          "internalType": "address",
          "name": "operator",
          "type": "address"
        }
      ],
      "name": "isApprovedForAll",
      "outputs": [
        {
          "internalType": "bool",
          "name": "",
          "type": "bool"
        }
      ],
      "stateMutability": "view",
      "type": "function"
    },
    {
      "inputs": [],
      "name": "name",
      "outputs": [
        {
          "internalType": "string",
          "name": "",
          "type": "string"
        }
      ],
      "stateMutability": "view",
      "type": "function"
    },
    {
      "inputs": [],
      "name": "pause",
      "outputs": [],
      "stateMutability": "nonpayable",
      "type": "function"
    },
    {
      "inputs": [],
      "name": "paused",
      "outputs": [
        {
          "internalType": "bool",
          "name": "",
          "type": "bool"
        }
      ],
      "stateMutability": "view",
      "type": "function"
    },
    {
      "inputs": [
        {
          "internalType": "address",
          "name": "to",
          "type": "address"
        },
        {
          "internalType": "uint256",
          "name": "id",
          "type": "uint256"
        },
        {
          "internalType": "uint256",
          "name": "amount",
          "type": "uint256"
        }
      ],
      "name": "register",
      "outputs": [
        {
          "internalType": "uint256",
          "name": "",
          "type": "uint256"
        },
        {
          "internalType": "uint256",
          "name": "",
          "type": "uint256"
        }
      ],
      "stateMutability": "nonpayable",
      "type": "function"
    },
    {
      "inputs": [
        {
          "internalType": "address",
          "name": "controller",
          "type": "address"
        }
      ],
      "name": "removeController",
      "outputs": [],
      "stateMutability": "nonpayable",
      "type": "function"
    },
    {
      "inputs": [
        {
          "internalType": "address",
          "name": "from",
          "type": "address"
        },
        {
          "internalType": "address",
          "name": "to",
          "type": "address"
        },
        {
          "internalType": "uint256[]",
          "name": "ids",
          "type": "uint256[]"
        },
        {
          "internalType": "uint256[]",
          "name": "amounts",
          "type": "uint256[]"
        },
        {
          "internalType": "bytes",
          "name": "data",
          "type": "bytes"
        }
      ],
      "name": "safeBatchTransferFrom",
      "outputs": [],
      "stateMutability": "nonpayable",
      "type": "function"
    },
    {
      "inputs": [
        {
          "internalType": "address",
          "name": "from",
          "type": "address"
        },
        {
          "internalType": "address",
          "name": "to",
          "type": "address"
        },
        {
          "internalType": "uint256",
          "name": "id",
          "type": "uint256"
        },
        {
          "internalType": "uint256",
          "name": "amount",
          "type": "uint256"
        },
        {
          "internalType": "bytes",
          "name": "data",
          "type": "bytes"
        }
      ],
      "name": "safeTransferFrom",
      "outputs": [],
      "stateMutability": "nonpayable",
      "type": "function"
    },
    {
      "inputs": [],
      "name": "sann",
      "outputs": [
        {
          "internalType": "contract ISANN",
          "name": "",
          "type": "address"
        }
      ],
      "stateMutability": "view",
      "type": "function"
    },
    {
      "inputs": [
        {
          "internalType": "address",
          "name": "operator",
          "type": "address"
        },
        {
          "internalType": "bool",
          "name": "approved",
          "type": "bool"
        }
      ],
      "name": "setApprovalForAll",
      "outputs": [],
      "stateMutability": "nonpayable",
      "type": "function"
    },
    {
      "inputs": [
        {
          "internalType": "string",
          "name": "newURI",
          "type": "string"
        }
      ],
      "name": "setURI",
      "outputs": [],
      "stateMutability": "nonpayable",
      "type": "function"
    },
    {
      "inputs": [
        {
          "internalType": "bytes4",
          "name": "interfaceId",
          "type": "bytes4"
        }
      ],
      "name": "supportsInterface",
      "outputs": [
        {
          "internalType": "bool",
          "name": "",
          "type": "bool"
        }
      ],
      "stateMutability": "view",
      "type": "function"
    },
    {
      "inputs": [],
      "name": "symbol",
      "outputs": [
        {
          "internalType": "string",
          "name": "",
          "type": "string"
        }
      ],
      "stateMutability": "view",
      "type": "function"
    },
    {
      "inputs": [],
      "name": "unpause",
      "outputs": [],
      "stateMutability": "nonpayable",
      "type": "function"
    },
    {
      "inputs": [
        {
          "internalType": "uint256",
          "name": "_id",
          "type": "uint256"
        }
      ],
      "name": "uri",
      "outputs": [
        {
          "internalType": "string",
          "name": "",
          "type": "string"
        }
      ],
      "stateMutability": "view",
      "type": "function"
    }
  ],
  "bytecode": "0x60806040523480156200001157600080fd5b50604051620028193803806200281983398101604081905262000034916200008f565b604080516020810190915260008152819062000050816200007d565b50600380546001600160a01b03909216610100026001600160a81b03199092169190911790555062000232565b60026200008b828262000166565b5050565b600060208284031215620000a257600080fd5b81516001600160a01b0381168114620000ba57600080fd5b9392505050565b634e487b7160e01b600052604160045260246000fd5b600181811c90821680620000ec57607f821691505b6020821081036200010d57634e487b7160e01b600052602260045260246000fd5b50919050565b601f8211156200016157600081815260208120601f850160051c810160208610156200013c5750805b601f850160051c820191505b818110156200015d5782815560010162000148565b5050505b505050565b81516001600160401b03811115620001825762000182620000c1565b6200019a81620001938454620000d7565b8462000113565b602080601f831160018114620001d25760008415620001b95750858301515b600019600386901b1c1916600185901b1785556200015d565b600085815260208120601f198616915b828110156200020357888601518255948401946001909101908401620001e2565b5085821015620002225787850151600019600388901b60f8161c191681555b5050505050600190811b01905550565b6125d780620002426000396000f3fe608060405234801561001057600080fd5b50600436106101765760003560e01c80638cbdd361116100d8578063da8c229e1161008c578063f6a74ed711610066578063f6a74ed714610390578063f6eb127a146103a3578063f9454f3f146103b657600080fd5b8063da8c229e1461031e578063e985e9c514610341578063f242432a1461037d57600080fd5b8063a22cb465116100bd578063a22cb465146102c8578063a7fc7a07146102db578063d46da387146102ee57600080fd5b80638cbdd3611461027c57806395d89b411461028f57600080fd5b80632eb2c2d61161012f5780634e1273f4116101145780634e1273f4146102495780635c975abb146102695780638456cb591461027457600080fd5b80632eb2c2d61461022e5780633f4ba83a1461024157600080fd5b806302fe53051161016057806302fe5305146101c457806306fdde03146101d95780630e89341c1461021b57600080fd5b8062fdd58e1461017b57806301ffc9a7146101a1575b600080fd5b61018e610189366004611c5d565b6103de565b6040519081526020015b60405180910390f35b6101b46101af366004611c9f565b61048a565b6040519015158152602001610198565b6101d76101d2366004611cc3565b610525565b005b60408051808201909152601281527f535041434520494420476966742043617264000000000000000000000000000060208201525b6040516101989190611d85565b61020e610229366004611d98565b610645565b6101d761023c366004611efd565b610680565b6101d7610771565b61025c610257366004611fab565b610858565b6040516101989190612078565b60035460ff166101b4565b6101d7610996565b6101d761028a366004612108565b610a7b565b60408051808201909152600581527f5349444743000000000000000000000000000000000000000000000000000000602082015261020e565b6101d76102d636600461218b565b610bcb565b6101d76102e93660046121c9565b610bd6565b6003546103069061010090046001600160a01b031681565b6040516001600160a01b039091168152602001610198565b6101b461032c3660046121c9565b60046020526000908152604090205460ff1681565b6101b461034f3660046121e6565b6001600160a01b03918216600090815260016020908152604080832093909416825291909152205460ff1690565b6101d761038b366004612214565b610d55565b6101d761039e3660046121c9565b610df7565b6101d76103b1366004612108565b610f73565b6103c96103c436600461227d565b6110b3565b60408051928352602083019190915201610198565b60006001600160a01b0383166104615760405162461bcd60e51b815260206004820152602a60248201527f455243313135353a2061646472657373207a65726f206973206e6f742061207660448201527f616c6964206f776e65720000000000000000000000000000000000000000000060648201526084015b60405180910390fd5b506000818152602081815260408083206001600160a01b03861684529091529020545b92915050565b60006001600160e01b031982167fd9b67a260000000000000000000000000000000000000000000000000000000014806104ed57506001600160e01b031982167f0e89341c00000000000000000000000000000000000000000000000000000000145b8061048457507f01ffc9a7000000000000000000000000000000000000000000000000000000006001600160e01b0319831614610484565b6003546040805163cdcd7fb560e01b81529051339261010090046001600160a01b03169163cdcd7fb59160048083019260209291908290030181865afa158015610573573d6000803e3d6000fd5b505050506040513d601f19601f8201168201806040525081019061059791906122b2565b6001600160a01b0316146106025760405162461bcd60e51b815260206004820152602c60248201527f41636365737369626c653a2063616c6c6572206973206e6f742074686520706c60448201526b30ba3337b9369030b236b4b760a11b6064820152608401610458565b61064182828080601f01602080910402602001604051908101604052809392919081815260200183838082843760009201919091525061114192505050565b5050565b60606106508261114d565b610659836111e1565b60405160200161066a9291906122cf565b6040516020818303038152906040529050919050565b610688611281565b81518351146106ea5760405162461bcd60e51b815260206004820152602860248201527f455243313135353a2069647320616e6420616d6f756e7473206c656e677468206044820152670dad2e6dac2e8c6d60c31b6064820152608401610458565b60005b835181101561076957600083828151811061070a5761070a6122fe565b6020026020010151111561075757610757868686848151811061072f5761072f6122fe565b6020026020010151868581518110610749576107496122fe565b602002602001015186610d55565b806107618161232a565b9150506106ed565b505050505050565b6003546040805163cdcd7fb560e01b81529051339261010090046001600160a01b03169163cdcd7fb59160048083019260209291908290030181865afa1580156107bf573d6000803e3d6000fd5b505050506040513d601f19601f820116820180604052508101906107e391906122b2565b6001600160a01b03161461084e5760405162461bcd60e51b815260206004820152602c60248201527f41636365737369626c653a2063616c6c6572206973206e6f742074686520706c60448201526b30ba3337b9369030b236b4b760a11b6064820152608401610458565b6108566112d4565b565b606081518351146108d15760405162461bcd60e51b815260206004820152602960248201527f455243313135353a206163636f756e747320616e6420696473206c656e67746860448201527f206d69736d6174636800000000000000000000000000000000000000000000006064820152608401610458565b6000835167ffffffffffffffff8111156108ed576108ed611db1565b604051908082528060200260200182016040528015610916578160200160208202803683370190505b50905060005b845181101561098e5761096185828151811061093a5761093a6122fe565b6020026020010151858381518110610954576109546122fe565b60200260200101516103de565b828281518110610973576109736122fe565b60209081029190910101526109878161232a565b905061091c565b509392505050565b6003546040805163cdcd7fb560e01b81529051339261010090046001600160a01b03169163cdcd7fb59160048083019260209291908290030181865afa1580156109e4573d6000803e3d6000fd5b505050506040513d601f19601f82011682018060405250810190610a0891906122b2565b6001600160a01b031614610a735760405162461bcd60e51b815260206004820152602c60248201527f41636365737369626c653a2063616c6c6572206973206e6f742074686520706c60448201526b30ba3337b9369030b236b4b760a11b6064820152608401610458565b610856611326565b3360009081526004602052604090205460ff16610ada5760405162461bcd60e51b815260206004820152601b60248201527f4e6f74206120617574686f72697a656420636f6e74726f6c6c657200000000006044820152606401610458565b610ae2611281565b828114610b425760405162461bcd60e51b815260206004820152602860248201527f455243313135353a2069647320616e6420616d6f756e7473206c656e677468206044820152670dad2e6dac2e8c6d60c31b6064820152608401610458565b60005b83811015610769576000838383818110610b6157610b616122fe565b905060200201351115610bb957610bb986868684818110610b8457610b846122fe565b90506020020135858585818110610b9d57610b9d6122fe565b9050602002013560405180602001604052806000815250611363565b80610bc38161232a565b915050610b45565b610641338383611493565b6003546040805163cdcd7fb560e01b81529051339261010090046001600160a01b03169163cdcd7fb59160048083019260209291908290030181865afa158015610c24573d6000803e3d6000fd5b505050506040513d601f19601f82011682018060405250810190610c4891906122b2565b6001600160a01b031614610cb35760405162461bcd60e51b815260206004820152602c60248201527f41636365737369626c653a2063616c6c6572206973206e6f742074686520706c60448201526b30ba3337b9369030b236b4b760a11b6064820152608401610458565b6001600160a01b038116610d095760405162461bcd60e51b815260206004820152601860248201527f616464726573732063616e206e6f74206265207a65726f2100000000000000006044820152606401610458565b6001600160a01b038116600081815260046020526040808220805460ff19166001179055517f0a8bb31534c0ed46f380cb867bd5c803a189ced9a764e30b3a4991a9901d74749190a250565b6001600160a01b038516331480610d715750610d71853361034f565b610de35760405162461bcd60e51b815260206004820152602e60248201527f455243313135353a2063616c6c6572206973206e6f7420746f6b656e206f776e60448201527f6572206f7220617070726f7665640000000000000000000000000000000000006064820152608401610458565b610df08585858585611587565b5050505050565b6003546040805163cdcd7fb560e01b81529051339261010090046001600160a01b03169163cdcd7fb59160048083019260209291908290030181865afa158015610e45573d6000803e3d6000fd5b505050506040513d601f19601f82011682018060405250810190610e6991906122b2565b6001600160a01b031614610ed45760405162461bcd60e51b815260206004820152602c60248201527f41636365737369626c653a2063616c6c6572206973206e6f742074686520706c60448201526b30ba3337b9369030b236b4b760a11b6064820152608401610458565b6001600160a01b038116610f2a5760405162461bcd60e51b815260206004820152601860248201527f616464726573732063616e206e6f74206265207a65726f2100000000000000006044820152606401610458565b6001600160a01b038116600081815260046020526040808220805460ff19169055517f33d83959be2573f5453b12eb9d43b3499bc57d96bd2f067ba44803c859e811139190a250565b3360009081526004602052604090205460ff16610fd25760405162461bcd60e51b815260206004820152601b60248201527f4e6f74206120617574686f72697a656420636f6e74726f6c6c657200000000006044820152606401610458565b610fda611281565b82811461103a5760405162461bcd60e51b815260206004820152602860248201527f455243313135353a2069647320616e6420616d6f756e7473206c656e677468206044820152670dad2e6dac2e8c6d60c31b6064820152608401610458565b60005b83811015610769576000838383818110611059576110596122fe565b9050602002013511156110a1576110a18686868481811061107c5761107c6122fe565b90506020020135858585818110611095576110956122fe565b9050602002013561175d565b806110ab8161232a565b91505061103d565b33600090815260046020526040812054819060ff166111145760405162461bcd60e51b815260206004820152601b60248201527f4e6f74206120617574686f72697a656420636f6e74726f6c6c657200000000006044820152606401610458565b61111c611281565b61113785858560405180602001604052806000815250611363565b5091939092509050565b600261064182826123c8565b60606002805461115c90612343565b80601f016020809104026020016040519081016040528092919081815260200182805461118890612343565b80156111d55780601f106111aa576101008083540402835291602001916111d5565b820191906000526020600020905b8154815290600101906020018083116111b857829003601f168201915b50505050509050919050565b606060006111ee8361190c565b600101905060008167ffffffffffffffff81111561120e5761120e611db1565b6040519080825280601f01601f191660200182016040528015611238576020820181803683370190505b5090508181016020015b600019017f3031323334353637383961626364656600000000000000000000000000000000600a86061a8153600a850494508461124257509392505050565b60035460ff16156108565760405162461bcd60e51b815260206004820152601060248201527f5061757361626c653a20706175736564000000000000000000000000000000006044820152606401610458565b6112dc6119ee565b6003805460ff191690557f5db9ee0a495bf2e6ff9c91a7834c1ba4fdd244a5e8aa4e537bd38aeae4b073aa335b6040516001600160a01b03909116815260200160405180910390a1565b61132e611281565b6003805460ff191660011790557f62e78cea01bee320cd4e420270b5ea74000d11b0c9f74754ebdbfc544b05a2586113093390565b6001600160a01b0384166113df5760405162461bcd60e51b815260206004820152602160248201527f455243313135353a206d696e7420746f20746865207a65726f2061646472657360448201527f73000000000000000000000000000000000000000000000000000000000000006064820152608401610458565b3360006113eb85611a40565b905060006113f885611a40565b90506000868152602081815260408083206001600160a01b038b1684529091528120805487929061142a908490612488565b909155505060408051878152602081018790526001600160a01b03808a1692600092918716917fc3d58168c5ae7397731d063d5bbf3d657854427343f4c083240f7aacaa2d0f62910160405180910390a461148a83600089898989611a8b565b50505050505050565b816001600160a01b0316836001600160a01b03160361151a5760405162461bcd60e51b815260206004820152602960248201527f455243313135353a2073657474696e6720617070726f76616c2073746174757360448201527f20666f722073656c6600000000000000000000000000000000000000000000006064820152608401610458565b6001600160a01b03838116600081815260016020908152604080832094871680845294825291829020805460ff191686151590811790915591519182527f17307eab39ab6107e8899845ad3d59bd9653f200f220920489ca2b5937696c31910160405180910390a3505050565b6001600160a01b0384166116035760405162461bcd60e51b815260206004820152602560248201527f455243313135353a207472616e7366657220746f20746865207a65726f20616460448201527f64726573730000000000000000000000000000000000000000000000000000006064820152608401610458565b33600061160f85611a40565b9050600061161c85611a40565b90506000868152602081815260408083206001600160a01b038c168452909152902054858110156116b55760405162461bcd60e51b815260206004820152602a60248201527f455243313135353a20696e73756666696369656e742062616c616e636520666f60448201527f72207472616e73666572000000000000000000000000000000000000000000006064820152608401610458565b6000878152602081815260408083206001600160a01b038d8116855292528083208985039055908a168252812080548892906116f2908490612488565b909155505060408051888152602081018890526001600160a01b03808b16928c821692918816917fc3d58168c5ae7397731d063d5bbf3d657854427343f4c083240f7aacaa2d0f62910160405180910390a4611752848a8a8a8a8a611a8b565b505050505050505050565b6001600160a01b0383166117d95760405162461bcd60e51b815260206004820152602360248201527f455243313135353a206275726e2066726f6d20746865207a65726f206164647260448201527f65737300000000000000000000000000000000000000000000000000000000006064820152608401610458565b3360006117e584611a40565b905060006117f284611a40565b60408051602080820183526000918290528882528181528282206001600160a01b038b16835290522054909150848110156118945760405162461bcd60e51b8152602060048201526024808201527f455243313135353a206275726e20616d6f756e7420657863656564732062616c60448201527f616e6365000000000000000000000000000000000000000000000000000000006064820152608401610458565b6000868152602081815260408083206001600160a01b038b81168086529184528285208a8703905582518b81529384018a90529092908816917fc3d58168c5ae7397731d063d5bbf3d657854427343f4c083240f7aacaa2d0f62910160405180910390a460408051602081019091526000905261148a565b6000807a184f03e93ff9f4daa797ed6e38ed64bf6a1f0100000000000000008310611955577a184f03e93ff9f4daa797ed6e38ed64bf6a1f010000000000000000830492506040015b6d04ee2d6d415b85acef81000000008310611981576d04ee2d6d415b85acef8100000000830492506020015b662386f26fc10000831061199f57662386f26fc10000830492506010015b6305f5e10083106119b7576305f5e100830492506008015b61271083106119cb57612710830492506004015b606483106119dd576064830492506002015b600a83106104845760010192915050565b60035460ff166108565760405162461bcd60e51b815260206004820152601460248201527f5061757361626c653a206e6f74207061757365640000000000000000000000006044820152606401610458565b60408051600180825281830190925260609160009190602080830190803683370190505090508281600081518110611a7a57611a7a6122fe565b602090810291909101015292915050565b6001600160a01b0384163b156107695760405163f23a6e6160e01b81526001600160a01b0385169063f23a6e6190611acf908990899088908890889060040161249b565b6020604051808303816000875af1925050508015611b0a575060408051601f3d908101601f19168201909252611b07918101906124de565b60015b611bbf57611b166124fb565b806308c379a003611b4f5750611b2a612517565b80611b355750611b51565b8060405162461bcd60e51b81526004016104589190611d85565b505b60405162461bcd60e51b815260206004820152603460248201527f455243313135353a207472616e7366657220746f206e6f6e2d4552433131353560448201527f526563656976657220696d706c656d656e7465720000000000000000000000006064820152608401610458565b6001600160e01b0319811663f23a6e6160e01b1461148a5760405162461bcd60e51b815260206004820152602860248201527f455243313135353a204552433131353552656365697665722072656a6563746560448201527f6420746f6b656e730000000000000000000000000000000000000000000000006064820152608401610458565b6001600160a01b0381168114611c5a57600080fd5b50565b60008060408385031215611c7057600080fd5b8235611c7b81611c45565b946020939093013593505050565b6001600160e01b031981168114611c5a57600080fd5b600060208284031215611cb157600080fd5b8135611cbc81611c89565b9392505050565b60008060208385031215611cd657600080fd5b823567ffffffffffffffff80821115611cee57600080fd5b818501915085601f830112611d0257600080fd5b813581811115611d1157600080fd5b866020828501011115611d2357600080fd5b60209290920196919550909350505050565b60005b83811015611d50578181015183820152602001611d38565b50506000910152565b60008151808452611d71816020860160208601611d35565b601f01601f19169290920160200192915050565b602081526000611cbc6020830184611d59565b600060208284031215611daa57600080fd5b5035919050565b634e487b7160e01b600052604160045260246000fd5b601f8201601f1916810167ffffffffffffffff81118282101715611ded57611ded611db1565b6040525050565b600067ffffffffffffffff821115611e0e57611e0e611db1565b5060051b60200190565b600082601f830112611e2957600080fd5b81356020611e3682611df4565b604051611e438282611dc7565b83815260059390931b8501820192828101915086841115611e6357600080fd5b8286015b84811015611e7e5780358352918301918301611e67565b509695505050505050565b600082601f830112611e9a57600080fd5b813567ffffffffffffffff811115611eb457611eb4611db1565b604051611ecb601f8301601f191660200182611dc7565b818152846020838601011115611ee057600080fd5b816020850160208301376000918101602001919091529392505050565b600080600080600060a08688031215611f1557600080fd5b8535611f2081611c45565b94506020860135611f3081611c45565b9350604086013567ffffffffffffffff80821115611f4d57600080fd5b611f5989838a01611e18565b94506060880135915080821115611f6f57600080fd5b611f7b89838a01611e18565b93506080880135915080821115611f9157600080fd5b50611f9e88828901611e89565b9150509295509295909350565b60008060408385031215611fbe57600080fd5b823567ffffffffffffffff80821115611fd657600080fd5b818501915085601f830112611fea57600080fd5b81356020611ff782611df4565b6040516120048282611dc7565b83815260059390931b850182019282810191508984111561202457600080fd5b948201945b8386101561204b57853561203c81611c45565b82529482019490820190612029565b9650508601359250508082111561206157600080fd5b5061206e85828601611e18565b9150509250929050565b6020808252825182820181905260009190848201906040850190845b818110156120b057835183529284019291840191600101612094565b50909695505050505050565b60008083601f8401126120ce57600080fd5b50813567ffffffffffffffff8111156120e657600080fd5b6020830191508360208260051b850101111561210157600080fd5b9250929050565b60008060008060006060868803121561212057600080fd5b853561212b81611c45565b9450602086013567ffffffffffffffff8082111561214857600080fd5b61215489838a016120bc565b9096509450604088013591508082111561216d57600080fd5b5061217a888289016120bc565b969995985093965092949392505050565b6000806040838503121561219e57600080fd5b82356121a981611c45565b9150602083013580151581146121be57600080fd5b809150509250929050565b6000602082840312156121db57600080fd5b8135611cbc81611c45565b600080604083850312156121f957600080fd5b823561220481611c45565b915060208301356121be81611c45565b600080600080600060a0868803121561222c57600080fd5b853561223781611c45565b9450602086013561224781611c45565b93506040860135925060608601359150608086013567ffffffffffffffff81111561227157600080fd5b611f9e88828901611e89565b60008060006060848603121561229257600080fd5b833561229d81611c45565b95602085013595506040909401359392505050565b6000602082840312156122c457600080fd5b8151611cbc81611c45565b600083516122e1818460208801611d35565b8351908301906122f5818360208801611d35565b01949350505050565b634e487b7160e01b600052603260045260246000fd5b634e487b7160e01b600052601160045260246000fd5b60006001820161233c5761233c612314565b5060010190565b600181811c9082168061235757607f821691505b60208210810361237757634e487b7160e01b600052602260045260246000fd5b50919050565b601f8211156123c357600081815260208120601f850160051c810160208610156123a45750805b601f850160051c820191505b81811015610769578281556001016123b0565b505050565b815167ffffffffffffffff8111156123e2576123e2611db1565b6123f6816123f08454612343565b8461237d565b602080601f83116001811461242b57600084156124135750858301515b600019600386901b1c1916600185901b178555610769565b600085815260208120601f198616915b8281101561245a5788860151825594840194600190910190840161243b565b50858210156124785787850151600019600388901b60f8161c191681555b5050505050600190811b01905550565b8082018082111561048457610484612314565b60006001600160a01b03808816835280871660208401525084604083015283606083015260a060808301526124d360a0830184611d59565b979650505050505050565b6000602082840312156124f057600080fd5b8151611cbc81611c89565b600060033d11156125145760046000803e5060005160e01c5b90565b600060443d10156125255790565b6040516003193d81016004833e81513d67ffffffffffffffff816024840111818411171561255557505050505090565b828501915081518181111561256d5750505050505090565b843d87010160208285010111156125875750505050505090565b61259660208286010187611dc7565b50909594505050505056fea2646970667358221220b90bc04ba99b7f911fe6cad0275e4cbd2a47e92bd3207951c4309fc53695fc1f64736f6c63430008120033",
  "linkReferences": {},
  "deployedLinkReferences": {}
}