{
  "_format": "hh-sol-artifact-1",
  "contractName": "GiftCardBase",
  "sourceName": "contracts/giftcard/GiftCardBase.sol",
  "abi": [
    {
      "inputs": [
        {
          "internalType": "contract ISANN",
          "name": "_sann",
          "type": "address"
        }
      ],
      "stateMutability": "nonpayable",
      "type": "constructor"
    },
    {
      "anonymous": false,
      "inputs": [
        {
          "indexed": true,
          "internalType": "address",
          "name": "account",
          "type": "address"
        },
        {
          "indexed": true,
          "internalType": "address",
          "name": "operator",
          "type": "address"
        },
        {
          "indexed": false,
          "internalType": "bool",
          "name": "approved",
          "type": "bool"
        }
      ],
      "name": "ApprovalForAll",
      "type": "event"
    },
    {
      "anonymous": false,
      "inputs": [
        {
          "indexed": true,
          "internalType": "address",
          "name": "controller",
          "type": "address"
        }
      ],
      "name": "ControllerAdded",
      "type": "event"
    },
    {
      "anonymous": false,
      "inputs": [
        {
          "indexed": true,
          "internalType": "address",
          "name": "controller",
          "type": "address"
        }
      ],
      "name": "ControllerRemoved",
      "type": "event"
    },
    {
      "anonymous": false,
      "inputs": [
        {
          "indexed": false,
          "internalType": "address",
          "name": "account",
          "type": "address"
        }
      ],
      "name": "Paused",
      "type": "event"
    },
    {
      "anonymous": false,
      "inputs": [
        {
          "indexed": true,
          "internalType": "address",
          "name": "operator",
          "type": "address"
        },
        {
          "indexed": true,
          "internalType": "address",
          "name": "from",
          "type": "address"
        },
        {
          "indexed": true,
          "internalType": "address",
          "name": "to",
          "type": "address"
        },
        {
          "indexed": false,
          "internalType": "uint256[]",
          "name": "ids",
          "type": "uint256[]"
        },
        {
          "indexed": false,
          "internalType": "uint256[]",
          "name": "values",
          "type": "uint256[]"
        }
      ],
      "name": "TransferBatch",
      "type": "event"
    },
    {
      "anonymous": false,
      "inputs": [
        {
          "indexed": true,
          "internalType": "address",
          "name": "operator",
          "type": "address"
        },
        {
          "indexed": true,
          "internalType": "address",
          "name": "from",
          "type": "address"
        },
        {
          "indexed": true,
          "internalType": "address",
          "name": "to",
          "type": "address"
        },
        {
          "indexed": false,
          "internalType": "uint256",
          "name": "id",
          "type": "uint256"
        },
        {
          "indexed": false,
          "internalType": "uint256",
          "name": "value",
          "type": "uint256"
        }
      ],
      "name": "TransferSingle",
      "type": "event"
    },
    {
      "anonymous": false,
      "inputs": [
        {
          "indexed": false,
          "internalType": "string",
          "name": "value",
          "type": "string"
        },
        {
          "indexed": true,
          "internalType": "uint256",
          "name": "id",
          "type": "uint256"
        }
      ],
      "name": "URI",
      "type": "event"
    },
    {
      "anonymous": false,
      "inputs": [
        {
          "indexed": false,
          "internalType": "address",
          "name": "account",
          "type": "address"
        }
      ],
      "name": "Unpaused",
      "type": "event"
    },
    {
      "inputs": [
        {
          "internalType": "address",
          "name": "controller",
          "type": "address"
        }
      ],
      "name": "addController",
      "outputs": [],
      "stateMutability": "nonpayable",
      "type": "function"
    },
    {
      "inputs": [
        {
          "internalType": "address",
          "name": "account",
          "type": "address"
        },
        {
          "internalType": "uint256",
          "name": "id",
          "type": "uint256"
        }
      ],
      "name": "balanceOf",
      "outputs": [
        {
          "internalType": "uint256",
          "name": "",
          "type": "uint256"
        }
      ],
      "stateMutability": "view",
      "type": "function"
    },
    {
      "inputs": [
        {
          "internalType": "address[]",
          "name": "accounts",
          "type": "address[]"
        },
        {
          "internalType": "uint256[]",
          "name": "ids",
          "type": "uint256[]"
        }
      ],
      "name": "balanceOfBatch",
      "outputs": [
        {
          "internalType": "uint256[]",
          "name": "",
          "type": "uint256[]"
        }
      ],
      "stateMutability": "view",
      "type": "function"
    },
    {
      "inputs": [
        {
          "internalType": "address",
          "name": "account",
          "type": "address"
        },
        {
          "internalType": "uint256[]",
          "name": "ids",
          "type": "uint256[]"
        },
        {
          "internalType": "uint256[]",
          "name": "amounts",
          "type": "uint256[]"
        }
      ],
      "name": "batchBurn",
      "outputs": [],
      "stateMutability": "nonpayable",
      "type": "function"
    },
    {
      "inputs": [
        {
          "internalType": "address",
          "name": "to",
          "type": "address"
        },
        {
          "internalType": "uint256[]",
          "name": "ids",
          "type": "uint256[]"
        },
        {
          "internalType": "uint256[]",
          "name": "amounts",
          "type": "uint256[]"
        }
      ],
      "name": "batchRegister",
      "outputs": [],
      "stateMutability": "nonpayable",
      "type": "function"
    },
    {
      "inputs": [
        {
          "internalType": "address",
          "name": "",
          "type": "address"
        }
      ],
      "name": "controllers",
      "outputs": [
        {
          "internalType": "bool",
          "name": "",
          "type": "bool"
        }
      ],
      "stateMutability": "view",
      "type": "function"
    },
    {
      "inputs": [
        {
          "internalType": "address",
          "name": "account",
          "type": "address"
        },
        {
          "internalType": "address",
          "name": "operator",
          "type": "address"
        }
      ],
      "name": "isApprovedForAll",
      "outputs": [
        {
          "internalType": "bool",
          "name": "",
          "type": "bool"
        }
      ],
      "stateMutability": "view",
      "type": "function"
    },
    {
      "inputs": [],
      "name": "name",
      "outputs": [
        {
          "internalType": "string",
          "name": "",
          "type": "string"
        }
      ],
      "stateMutability": "view",
      "type": "function"
    },
    {
      "inputs": [],
      "name": "pause",
      "outputs": [],
      "stateMutability": "nonpayable",
      "type": "function"
    },
    {
      "inputs": [],
      "name": "paused",
      "outputs": [
        {
          "internalType": "bool",
          "name": "",
          "type": "bool"
        }
      ],
      "stateMutability": "view",
      "type": "function"
    },
    {
      "inputs": [
        {
          "internalType": "address",
          "name": "to",
          "type": "address"
        },
        {
          "internalType": "uint256",
          "name": "id",
          "type": "uint256"
        },
        {
          "internalType": "uint256",
          "name": "amount",
          "type": "uint256"
        }
      ],
      "name": "register",
      "outputs": [
        {
          "internalType": "uint256",
          "name": "",
          "type": "uint256"
        },
        {
          "internalType": "uint256",
          "name": "",
          "type": "uint256"
        }
      ],
      "stateMutability": "nonpayable",
      "type": "function"
    },
    {
      "inputs": [
        {
          "internalType": "address",
          "name": "controller",
          "type": "address"
        }
      ],
      "name": "removeController",
      "outputs": [],
      "stateMutability": "nonpayable",
      "type": "function"
    },
    {
      "inputs": [
        {
          "internalType": "address",
          "name": "from",
          "type": "address"
        },
        {
          "internalType": "address",
          "name": "to",
          "type": "address"
        },
        {
          "internalType": "uint256[]",
          "name": "ids",
          "type": "uint256[]"
        },
        {
          "internalType": "uint256[]",
          "name": "amounts",
          "type": "uint256[]"
        },
        {
          "internalType": "bytes",
          "name": "data",
          "type": "bytes"
        }
      ],
      "name": "safeBatchTransferFrom",
      "outputs": [],
      "stateMutability": "nonpayable",
      "type": "function"
    },
    {
      "inputs": [
        {
          "internalType": "address",
          "name": "from",
          "type": "address"
        },
        {
          "internalType": "address",
          "name": "to",
          "type": "address"
        },
        {
          "internalType": "uint256",
          "name": "id",
          "type": "uint256"
        },
        {
          "internalType": "uint256",
          "name": "amount",
          "type": "uint256"
        },
        {
          "internalType": "bytes",
          "name": "data",
          "type": "bytes"
        }
      ],
      "name": "safeTransferFrom",
      "outputs": [],
      "stateMutability": "nonpayable",
      "type": "function"
    },
    {
      "inputs": [],
      "name": "sann",
      "outputs": [
        {
          "internalType": "contract ISANN",
          "name": "",
          "type": "address"
        }
      ],
      "stateMutability": "view",
      "type": "function"
    },
    {
      "inputs": [
        {
          "internalType": "address",
          "name": "operator",
          "type": "address"
        },
        {
          "internalType": "bool",
          "name": "approved",
          "type": "bool"
        }
      ],
      "name": "setApprovalForAll",
      "outputs": [],
      "stateMutability": "nonpayable",
      "type": "function"
    },
    {
      "inputs": [
        {
          "internalType": "string",
          "name": "newURI",
          "type": "string"
        }
      ],
      "name": "setURI",
      "outputs": [],
      "stateMutability": "nonpayable",
      "type": "function"
    },
    {
      "inputs": [
        {
          "internalType": "bytes4",
          "name": "interfaceId",
          "type": "bytes4"
        }
      ],
      "name": "supportsInterface",
      "outputs": [
        {
          "internalType": "bool",
          "name": "",
          "type": "bool"
        }
      ],
      "stateMutability": "view",
      "type": "function"
    },
    {
      "inputs": [],
      "name": "symbol",
      "outputs": [
        {
          "internalType": "string",
          "name": "",
          "type": "string"
        }
      ],
      "stateMutability": "view",
      "type": "function"
    },
    {
      "inputs": [],
      "name": "unpause",
      "outputs": [],
      "stateMutability": "nonpayable",
      "type": "function"
    },
    {
      "inputs": [
        {
          "internalType": "uint256",
          "name": "_id",
          "type": "uint256"
        }
      ],
      "name": "uri",
      "outputs": [
        {
          "internalType": "string",
          "name": "",
          "type": "string"
        }
      ],
      "stateMutability": "view",
      "type": "function"
    }
  ],
  "bytecode": "0x60806040523480156200001157600080fd5b50604051620024663803806200246683398101604081905262000034916200008f565b604080516020810190915260008152819062000050816200007d565b50600380546001600160a01b03909216610100026001600160a81b03199092169190911790555062000232565b60026200008b828262000166565b5050565b600060208284031215620000a257600080fd5b81516001600160a01b0381168114620000ba57600080fd5b9392505050565b634e487b7160e01b600052604160045260246000fd5b600181811c90821680620000ec57607f821691505b6020821081036200010d57634e487b7160e01b600052602260045260246000fd5b50919050565b601f8211156200016157600081815260208120601f850160051c810160208610156200013c5750805b601f850160051c820191505b818110156200015d5782815560010162000148565b5050505b505050565b81516001600160401b03811115620001825762000182620000c1565b6200019a81620001938454620000d7565b8462000113565b602080601f831160018114620001d25760008415620001b95750858301515b600019600386901b1c1916600185901b1785556200015d565b600085815260208120601f198616915b828110156200020357888601518255948401946001909101908401620001e2565b5085821015620002225787850151600019600388901b60f8161c191681555b5050505050600190811b01905550565b61222480620002426000396000f3fe608060405234801561001057600080fd5b50600436106101365760003560e01c80638cbdd361116100b8578063da8c229e1161007c578063da8c229e146102bb578063e985e9c5146102de578063f242432a1461031a578063f6a74ed71461032d578063f6eb127a14610340578063f9454f3f1461035357600080fd5b80638cbdd3611461023157806395d89b4114610244578063a22cb46514610265578063a7fc7a0714610278578063d46da3871461028b57600080fd5b80632eb2c2d6116100ff5780632eb2c2d6146101e35780633f4ba83a146101f65780634e1273f4146101fe5780635c975abb1461021e5780638456cb591461022957600080fd5b8062fdd58e1461013b57806301ffc9a71461016157806302fe53051461018457806306fdde03146101995780630e89341c146101d0575b600080fd5b61014e6101493660046117e8565b61037b565b6040519081526020015b60405180910390f35b61017461016f36600461182a565b610414565b6040519015158152602001610158565b61019761019236600461184e565b610464565b005b60408051808201909152601281527113595d185513111cc811da599d0810d85c9960721b60208201525b604051610158919061190f565b6101c36101de366004611922565b61053f565b6101976101f1366004611a84565b61057a565b61019761062a565b61021161020c366004611b31565b6106cc565b6040516101589190611bfd565b60035460ff16610174565b6101976107f5565b61019761023f366004611c8c565b610895565b604080518082019091526005815264534944474360d81b60208201526101c3565b610197610273366004611d0e565b610974565b610197610286366004611d4c565b61097f565b6003546102a39061010090046001600160a01b031681565b6040516001600160a01b039091168152602001610158565b6101746102c9366004611d4c565b60046020526000908152604090205460ff1681565b6101746102ec366004611d69565b6001600160a01b03918216600090815260016020908152604080832093909416825291909152205460ff1690565b610197610328366004611d97565b610ab4565b61019761033b366004611d4c565b610b47565b61019761034e366004611c8c565b610c79565b610366610361366004611dff565b610d48565b60408051928352602083019190915201610158565b60006001600160a01b0383166103eb5760405162461bcd60e51b815260206004820152602a60248201527f455243313135353a2061646472657373207a65726f206973206e6f742061207660448201526930b634b21037bbb732b960b11b60648201526084015b60405180910390fd5b506000818152602081815260408083206001600160a01b03861684529091529020545b92915050565b60006001600160e01b03198216636cdb3d1360e11b148061044557506001600160e01b031982166303a24d0760e21b145b8061040e57506301ffc9a760e01b6001600160e01b031983161461040e565b6003546040805163cdcd7fb560e01b81529051339261010090046001600160a01b03169163cdcd7fb59160048083019260209291908290030181865afa1580156104b2573d6000803e3d6000fd5b505050506040513d601f19601f820116820180604052508101906104d69190611e34565b6001600160a01b0316146104fc5760405162461bcd60e51b81526004016103e290611e51565b61053b82828080601f016020809104026020016040519081016040528093929190818152602001838380828437600092019190915250610da692505050565b5050565b606061054a82610db2565b61055383610e46565b604051602001610564929190611e9d565b6040516020818303038152906040529050919050565b610582610ed8565b81518351146105a35760405162461bcd60e51b81526004016103e290611ecc565b60005b83518110156106225760008382815181106105c3576105c3611f14565b602002602001015111156106105761061086868684815181106105e8576105e8611f14565b602002602001015186858151811061060257610602611f14565b602002602001015186610ab4565b8061061a81611f40565b9150506105a6565b505050505050565b6003546040805163cdcd7fb560e01b81529051339261010090046001600160a01b03169163cdcd7fb59160048083019260209291908290030181865afa158015610678573d6000803e3d6000fd5b505050506040513d601f19601f8201168201806040525081019061069c9190611e34565b6001600160a01b0316146106c25760405162461bcd60e51b81526004016103e290611e51565b6106ca610f1e565b565b606081518351146107315760405162461bcd60e51b815260206004820152602960248201527f455243313135353a206163636f756e747320616e6420696473206c656e677468604482015268040dad2e6dac2e8c6d60bb1b60648201526084016103e2565b600083516001600160401b0381111561074c5761074c61193b565b604051908082528060200260200182016040528015610775578160200160208202803683370190505b50905060005b84518110156107ed576107c085828151811061079957610799611f14565b60200260200101518583815181106107b3576107b3611f14565b602002602001015161037b565b8282815181106107d2576107d2611f14565b60209081029190910101526107e681611f40565b905061077b565b509392505050565b6003546040805163cdcd7fb560e01b81529051339261010090046001600160a01b03169163cdcd7fb59160048083019260209291908290030181865afa158015610843573d6000803e3d6000fd5b505050506040513d601f19601f820116820180604052508101906108679190611e34565b6001600160a01b03161461088d5760405162461bcd60e51b81526004016103e290611e51565b6106ca610f70565b3360009081526004602052604090205460ff166108c45760405162461bcd60e51b81526004016103e290611f59565b6108cc610ed8565b8281146108eb5760405162461bcd60e51b81526004016103e290611ecc565b60005b8381101561062257600083838381811061090a5761090a611f14565b905060200201351115610962576109628686868481811061092d5761092d611f14565b9050602002013585858581811061094657610946611f14565b9050602002013560405180602001604052806000815250610fad565b8061096c81611f40565b9150506108ee565b61053b3383836110c1565b6003546040805163cdcd7fb560e01b81529051339261010090046001600160a01b03169163cdcd7fb59160048083019260209291908290030181865afa1580156109cd573d6000803e3d6000fd5b505050506040513d601f19601f820116820180604052508101906109f19190611e34565b6001600160a01b031614610a175760405162461bcd60e51b81526004016103e290611e51565b6001600160a01b038116610a685760405162461bcd60e51b8152602060048201526018602482015277616464726573732063616e206e6f74206265207a65726f2160401b60448201526064016103e2565b6001600160a01b038116600081815260046020526040808220805460ff19166001179055517f0a8bb31534c0ed46f380cb867bd5c803a189ced9a764e30b3a4991a9901d74749190a250565b6001600160a01b038516331480610ad05750610ad085336102ec565b610b335760405162461bcd60e51b815260206004820152602e60248201527f455243313135353a2063616c6c6572206973206e6f7420746f6b656e206f776e60448201526d195c881bdc88185c1c1c9bdd995960921b60648201526084016103e2565b610b4085858585856111a1565b5050505050565b6003546040805163cdcd7fb560e01b81529051339261010090046001600160a01b03169163cdcd7fb59160048083019260209291908290030181865afa158015610b95573d6000803e3d6000fd5b505050506040513d601f19601f82011682018060405250810190610bb99190611e34565b6001600160a01b031614610bdf5760405162461bcd60e51b81526004016103e290611e51565b6001600160a01b038116610c305760405162461bcd60e51b8152602060048201526018602482015277616464726573732063616e206e6f74206265207a65726f2160401b60448201526064016103e2565b6001600160a01b038116600081815260046020526040808220805460ff19169055517f33d83959be2573f5453b12eb9d43b3499bc57d96bd2f067ba44803c859e811139190a250565b3360009081526004602052604090205460ff16610ca85760405162461bcd60e51b81526004016103e290611f59565b610cb0610ed8565b828114610ccf5760405162461bcd60e51b81526004016103e290611ecc565b60005b83811015610622576000838383818110610cee57610cee611f14565b905060200201351115610d3657610d3686868684818110610d1157610d11611f14565b90506020020135858585818110610d2a57610d2a611f14565b9050602002013561134c565b80610d4081611f40565b915050610cd2565b33600090815260046020526040812054819060ff16610d795760405162461bcd60e51b81526004016103e290611f59565b610d81610ed8565b610d9c85858560405180602001604052806000815250610fad565b5091939092509050565b600261053b8282612015565b606060028054610dc190611f90565b80601f0160208091040260200160405190810160405280929190818152602001828054610ded90611f90565b8015610e3a5780601f10610e0f57610100808354040283529160200191610e3a565b820191906000526020600020905b815481529060010190602001808311610e1d57829003601f168201915b50505050509050919050565b60606000610e53836114c8565b60010190506000816001600160401b03811115610e7257610e7261193b565b6040519080825280601f01601f191660200182016040528015610e9c576020820181803683370190505b5090508181016020015b600019016f181899199a1a9b1b9c1cb0b131b232b360811b600a86061a8153600a8504945084610ea657509392505050565b60035460ff16156106ca5760405162461bcd60e51b815260206004820152601060248201526f14185d5cd8589b194e881c185d5cd95960821b60448201526064016103e2565b610f266115a0565b6003805460ff191690557f5db9ee0a495bf2e6ff9c91a7834c1ba4fdd244a5e8aa4e537bd38aeae4b073aa335b6040516001600160a01b03909116815260200160405180910390a1565b610f78610ed8565b6003805460ff191660011790557f62e78cea01bee320cd4e420270b5ea74000d11b0c9f74754ebdbfc544b05a258610f533390565b6001600160a01b03841661100d5760405162461bcd60e51b815260206004820152602160248201527f455243313135353a206d696e7420746f20746865207a65726f206164647265736044820152607360f81b60648201526084016103e2565b336000611019856115e9565b90506000611026856115e9565b90506000868152602081815260408083206001600160a01b038b168452909152812080548792906110589084906120d4565b909155505060408051878152602081018790526001600160a01b03808a1692600092918716917fc3d58168c5ae7397731d063d5bbf3d657854427343f4c083240f7aacaa2d0f62910160405180910390a46110b883600089898989611634565b50505050505050565b816001600160a01b0316836001600160a01b0316036111345760405162461bcd60e51b815260206004820152602960248201527f455243313135353a2073657474696e6720617070726f76616c20737461747573604482015268103337b91039b2b63360b91b60648201526084016103e2565b6001600160a01b03838116600081815260016020908152604080832094871680845294825291829020805460ff191686151590811790915591519182527f17307eab39ab6107e8899845ad3d59bd9653f200f220920489ca2b5937696c31910160405180910390a3505050565b6001600160a01b0384166112055760405162461bcd60e51b815260206004820152602560248201527f455243313135353a207472616e7366657220746f20746865207a65726f206164604482015264647265737360d81b60648201526084016103e2565b336000611211856115e9565b9050600061121e856115e9565b90506000868152602081815260408083206001600160a01b038c168452909152902054858110156112a45760405162461bcd60e51b815260206004820152602a60248201527f455243313135353a20696e73756666696369656e742062616c616e636520666f60448201526939103a3930b739b332b960b11b60648201526084016103e2565b6000878152602081815260408083206001600160a01b038d8116855292528083208985039055908a168252812080548892906112e19084906120d4565b909155505060408051888152602081018890526001600160a01b03808b16928c821692918816917fc3d58168c5ae7397731d063d5bbf3d657854427343f4c083240f7aacaa2d0f62910160405180910390a4611341848a8a8a8a8a611634565b505050505050505050565b6001600160a01b0383166113ae5760405162461bcd60e51b815260206004820152602360248201527f455243313135353a206275726e2066726f6d20746865207a65726f206164647260448201526265737360e81b60648201526084016103e2565b3360006113ba846115e9565b905060006113c7846115e9565b60408051602080820183526000918290528882528181528282206001600160a01b038b16835290522054909150848110156114505760405162461bcd60e51b8152602060048201526024808201527f455243313135353a206275726e20616d6f756e7420657863656564732062616c604482015263616e636560e01b60648201526084016103e2565b6000868152602081815260408083206001600160a01b038b81168086529184528285208a8703905582518b81529384018a90529092908816917fc3d58168c5ae7397731d063d5bbf3d657854427343f4c083240f7aacaa2d0f62910160405180910390a46040805160208101909152600090526110b8565b60008072184f03e93ff9f4daa797ed6e38ed64bf6a1f0160401b83106115075772184f03e93ff9f4daa797ed6e38ed64bf6a1f0160401b830492506040015b6d04ee2d6d415b85acef81000000008310611533576d04ee2d6d415b85acef8100000000830492506020015b662386f26fc10000831061155157662386f26fc10000830492506010015b6305f5e1008310611569576305f5e100830492506008015b612710831061157d57612710830492506004015b6064831061158f576064830492506002015b600a831061040e5760010192915050565b60035460ff166106ca5760405162461bcd60e51b815260206004820152601460248201527314185d5cd8589b194e881b9bdd081c185d5cd95960621b60448201526064016103e2565b6040805160018082528183019092526060916000919060208083019080368337019050509050828160008151811061162357611623611f14565b602090810291909101015292915050565b6001600160a01b0384163b156106225760405163f23a6e6160e01b81526001600160a01b0385169063f23a6e619061167890899089908890889088906004016120e7565b6020604051808303816000875af19250505080156116b3575060408051601f3d908101601f191682019092526116b09181019061212c565b60015b61175f576116bf612149565b806308c379a0036116f857506116d3612165565b806116de57506116fa565b8060405162461bcd60e51b81526004016103e2919061190f565b505b60405162461bcd60e51b815260206004820152603460248201527f455243313135353a207472616e7366657220746f206e6f6e2d455243313135356044820152732932b1b2b4bb32b91034b6b83632b6b2b73a32b960611b60648201526084016103e2565b6001600160e01b0319811663f23a6e6160e01b146110b85760405162461bcd60e51b815260206004820152602860248201527f455243313135353a204552433131353552656365697665722072656a656374656044820152676420746f6b656e7360c01b60648201526084016103e2565b6001600160a01b03811681146117e557600080fd5b50565b600080604083850312156117fb57600080fd5b8235611806816117d0565b946020939093013593505050565b6001600160e01b0319811681146117e557600080fd5b60006020828403121561183c57600080fd5b813561184781611814565b9392505050565b6000806020838503121561186157600080fd5b82356001600160401b038082111561187857600080fd5b818501915085601f83011261188c57600080fd5b81358181111561189b57600080fd5b8660208285010111156118ad57600080fd5b60209290920196919550909350505050565b60005b838110156118da5781810151838201526020016118c2565b50506000910152565b600081518084526118fb8160208601602086016118bf565b601f01601f19169290920160200192915050565b60208152600061184760208301846118e3565b60006020828403121561193457600080fd5b5035919050565b634e487b7160e01b600052604160045260246000fd5b601f8201601f191681016001600160401b03811182821017156119765761197661193b565b6040525050565b60006001600160401b038211156119965761199661193b565b5060051b60200190565b600082601f8301126119b157600080fd5b813560206119be8261197d565b6040516119cb8282611951565b83815260059390931b85018201928281019150868411156119eb57600080fd5b8286015b84811015611a0657803583529183019183016119ef565b509695505050505050565b600082601f830112611a2257600080fd5b81356001600160401b03811115611a3b57611a3b61193b565b604051611a52601f8301601f191660200182611951565b818152846020838601011115611a6757600080fd5b816020850160208301376000918101602001919091529392505050565b600080600080600060a08688031215611a9c57600080fd5b8535611aa7816117d0565b94506020860135611ab7816117d0565b935060408601356001600160401b0380821115611ad357600080fd5b611adf89838a016119a0565b94506060880135915080821115611af557600080fd5b611b0189838a016119a0565b93506080880135915080821115611b1757600080fd5b50611b2488828901611a11565b9150509295509295909350565b60008060408385031215611b4457600080fd5b82356001600160401b0380821115611b5b57600080fd5b818501915085601f830112611b6f57600080fd5b81356020611b7c8261197d565b604051611b898282611951565b83815260059390931b8501820192828101915089841115611ba957600080fd5b948201945b83861015611bd0578535611bc1816117d0565b82529482019490820190611bae565b96505086013592505080821115611be657600080fd5b50611bf3858286016119a0565b9150509250929050565b6020808252825182820181905260009190848201906040850190845b81811015611c3557835183529284019291840191600101611c19565b50909695505050505050565b60008083601f840112611c5357600080fd5b5081356001600160401b03811115611c6a57600080fd5b6020830191508360208260051b8501011115611c8557600080fd5b9250929050565b600080600080600060608688031215611ca457600080fd5b8535611caf816117d0565b945060208601356001600160401b0380821115611ccb57600080fd5b611cd789838a01611c41565b90965094506040880135915080821115611cf057600080fd5b50611cfd88828901611c41565b969995985093965092949392505050565b60008060408385031215611d2157600080fd5b8235611d2c816117d0565b915060208301358015158114611d4157600080fd5b809150509250929050565b600060208284031215611d5e57600080fd5b8135611847816117d0565b60008060408385031215611d7c57600080fd5b8235611d87816117d0565b91506020830135611d41816117d0565b600080600080600060a08688031215611daf57600080fd5b8535611dba816117d0565b94506020860135611dca816117d0565b9350604086013592506060860135915060808601356001600160401b03811115611df357600080fd5b611b2488828901611a11565b600080600060608486031215611e1457600080fd5b8335611e1f816117d0565b95602085013595506040909401359392505050565b600060208284031215611e4657600080fd5b8151611847816117d0565b6020808252602c908201527f41636365737369626c653a2063616c6c6572206973206e6f742074686520706c60408201526b30ba3337b9369030b236b4b760a11b606082015260800190565b60008351611eaf8184602088016118bf565b835190830190611ec38183602088016118bf565b01949350505050565b60208082526028908201527f455243313135353a2069647320616e6420616d6f756e7473206c656e677468206040820152670dad2e6dac2e8c6d60c31b606082015260800190565b634e487b7160e01b600052603260045260246000fd5b634e487b7160e01b600052601160045260246000fd5b600060018201611f5257611f52611f2a565b5060010190565b6020808252601b908201527f4e6f74206120617574686f72697a656420636f6e74726f6c6c65720000000000604082015260600190565b600181811c90821680611fa457607f821691505b602082108103611fc457634e487b7160e01b600052602260045260246000fd5b50919050565b601f82111561201057600081815260208120601f850160051c81016020861015611ff15750805b601f850160051c820191505b8181101561062257828155600101611ffd565b505050565b81516001600160401b0381111561202e5761202e61193b565b6120428161203c8454611f90565b84611fca565b602080601f831160018114612077576000841561205f5750858301515b600019600386901b1c1916600185901b178555610622565b600085815260208120601f198616915b828110156120a657888601518255948401946001909101908401612087565b50858210156120c45787850151600019600388901b60f8161c191681555b5050505050600190811b01905550565b8082018082111561040e5761040e611f2a565b6001600160a01b03868116825285166020820152604081018490526060810183905260a060808201819052600090612121908301846118e3565b979650505050505050565b60006020828403121561213e57600080fd5b815161184781611814565b600060033d11156121625760046000803e5060005160e01c5b90565b600060443d10156121735790565b6040516003193d81016004833e81513d6001600160401b0381602484011181841117156121a257505050505090565b82850191508151818111156121ba5750505050505090565b843d87010160208285010111156121d45750505050505090565b6121e360208286010187611951565b50909594505050505056fea264697066735822122095623307278ec52fb982d88399f7e2500eb57a4a4bc0073d2520e68d254010f764736f6c63430008120033",
  "linkReferences": {},
  "deployedLinkReferences": {}
}