{
  "_format": "hh-sol-artifact-1",
  "contractName": "PreRegistrationCreator",
  "sourceName": "contracts/proxy/PreRegistrationCreator.sol",
  "abi": [
    {
      "inputs": [
        {
          "internalType": "contract ISANN",
          "name": "_sann",
          "type": "address"
        }
      ],
      "stateMutability": "nonpayable",
      "type": "constructor"
    },
    {
      "anonymous": false,
      "inputs": [
        {
          "indexed": false,
          "internalType": "address",
          "name": "addr",
          "type": "address"
        },
        {
          "indexed": false,
          "internalType": "address",
          "name": "owner",
          "type": "address"
        },
        {
          "indexed": false,
          "internalType": "uint256",
          "name": "identifier",
          "type": "uint256"
        }
      ],
      "name": "AuctionCreated",
      "type": "event"
    },
    {
      "anonymous": false,
      "inputs": [
        {
          "indexed": false,
          "internalType": "address",
          "name": "addr",
          "type": "address"
        },
        {
          "indexed": false,
          "internalType": "address",
          "name": "owner",
          "type": "address"
        },
        {
          "indexed": false,
          "internalType": "uint256",
          "name": "identifier",
          "type": "uint256"
        }
      ],
      "name": "PreRegistrationStateCreated",
      "type": "event"
    },
    {
      "inputs": [
        {
          "internalType": "address",
          "name": "sann",
          "type": "address"
        },
        {
          "internalType": "uint256",
          "name": "identifier",
          "type": "uint256"
        },
        {
          "internalType": "address",
          "name": "tldOwner",
          "type": "address"
        },
        {
          "internalType": "address",
          "name": "controller",
          "type": "address"
        },
        {
          "internalType": "address",
          "name": "platformConfig",
          "type": "address"
        },
        {
          "internalType": "address",
          "name": "prepaidPlatformFee",
          "type": "address"
        },
        {
          "components": [
            {
              "internalType": "bool",
              "name": "enableAuction",
              "type": "bool"
            },
            {
              "internalType": "uint256",
              "name": "auctionStartTime",
              "type": "uint256"
            },
            {
              "internalType": "uint256",
              "name": "auctionInitialEndTime",
              "type": "uint256"
            },
            {
              "internalType": "uint256",
              "name": "auctionExtendDuration",
              "type": "uint256"
            },
            {
              "internalType": "uint256",
              "name": "auctionRetentionDuration",
              "type": "uint256"
            },
            {
              "internalType": "uint256",
              "name": "auctionMinRegistrationDuration",
              "type": "uint256"
            },
            {
              "internalType": "bool",
              "name": "enableFcfs",
              "type": "bool"
            },
            {
              "internalType": "uint256",
              "name": "fcfsStartTime",
              "type": "uint256"
            },
            {
              "internalType": "uint256",
              "name": "fcfsEndTime",
              "type": "uint256"
            }
          ],
          "internalType": "struct PreRegistrationUpdateConfig",
          "name": "config",
          "type": "tuple"
        }
      ],
      "name": "create",
      "outputs": [
        {
          "internalType": "address",
          "name": "",
          "type": "address"
        },
        {
          "internalType": "address",
          "name": "",
          "type": "address"
        }
      ],
      "stateMutability": "nonpayable",
      "type": "function"
    },
    {
      "inputs": [
        {
          "internalType": "address",
          "name": "sann",
          "type": "address"
        },
        {
          "internalType": "uint256",
          "name": "identifier",
          "type": "uint256"
        },
        {
          "internalType": "address",
          "name": "tldOwner",
          "type": "address"
        },
        {
          "internalType": "address",
          "name": "controller",
          "type": "address"
        },
        {
          "internalType": "address",
          "name": "platformConfig",
          "type": "address"
        },
        {
          "internalType": "address",
          "name": "preRegiState",
          "type": "address"
        },
        {
          "internalType": "address",
          "name": "prepaidPlatformFeeAddr",
          "type": "address"
        }
      ],
      "name": "createAuction",
      "outputs": [
        {
          "internalType": "address",
          "name": "",
          "type": "address"
        }
      ],
      "stateMutability": "nonpayable",
      "type": "function"
    },
    {
      "inputs": [],
      "name": "sann",
      "outputs": [
        {
          "internalType": "contract ISANN",
          "name": "",
          "type": "address"
        }
      ],
      "stateMutability": "view",
      "type": "function"
    }
  ],
  "bytecode": "0x608060405234801561001057600080fd5b5060405161477438038061477483398101604081905261002f91610054565b600080546001600160a01b0319166001600160a01b0392909216919091179055610084565b60006020828403121561006657600080fd5b81516001600160a01b038116811461007d57600080fd5b9392505050565b6146e1806100936000396000f3fe60806040523480156200001157600080fd5b5060043610620000465760003560e01c80635053dcfd146200004b578063b938da041462000087578063d46da38714620000b7575b600080fd5b620000626200005c36600462000442565b620000cb565b604080516001600160a01b039384168152929091166020830152015b60405180910390f35b6200009e62000098366004620004e5565b6200027c565b6040516001600160a01b0390911681526020016200007e565b6000546200009e906001600160a01b031681565b600080336001600160a01b031660008054906101000a90046001600160a01b03166001600160a01b0316636a0dfac16040518163ffffffff1660e01b8152600401602060405180830381865afa1580156200012a573d6000803e3d6000fd5b505050506040513d601f19601f820116820180604052508101906200015091906200057f565b6001600160a01b031614620001825760405162461bcd60e51b81526004016200017990620005a6565b60405180910390fd5b6000886040516020016200019891815260200190565b6040516020818303038152906040528051906020012090506000818b8b87604051620001c4906200040d565b620001d29392919062000601565b8190604051809103906000f5905080158015620001f3573d6000803e3d6000fd5b50604080516001600160a01b03831681523360208201529081018c90529091507fc26be23d1433e41356f900cd107b65861dad65fa35a39a3aeb4cbab4d35603fc9060600160405180910390a1600062000251602087018762000694565b156200026b57620002688c8c8c8c8c878d6200027c565b90505b909b909a5098505050505050505050565b6000805460408051636a0dfac160e01b8152905133926001600160a01b031691636a0dfac19160048083019260209291908290030181865afa158015620002c7573d6000803e3d6000fd5b505050506040513d601f19601f82011682018060405250810190620002ed91906200057f565b6001600160a01b031614620003165760405162461bcd60e51b81526004016200017990620005a6565b6000876040516020016200032c91815260200190565b6040516020818303038152906040528051906020012090506000818a8a89888a896040516200035b906200041b565b6001600160a01b0396871681526020810195909552928516604085015290841660608401528316608083015290911660a082015260c0018190604051809103906000f5905080158015620003b3573d6000803e3d6000fd5b50604080516001600160a01b03831681523360208201529081018b90529091507f261f6e6830ed857876d5aa4eca876ccf116d09b91a6675e3e1a1920d53ef585e9060600160405180910390a19998505050505050505050565b61298780620006b383390190565b611672806200303a83390190565b6001600160a01b03811681146200043f57600080fd5b50565b60008060008060008060008789036101e08112156200046057600080fd5b88356200046d8162000429565b9750602089013596506040890135620004868162000429565b95506060890135620004988162000429565b94506080890135620004aa8162000429565b935060a0890135620004bc8162000429565b925061012060bf1982011215620004d257600080fd5b5060c08801905092959891949750929550565b600080600080600080600060e0888a0312156200050157600080fd5b87356200050e8162000429565b9650602088013595506040880135620005278162000429565b94506060880135620005398162000429565b935060808801356200054b8162000429565b925060a08801356200055d8162000429565b915060c08801356200056f8162000429565b8091505092959891949750929550565b6000602082840312156200059257600080fd5b81516200059f8162000429565b9392505050565b60208082526025908201527f41636365737369626c653a2063616c6c6572206973206e6f742074686520666160408201526463746f727960d81b606082015260800190565b80358015158114620005fc57600080fd5b919050565b6001600160a01b03841681526020810183905261016081016200062483620005eb565b151560408301526020830135606083015260408301356080830152606083013560a0830152608083013560c083015260a083013560e08301526200066b60c08401620005eb565b6101008115158185015260e0850135610120850152808501356101408501525050949350505050565b600060208284031215620006a757600080fd5b6200059f82620005eb56fe60a06040523480156200001157600080fd5b5060405162002987380380620029878339810160408190526200003491620003a6565b600080546001600160a01b0319166001600160a01b038516179055608082815281516020830151604084015160608501519385015160a08601516200007b959190620000a4565b6200009b8160c001518260e001518361010001516200024360201b60201c565b5050506200049f565b8515620001a257844210620001005760405162461bcd60e51b815260206004820152601860248201527f696e76616c69642061756374696f6e537461727454696d65000000000000000060448201526064015b60405180910390fd5b834210620001515760405162461bcd60e51b815260206004820152601660248201527f696e76616c69642061756374696f6e456e6454696d65000000000000000000006044820152606401620000f7565b838510620001a25760405162461bcd60e51b815260206004820152601860248201527f696e76616c69642061756374696f6e537461727454696d6500000000000000006044820152606401620000f7565b6018805460ff19168715151790556019859055601a849055620001c9846201518062000477565b601b55601c839055601d829055601e8190556080805160408051918252881515602083015281018790526060810186905290810184905260a0810183905260c081018290527f8ca6a09af53558a5ef66e55032944a11f2e83371f4eb51fbb57d8f7508011f2d9060e00160405180910390a1505050505050565b8215620002ee57601b5482116200029d5760405162461bcd60e51b815260206004820152601560248201527f696e76616c69642066636673537461727454696d6500000000000000000000006044820152606401620000f7565b808210620002ee5760405162461bcd60e51b815260206004820152601560248201527f696e76616c69642066636673537461727454696d6500000000000000000000006044820152606401620000f7565b601f805460ff191684151590811790915560208381556021839055608080516040805191825292810193909352908201849052606082018390527f749196b9c4b2f83b6b68e47d0cab55a345b32d5f8fb9af6a988b4ef287c3641e910160405180910390a1505050565b60405161012081016001600160401b03811182821017156200038a57634e487b7160e01b600052604160045260246000fd5b60405290565b80518015158114620003a157600080fd5b919050565b6000806000838503610160811215620003be57600080fd5b84516001600160a01b0381168114620003d657600080fd5b60208601519094509250610120603f198201811315620003f557600080fd5b620003ff62000358565b91506200040f6040870162000390565b8252606086015160208301526080860151604083015260a0860151606083015260c0860151608083015260e086015160a08301526101006200045381880162000390565b60c08401529086015160e08301526101409095015194810194909452509093909250565b808201808211156200049957634e487b7160e01b600052601160045260246000fd5b92915050565b6080516124786200050f60003960008181610484015281816108ac01528181610aae01528181610b8c01528181610bf601528181610cd401528181610e5a0152818161101d015281816114ae015281816116090152818161171c0152818161195a0152611ae001526124786000f3fe608060405234801561001057600080fd5b50600436106102695760003560e01c80638643337411610151578063c39887f5116100c3578063dd3cb4a911610087578063dd3cb4a9146105c3578063eb54f9ec146105d0578063f5752f59146105d9578063f6a74ed714610613578063f88ef35114610626578063ffeaf35f1461063957600080fd5b8063c39887f514610573578063c3f151171461057c578063c989d07514610584578063d46da3871461058d578063da8c229e146105a057600080fd5b806396da43b61161011557806396da43b6146105185780639efdb7cf1461053a578063a7fc7a0714610542578063ab220da014610555578063b6fc138f1461055e578063b8bdcb171461056b57600080fd5b806386433374146104a657806387bbaeb6146104b0578063888319d6146104b85780638cb5d700146104c15780638cbec9321461050557600080fd5b80632cfcd4fe116101ea57806345e5770f116101ae57806345e5770f1461043457806346eba6661461043d57806358e1d968146104505780635fd354ca1461046357806362d0aaf7146104765780637998a1c41461047f57600080fd5b80632cfcd4fe1461039b5780632d3f2b05146103ae5780633762b5a2146103e75780633ee4582d146103fc578063403451c81461040f57600080fd5b806318969e3c1161023157806318969e3c1461030a578063225d29a1146103125780632399bd631461036d5780632cd8cde7146103755780632cfbeb041461038857600080fd5b8063010d98131461026e578063045535b71461029b5780630fa1b797146102b25780630fe44cae146102d257806315eb6853146102e7575b600080fd5b61028161027c366004611cf8565b610641565b604080519283526020830191909152015b60405180910390f35b6102a4601b5481565b604051908152602001610292565b6102c56102c0366004611d29565b610663565b6040516102929190611d93565b6102e56102e0366004611e46565b61089b565b005b6102fa6102f5366004611e79565b61098d565b6040519015158152602001610292565b6102a46109b4565b610349610320366004611d29565b6002602052600090815260409020805460039091015460ff918216918181169161010090041683565b6040805160ff94851681529215156020840152921691810191909152606001610292565b6102fa6109f2565b6102e5610383366004611ea5565b610a45565b6102e5610396366004611ed5565b610a9d565b6102e56103a9366004611ed5565b610be5565b6102a46103bc366004611ea5565b60008281526003602081815260408084206001600160a01b0386168552909201905290205492915050565b6103ef610d25565b6040516102929190611ef0565b6102e561040a366004611f65565b610e49565b61042261041d366004611d29565b610f6e565b60405160ff9091168152602001610292565b6102a4601a5481565b6102e561044b366004611f9a565b61100c565b6102e561045e366004611e79565b6110fb565b6102e5610471366004611fe4565b611205565b6102a4601c5481565b6102a47f000000000000000000000000000000000000000000000000000000000000000081565b601b5442116102fa565b6102fa6112ea565b6102a4601e5481565b6104ed6104cf366004611cf8565b6000908152600360205260409020600101546001600160a01b031690565b6040516001600160a01b039091168152602001610292565b6102e5610513366004611d29565b611312565b61052b610526366004611cf8565b6113c3565b6040516102929392919061207b565b6102fa611477565b6102e5610550366004611d29565b61149d565b6102a4601d5481565b6018546102fa9060ff1681565b6102fa6115b6565b6102a460215481565b6102fa6115d0565b6102a460205481565b6000546104ed906001600160a01b031681565b6102fa6105ae366004611d29565b60016020526000908152604090205460ff1681565b601f546102fa9060ff1681565b6102a460195481565b6102a46105e7366004611cf8565b600090815260036020818152604080842060018101546001600160a01b03168552909201905290205490565b6102e5610621366004611d29565b6115f8565b6102e56106343660046120f5565b61170b565b6102a4611867565b600481600a811061065157600080fd5b60020201805460019091015490915082565b6001600160a01b03811660009081526002602052604090206001015460609067ffffffffffffffff81111561069a5761069a612161565b60405190808252806020026020018201604052801561070657816020015b6106f36040518060a00160405280606081526020016000815260200160006001600160a01b0316815260200160008152602001600081525090565b8152602001906001900390816106b85790505b50905060005b6001600160a01b038316600090815260026020526040902060010154811015610895576001600160a01b038316600090815260026020526040812060010180548390811061075c5761075c612177565b906000526020600020015490506040518060a001604052806003600084815260200190815260200160002060000180546107959061218d565b80601f01602080910402602001604051908101604052809291908181526020018280546107c19061218d565b801561080e5780601f106107e35761010080835404028352916020019161080e565b820191906000526020600020905b8154815290600101906020018083116107f157829003601f168201915b5050509183525050602080820184905260008481526003808352604080832060018101546001600160a01b0390811683880181905285529201808552818420546060870152918a16835292522054608090910152835184908490811061087657610876612177565b602002602001018190525050808061088d906121d7565b91505061070c565b50919050565b60005460405162e4decd60e31b81527f0000000000000000000000000000000000000000000000000000000000000000600482018190529133916001600160a01b0390911690630726f66890602401602060405180830381865afa158015610907573d6000803e3d6000fd5b505050506040513d601f19601f8201168201806040525081019061092b91906121f0565b6001600160a01b03161461095a5760405162461bcd60e51b81526004016109519061220d565b60405180910390fd5b602054421061097c57604051636405ec0b60e11b815260040160405180910390fd5b6109878484846118a3565b50505050565b6000818152600360205260409020600101546001600160a01b038381169116145b92915050565b60185460009060ff161580156109cd5750601f5460ff16155b156109d85750600090565b601f5460ff166109e95750601b5490565b6021545b905090565b60185460009060ff16158015610a0b5750601f5460ff16155b15610a165750600090565b6000610a20611867565b90506000610a2c6109b4565b9050814210158015610a3e5750804211155b9250505090565b3360009081526001602052604090205460ff16610a745760405162461bcd60e51b815260040161095190612251565b60009182526003602081815260408085206001600160a01b039094168552929091019052812055565b60005460405162e4decd60e31b81527f0000000000000000000000000000000000000000000000000000000000000000600482018190529133916001600160a01b0390911690630726f66890602401602060405180830381865afa158015610b09573d6000803e3d6000fd5b505050506040513d601f19601f82011682018060405250810190610b2d91906121f0565b6001600160a01b031614610b535760405162461bcd60e51b81526004016109519061220d565b6019544210610b755760405163647ccdcd60e11b815260040160405180910390fd5b6018805460ff1916831515908117909155604080517f0000000000000000000000000000000000000000000000000000000000000000815260208101929092527f6ab0f6edfdbbc7dfd6454797971d91e94f1c40644747770049762b137a9c66e891015b60405180910390a15050565b60005460405162e4decd60e31b81527f0000000000000000000000000000000000000000000000000000000000000000600482018190529133916001600160a01b0390911690630726f66890602401602060405180830381865afa158015610c51573d6000803e3d6000fd5b505050506040513d601f19601f82011682018060405250810190610c7591906121f0565b6001600160a01b031614610c9b5760405162461bcd60e51b81526004016109519061220d565b6019544210610cbd5760405163647ccdcd60e11b815260040160405180910390fd5b601f805460ff1916831515908117909155604080517f0000000000000000000000000000000000000000000000000000000000000000815260208101929092527f3eae33535e3ca0edde68ebda5be0611bd93b38595a3611ccfe6b78b6dd1799df9101610bd9565b610d2d611cbd565b60005b600a811015610e4557604051806040016040528060036000600485600a8110610d5b57610d5b612177565b6002020154815260208101919091526040016000208054610d7b9061218d565b80601f0160208091040260200160405190810160405280929190818152602001828054610da79061218d565b8015610df45780601f10610dc957610100808354040283529160200191610df4565b820191906000526020600020905b815481529060010190602001808311610dd757829003601f168201915b50505050508152602001600483600a8110610e1157610e11612177565b60020201600101548152508282600a8110610e2e57610e2e612177565b602002015280610e3d816121d7565b915050610d30565b5090565b60005460405162e4decd60e31b81527f0000000000000000000000000000000000000000000000000000000000000000600482018190529133916001600160a01b0390911690630726f66890602401602060405180830381865afa158015610eb5573d6000803e3d6000fd5b505050506040513d601f19601f82011682018060405250810190610ed991906121f0565b6001600160a01b031614610eff5760405162461bcd60e51b81526004016109519061220d565b6000610f09611867565b9050804210610f2b57604051632c965b3b60e01b815260040160405180910390fd5b6001600160a01b0384166000908152600260205260409020805460ff191660ff8516908117825515610f675760038101805460ff191660011790555b5050505050565b6001600160a01b0381166000908152600260205260408120805460ff16825b600183015460ff82161015610fec57610fc885846001018360ff1681548110610fb857610fb8612177565b906000526020600020015461098d565b610fda5781610fd681612288565b9250505b80610fe481612288565b915050610f8d565b50600382015461100490610100900460ff16826122a7565b949350505050565b60005460405162e4decd60e31b81527f0000000000000000000000000000000000000000000000000000000000000000600482018190529133916001600160a01b0390911690630726f66890602401602060405180830381865afa158015611078573d6000803e3d6000fd5b505050506040513d601f19601f8201168201806040525081019061109c91906121f0565b6001600160a01b0316146110c25760405162461bcd60e51b81526004016109519061220d565b60195442106110e45760405163647ccdcd60e11b815260040160405180910390fd5b6110f28787878787876119c1565b50505050505050565b3360009081526001602052604090205460ff1661112a5760405162461bcd60e51b815260040161095190612251565b6001600160a01b03821660009081526002602081815260408084208585529283019091529091205460ff161561115f57505050565b6001600160a01b038316600090815260026020526040902054600160ff909116101561119e57604051634f8fd3a560e01b815260040160405180910390fd5b600082815260028201602090815260408220805460ff19166001908117909155838101805480830182559084529183209091018490558254909183916111e890849060ff166122a7565b92506101000a81548160ff021916908360ff160217905550505050565b3360009081526001602052604090205460ff166112345760405162461bcd60e51b815260040161095190612251565b60008581526003602052604090206002810154156112cc576001810180546001600160a01b0319166001600160a01b03851690811790915560009081526003820160205260409020829055601c5460028201546112929042906122c0565b116112bd57601c546112a490426122d3565b60028201819055601b5410156112bd57601b5460028201555b6112c78683611b60565b6112e2565b806112d8858783612331565b50601a5460028201555b505050505050565b60185460009060ff16801561130157506019544210155b80156109ed575050601b5442111590565b3360009081526001602052604090205460ff166113415760405162461bcd60e51b815260040161095190612251565b6001600160a01b0381166000908152600260205260409020600161136483610f6e565b60ff16101561138657604051634f8fd3a560e01b815260040160405180910390fd5b60018160030160018282829054906101000a900460ff166113a791906123f1565b92506101000a81548160ff021916908360ff1602179055505050565b6003602052600090815260409020805481906113de9061218d565b80601f016020809104026020016040519081016040528092919081815260200182805461140a9061218d565b80156114575780601f1061142c57610100808354040283529160200191611457565b820191906000526020600020905b81548152906001019060200180831161143a57829003601f168201915b50505050600183015460029093015491926001600160a01b031691905083565b6000601b54421180156109ed5750601d54601b5461149591906122d3565b421115905090565b60005460405162e4decd60e31b81527f0000000000000000000000000000000000000000000000000000000000000000600482018190529133916001600160a01b0390911690630726f66890602401602060405180830381865afa158015611509573d6000803e3d6000fd5b505050506040513d601f19601f8201168201806040525081019061152d91906121f0565b6001600160a01b0316146115535760405162461bcd60e51b81526004016109519061220d565b6001600160a01b03821661156657600080fd5b6001600160a01b0382166000818152600160208190526040808320805460ff1916909217909155517f0a8bb31534c0ed46f380cb867bd5c803a189ced9a764e30b3a4991a9901d74749190a25050565b6000601b54621275006115c991906122d3565b4211905090565b601f5460009060ff1680156115e757506020544210155b80156109ed57505060215442111590565b60005460405162e4decd60e31b81527f0000000000000000000000000000000000000000000000000000000000000000600482018190529133916001600160a01b0390911690630726f66890602401602060405180830381865afa158015611664573d6000803e3d6000fd5b505050506040513d601f19601f8201168201806040525081019061168891906121f0565b6001600160a01b0316146116ae5760405162461bcd60e51b81526004016109519061220d565b6001600160a01b0382166116c157600080fd5b6001600160a01b038216600081815260016020526040808220805460ff19169055517f33d83959be2573f5453b12eb9d43b3499bc57d96bd2f067ba44803c859e811139190a25050565b60005460405162e4decd60e31b81527f0000000000000000000000000000000000000000000000000000000000000000600482018190529133916001600160a01b0390911690630726f66890602401602060405180830381865afa158015611777573d6000803e3d6000fd5b505050506040513d601f19601f8201168201806040525081019061179b91906121f0565b6001600160a01b0316146117c15760405162461bcd60e51b81526004016109519061220d565b60006117cb611867565b90508042106117ed57604051632c965b3b60e01b815260040160405180910390fd5b8483146117f957600080fd5b60005b858110156110f25761185587878381811061181957611819612177565b905060200201602081019061182e9190611d29565b86868481811061184057611840612177565b905060200201602081019061040a919061240a565b8061185f816121d7565b9150506117fc565b60185460009060ff161580156118805750601f5460ff16155b1561188b5750600090565b60185460ff1661189c575060205490565b5060195490565b821561193957601b5482116118f25760405162461bcd60e51b8152602060048201526015602482015274696e76616c69642066636673537461727454696d6560581b6044820152606401610951565b8082106119395760405162461bcd60e51b8152602060048201526015602482015274696e76616c69642066636673537461727454696d6560581b6044820152606401610951565b601f805460ff191684151590811790915560208381556021839055604080517f0000000000000000000000000000000000000000000000000000000000000000815291820192909252908101839052606081018290527f749196b9c4b2f83b6b68e47d0cab55a345b32d5f8fb9af6a988b4ef287c3641e9060800160405180910390a1505050565b8515611aa357844210611a115760405162461bcd60e51b8152602060048201526018602482015277696e76616c69642061756374696f6e537461727454696d6560401b6044820152606401610951565b834210611a595760405162461bcd60e51b8152602060048201526016602482015275696e76616c69642061756374696f6e456e6454696d6560501b6044820152606401610951565b838510611aa35760405162461bcd60e51b8152602060048201526018602482015277696e76616c69642061756374696f6e537461727454696d6560401b6044820152606401610951565b6018805460ff19168715151790556019859055601a849055611ac884620151806122d3565b601b55601c839055601d829055601e819055604080517f000000000000000000000000000000000000000000000000000000000000000081528715156020820152908101869052606081018590526080810184905260a0810183905260c081018290527f8ca6a09af53558a5ef66e55032944a11f2e83371f4eb51fbb57d8f7508011f2d9060e00160405180910390a1505050505050565b600a600060095b60ff831615611bf7576004611b7d6001856122a7565b60ff16600a8110611b9057611b90612177565b60020201600101548410611bf75781158015611bcf5750846004611bb56001866122a7565b60ff16600a8110611bc857611bc8612177565b6002020154145b15611be55760019150611be282846122a7565b90505b82611bef81612425565b935050611b67565b600a8360ff161015610f6757805b8360ff168160ff161115611c77576004611c206001836122a7565b60ff16600a8110611c3357611c33612177565b6002020160048260ff16600a8110611c4d57611c4d612177565b82546002919091029190910190815560019182015491015580611c6f81612425565b915050611c05565b508460048460ff16600a8110611c8f57611c8f612177565b600202015583600460ff8516600a8110611cab57611cab612177565b60020201600101819055505050505050565b604051806101400160405280600a905b604080518082019091526060815260006020820152815260200190600190039081611ccd5790505090565b600060208284031215611d0a57600080fd5b5035919050565b6001600160a01b0381168114611d2657600080fd5b50565b600060208284031215611d3b57600080fd5b8135611d4681611d11565b9392505050565b6000815180845260005b81811015611d7357602081850181015186830182015201611d57565b506000602082860101526020601f19601f83011685010191505092915050565b60006020808301818452808551808352604092508286019150828160051b87010184880160005b83811015611e2357603f19898403018552815160a08151818652611de082870182611d4d565b838b0151878c0152898401516001600160a01b03168a88015260608085015190880152608093840151939096019290925250509386019390860190600101611dba565b509098975050505050505050565b80358015158114611e4157600080fd5b919050565b600080600060608486031215611e5b57600080fd5b611e6484611e31565b95602085013595506040909401359392505050565b60008060408385031215611e8c57600080fd5b8235611e9781611d11565b946020939093013593505050565b60008060408385031215611eb857600080fd5b823591506020830135611eca81611d11565b809150509250929050565b600060208284031215611ee757600080fd5b611d4682611e31565b6020808252600090610160830183820185845b600a811015611f4857601f19878503018352815160408151818752611f2a82880182611d4d565b92880151968801969096525093509184019190840190600101611f03565b50919695505050505050565b803560ff81168114611e4157600080fd5b60008060408385031215611f7857600080fd5b8235611f8381611d11565b9150611f9160208401611f54565b90509250929050565b60008060008060008060c08789031215611fb357600080fd5b611fbc87611e31565b9860208801359850604088013597606081013597506080810135965060a00135945092505050565b600080600080600060808688031215611ffc57600080fd5b85359450602086013567ffffffffffffffff8082111561201b57600080fd5b818801915088601f83011261202f57600080fd5b81358181111561203e57600080fd5b89602082850101111561205057600080fd5b602083019650809550505050604086013561206a81611d11565b949793965091946060013592915050565b60608152600061208e6060830186611d4d565b6001600160a01b039490941660208301525060400152919050565b60008083601f8401126120bb57600080fd5b50813567ffffffffffffffff8111156120d357600080fd5b6020830191508360208260051b85010111156120ee57600080fd5b9250929050565b6000806000806040858703121561210b57600080fd5b843567ffffffffffffffff8082111561212357600080fd5b61212f888389016120a9565b9096509450602087013591508082111561214857600080fd5b50612155878288016120a9565b95989497509550505050565b634e487b7160e01b600052604160045260246000fd5b634e487b7160e01b600052603260045260246000fd5b600181811c908216806121a157607f821691505b60208210810361089557634e487b7160e01b600052602260045260246000fd5b634e487b7160e01b600052601160045260246000fd5b6000600182016121e9576121e96121c1565b5060010190565b60006020828403121561220257600080fd5b8151611d4681611d11565b60208082526024908201527f4f776e61626c653a2063616c6c6572206973206e6f742074686520746c64206f6040820152633bb732b960e11b606082015260800190565b6020808252601b908201527f4e6f74206120617574686f72697a656420636f6e74726f6c6c65720000000000604082015260600190565b600060ff821660ff810361229e5761229e6121c1565b60010192915050565b60ff82811682821603908111156109ae576109ae6121c1565b818103818111156109ae576109ae6121c1565b808201808211156109ae576109ae6121c1565b601f82111561232c57600081815260208120601f850160051c8101602086101561230d5750805b601f850160051c820191505b818110156112e257828155600101612319565b505050565b67ffffffffffffffff83111561234957612349612161565b61235d83612357835461218d565b836122e6565b6000601f84116001811461239157600085156123795750838201355b600019600387901b1c1916600186901b178355610f67565b600083815260209020601f19861690835b828110156123c257868501358255602094850194600190920191016123a2565b50868210156123df5760001960f88860031b161c19848701351681555b505060018560011b0183555050505050565b60ff81811683821601908111156109ae576109ae6121c1565b60006020828403121561241c57600080fd5b611d4682611f54565b600060ff821680612438576124386121c1565b600019019291505056fea264697066735822122016c66ce29ed532717abc715960eac64883225a8d8295644a32511fe736825ae564736f6c6343000812003360c06040523480156200001157600080fd5b5060405162001672380380620016728339810160408190526200003491620000ac565b600080546001600160a01b039788166001600160a01b03199182161790915560a0959095529285166080526002805492861692851692909217909155600180549185169184169190911790556003805491909316911617905562000134565b6001600160a01b0381168114620000a957600080fd5b50565b60008060008060008060c08789031215620000c657600080fd5b8651620000d38162000093565b602088015160408901519197509550620000ed8162000093565b6060880151909450620001008162000093565b6080880151909350620001138162000093565b60a0880151909250620001268162000093565b809150509295509295509295565b60805160a0516114e76200018b600039600081816101c60152818161043c015281816106e9015281816109f401528181610dab0152610e460152600081816102c30152818161040d01526109c701526114e76000f3fe6080604052600436106100dd5760003560e01c80638cb5d7001161007f578063c19d93fb11610059578063c19d93fb1461025e578063d46da3871461027e578063e967e60c1461029e578063f77c4791146102b157600080fd5b80638cb5d700146101fe578063a289cf841461021e578063aeb8ce9b1461023e57600080fd5b80634311de8f116100bb5780634311de8f146101655780634d24e2361461017c5780637998a1c4146101b457806384fdec83146101e857600080fd5b80630d654751146100e257806315eb68531461011557806331fb67c214610145575b600080fd5b3480156100ee57600080fd5b506101026100fd3660046110f5565b6102e5565b6040519081526020015b60405180910390f35b34801561012157600080fd5b50610135610130366004611159565b6104d2565b604051901515815260200161010c565b34801561015157600080fd5b50610102610160366004611185565b6104fa565b34801561017157600080fd5b5061017a6106d8565b005b34801561018857600080fd5b5060015461019c906001600160a01b031681565b6040516001600160a01b03909116815260200161010c565b3480156101c057600080fd5b506101027f000000000000000000000000000000000000000000000000000000000000000081565b3480156101f457600080fd5b5061010260045481565b34801561020a57600080fd5b5061019c6102193660046111c7565b610940565b34801561022a57600080fd5b5060035461019c906001600160a01b031681565b34801561024a57600080fd5b50610135610259366004611185565b6109ad565b34801561026a57600080fd5b5060025461019c906001600160a01b031681565b34801561028a57600080fd5b5060005461019c906001600160a01b031681565b6101026102ac366004611185565b610a61565b3480156102bd57600080fd5b5061019c7f000000000000000000000000000000000000000000000000000000000000000081565b6000806102f185610940565b90506001600160a01b0381161561039957600254604051632d3f2b0560e01b8152600481018790526001600160a01b0383811660248301526000921690632d3f2b0590604401602060405180830381865afa158015610354573d6000803e3d6000fd5b505050506040513d601f19601f8201168201806040525081019061037891906111e0565b905061038560648261120f565b610390906069611231565b925050506104cb565b600254604080516344418ceb60e11b815290516000926001600160a01b03169163888319d69160048083019260209291908290030181865afa1580156103e3573d6000803e3d6000fd5b505050506040513d601f19601f8201168201806040525081019061040791906111e0565b905060007f00000000000000000000000000000000000000000000000000000000000000006001600160a01b031663fdd32ec47f0000000000000000000000000000000000000000000000000000000000000000888833876040518663ffffffff1660e01b815260040161047f959493929190611271565b602060405180830381865afa15801561049c573d6000803e3d6000fd5b505050506040513d601f19601f820116820180604052508101906104c091906111e0565b93506104cb92505050565b9392505050565b6000826001600160a01b03166104e783610940565b6001600160a01b03161490505b92915050565b600080838360405161050d9291906112bc565b604051908190039020905061052233826104d2565b156105405760405163f2d28b5b60e01b815260040160405180910390fd5b600254604051632d3f2b0560e01b8152600481018390523360248201526000916001600160a01b031690632d3f2b0590604401602060405180830381865afa158015610590573d6000803e3d6000fd5b505050506040513d601f19601f820116820180604052508101906105b491906111e0565b9050806000036105d75760405163c740c32d60e01b815260040160405180910390fd5b600254604051632cd8cde760e01b8152600481018490523360248201526001600160a01b0390911690632cd8cde790604401600060405180830381600087803b15801561062357600080fd5b505af1158015610637573d6000803e3d6000fd5b50506040516000925033915083908381818185875af1925050503d806000811461067d576040519150601f19603f3d011682016040523d82523d6000602084013e610682565b606091505b50509050806106cf5760405162461bcd60e51b81526020600482015260146024820152732330b4b632b2103a379039b2b7321022ba3432b960611b60448201526064015b60405180910390fd5b50949350505050565b60005460405162e4decd60e31b81527f0000000000000000000000000000000000000000000000000000000000000000600482018190529133916001600160a01b0390911690630726f66890602401602060405180830381865afa158015610744573d6000803e3d6000fd5b505050506040513d601f19601f8201168201806040525081019061076891906112dc565b6001600160a01b0316146107ca5760405162461bcd60e51b8152602060048201526024808201527f4f776e61626c653a2063616c6c6572206973206e6f742074686520746c64206f6044820152633bb732b960e11b60648201526084016106c6565b600260009054906101000a90046001600160a01b03166001600160a01b031663864333746040518163ffffffff1660e01b8152600401602060405180830381865afa15801561081d573d6000803e3d6000fd5b505050506040513d601f19601f8201168201806040525081019061084191906112f9565b6108815760405162461bcd60e51b8152602060048201526011602482015270185d58dd1a5bdb881b9bdd08195b991959607a1b60448201526064016106c6565b60048054600091829055908190036108ac5760405163c740c32d60e01b815260040160405180910390fd5b604051600090339083908381818185875af1925050503d80600081146108ee576040519150601f19603f3d011682016040523d82523d6000602084013e6108f3565b606091505b505090508061093b5760405162461bcd60e51b81526020600482015260146024820152732330b4b632b2103a379039b2b7321022ba3432b960611b60448201526064016106c6565b505050565b600254604051628cb5d760e81b8152600481018390526000916001600160a01b031690638cb5d70090602401602060405180830381865afa158015610989573d6000803e3d6000fd5b505050506040513d601f19601f820116820180604052508101906104f491906112dc565b6040516308d2396f60e01b81526000906001600160a01b037f000000000000000000000000000000000000000000000000000000000000000016906308d2396f90610a20907f0000000000000000000000000000000000000000000000000000000000000000908790879060040161131b565b602060405180830381865afa158015610a3d573d6000803e3d6000fd5b505050506040513d601f19601f820116820180604052508101906104cb91906112f9565b600254604080516343ddd75b60e11b815290516000926001600160a01b0316916387bbaeb69160048083019260209291908290030181865afa158015610aab573d6000803e3d6000fd5b505050506040513d601f19601f82011682018060405250810190610acf91906112f9565b610b0c5760405162461bcd60e51b815260206004820152600e60248201526d3737ba1034b71030bab1ba34b7b760911b60448201526064016106c6565b60003411610b305760405163235c188560e01b8152600160048201526024016106c6565b60008383604051610b429291906112bc565b604051908190038120600254630b1c3b2d60e31b8352336004840152602483018290529092506001600160a01b0316906358e1d96890604401600060405180830381600087803b158015610b9557600080fd5b505af1158015610ba9573d6000803e3d6000fd5b50505050610bb8818585610f8c565b600254604051634b6d21db60e11b81526004810183905260009182916001600160a01b03909116906396da43b690602401600060405180830381865afa158015610c06573d6000803e3d6000fd5b505050506040513d6000823e601f3d908101601f19168201604052610c2e9190810190611354565b925092505080421115610c545760405163283a4a6160e21b815260040160405180910390fd5b600254604051632d3f2b0560e01b81526004810185905233602482015260009134916001600160a01b0390911690632d3f2b0590604401602060405180830381865afa158015610ca8573d6000803e3d6000fd5b505050506040513d601f19601f82011682018060405250810190610ccc91906111e0565b610cd69190611438565b90506000610ce58589896102e5565b905080821015610d0b5760405163235c188560e01b8152600481018290526024016106c6565b600254604051632d3f2b0560e01b8152600481018790526001600160a01b0386811660248301526000921690632d3f2b0590604401602060405180830381865afa158015610d5d573d6000803e3d6000fd5b505050506040513d601f19601f82011682018060405250810190610d8191906111e0565b90506000610d8f828561144b565b905060008115610eb4576001546040516338ad915960e01b81527f00000000000000000000000000000000000000000000000000000000000000006004820152602481018490526001600160a01b03909116906338ad915990604401602060405180830381865afa158015610e08573d6000803e3d6000fd5b505050506040513d601f19601f82011682018060405250810190610e2c91906111e0565b90508015610eb45760035460405163b6b55f2560e01b81527f000000000000000000000000000000000000000000000000000000000000000060048201526001600160a01b039091169063b6b55f259083906024016000604051808303818588803b158015610e9a57600080fd5b505af1158015610eae573d6000803e3d6000fd5b50505050505b610ebe818361144b565b60046000828254610ecf9190611438565b9091555050600254604051632fe9aa6560e11b81526001600160a01b0390911690635fd354ca90610f0c908b908f908f9033908c9060040161145e565b600060405180830381600087803b158015610f2657600080fd5b505af1158015610f3a573d6000803e3d6000fd5b505050507fb773ce5048c68e3c2b907d5b3fbf2875976f4c973ae9494721266036d3d9af8b888c8c3389604051610f7595949392919061145e565b60405180910390a150929998505050505050505050565b610f9682826109ad565b610fb7578181604051637772f70760e01b81526004016106c6929190611495565b600254604051634b6d21db60e11b8152600481018590526000916001600160a01b0316906396da43b690602401600060405180830381865afa158015611001573d6000803e3d6000fd5b505050506040513d6000823e601f3d908101601f191682016040526110299190810190611354565b925050508060001461103b5750505050565b600254604051632fe9aa6560e11b81526001600160a01b0390911690635fd354ca9061107490879087908790600090819060040161145e565b600060405180830381600087803b15801561108e57600080fd5b505af11580156110a2573d6000803e3d6000fd5b5050505050505050565b60008083601f8401126110be57600080fd5b50813567ffffffffffffffff8111156110d657600080fd5b6020830191508360208285010111156110ee57600080fd5b9250929050565b60008060006040848603121561110a57600080fd5b83359250602084013567ffffffffffffffff81111561112857600080fd5b611134868287016110ac565b9497909650939450505050565b6001600160a01b038116811461115657600080fd5b50565b6000806040838503121561116c57600080fd5b823561117781611141565b946020939093013593505050565b6000806020838503121561119857600080fd5b823567ffffffffffffffff8111156111af57600080fd5b6111bb858286016110ac565b90969095509350505050565b6000602082840312156111d957600080fd5b5035919050565b6000602082840312156111f257600080fd5b5051919050565b634e487b7160e01b600052601160045260246000fd5b60008261122c57634e487b7160e01b600052601260045260246000fd5b500490565b80820281158282048414176104f4576104f46111f9565b81835281816020850137506000828201602090810191909152601f909101601f19169091010190565b85815260a06020820152600061128b60a083018688611248565b6001600160a01b03949094166040830152506060810191909152808203608090910152600081526020019392505050565b8183823760009101908152919050565b80516112d781611141565b919050565b6000602082840312156112ee57600080fd5b81516104cb81611141565b60006020828403121561130b57600080fd5b815180151581146104cb57600080fd5b838152604060208201526000611335604083018486611248565b95945050505050565b634e487b7160e01b600052604160045260246000fd5b60008060006060848603121561136957600080fd5b835167ffffffffffffffff8082111561138157600080fd5b818601915086601f83011261139557600080fd5b8151818111156113a7576113a761133e565b604051601f8201601f19908116603f011681019083821181831017156113cf576113cf61133e565b816040528281526020935089848487010111156113eb57600080fd5b600091505b8282101561140d57848201840151818301850152908301906113f0565b60008484830101528097505050506114268187016112cc565b93505050604084015190509250925092565b808201808211156104f4576104f46111f9565b818103818111156104f4576104f46111f9565b858152608060208201526000611478608083018688611248565b6001600160a01b0394909416604083015250606001529392505050565b6020815260006114a9602083018486611248565b94935050505056fea264697066735822122055849335977a1836f30885ae15b5c8d153474378998b993361879316abf87e2664736f6c63430008120033a2646970667358221220e13b6ca29bbcd9f58010bca9838199e9ead0cd4fd80954ff32e3265c1bb6094f64736f6c63430008120033",
  "linkReferences": {},
  "deployedLinkReferences": {}
}