{
  "_format": "hh-sol-artifact-1",
  "contractName": "GiftCardLedger",
  "sourceName": "contracts/giftcard/GiftCardLedger.sol",
  "abi": [
    {
      "inputs": [
        {
          "internalType": "contract ISANN",
          "name": "_sann",
          "type": "address"
        }
      ],
      "stateMutability": "nonpayable",
      "type": "constructor"
    },
    {
      "anonymous": false,
      "inputs": [
        {
          "indexed": true,
          "internalType": "address",
          "name": "controller",
          "type": "address"
        }
      ],
      "name": "ControllerAdded",
      "type": "event"
    },
    {
      "anonymous": false,
      "inputs": [
        {
          "indexed": true,
          "internalType": "address",
          "name": "controller",
          "type": "address"
        }
      ],
      "name": "ControllerRemoved",
      "type": "event"
    },
    {
      "anonymous": false,
      "inputs": [
        {
          "indexed": false,
          "internalType": "uint256",
          "name": "identifier",
          "type": "uint256"
        },
        {
          "indexed": true,
          "internalType": "address",
          "name": "controller",
          "type": "address"
        }
      ],
      "name": "TldControllerAdded",
      "type": "event"
    },
    {
      "anonymous": false,
      "inputs": [
        {
          "indexed": false,
          "internalType": "uint256",
          "name": "identifier",
          "type": "uint256"
        },
        {
          "indexed": true,
          "internalType": "address",
          "name": "controller",
          "type": "address"
        }
      ],
      "name": "TldControllerRemoved",
      "type": "event"
    },
    {
      "inputs": [
        {
          "internalType": "address",
          "name": "controller",
          "type": "address"
        }
      ],
      "name": "addController",
      "outputs": [],
      "stateMutability": "nonpayable",
      "type": "function"
    },
    {
      "inputs": [
        {
          "internalType": "uint256",
          "name": "identifier",
          "type": "uint256"
        },
        {
          "internalType": "address",
          "name": "controller",
          "type": "address"
        }
      ],
      "name": "addTldGiftCardController",
      "outputs": [],
      "stateMutability": "nonpayable",
      "type": "function"
    },
    {
      "inputs": [
        {
          "internalType": "uint256",
          "name": "identifier",
          "type": "uint256"
        },
        {
          "internalType": "address",
          "name": "account",
          "type": "address"
        }
      ],
      "name": "balanceOf",
      "outputs": [
        {
          "internalType": "uint256",
          "name": "",
          "type": "uint256"
        }
      ],
      "stateMutability": "view",
      "type": "function"
    },
    {
      "inputs": [
        {
          "internalType": "address",
          "name": "",
          "type": "address"
        },
        {
          "internalType": "uint256",
          "name": "",
          "type": "uint256"
        }
      ],
      "name": "balances",
      "outputs": [
        {
          "internalType": "uint256",
          "name": "",
          "type": "uint256"
        }
      ],
      "stateMutability": "view",
      "type": "function"
    },
    {
      "inputs": [
        {
          "internalType": "address",
          "name": "",
          "type": "address"
        }
      ],
      "name": "controllers",
      "outputs": [
        {
          "internalType": "bool",
          "name": "",
          "type": "bool"
        }
      ],
      "stateMutability": "view",
      "type": "function"
    },
    {
      "inputs": [
        {
          "internalType": "uint256",
          "name": "identifier",
          "type": "uint256"
        },
        {
          "internalType": "address",
          "name": "account",
          "type": "address"
        },
        {
          "internalType": "uint256",
          "name": "amount",
          "type": "uint256"
        }
      ],
      "name": "deduct",
      "outputs": [],
      "stateMutability": "nonpayable",
      "type": "function"
    },
    {
      "inputs": [
        {
          "internalType": "uint256",
          "name": "identifier",
          "type": "uint256"
        },
        {
          "internalType": "address",
          "name": "account",
          "type": "address"
        },
        {
          "internalType": "uint256",
          "name": "amount",
          "type": "uint256"
        }
      ],
      "name": "redeem",
      "outputs": [],
      "stateMutability": "nonpayable",
      "type": "function"
    },
    {
      "inputs": [
        {
          "internalType": "address",
          "name": "controller",
          "type": "address"
        }
      ],
      "name": "removeController",
      "outputs": [],
      "stateMutability": "nonpayable",
      "type": "function"
    },
    {
      "inputs": [
        {
          "internalType": "uint256",
          "name": "identifier",
          "type": "uint256"
        },
        {
          "internalType": "address",
          "name": "controller",
          "type": "address"
        }
      ],
      "name": "removeTldGiftCardController",
      "outputs": [],
      "stateMutability": "nonpayable",
      "type": "function"
    },
    {
      "inputs": [],
      "name": "sann",
      "outputs": [
        {
          "internalType": "contract ISANN",
          "name": "",
          "type": "address"
        }
      ],
      "stateMutability": "view",
      "type": "function"
    },
    {
      "inputs": [
        {
          "internalType": "uint256",
          "name": "",
          "type": "uint256"
        },
        {
          "internalType": "address",
          "name": "",
          "type": "address"
        }
      ],
      "name": "tldControllers",
      "outputs": [
        {
          "internalType": "bool",
          "name": "",
          "type": "bool"
        }
      ],
      "stateMutability": "view",
      "type": "function"
    }
  ],
  "bytecode": "0x608060405234801561001057600080fd5b50604051610ad7380380610ad783398101604081905261002f91610054565b600080546001600160a01b0319166001600160a01b0392909216919091179055610084565b60006020828403121561006657600080fd5b81516001600160a01b038116811461007d57600080fd5b9392505050565b610a44806100936000396000f3fe608060405234801561001057600080fd5b50600436106100a95760003560e01c8063a7fc7a0711610071578063a7fc7a071461014d578063cbf1304d14610160578063d46da3871461018b578063d8780161146101b6578063da8c229e146101c9578063f6a74ed7146101ec57600080fd5b80630702e683146100ae57806321f62a1a146100c35780633656eec214610106578063698f95851461012757806388a1625b1461013a575b600080fd5b6100c16100bc366004610836565b6101ff565b005b6100f16100d1366004610836565b600260209081526000928352604080842090915290825290205460ff1681565b60405190151581526020015b60405180910390f35b610119610114366004610836565b610326565b6040519081526020016100fd565b6100c1610135366004610866565b610351565b6100c1610148366004610836565b610460565b6100c161015b36600461089e565b610578565b61011961016e3660046108c2565b600360209081526000928352604080842090915290825290205481565b60005461019e906001600160a01b031681565b6040516001600160a01b0390911681526020016100fd565b6100c16101c4366004610866565b610680565b6100f16101d736600461089e565b60016020526000908152604090205460ff1681565b6100c16101fa36600461089e565b61071c565b60005460405162e4decd60e31b815260048101849052839133916001600160a01b0390911690630726f66890602401602060405180830381865afa15801561024b573d6000803e3d6000fd5b505050506040513d601f19601f8201168201806040525081019061026f91906108ee565b6001600160a01b03161461029e5760405162461bcd60e51b81526004016102959061090b565b60405180910390fd5b6001600160a01b0382166102c45760405162461bcd60e51b81526004016102959061094f565b60008381526002602090815260408083206001600160a01b03861680855290835292819020805460ff19169055518581527f6fc028d0707e47751b03d29ee93157b5b02fc4112cd2fc8dac0840aa9c78bc1891015b60405180910390a2505050565b6001600160a01b03811660009081526003602090815260408083208584529091529020545b92915050565b6000838152600260209081526040808320338452909152902054839060ff166103bc5760405162461bcd60e51b815260206004820152601b60248201527f4e6f74206120617574686f72697a656420636f6e74726f6c6c657200000000006044820152606401610295565b6001600160a01b0383166000908152600360209081526040808320878452909152902054828110156104275760405162461bcd60e51b8152602060048201526014602482015273496e73756666696369656e742062616c616e636560601b6044820152606401610295565b610431838261099c565b6001600160a01b0390941660009081526003602090815260408083209783529690529490942092909255505050565b60005460405162e4decd60e31b815260048101849052839133916001600160a01b0390911690630726f66890602401602060405180830381865afa1580156104ac573d6000803e3d6000fd5b505050506040513d601f19601f820116820180604052508101906104d091906108ee565b6001600160a01b0316146104f65760405162461bcd60e51b81526004016102959061090b565b6001600160a01b03821661051c5760405162461bcd60e51b81526004016102959061094f565b60008381526002602090815260408083206001600160a01b03861680855290835292819020805460ff19166001179055518581527fbad9e32d0cb056abcca47f1c294a3ad5509e16f312e9205de0cba434a2aa00579101610319565b6000546040805163cdcd7fb560e01b8152905133926001600160a01b03169163cdcd7fb59160048083019260209291908290030181865afa1580156105c1573d6000803e3d6000fd5b505050506040513d601f19601f820116820180604052508101906105e591906108ee565b6001600160a01b03161461060b5760405162461bcd60e51b8152600401610295906109af565b6001600160a01b0381166106315760405162461bcd60e51b81526004016102959061094f565b6001600160a01b0381166000818152600160208190526040808320805460ff1916909217909155517f0a8bb31534c0ed46f380cb867bd5c803a189ced9a764e30b3a4991a9901d74749190a250565b3360009081526001602052604090205460ff166106df5760405162461bcd60e51b815260206004820152601b60248201527f4e6f74206120617574686f72697a656420636f6e74726f6c6c657200000000006044820152606401610295565b6001600160a01b0382166000908152600360209081526040808320868452909152812080548392906107129084906109fb565b9091555050505050565b6000546040805163cdcd7fb560e01b8152905133926001600160a01b03169163cdcd7fb59160048083019260209291908290030181865afa158015610765573d6000803e3d6000fd5b505050506040513d601f19601f8201168201806040525081019061078991906108ee565b6001600160a01b0316146107af5760405162461bcd60e51b8152600401610295906109af565b6001600160a01b0381166107d55760405162461bcd60e51b81526004016102959061094f565b6001600160a01b038116600081815260016020526040808220805460ff19169055517f33d83959be2573f5453b12eb9d43b3499bc57d96bd2f067ba44803c859e811139190a250565b6001600160a01b038116811461083357600080fd5b50565b6000806040838503121561084957600080fd5b82359150602083013561085b8161081e565b809150509250929050565b60008060006060848603121561087b57600080fd5b83359250602084013561088d8161081e565b929592945050506040919091013590565b6000602082840312156108b057600080fd5b81356108bb8161081e565b9392505050565b600080604083850312156108d557600080fd5b82356108e08161081e565b946020939093013593505050565b60006020828403121561090057600080fd5b81516108bb8161081e565b60208082526024908201527f4f776e61626c653a2063616c6c6572206973206e6f742074686520746c64206f6040820152633bb732b960e11b606082015260800190565b60208082526018908201527f616464726573732063616e206e6f74206265207a65726f210000000000000000604082015260600190565b634e487b7160e01b600052601160045260246000fd5b8181038181111561034b5761034b610986565b6020808252602c908201527f41636365737369626c653a2063616c6c6572206973206e6f742074686520706c60408201526b30ba3337b9369030b236b4b760a11b606082015260800190565b8082018082111561034b5761034b61098656fea2646970667358221220102e144823535b820923801415812a4ce348bb836edf67bf95636dcdc16d91d764736f6c63430008120033",
  "linkReferences": {},
  "deployedLinkReferences": {}
}