{
  "_format": "hh-sol-artifact-1",
  "contractName": "PreRegistrationState",
  "sourceName": "contracts/preregistration/PreRegistrationState.sol",
  "abi": [
    {
      "inputs": [
        {
          "internalType": "contract ISANN",
          "name": "_sann",
          "type": "address"
        },
        {
          "internalType": "uint256",
          "name": "_identifier",
          "type": "uint256"
        },
        {
          "components": [
            {
              "internalType": "bool",
              "name": "enableAuction",
              "type": "bool"
            },
            {
              "internalType": "uint256",
              "name": "auctionStartTime",
              "type": "uint256"
            },
            {
              "internalType": "uint256",
              "name": "auctionInitialEndTime",
              "type": "uint256"
            },
            {
              "internalType": "uint256",
              "name": "auctionExtendDuration",
              "type": "uint256"
            },
            {
              "internalType": "uint256",
              "name": "auctionRetentionDuration",
              "type": "uint256"
            },
            {
              "internalType": "uint256",
              "name": "auctionMinRegistrationDuration",
              "type": "uint256"
            },
            {
              "internalType": "bool",
              "name": "enableFcfs",
              "type": "bool"
            },
            {
              "internalType": "uint256",
              "name": "fcfsStartTime",
              "type": "uint256"
            },
            {
              "internalType": "uint256",
              "name": "fcfsEndTime",
              "type": "uint256"
            }
          ],
          "internalType": "struct PreRegistrationUpdateConfig",
          "name": "_config",
          "type": "tuple"
        }
      ],
      "stateMutability": "nonpayable",
      "type": "constructor"
    },
    {
      "inputs": [],
      "name": "AuctionStarted",
      "type": "error"
    },
    {
      "inputs": [],
      "name": "FcfsStarted",
      "type": "error"
    },
    {
      "inputs": [],
      "name": "NotEnoughQuota",
      "type": "error"
    },
    {
      "inputs": [],
      "name": "PreRegistrationNotStarted",
      "type": "error"
    },
    {
      "anonymous": false,
      "inputs": [
        {
          "indexed": true,
          "internalType": "address",
          "name": "controller",
          "type": "address"
        }
      ],
      "name": "ControllerAdded",
      "type": "event"
    },
    {
      "anonymous": false,
      "inputs": [
        {
          "indexed": true,
          "internalType": "address",
          "name": "controller",
          "type": "address"
        }
      ],
      "name": "ControllerRemoved",
      "type": "event"
    },
    {
      "anonymous": false,
      "inputs": [
        {
          "indexed": false,
          "internalType": "uint256",
          "name": "identifier",
          "type": "uint256"
        },
        {
          "indexed": false,
          "internalType": "bool",
          "name": "enabled",
          "type": "bool"
        },
        {
          "indexed": false,
          "internalType": "uint256",
          "name": "auctionStartTime",
          "type": "uint256"
        },
        {
          "indexed": false,
          "internalType": "uint256",
          "name": "auctionEndTime",
          "type": "uint256"
        },
        {
          "indexed": false,
          "internalType": "uint256",
          "name": "auctionExtendDuration",
          "type": "uint256"
        },
        {
          "indexed": false,
          "internalType": "uint256",
          "name": "auctionRetentionDuration",
          "type": "uint256"
        },
        {
          "indexed": false,
          "internalType": "uint256",
          "name": "auctionMinRegistrationDuration",
          "type": "uint256"
        }
      ],
      "name": "SetAuctionConfig",
      "type": "event"
    },
    {
      "anonymous": false,
      "inputs": [
        {
          "indexed": false,
          "internalType": "uint256",
          "name": "identifier",
          "type": "uint256"
        },
        {
          "indexed": false,
          "internalType": "bool",
          "name": "enabled",
          "type": "bool"
        }
      ],
      "name": "SetAuctionEnabled",
      "type": "event"
    },
    {
      "anonymous": false,
      "inputs": [
        {
          "indexed": false,
          "internalType": "uint256",
          "name": "identifier",
          "type": "uint256"
        },
        {
          "indexed": false,
          "internalType": "bool",
          "name": "enabled",
          "type": "bool"
        },
        {
          "indexed": false,
          "internalType": "uint256",
          "name": "fcfsStartTime",
          "type": "uint256"
        },
        {
          "indexed": false,
          "internalType": "uint256",
          "name": "fcfsEndTime",
          "type": "uint256"
        }
      ],
      "name": "SetFcfsConfig",
      "type": "event"
    },
    {
      "anonymous": false,
      "inputs": [
        {
          "indexed": false,
          "internalType": "uint256",
          "name": "identifier",
          "type": "uint256"
        },
        {
          "indexed": false,
          "internalType": "bool",
          "name": "enabled",
          "type": "bool"
        }
      ],
      "name": "SetFcfsEnabled",
      "type": "event"
    },
    {
      "inputs": [
        {
          "internalType": "address",
          "name": "controller",
          "type": "address"
        }
      ],
      "name": "addController",
      "outputs": [],
      "stateMutability": "nonpayable",
      "type": "function"
    },
    {
      "inputs": [],
      "name": "auctionEnabled",
      "outputs": [
        {
          "internalType": "bool",
          "name": "",
          "type": "bool"
        }
      ],
      "stateMutability": "view",
      "type": "function"
    },
    {
      "inputs": [],
      "name": "auctionEnded",
      "outputs": [
        {
          "internalType": "bool",
          "name": "",
          "type": "bool"
        }
      ],
      "stateMutability": "view",
      "type": "function"
    },
    {
      "inputs": [],
      "name": "auctionExtendDuration",
      "outputs": [
        {
          "internalType": "uint256",
          "name": "",
          "type": "uint256"
        }
      ],
      "stateMutability": "view",
      "type": "function"
    },
    {
      "inputs": [],
      "name": "auctionHardEndTime",
      "outputs": [
        {
          "internalType": "uint256",
          "name": "",
          "type": "uint256"
        }
      ],
      "stateMutability": "view",
      "type": "function"
    },
    {
      "inputs": [],
      "name": "auctionInitialEndTime",
      "outputs": [
        {
          "internalType": "uint256",
          "name": "",
          "type": "uint256"
        }
      ],
      "stateMutability": "view",
      "type": "function"
    },
    {
      "inputs": [],
      "name": "auctionMinRegistrationDuration",
      "outputs": [
        {
          "internalType": "uint256",
          "name": "",
          "type": "uint256"
        }
      ],
      "stateMutability": "view",
      "type": "function"
    },
    {
      "inputs": [],
      "name": "auctionRetentionDuration",
      "outputs": [
        {
          "internalType": "uint256",
          "name": "",
          "type": "uint256"
        }
      ],
      "stateMutability": "view",
      "type": "function"
    },
    {
      "inputs": [],
      "name": "auctionStartTime",
      "outputs": [
        {
          "internalType": "uint256",
          "name": "",
          "type": "uint256"
        }
      ],
      "stateMutability": "view",
      "type": "function"
    },
    {
      "inputs": [
        {
          "internalType": "uint256",
          "name": "",
          "type": "uint256"
        }
      ],
      "name": "auctionStatus",
      "outputs": [
        {
          "internalType": "string",
          "name": "label",
          "type": "string"
        },
        {
          "internalType": "address",
          "name": "winner",
          "type": "address"
        },
        {
          "internalType": "uint256",
          "name": "endTime",
          "type": "uint256"
        }
      ],
      "stateMutability": "view",
      "type": "function"
    },
    {
      "inputs": [],
      "name": "auctionUserWithdrawEnded",
      "outputs": [
        {
          "internalType": "bool",
          "name": "",
          "type": "bool"
        }
      ],
      "stateMutability": "view",
      "type": "function"
    },
    {
      "inputs": [
        {
          "internalType": "uint256",
          "name": "tokenID",
          "type": "uint256"
        },
        {
          "internalType": "address",
          "name": "user",
          "type": "address"
        }
      ],
      "name": "bidAmount",
      "outputs": [
        {
          "internalType": "uint256",
          "name": "",
          "type": "uint256"
        }
      ],
      "stateMutability": "view",
      "type": "function"
    },
    {
      "inputs": [
        {
          "internalType": "uint256",
          "name": "tokenID",
          "type": "uint256"
        },
        {
          "internalType": "address",
          "name": "user",
          "type": "address"
        }
      ],
      "name": "clearAuctionFunds",
      "outputs": [],
      "stateMutability": "nonpayable",
      "type": "function"
    },
    {
      "inputs": [
        {
          "internalType": "address",
          "name": "user",
          "type": "address"
        },
        {
          "internalType": "uint256",
          "name": "tokenID",
          "type": "uint256"
        }
      ],
      "name": "consumeAuctionQuota",
      "outputs": [],
      "stateMutability": "nonpayable",
      "type": "function"
    },
    {
      "inputs": [
        {
          "internalType": "address",
          "name": "user",
          "type": "address"
        }
      ],
      "name": "consumeFcfsQuota",
      "outputs": [],
      "stateMutability": "nonpayable",
      "type": "function"
    },
    {
      "inputs": [
        {
          "internalType": "address",
          "name": "",
          "type": "address"
        }
      ],
      "name": "controllers",
      "outputs": [
        {
          "internalType": "bool",
          "name": "",
          "type": "bool"
        }
      ],
      "stateMutability": "view",
      "type": "function"
    },
    {
      "inputs": [
        {
          "internalType": "bool",
          "name": "enabled",
          "type": "bool"
        }
      ],
      "name": "enableAuction",
      "outputs": [],
      "stateMutability": "nonpayable",
      "type": "function"
    },
    {
      "inputs": [
        {
          "internalType": "bool",
          "name": "enabled",
          "type": "bool"
        }
      ],
      "name": "enableFcfs",
      "outputs": [],
      "stateMutability": "nonpayable",
      "type": "function"
    },
    {
      "inputs": [],
      "name": "fcfsEnabled",
      "outputs": [
        {
          "internalType": "bool",
          "name": "",
          "type": "bool"
        }
      ],
      "stateMutability": "view",
      "type": "function"
    },
    {
      "inputs": [],
      "name": "fcfsEndTime",
      "outputs": [
        {
          "internalType": "uint256",
          "name": "",
          "type": "uint256"
        }
      ],
      "stateMutability": "view",
      "type": "function"
    },
    {
      "inputs": [],
      "name": "fcfsStartTime",
      "outputs": [
        {
          "internalType": "uint256",
          "name": "",
          "type": "uint256"
        }
      ],
      "stateMutability": "view",
      "type": "function"
    },
    {
      "inputs": [],
      "name": "identifier",
      "outputs": [
        {
          "internalType": "uint256",
          "name": "",
          "type": "uint256"
        }
      ],
      "stateMutability": "view",
      "type": "function"
    },
    {
      "inputs": [],
      "name": "inAuction",
      "outputs": [
        {
          "internalType": "bool",
          "name": "",
          "type": "bool"
        }
      ],
      "stateMutability": "view",
      "type": "function"
    },
    {
      "inputs": [],
      "name": "inFcfs",
      "outputs": [
        {
          "internalType": "bool",
          "name": "",
          "type": "bool"
        }
      ],
      "stateMutability": "view",
      "type": "function"
    },
    {
      "inputs": [],
      "name": "inPreRegistration",
      "outputs": [
        {
          "internalType": "bool",
          "name": "",
          "type": "bool"
        }
      ],
      "stateMutability": "view",
      "type": "function"
    },
    {
      "inputs": [],
      "name": "inRetentionPeriod",
      "outputs": [
        {
          "internalType": "bool",
          "name": "",
          "type": "bool"
        }
      ],
      "stateMutability": "view",
      "type": "function"
    },
    {
      "inputs": [
        {
          "internalType": "address",
          "name": "user",
          "type": "address"
        },
        {
          "internalType": "uint256",
          "name": "tokenID",
          "type": "uint256"
        }
      ],
      "name": "isWinner",
      "outputs": [
        {
          "internalType": "bool",
          "name": "",
          "type": "bool"
        }
      ],
      "stateMutability": "view",
      "type": "function"
    },
    {
      "inputs": [
        {
          "internalType": "address",
          "name": "user",
          "type": "address"
        }
      ],
      "name": "phase2Quota",
      "outputs": [
        {
          "internalType": "uint8",
          "name": "",
          "type": "uint8"
        }
      ],
      "stateMutability": "view",
      "type": "function"
    },
    {
      "inputs": [],
      "name": "preRegistrationEndTime",
      "outputs": [
        {
          "internalType": "uint256",
          "name": "",
          "type": "uint256"
        }
      ],
      "stateMutability": "view",
      "type": "function"
    },
    {
      "inputs": [],
      "name": "preRegistrationStartTime",
      "outputs": [
        {
          "internalType": "uint256",
          "name": "",
          "type": "uint256"
        }
      ],
      "stateMutability": "view",
      "type": "function"
    },
    {
      "inputs": [
        {
          "internalType": "address",
          "name": "controller",
          "type": "address"
        }
      ],
      "name": "removeController",
      "outputs": [],
      "stateMutability": "nonpayable",
      "type": "function"
    },
    {
      "inputs": [],
      "name": "sann",
      "outputs": [
        {
          "internalType": "contract ISANN",
          "name": "",
          "type": "address"
        }
      ],
      "stateMutability": "view",
      "type": "function"
    },
    {
      "inputs": [
        {
          "internalType": "bool",
          "name": "_enabled",
          "type": "bool"
        },
        {
          "internalType": "uint256",
          "name": "_auctionStartTime",
          "type": "uint256"
        },
        {
          "internalType": "uint256",
          "name": "_auctionEndTime",
          "type": "uint256"
        },
        {
          "internalType": "uint256",
          "name": "_auctionExtendDuration",
          "type": "uint256"
        },
        {
          "internalType": "uint256",
          "name": "_auctionRetentionDuration",
          "type": "uint256"
        },
        {
          "internalType": "uint256",
          "name": "_auctionMinRegistrationDuration",
          "type": "uint256"
        }
      ],
      "name": "setAuctionConfigs",
      "outputs": [],
      "stateMutability": "nonpayable",
      "type": "function"
    },
    {
      "inputs": [
        {
          "internalType": "bool",
          "name": "_enabled",
          "type": "bool"
        },
        {
          "internalType": "uint256",
          "name": "_fcfsStartTime",
          "type": "uint256"
        },
        {
          "internalType": "uint256",
          "name": "_fcfsEndTime",
          "type": "uint256"
        }
      ],
      "name": "setFcfsConfigs",
      "outputs": [],
      "stateMutability": "nonpayable",
      "type": "function"
    },
    {
      "inputs": [
        {
          "internalType": "address",
          "name": "user",
          "type": "address"
        },
        {
          "internalType": "uint8",
          "name": "quota",
          "type": "uint8"
        }
      ],
      "name": "setUserQuota",
      "outputs": [],
      "stateMutability": "nonpayable",
      "type": "function"
    },
    {
      "inputs": [
        {
          "internalType": "address[]",
          "name": "users",
          "type": "address[]"
        },
        {
          "internalType": "uint8[]",
          "name": "quotas",
          "type": "uint8[]"
        }
      ],
      "name": "setUserQuotas",
      "outputs": [],
      "stateMutability": "nonpayable",
      "type": "function"
    },
    {
      "inputs": [
        {
          "internalType": "uint256",
          "name": "tokenID",
          "type": "uint256"
        }
      ],
      "name": "topBid",
      "outputs": [
        {
          "internalType": "uint256",
          "name": "",
          "type": "uint256"
        }
      ],
      "stateMutability": "view",
      "type": "function"
    },
    {
      "inputs": [
        {
          "internalType": "uint256",
          "name": "",
          "type": "uint256"
        }
      ],
      "name": "topBids",
      "outputs": [
        {
          "internalType": "uint256",
          "name": "tokenID",
          "type": "uint256"
        },
        {
          "internalType": "uint256",
          "name": "bid",
          "type": "uint256"
        }
      ],
      "stateMutability": "view",
      "type": "function"
    },
    {
      "inputs": [],
      "name": "topBidsView",
      "outputs": [
        {
          "components": [
            {
              "internalType": "string",
              "name": "label",
              "type": "string"
            },
            {
              "internalType": "uint256",
              "name": "bid",
              "type": "uint256"
            }
          ],
          "internalType": "struct PreRegistrationState.TopBidView[10]",
          "name": "rv",
          "type": "tuple[10]"
        }
      ],
      "stateMutability": "view",
      "type": "function"
    },
    {
      "inputs": [
        {
          "internalType": "uint256",
          "name": "tokenID",
          "type": "uint256"
        },
        {
          "internalType": "string",
          "name": "label",
          "type": "string"
        },
        {
          "internalType": "address",
          "name": "newWinner",
          "type": "address"
        },
        {
          "internalType": "uint256",
          "name": "newBid",
          "type": "uint256"
        }
      ],
      "name": "updateAuctionStatus",
      "outputs": [],
      "stateMutability": "nonpayable",
      "type": "function"
    },
    {
      "inputs": [
        {
          "internalType": "address",
          "name": "user",
          "type": "address"
        }
      ],
      "name": "userBidsView",
      "outputs": [
        {
          "components": [
            {
              "internalType": "string",
              "name": "label",
              "type": "string"
            },
            {
              "internalType": "uint256",
              "name": "tokenID",
              "type": "uint256"
            },
            {
              "internalType": "address",
              "name": "winner",
              "type": "address"
            },
            {
              "internalType": "uint256",
              "name": "highestBid",
              "type": "uint256"
            },
            {
              "internalType": "uint256",
              "name": "userBid",
              "type": "uint256"
            }
          ],
          "internalType": "struct PreRegistrationState.UserBidsView[]",
          "name": "rv",
          "type": "tuple[]"
        }
      ],
      "stateMutability": "view",
      "type": "function"
    },
    {
      "inputs": [
        {
          "internalType": "address",
          "name": "",
          "type": "address"
        }
      ],
      "name": "userStatus",
      "outputs": [
        {
          "internalType": "uint8",
          "name": "quota",
          "type": "uint8"
        },
        {
          "internalType": "bool",
          "name": "hadQuota",
          "type": "bool"
        },
        {
          "internalType": "uint8",
          "name": "consumedQuotaInFcfs",
          "type": "uint8"
        }
      ],
      "stateMutability": "view",
      "type": "function"
    },
    {
      "inputs": [
        {
          "internalType": "uint256",
          "name": "tokenID",
          "type": "uint256"
        }
      ],
      "name": "winnerOf",
      "outputs": [
        {
          "internalType": "address",
          "name": "",
          "type": "address"
        }
      ],
      "stateMutability": "view",
      "type": "function"
    }
  ],
  "bytecode": "0x60a06040523480156200001157600080fd5b5060405162002987380380620029878339810160408190526200003491620003a6565b600080546001600160a01b0319166001600160a01b038516179055608082815281516020830151604084015160608501519385015160a08601516200007b959190620000a4565b6200009b8160c001518260e001518361010001516200024360201b60201c565b5050506200049f565b8515620001a257844210620001005760405162461bcd60e51b815260206004820152601860248201527f696e76616c69642061756374696f6e537461727454696d65000000000000000060448201526064015b60405180910390fd5b834210620001515760405162461bcd60e51b815260206004820152601660248201527f696e76616c69642061756374696f6e456e6454696d65000000000000000000006044820152606401620000f7565b838510620001a25760405162461bcd60e51b815260206004820152601860248201527f696e76616c69642061756374696f6e537461727454696d6500000000000000006044820152606401620000f7565b6018805460ff19168715151790556019859055601a849055620001c9846201518062000477565b601b55601c839055601d829055601e8190556080805160408051918252881515602083015281018790526060810186905290810184905260a0810183905260c081018290527f8ca6a09af53558a5ef66e55032944a11f2e83371f4eb51fbb57d8f7508011f2d9060e00160405180910390a1505050505050565b8215620002ee57601b5482116200029d5760405162461bcd60e51b815260206004820152601560248201527f696e76616c69642066636673537461727454696d6500000000000000000000006044820152606401620000f7565b808210620002ee5760405162461bcd60e51b815260206004820152601560248201527f696e76616c69642066636673537461727454696d6500000000000000000000006044820152606401620000f7565b601f805460ff191684151590811790915560208381556021839055608080516040805191825292810193909352908201849052606082018390527f749196b9c4b2f83b6b68e47d0cab55a345b32d5f8fb9af6a988b4ef287c3641e910160405180910390a1505050565b60405161012081016001600160401b03811182821017156200038a57634e487b7160e01b600052604160045260246000fd5b60405290565b80518015158114620003a157600080fd5b919050565b6000806000838503610160811215620003be57600080fd5b84516001600160a01b0381168114620003d657600080fd5b60208601519094509250610120603f198201811315620003f557600080fd5b620003ff62000358565b91506200040f6040870162000390565b8252606086015160208301526080860151604083015260a0860151606083015260c0860151608083015260e086015160a08301526101006200045381880162000390565b60c08401529086015160e08301526101409095015194810194909452509093909250565b808201808211156200049957634e487b7160e01b600052601160045260246000fd5b92915050565b6080516124786200050f60003960008181610484015281816108ac01528181610aae01528181610b8c01528181610bf601528181610cd401528181610e5a0152818161101d015281816114ae015281816116090152818161171c0152818161195a0152611ae001526124786000f3fe608060405234801561001057600080fd5b50600436106102695760003560e01c80638643337411610151578063c39887f5116100c3578063dd3cb4a911610087578063dd3cb4a9146105c3578063eb54f9ec146105d0578063f5752f59146105d9578063f6a74ed714610613578063f88ef35114610626578063ffeaf35f1461063957600080fd5b8063c39887f514610573578063c3f151171461057c578063c989d07514610584578063d46da3871461058d578063da8c229e146105a057600080fd5b806396da43b61161011557806396da43b6146105185780639efdb7cf1461053a578063a7fc7a0714610542578063ab220da014610555578063b6fc138f1461055e578063b8bdcb171461056b57600080fd5b806386433374146104a657806387bbaeb6146104b0578063888319d6146104b85780638cb5d700146104c15780638cbec9321461050557600080fd5b80632cfcd4fe116101ea57806345e5770f116101ae57806345e5770f1461043457806346eba6661461043d57806358e1d968146104505780635fd354ca1461046357806362d0aaf7146104765780637998a1c41461047f57600080fd5b80632cfcd4fe1461039b5780632d3f2b05146103ae5780633762b5a2146103e75780633ee4582d146103fc578063403451c81461040f57600080fd5b806318969e3c1161023157806318969e3c1461030a578063225d29a1146103125780632399bd631461036d5780632cd8cde7146103755780632cfbeb041461038857600080fd5b8063010d98131461026e578063045535b71461029b5780630fa1b797146102b25780630fe44cae146102d257806315eb6853146102e7575b600080fd5b61028161027c366004611cf8565b610641565b604080519283526020830191909152015b60405180910390f35b6102a4601b5481565b604051908152602001610292565b6102c56102c0366004611d29565b610663565b6040516102929190611d93565b6102e56102e0366004611e46565b61089b565b005b6102fa6102f5366004611e79565b61098d565b6040519015158152602001610292565b6102a46109b4565b610349610320366004611d29565b6002602052600090815260409020805460039091015460ff918216918181169161010090041683565b6040805160ff94851681529215156020840152921691810191909152606001610292565b6102fa6109f2565b6102e5610383366004611ea5565b610a45565b6102e5610396366004611ed5565b610a9d565b6102e56103a9366004611ed5565b610be5565b6102a46103bc366004611ea5565b60008281526003602081815260408084206001600160a01b0386168552909201905290205492915050565b6103ef610d25565b6040516102929190611ef0565b6102e561040a366004611f65565b610e49565b61042261041d366004611d29565b610f6e565b60405160ff9091168152602001610292565b6102a4601a5481565b6102e561044b366004611f9a565b61100c565b6102e561045e366004611e79565b6110fb565b6102e5610471366004611fe4565b611205565b6102a4601c5481565b6102a47f000000000000000000000000000000000000000000000000000000000000000081565b601b5442116102fa565b6102fa6112ea565b6102a4601e5481565b6104ed6104cf366004611cf8565b6000908152600360205260409020600101546001600160a01b031690565b6040516001600160a01b039091168152602001610292565b6102e5610513366004611d29565b611312565b61052b610526366004611cf8565b6113c3565b6040516102929392919061207b565b6102fa611477565b6102e5610550366004611d29565b61149d565b6102a4601d5481565b6018546102fa9060ff1681565b6102fa6115b6565b6102a460215481565b6102fa6115d0565b6102a460205481565b6000546104ed906001600160a01b031681565b6102fa6105ae366004611d29565b60016020526000908152604090205460ff1681565b601f546102fa9060ff1681565b6102a460195481565b6102a46105e7366004611cf8565b600090815260036020818152604080842060018101546001600160a01b03168552909201905290205490565b6102e5610621366004611d29565b6115f8565b6102e56106343660046120f5565b61170b565b6102a4611867565b600481600a811061065157600080fd5b60020201805460019091015490915082565b6001600160a01b03811660009081526002602052604090206001015460609067ffffffffffffffff81111561069a5761069a612161565b60405190808252806020026020018201604052801561070657816020015b6106f36040518060a00160405280606081526020016000815260200160006001600160a01b0316815260200160008152602001600081525090565b8152602001906001900390816106b85790505b50905060005b6001600160a01b038316600090815260026020526040902060010154811015610895576001600160a01b038316600090815260026020526040812060010180548390811061075c5761075c612177565b906000526020600020015490506040518060a001604052806003600084815260200190815260200160002060000180546107959061218d565b80601f01602080910402602001604051908101604052809291908181526020018280546107c19061218d565b801561080e5780601f106107e35761010080835404028352916020019161080e565b820191906000526020600020905b8154815290600101906020018083116107f157829003601f168201915b5050509183525050602080820184905260008481526003808352604080832060018101546001600160a01b0390811683880181905285529201808552818420546060870152918a16835292522054608090910152835184908490811061087657610876612177565b602002602001018190525050808061088d906121d7565b91505061070c565b50919050565b60005460405162e4decd60e31b81527f0000000000000000000000000000000000000000000000000000000000000000600482018190529133916001600160a01b0390911690630726f66890602401602060405180830381865afa158015610907573d6000803e3d6000fd5b505050506040513d601f19601f8201168201806040525081019061092b91906121f0565b6001600160a01b03161461095a5760405162461bcd60e51b81526004016109519061220d565b60405180910390fd5b602054421061097c57604051636405ec0b60e11b815260040160405180910390fd5b6109878484846118a3565b50505050565b6000818152600360205260409020600101546001600160a01b038381169116145b92915050565b60185460009060ff161580156109cd5750601f5460ff16155b156109d85750600090565b601f5460ff166109e95750601b5490565b6021545b905090565b60185460009060ff16158015610a0b5750601f5460ff16155b15610a165750600090565b6000610a20611867565b90506000610a2c6109b4565b9050814210158015610a3e5750804211155b9250505090565b3360009081526001602052604090205460ff16610a745760405162461bcd60e51b815260040161095190612251565b60009182526003602081815260408085206001600160a01b039094168552929091019052812055565b60005460405162e4decd60e31b81527f0000000000000000000000000000000000000000000000000000000000000000600482018190529133916001600160a01b0390911690630726f66890602401602060405180830381865afa158015610b09573d6000803e3d6000fd5b505050506040513d601f19601f82011682018060405250810190610b2d91906121f0565b6001600160a01b031614610b535760405162461bcd60e51b81526004016109519061220d565b6019544210610b755760405163647ccdcd60e11b815260040160405180910390fd5b6018805460ff1916831515908117909155604080517f0000000000000000000000000000000000000000000000000000000000000000815260208101929092527f6ab0f6edfdbbc7dfd6454797971d91e94f1c40644747770049762b137a9c66e891015b60405180910390a15050565b60005460405162e4decd60e31b81527f0000000000000000000000000000000000000000000000000000000000000000600482018190529133916001600160a01b0390911690630726f66890602401602060405180830381865afa158015610c51573d6000803e3d6000fd5b505050506040513d601f19601f82011682018060405250810190610c7591906121f0565b6001600160a01b031614610c9b5760405162461bcd60e51b81526004016109519061220d565b6019544210610cbd5760405163647ccdcd60e11b815260040160405180910390fd5b601f805460ff1916831515908117909155604080517f0000000000000000000000000000000000000000000000000000000000000000815260208101929092527f3eae33535e3ca0edde68ebda5be0611bd93b38595a3611ccfe6b78b6dd1799df9101610bd9565b610d2d611cbd565b60005b600a811015610e4557604051806040016040528060036000600485600a8110610d5b57610d5b612177565b6002020154815260208101919091526040016000208054610d7b9061218d565b80601f0160208091040260200160405190810160405280929190818152602001828054610da79061218d565b8015610df45780601f10610dc957610100808354040283529160200191610df4565b820191906000526020600020905b815481529060010190602001808311610dd757829003601f168201915b50505050508152602001600483600a8110610e1157610e11612177565b60020201600101548152508282600a8110610e2e57610e2e612177565b602002015280610e3d816121d7565b915050610d30565b5090565b60005460405162e4decd60e31b81527f0000000000000000000000000000000000000000000000000000000000000000600482018190529133916001600160a01b0390911690630726f66890602401602060405180830381865afa158015610eb5573d6000803e3d6000fd5b505050506040513d601f19601f82011682018060405250810190610ed991906121f0565b6001600160a01b031614610eff5760405162461bcd60e51b81526004016109519061220d565b6000610f09611867565b9050804210610f2b57604051632c965b3b60e01b815260040160405180910390fd5b6001600160a01b0384166000908152600260205260409020805460ff191660ff8516908117825515610f675760038101805460ff191660011790555b5050505050565b6001600160a01b0381166000908152600260205260408120805460ff16825b600183015460ff82161015610fec57610fc885846001018360ff1681548110610fb857610fb8612177565b906000526020600020015461098d565b610fda5781610fd681612288565b9250505b80610fe481612288565b915050610f8d565b50600382015461100490610100900460ff16826122a7565b949350505050565b60005460405162e4decd60e31b81527f0000000000000000000000000000000000000000000000000000000000000000600482018190529133916001600160a01b0390911690630726f66890602401602060405180830381865afa158015611078573d6000803e3d6000fd5b505050506040513d601f19601f8201168201806040525081019061109c91906121f0565b6001600160a01b0316146110c25760405162461bcd60e51b81526004016109519061220d565b60195442106110e45760405163647ccdcd60e11b815260040160405180910390fd5b6110f28787878787876119c1565b50505050505050565b3360009081526001602052604090205460ff1661112a5760405162461bcd60e51b815260040161095190612251565b6001600160a01b03821660009081526002602081815260408084208585529283019091529091205460ff161561115f57505050565b6001600160a01b038316600090815260026020526040902054600160ff909116101561119e57604051634f8fd3a560e01b815260040160405180910390fd5b600082815260028201602090815260408220805460ff19166001908117909155838101805480830182559084529183209091018490558254909183916111e890849060ff166122a7565b92506101000a81548160ff021916908360ff160217905550505050565b3360009081526001602052604090205460ff166112345760405162461bcd60e51b815260040161095190612251565b60008581526003602052604090206002810154156112cc576001810180546001600160a01b0319166001600160a01b03851690811790915560009081526003820160205260409020829055601c5460028201546112929042906122c0565b116112bd57601c546112a490426122d3565b60028201819055601b5410156112bd57601b5460028201555b6112c78683611b60565b6112e2565b806112d8858783612331565b50601a5460028201555b505050505050565b60185460009060ff16801561130157506019544210155b80156109ed575050601b5442111590565b3360009081526001602052604090205460ff166113415760405162461bcd60e51b815260040161095190612251565b6001600160a01b0381166000908152600260205260409020600161136483610f6e565b60ff16101561138657604051634f8fd3a560e01b815260040160405180910390fd5b60018160030160018282829054906101000a900460ff166113a791906123f1565b92506101000a81548160ff021916908360ff1602179055505050565b6003602052600090815260409020805481906113de9061218d565b80601f016020809104026020016040519081016040528092919081815260200182805461140a9061218d565b80156114575780601f1061142c57610100808354040283529160200191611457565b820191906000526020600020905b81548152906001019060200180831161143a57829003601f168201915b50505050600183015460029093015491926001600160a01b031691905083565b6000601b54421180156109ed5750601d54601b5461149591906122d3565b421115905090565b60005460405162e4decd60e31b81527f0000000000000000000000000000000000000000000000000000000000000000600482018190529133916001600160a01b0390911690630726f66890602401602060405180830381865afa158015611509573d6000803e3d6000fd5b505050506040513d601f19601f8201168201806040525081019061152d91906121f0565b6001600160a01b0316146115535760405162461bcd60e51b81526004016109519061220d565b6001600160a01b03821661156657600080fd5b6001600160a01b0382166000818152600160208190526040808320805460ff1916909217909155517f0a8bb31534c0ed46f380cb867bd5c803a189ced9a764e30b3a4991a9901d74749190a25050565b6000601b54621275006115c991906122d3565b4211905090565b601f5460009060ff1680156115e757506020544210155b80156109ed57505060215442111590565b60005460405162e4decd60e31b81527f0000000000000000000000000000000000000000000000000000000000000000600482018190529133916001600160a01b0390911690630726f66890602401602060405180830381865afa158015611664573d6000803e3d6000fd5b505050506040513d601f19601f8201168201806040525081019061168891906121f0565b6001600160a01b0316146116ae5760405162461bcd60e51b81526004016109519061220d565b6001600160a01b0382166116c157600080fd5b6001600160a01b038216600081815260016020526040808220805460ff19169055517f33d83959be2573f5453b12eb9d43b3499bc57d96bd2f067ba44803c859e811139190a25050565b60005460405162e4decd60e31b81527f0000000000000000000000000000000000000000000000000000000000000000600482018190529133916001600160a01b0390911690630726f66890602401602060405180830381865afa158015611777573d6000803e3d6000fd5b505050506040513d601f19601f8201168201806040525081019061179b91906121f0565b6001600160a01b0316146117c15760405162461bcd60e51b81526004016109519061220d565b60006117cb611867565b90508042106117ed57604051632c965b3b60e01b815260040160405180910390fd5b8483146117f957600080fd5b60005b858110156110f25761185587878381811061181957611819612177565b905060200201602081019061182e9190611d29565b86868481811061184057611840612177565b905060200201602081019061040a919061240a565b8061185f816121d7565b9150506117fc565b60185460009060ff161580156118805750601f5460ff16155b1561188b5750600090565b60185460ff1661189c575060205490565b5060195490565b821561193957601b5482116118f25760405162461bcd60e51b8152602060048201526015602482015274696e76616c69642066636673537461727454696d6560581b6044820152606401610951565b8082106119395760405162461bcd60e51b8152602060048201526015602482015274696e76616c69642066636673537461727454696d6560581b6044820152606401610951565b601f805460ff191684151590811790915560208381556021839055604080517f0000000000000000000000000000000000000000000000000000000000000000815291820192909252908101839052606081018290527f749196b9c4b2f83b6b68e47d0cab55a345b32d5f8fb9af6a988b4ef287c3641e9060800160405180910390a1505050565b8515611aa357844210611a115760405162461bcd60e51b8152602060048201526018602482015277696e76616c69642061756374696f6e537461727454696d6560401b6044820152606401610951565b834210611a595760405162461bcd60e51b8152602060048201526016602482015275696e76616c69642061756374696f6e456e6454696d6560501b6044820152606401610951565b838510611aa35760405162461bcd60e51b8152602060048201526018602482015277696e76616c69642061756374696f6e537461727454696d6560401b6044820152606401610951565b6018805460ff19168715151790556019859055601a849055611ac884620151806122d3565b601b55601c839055601d829055601e819055604080517f000000000000000000000000000000000000000000000000000000000000000081528715156020820152908101869052606081018590526080810184905260a0810183905260c081018290527f8ca6a09af53558a5ef66e55032944a11f2e83371f4eb51fbb57d8f7508011f2d9060e00160405180910390a1505050505050565b600a600060095b60ff831615611bf7576004611b7d6001856122a7565b60ff16600a8110611b9057611b90612177565b60020201600101548410611bf75781158015611bcf5750846004611bb56001866122a7565b60ff16600a8110611bc857611bc8612177565b6002020154145b15611be55760019150611be282846122a7565b90505b82611bef81612425565b935050611b67565b600a8360ff161015610f6757805b8360ff168160ff161115611c77576004611c206001836122a7565b60ff16600a8110611c3357611c33612177565b6002020160048260ff16600a8110611c4d57611c4d612177565b82546002919091029190910190815560019182015491015580611c6f81612425565b915050611c05565b508460048460ff16600a8110611c8f57611c8f612177565b600202015583600460ff8516600a8110611cab57611cab612177565b60020201600101819055505050505050565b604051806101400160405280600a905b604080518082019091526060815260006020820152815260200190600190039081611ccd5790505090565b600060208284031215611d0a57600080fd5b5035919050565b6001600160a01b0381168114611d2657600080fd5b50565b600060208284031215611d3b57600080fd5b8135611d4681611d11565b9392505050565b6000815180845260005b81811015611d7357602081850181015186830182015201611d57565b506000602082860101526020601f19601f83011685010191505092915050565b60006020808301818452808551808352604092508286019150828160051b87010184880160005b83811015611e2357603f19898403018552815160a08151818652611de082870182611d4d565b838b0151878c0152898401516001600160a01b03168a88015260608085015190880152608093840151939096019290925250509386019390860190600101611dba565b509098975050505050505050565b80358015158114611e4157600080fd5b919050565b600080600060608486031215611e5b57600080fd5b611e6484611e31565b95602085013595506040909401359392505050565b60008060408385031215611e8c57600080fd5b8235611e9781611d11565b946020939093013593505050565b60008060408385031215611eb857600080fd5b823591506020830135611eca81611d11565b809150509250929050565b600060208284031215611ee757600080fd5b611d4682611e31565b6020808252600090610160830183820185845b600a811015611f4857601f19878503018352815160408151818752611f2a82880182611d4d565b92880151968801969096525093509184019190840190600101611f03565b50919695505050505050565b803560ff81168114611e4157600080fd5b60008060408385031215611f7857600080fd5b8235611f8381611d11565b9150611f9160208401611f54565b90509250929050565b60008060008060008060c08789031215611fb357600080fd5b611fbc87611e31565b9860208801359850604088013597606081013597506080810135965060a00135945092505050565b600080600080600060808688031215611ffc57600080fd5b85359450602086013567ffffffffffffffff8082111561201b57600080fd5b818801915088601f83011261202f57600080fd5b81358181111561203e57600080fd5b89602082850101111561205057600080fd5b602083019650809550505050604086013561206a81611d11565b949793965091946060013592915050565b60608152600061208e6060830186611d4d565b6001600160a01b039490941660208301525060400152919050565b60008083601f8401126120bb57600080fd5b50813567ffffffffffffffff8111156120d357600080fd5b6020830191508360208260051b85010111156120ee57600080fd5b9250929050565b6000806000806040858703121561210b57600080fd5b843567ffffffffffffffff8082111561212357600080fd5b61212f888389016120a9565b9096509450602087013591508082111561214857600080fd5b50612155878288016120a9565b95989497509550505050565b634e487b7160e01b600052604160045260246000fd5b634e487b7160e01b600052603260045260246000fd5b600181811c908216806121a157607f821691505b60208210810361089557634e487b7160e01b600052602260045260246000fd5b634e487b7160e01b600052601160045260246000fd5b6000600182016121e9576121e96121c1565b5060010190565b60006020828403121561220257600080fd5b8151611d4681611d11565b60208082526024908201527f4f776e61626c653a2063616c6c6572206973206e6f742074686520746c64206f6040820152633bb732b960e11b606082015260800190565b6020808252601b908201527f4e6f74206120617574686f72697a656420636f6e74726f6c6c65720000000000604082015260600190565b600060ff821660ff810361229e5761229e6121c1565b60010192915050565b60ff82811682821603908111156109ae576109ae6121c1565b818103818111156109ae576109ae6121c1565b808201808211156109ae576109ae6121c1565b601f82111561232c57600081815260208120601f850160051c8101602086101561230d5750805b601f850160051c820191505b818110156112e257828155600101612319565b505050565b67ffffffffffffffff83111561234957612349612161565b61235d83612357835461218d565b836122e6565b6000601f84116001811461239157600085156123795750838201355b600019600387901b1c1916600186901b178355610f67565b600083815260209020601f19861690835b828110156123c257868501358255602094850194600190920191016123a2565b50868210156123df5760001960f88860031b161c19848701351681555b505060018560011b0183555050505050565b60ff81811683821601908111156109ae576109ae6121c1565b60006020828403121561241c57600080fd5b611d4682611f54565b600060ff821680612438576124386121c1565b600019019291505056fea264697066735822122075805c563f48db435df2dd875c02246d418b2b5dd251f79fe57f5757f0ab324664736f6c63430008120033",
  "linkReferences": {},
  "deployedLinkReferences": {}
}