{
  "_format": "hh-sol-artifact-1",
  "contractName": "VerifiedTldHub",
  "sourceName": "contracts/domain-governer/VerifiedTldHub.sol",
  "abi": [
    {
      "inputs": [],
      "stateMutability": "nonpayable",
      "type": "constructor"
    },
    {
      "anonymous": false,
      "inputs": [
        {
          "indexed": true,
          "internalType": "address",
          "name": "previousOwner",
          "type": "address"
        },
        {
          "indexed": true,
          "internalType": "address",
          "name": "newOwner",
          "type": "address"
        }
      ],
      "name": "OwnershipTransferred",
      "type": "event"
    },
    {
      "inputs": [
        {
          "internalType": "uint256",
          "name": "chainId",
          "type": "uint256"
        }
      ],
      "name": "getChainInfo",
      "outputs": [
        {
          "components": [
            {
              "internalType": "uint256",
              "name": "chainId",
              "type": "uint256"
            },
            {
              "internalType": "string",
              "name": "defaultRpc",
              "type": "string"
            },
            {
              "internalType": "address",
              "name": "sann",
              "type": "address"
            }
          ],
          "internalType": "struct VerifiedTldHub.chainInfo",
          "name": "",
          "type": "tuple"
        }
      ],
      "stateMutability": "view",
      "type": "function"
    },
    {
      "inputs": [
        {
          "internalType": "uint256",
          "name": "chainId",
          "type": "uint256"
        }
      ],
      "name": "getChainTlds",
      "outputs": [
        {
          "internalType": "string[]",
          "name": "",
          "type": "string[]"
        }
      ],
      "stateMutability": "view",
      "type": "function"
    },
    {
      "inputs": [
        {
          "internalType": "string[]",
          "name": "tldList",
          "type": "string[]"
        }
      ],
      "name": "getTldInfo",
      "outputs": [
        {
          "components": [
            {
              "internalType": "string",
              "name": "tld",
              "type": "string"
            },
            {
              "internalType": "uint256",
              "name": "identifier",
              "type": "uint256"
            },
            {
              "internalType": "uint256",
              "name": "chainId",
              "type": "uint256"
            },
            {
              "internalType": "string",
              "name": "defaultRpc",
              "type": "string"
            },
            {
              "internalType": "address",
              "name": "registry",
              "type": "address"
            },
            {
              "internalType": "address",
              "name": "sann",
              "type": "address"
            }
          ],
          "internalType": "struct VerifiedTldHub.completeTldInfo[]",
          "name": "",
          "type": "tuple[]"
        }
      ],
      "stateMutability": "view",
      "type": "function"
    },
    {
      "inputs": [],
      "name": "getTlds",
      "outputs": [
        {
          "internalType": "string[]",
          "name": "",
          "type": "string[]"
        }
      ],
      "stateMutability": "view",
      "type": "function"
    },
    {
      "inputs": [],
      "name": "owner",
      "outputs": [
        {
          "internalType": "address",
          "name": "",
          "type": "address"
        }
      ],
      "stateMutability": "view",
      "type": "function"
    },
    {
      "inputs": [
        {
          "internalType": "uint256",
          "name": "chainId",
          "type": "uint256"
        },
        {
          "internalType": "string",
          "name": "tldName",
          "type": "string"
        }
      ],
      "name": "removeTldInfo",
      "outputs": [],
      "stateMutability": "nonpayable",
      "type": "function"
    },
    {
      "inputs": [],
      "name": "renounceOwnership",
      "outputs": [],
      "stateMutability": "nonpayable",
      "type": "function"
    },
    {
      "inputs": [
        {
          "internalType": "address",
          "name": "newOwner",
          "type": "address"
        }
      ],
      "name": "transferOwnership",
      "outputs": [],
      "stateMutability": "nonpayable",
      "type": "function"
    },
    {
      "inputs": [
        {
          "internalType": "uint256",
          "name": "chainId",
          "type": "uint256"
        },
        {
          "internalType": "string",
          "name": "defaultRpc",
          "type": "string"
        },
        {
          "internalType": "address",
          "name": "sann",
          "type": "address"
        }
      ],
      "name": "updateChainInfo",
      "outputs": [],
      "stateMutability": "nonpayable",
      "type": "function"
    },
    {
      "inputs": [
        {
          "internalType": "uint256",
          "name": "chainId",
          "type": "uint256"
        },
        {
          "internalType": "string",
          "name": "defaultRpc",
          "type": "string"
        }
      ],
      "name": "updateDefaultRpc",
      "outputs": [],
      "stateMutability": "nonpayable",
      "type": "function"
    },
    {
      "inputs": [
        {
          "internalType": "string",
          "name": "tldName",
          "type": "string"
        },
        {
          "internalType": "uint256",
          "name": "identifier",
          "type": "uint256"
        },
        {
          "internalType": "uint256",
          "name": "chainId",
          "type": "uint256"
        },
        {
          "internalType": "address",
          "name": "registry",
          "type": "address"
        }
      ],
      "name": "updateTldInfo",
      "outputs": [],
      "stateMutability": "nonpayable",
      "type": "function"
    }
  ],
  "bytecode": "0x608060405234801561001057600080fd5b5061001a3361001f565b61006f565b600080546001600160a01b038381166001600160a01b0319831681178455604051919092169283917f8be0079c531659141344cd1fd0a4f28419497f9722a3daafe3b4186f6b6457e09190a35050565b61175d8061007e6000396000f3fe608060405234801561001057600080fd5b50600436106100a95760003560e01c8063804ea33411610071578063804ea3341461010f5780638a302fbc1461012f5780638da5cb5b14610142578063a32cca861461015d578063d97f58801461017d578063f2fde38b1461019057600080fd5b8063063f09cb146100ae57806324682eef146100c357806326a0d75c146100d657806357951ea8146100e9578063715018a614610107575b600080fd5b6100c16100bc366004610f80565b6101a3565b005b6100c16100d1366004610fde565b610256565b6100c16100e4366004610fde565b610526565b6100f161054a565b6040516100fe9190611070565b60405180910390f35b6100c1610623565b61012261011d3660046110d2565b610637565b6040516100fe91906110eb565b6100c161013d366004611132565b610739565b6000546040516001600160a01b0390911681526020016100fe565b61017061016b366004611199565b61091f565b6040516100fe919061120e565b6100f161018b3660046110d2565b610c41565b6100c161019e3660046112cd565b610da5565b6101ab610e23565b604051806060016040528085815260200184848080601f01602080910402602001604051908101604052809392919081815260200183838082843760009201829052509385525050506001600160a01b03841660209283015286815260038252604090208251815590820151600182019061022690826113a3565b5060409190910151600290910180546001600160a01b0319166001600160a01b0390921691909117905550505050565b61025e610e23565b6001828260405161027092919061145d565b908152604051908190036020019020600061028b8282610ecd565b5060006001820181905560028201819055600390910180546001600160a01b03191690555b6004548110156103c55782826040516020016102cd92919061145d565b60405160208183030381529060405280519060200120600482815481106102f6576102f661146d565b906000526020600020016040516020016103109190611483565b60405160208183030381529060405280519060200120036103b3576004805461033b9060019061150f565b8154811061034b5761034b61146d565b90600052602060002001600482815481106103685761036861146d565b90600052602060002001908161037e9190611522565b506004805480610390576103906115f7565b6001900381819060005260206000200160006103ac9190610ecd565b90556103c5565b806103bd8161160d565b9150506102b0565b5060005b6000848152600260205260409020548110156105205782826040516020016103f292919061145d565b60408051601f1981840301815291815281516020928301206000878152600290935291208054839081106104285761042861146d565b906000526020600020016040516020016104429190611483565b604051602081830303815290604052805190602001200361050e57600084815260026020526040902080546104799060019061150f565b815481106104895761048961146d565b906000526020600020016002600086815260200190815260200160002082815481106104b7576104b761146d565b9060005260206000200190816104cd9190611522565b5060008481526002602052604090208054806104eb576104eb6115f7565b6001900381819060005260206000200160006105079190610ecd565b9055610520565b806105188161160d565b9150506103c9565b50505050565b61052e610e23565b6000838152600360205260409020600101610520828483611626565b60606004805480602002602001604051908101604052809291908181526020016000905b8282101561061a57838290600052602060002001805461058d90611305565b80601f01602080910402602001604051908101604052809291908181526020018280546105b990611305565b80156106065780601f106105db57610100808354040283529160200191610606565b820191906000526020600020905b8154815290600101906020018083116105e957829003601f168201915b50505050508152602001906001019061056e565b50505050905090565b61062b610e23565b6106356000610e7d565b565b6106646040518060600160405280600081526020016060815260200160006001600160a01b031681525090565b600360008381526020019081526020016000206040518060600160405290816000820154815260200160018201805461069c90611305565b80601f01602080910402602001604051908101604052809291908181526020018280546106c890611305565b80156107155780601f106106ea57610100808354040283529160200191610715565b820191906000526020600020905b8154815290600101906020018083116106f857829003601f168201915b5050509183525050600291909101546001600160a01b031660209091015292915050565b610741610e23565b6001858560405161075392919061145d565b908152602001604051809103902060010154600014801561079757506001858560405161078192919061145d565b9081526020016040518091039020600201546000145b80156107d9575060006001600160a01b0316600186866040516107bb92919061145d565b908152604051908190036020019020600301546001600160a01b0316145b1561084757600480546001810182556000919091527f8a35acfbc15ff81a39ae7d344fd709f28e8600b4aa8c65c6b64bfe7fe36bd19b0161081b858783611626565b50600082815260026020908152604082208054600181018255908352912001610845858783611626565b505b604051806080016040528086868080601f0160208091040260200160405190810160405280939291908181526020018383808284376000920191909152505050908252506020810185905260408082018590526001600160a01b038416606090920191909152516001906108be908890889061145d565b908152604051908190036020019020815181906108db90826113a3565b506020820151600182015560408201516002820155606090910151600390910180546001600160a01b0319166001600160a01b039092169190911790555050505050565b606060008267ffffffffffffffff81111561093c5761093c6112ef565b6040519080825280602002602001820160405280156109b857816020015b6109a56040518060c001604052806060815260200160008152602001600081526020016060815260200160006001600160a01b0316815260200160006001600160a01b031681525090565b81526020019060019003908161095a5790505b50905060005b83811015610c375760008585838181106109da576109da61146d565b90506020028101906109ec91906116e0565b8080601f01602080910402602001604051908101604052809392919081815260200183838082843760009201829052509394506001925089915088905085818110610a3957610a3961146d565b9050602002810190610a4b91906116e0565b604051610a5992919061145d565b908152602001604051809103902060020154905060006001888886818110610a8357610a8361146d565b9050602002810190610a9591906116e0565b604051610aa392919061145d565b908152602001604051809103902060010154905060006001898987818110610acd57610acd61146d565b9050602002810190610adf91906116e0565b604051610aed92919061145d565b908152602001604051809103902060030160009054906101000a90046001600160a01b031690506040518060c00160405280858152602001838152602001848152602001600360008681526020019081526020016000206001018054610b5290611305565b80601f0160208091040260200160405190810160405280929190818152602001828054610b7e90611305565b8015610bcb5780601f10610ba057610100808354040283529160200191610bcb565b820191906000526020600020905b815481529060010190602001808311610bae57829003601f168201915b50505091835250506001600160a01b0380841660208084019190915260008781526003909152604090819020600201549091169101528651879087908110610c1557610c1561146d565b6020026020010181905250505050508080610c2f9061160d565b9150506109be565b5090505b92915050565b6000818152600260205260408120546060919067ffffffffffffffff811115610c6c57610c6c6112ef565b604051908082528060200260200182016040528015610c9f57816020015b6060815260200190600190039081610c8a5790505b50905060005b600084815260026020526040902054811015610d9e576000848152600260205260409020805482908110610cdb57610cdb61146d565b906000526020600020018054610cf090611305565b80601f0160208091040260200160405190810160405280929190818152602001828054610d1c90611305565b8015610d695780601f10610d3e57610100808354040283529160200191610d69565b820191906000526020600020905b815481529060010190602001808311610d4c57829003601f168201915b5050505050828281518110610d8057610d8061146d565b60200260200101819052508080610d969061160d565b915050610ca5565b5092915050565b610dad610e23565b6001600160a01b038116610e175760405162461bcd60e51b815260206004820152602660248201527f4f776e61626c653a206e6577206f776e657220697320746865207a65726f206160448201526564647265737360d01b60648201526084015b60405180910390fd5b610e2081610e7d565b50565b6000546001600160a01b031633146106355760405162461bcd60e51b815260206004820181905260248201527f4f776e61626c653a2063616c6c6572206973206e6f7420746865206f776e65726044820152606401610e0e565b600080546001600160a01b038381166001600160a01b0319831681178455604051919092169283917f8be0079c531659141344cd1fd0a4f28419497f9722a3daafe3b4186f6b6457e09190a35050565b508054610ed990611305565b6000825580601f10610ee9575050565b601f016020900490600052602060002090810190610e2091905b80821115610f175760008155600101610f03565b5090565b60008083601f840112610f2d57600080fd5b50813567ffffffffffffffff811115610f4557600080fd5b602083019150836020828501011115610f5d57600080fd5b9250929050565b80356001600160a01b0381168114610f7b57600080fd5b919050565b60008060008060608587031215610f9657600080fd5b84359350602085013567ffffffffffffffff811115610fb457600080fd5b610fc087828801610f1b565b9094509250610fd3905060408601610f64565b905092959194509250565b600080600060408486031215610ff357600080fd5b83359250602084013567ffffffffffffffff81111561101157600080fd5b61101d86828701610f1b565b9497909650939450505050565b6000815180845260005b8181101561105057602081850181015186830182015201611034565b506000602082860101526020601f19601f83011685010191505092915050565b6000602080830181845280855180835260408601915060408160051b870101925083870160005b828110156110c557603f198886030184526110b385835161102a565b94509285019290850190600101611097565b5092979650505050505050565b6000602082840312156110e457600080fd5b5035919050565b60208152815160208201526000602083015160606040840152611111608084018261102a565b604094909401516001600160a01b0316606093909301929092525090919050565b60008060008060006080868803121561114a57600080fd5b853567ffffffffffffffff81111561116157600080fd5b61116d88828901610f1b565b909650945050602086013592506040860135915061118d60608701610f64565b90509295509295909350565b600080602083850312156111ac57600080fd5b823567ffffffffffffffff808211156111c457600080fd5b818501915085601f8301126111d857600080fd5b8135818111156111e757600080fd5b8660208260051b85010111156111fc57600080fd5b60209290920196919550909350505050565b60006020808301818452808551808352604092508286019150828160051b87010184880160005b838110156112bf57603f19898403018552815160c0815181865261125b8287018261102a565b9150508882015189860152878201518886015260608083015186830382880152611285838261102a565b6080858101516001600160a01b03908116918a019190915260a0958601511694909701939093525050509386019390860190600101611235565b509098975050505050505050565b6000602082840312156112df57600080fd5b6112e882610f64565b9392505050565b634e487b7160e01b600052604160045260246000fd5b600181811c9082168061131957607f821691505b60208210810361133957634e487b7160e01b600052602260045260246000fd5b50919050565b601f82111561138957600081815260208120601f850160051c810160208610156113665750805b601f850160051c820191505b8181101561138557828155600101611372565b5050505b505050565b600019600383901b1c191660019190911b1790565b815167ffffffffffffffff8111156113bd576113bd6112ef565b6113d1816113cb8454611305565b8461133f565b602080601f83116001811461140057600084156113ee5750858301515b6113f8858261138e565b865550611385565b600085815260208120601f198616915b8281101561142f57888601518255948401946001909101908401611410565b508582101561144d5787850151600019600388901b60f8161c191681555b5050505050600190811b01905550565b8183823760009101908152919050565b634e487b7160e01b600052603260045260246000fd5b600080835461149181611305565b600182811680156114a957600181146114be576114ed565b60ff19841687528215158302870194506114ed565b8760005260208060002060005b858110156114e45781548a8201529084019082016114cb565b50505082870194505b50929695505050505050565b634e487b7160e01b600052601160045260246000fd5b81810381811115610c3b57610c3b6114f9565b81810361152d575050565b6115378254611305565b67ffffffffffffffff81111561154f5761154f6112ef565b61155d816113cb8454611305565b6000601f82116001811461158b57600083156115795750848201545b611583848261138e565b8555506115f0565b600085815260209020601f19841690600086815260209020845b838110156115c557828601548255600195860195909101906020016115a5565b50858310156115e35781850154600019600388901b60f8161c191681555b50505060018360011b0184555b5050505050565b634e487b7160e01b600052603160045260246000fd5b60006001820161161f5761161f6114f9565b5060010190565b67ffffffffffffffff83111561163e5761163e6112ef565b6116528361164c8354611305565b8361133f565b6000601f841160018114611680576000851561166e5750838201355b611678868261138e565b8455506115f0565b600083815260209020601f19861690835b828110156116b15786850135825560209485019460019092019101611691565b50868210156116ce5760001960f88860031b161c19848701351681555b505060018560011b0183555050505050565b6000808335601e198436030181126116f757600080fd5b83018035915067ffffffffffffffff82111561171257600080fd5b602001915036819003821315610f5d57600080fdfea2646970667358221220b2b499da83f23b7e80aa9ea45d1ed30cb6a423cd21e23e3c51b8b2be23aeafd364736f6c63430008120033",
  "linkReferences": {},
  "deployedLinkReferences": {}
}