{
  "_format": "hh-sol-artifact-1",
  "contractName": "BaseCreator",
  "sourceName": "contracts/proxy/BaseCreator.sol",
  "abi": [
    {
      "inputs": [
        {
          "internalType": "address",
          "name": "_sann",
          "type": "address"
        }
      ],
      "stateMutability": "nonpayable",
      "type": "constructor"
    },
    {
      "inputs": [
        {
          "internalType": "address",
          "name": "registry",
          "type": "address"
        },
        {
          "internalType": "uint256",
          "name": "identifier",
          "type": "uint256"
        },
        {
          "internalType": "string",
          "name": "tld",
          "type": "string"
        },
        {
          "internalType": "string",
          "name": "baseUri",
          "type": "string"
        }
      ],
      "name": "create",
      "outputs": [
        {
          "internalType": "address",
          "name": "",
          "type": "address"
        }
      ],
      "stateMutability": "nonpayable",
      "type": "function"
    },
    {
      "inputs": [],
      "name": "sann",
      "outputs": [
        {
          "internalType": "contract ISANN",
          "name": "",
          "type": "address"
        }
      ],
      "stateMutability": "view",
      "type": "function"
    }
  ],
  "bytecode": "0x608060405234801561001057600080fd5b506040516135c83803806135c883398101604081905261002f91610054565b600080546001600160a01b0319166001600160a01b0392909216919091179055610084565b60006020828403121561006657600080fd5b81516001600160a01b038116811461007d57600080fd5b9392505050565b613535806100936000396000f3fe608060405234801561001057600080fd5b50600436106100365760003560e01c8063c0985c321461003b578063d46da3871461006a575b600080fd5b61004e61004936600461029d565b61007d565b6040516001600160a01b03909116815260200160405180910390f35b60005461004e906001600160a01b031681565b60008054604080517f6a0dfac1000000000000000000000000000000000000000000000000000000008152905133926001600160a01b031691636a0dfac19160048083019260209291908290030181865afa1580156100e0573d6000803e3d6000fd5b505050506040513d601f19601f820116820180604052508101906101049190610329565b6001600160a01b03161461019e576040517f08c379a000000000000000000000000000000000000000000000000000000000815260206004820152602560248201527f41636365737369626c653a2063616c6c6572206973206e6f742074686520666160448201527f63746f7279000000000000000000000000000000000000000000000000000000606482015260840160405180910390fd5b6000866040516020016101b391815260200190565b6040516020818303038152906040528051906020012090508060008054906101000a90046001600160a01b03168989898989896040516101f29061022f565b6102029796959493929190610376565b8190604051809103906000f5905080158015610222573d6000803e3d6000fd5b5098975050505050505050565b613135806103cb83390190565b6001600160a01b038116811461025157600080fd5b50565b60008083601f84011261026657600080fd5b50813567ffffffffffffffff81111561027e57600080fd5b60208301915083602082850101111561029657600080fd5b9250929050565b600080600080600080608087890312156102b657600080fd5b86356102c18161023c565b955060208701359450604087013567ffffffffffffffff808211156102e557600080fd5b6102f18a838b01610254565b9096509450606089013591508082111561030a57600080fd5b5061031789828a01610254565b979a9699509497509295939492505050565b60006020828403121561033b57600080fd5b81516103468161023c565b9392505050565b81835281816020850137506000828201602090810191909152601f909101601f19169091010190565b60006001600160a01b03808a16835280891660208401525086604083015260a060608301526103a960a08301868861034d565b82810360808401526103bc81858761034d565b9a995050505050505050505056fe60806040526000600f553480156200001657600080fd5b50604051620031353803806200313583398101604081905262000039916200022f565b60408051808201909152601581527f5350414345204944204e616d6520536572766963650000000000000000000000602082015285908360006200007e83826200035d565b5060016200008d82826200035d565b5050600880546001600160a01b03199081166001600160a01b0394851617909155600a80549091169287169290921790915550600c839055600d620000d383826200035d565b50600c54604051620000f391600091602001918252602082015260400190565b60408051601f198184030181528282528051602091820120855186830120918401529082015260600160408051601f198184030181529190528051602090910120600b55600e6200014582826200035d565b50505050505062000429565b6001600160a01b03811681146200016757600080fd5b50565b634e487b7160e01b600052604160045260246000fd5b600082601f8301126200019257600080fd5b81516001600160401b0380821115620001af57620001af6200016a565b604051601f8301601f19908116603f01168101908282118183101715620001da57620001da6200016a565b81604052838152602092508683858801011115620001f757600080fd5b600091505b838210156200021b5785820183015181830184015290820190620001fc565b600093810190920192909252949350505050565b600080600080600060a086880312156200024857600080fd5b8551620002558162000151565b6020870151909550620002688162000151565b6040870151606088015191955093506001600160401b03808211156200028d57600080fd5b6200029b89838a0162000180565b93506080880151915080821115620002b257600080fd5b50620002c18882890162000180565b9150509295509295909350565b600181811c90821680620002e357607f821691505b6020821081036200030457634e487b7160e01b600052602260045260246000fd5b50919050565b601f8211156200035857600081815260208120601f850160051c81016020861015620003335750805b601f850160051c820191505b8181101562000354578281556001016200033f565b5050505b505050565b81516001600160401b038111156200037957620003796200016a565b62000391816200038a8454620002ce565b846200030a565b602080601f831160018114620003c95760008415620003b05750858301515b600019600386901b1c1916600185901b17855562000354565b600085815260208120601f198616915b82811015620003fa57888601518255948401946001909101908401620003d9565b5085821015620004195787850151600019600388901b60f8161c191681555b5050505050600190811b01905550565b612cfc80620004396000396000f3fe608060405234801561001057600080fd5b50600436106102415760003560e01c806370a0823111610145578063c1a287e2116100bd578063d6e4fa861161008c578063e985e9c511610071578063e985e9c5146104b3578063f9482e1a146104ef578063fca247ac1461050257600080fd5b8063d6e4fa861461048a578063ddf7fcb0146104aa57600080fd5b8063c1a287e214610447578063c475abff14610451578063c87b56dd14610464578063d46da3871461047757600080fd5b806396e494e811610114578063a22cb465116100f9578063a22cb46514610419578063aa1b103f1461042c578063b88d4fde1461043457600080fd5b806396e494e8146103fe5780639abc83201461041157600080fd5b806370a08231146103c75780637998a1c4146103da5780638a616bc0146103e357806395d89b41146103f657600080fd5b806323b872dd116101d857806342842e0e116101a75780635944c7531161018c5780635944c753146103985780636352211e146103ab5780636f3d8fe8146103be57600080fd5b806342842e0e146103725780634e543b261461038557600080fd5b806323b872dd1461031257806328ed4f6c146103255780632a55205a146103385780632d5514321461036a57600080fd5b8063081812fc11610214578063081812fc146102ab578063095ea7b3146102d65780630e297b45146102e957806318160ddd1461030a57600080fd5b806301ffc9a71461024657806302fe53051461026e57806304634d8d1461028357806306fdde0314610296575b600080fd5b610259610254366004612650565b610515565b60405190151581526020015b60405180910390f35b61028161027c3660046126f9565b6105e6565b005b610281610291366004612778565b6106d3565b61029e6107b3565b60405161026591906127fd565b6102be6102b9366004612810565b610845565b6040516001600160a01b039091168152602001610265565b6102816102e4366004612829565b61086c565b6102fc6102f7366004612855565b610998565b604051908152602001610265565b600f546102fc565b61028161032036600461288d565b6109af565b6102816103333660046128bd565b610aa8565b61034b6103463660046128ed565b610bc1565b604080516001600160a01b039093168352602083019190915201610265565b61029e610c7c565b61028161038036600461288d565b610d0a565b61028161039336600461290f565b610d25565b6102816103a636600461292c565b610e83565b6102be6103b9366004612810565b610f5f565b6102fc600f5481565b6102fc6103d536600461290f565b610f82565b6102fc600c5481565b6102816103f1366004612810565b61101c565b61029e6110ff565b61025961040c366004612810565b61110e565b61029e611134565b61028161042736600461296a565b611141565b61028161114c565b61028161044236600461299d565b61122a565b6102fc6276a70081565b6102fc61045f3660046128ed565b61131e565b61029e610472366004612810565b61156b565b6008546102be906001600160a01b031681565b6102fc610498366004612810565b60009081526009602052604090205490565b6102fc600b5481565b6102596104c1366004612a1d565b6001600160a01b03918216600090815260056020908152604080832093909416825291909152205460ff1690565b600a546102be906001600160a01b031681565b6102fc610510366004612855565b6116d7565b60006001600160e01b031982167f01ffc9a700000000000000000000000000000000000000000000000000000000148061057857506001600160e01b031982167f80ac58cd00000000000000000000000000000000000000000000000000000000145b806105ac57506001600160e01b031982167f28ed4f6c00000000000000000000000000000000000000000000000000000000145b806105e057506001600160e01b031982167f2a55205a00000000000000000000000000000000000000000000000000000000145b92915050565b6008546040805163cdcd7fb560e01b8152905133926001600160a01b03169163cdcd7fb59160048083019260209291908290030181865afa15801561062f573d6000803e3d6000fd5b505050506040513d601f19601f820116820180604052508101906106539190612a4b565b6001600160a01b0316146106c35760405162461bcd60e51b815260206004820152602c60248201527f41636365737369626c653a2063616c6c6572206973206e6f742074686520706c60448201526b30ba3337b9369030b236b4b760a11b60648201526084015b60405180910390fd5b600e6106cf8282612af0565b5050565b600c5460085460405162e4decd60e31b81526004810183905233916001600160a01b031690630726f66890602401602060405180830381865afa15801561071e573d6000803e3d6000fd5b505050506040513d601f19601f820116820180604052508101906107429190612a4b565b6001600160a01b0316146107a45760405162461bcd60e51b8152602060048201526024808201527f4f776e61626c653a2063616c6c6572206973206e6f742074686520746c64206f6044820152633bb732b960e11b60648201526084016106ba565b6107ae83836116e6565b505050565b6060600080546107c290612a68565b80601f01602080910402602001604051908101604052809291908181526020018280546107ee90612a68565b801561083b5780601f106108105761010080835404028352916020019161083b565b820191906000526020600020905b81548152906001019060200180831161081e57829003601f168201915b5050505050905090565b6000610850826117ed565b506000908152600460205260409020546001600160a01b031690565b600061087782611851565b9050806001600160a01b0316836001600160a01b0316036109005760405162461bcd60e51b815260206004820152602160248201527f4552433732313a20617070726f76616c20746f2063757272656e74206f776e6560448201527f720000000000000000000000000000000000000000000000000000000000000060648201526084016106ba565b336001600160a01b038216148061091c575061091c81336104c1565b61098e5760405162461bcd60e51b815260206004820152603d60248201527f4552433732313a20617070726f76652063616c6c6572206973206e6f7420746f60448201527f6b656e206f776e6572206f7220617070726f76656420666f7220616c6c00000060648201526084016106ba565b6107ae83836118b6565b60006109a78484846000611931565b949350505050565b6109b93382611bfd565b610a155760405162461bcd60e51b815260206004820152602760248201527f4552433732313a2063616c6c6572206973206e6f7420617070726f766564206f604482015266391037bbb732b960c91b60648201526084016106ba565b610a20838383611c78565b600a54600b546040516306ab592360e01b81526004810191909152602481018390526001600160a01b038481166044830152909116906306ab5923906064016020604051808303816000875af1158015610a7e573d6000803e3d6000fd5b505050506040513d601f19601f82011682018060405250810190610aa29190612bb0565b50505050565b600a54600b546040516302571be360e01b8152600481019190915230916001600160a01b0316906302571be390602401602060405180830381865afa158015610af5573d6000803e3d6000fd5b505050506040513d601f19601f82011682018060405250810190610b199190612a4b565b6001600160a01b031614610b2c57600080fd5b610b363383611bfd565b610b3f57600080fd5b600a54600b546040516306ab592360e01b81526004810191909152602481018490526001600160a01b038381166044830152909116906306ab5923906064016020604051808303816000875af1158015610b9d573d6000803e3d6000fd5b505050506040513d601f19601f820116820180604052508101906107ae9190612bb0565b60008281526007602090815260408083208151808301909252546001600160a01b038116808352600160a01b9091046bffffffffffffffffffffffff16928201929092528291610c405750604080518082019091526006546001600160a01b0381168252600160a01b90046bffffffffffffffffffffffff1660208201525b602081015160009061271090610c64906bffffffffffffffffffffffff1687612bdf565b610c6e9190612bf6565b915196919550909350505050565b600d8054610c8990612a68565b80601f0160208091040260200160405190810160405280929190818152602001828054610cb590612a68565b8015610d025780601f10610cd757610100808354040283529160200191610d02565b820191906000526020600020905b815481529060010190602001808311610ce557829003601f168201915b505050505081565b6107ae8383836040518060200160405280600081525061122a565b6008546040805163cdcd7fb560e01b8152905133926001600160a01b03169163cdcd7fb59160048083019260209291908290030181865afa158015610d6e573d6000803e3d6000fd5b505050506040513d601f19601f82011682018060405250810190610d929190612a4b565b6001600160a01b031614610dfd5760405162461bcd60e51b815260206004820152602c60248201527f41636365737369626c653a2063616c6c6572206973206e6f742074686520706c60448201526b30ba3337b9369030b236b4b760a11b60648201526084016106ba565b600a54600b546040517f1896f70a00000000000000000000000000000000000000000000000000000000815260048101919091526001600160a01b03838116602483015290911690631896f70a90604401600060405180830381600087803b158015610e6857600080fd5b505af1158015610e7c573d6000803e3d6000fd5b5050505050565b600c5460085460405162e4decd60e31b81526004810183905233916001600160a01b031690630726f66890602401602060405180830381865afa158015610ece573d6000803e3d6000fd5b505050506040513d601f19601f82011682018060405250810190610ef29190612a4b565b6001600160a01b031614610f545760405162461bcd60e51b8152602060048201526024808201527f4f776e61626c653a2063616c6c6572206973206e6f742074686520746c64206f6044820152633bb732b960e11b60648201526084016106ba565b610aa2848484611e7e565b6000818152600960205260408120544210610f7957600080fd5b6105e082611851565b60006001600160a01b0382166110005760405162461bcd60e51b815260206004820152602960248201527f4552433732313a2061646472657373207a65726f206973206e6f74206120766160448201527f6c6964206f776e6572000000000000000000000000000000000000000000000060648201526084016106ba565b506001600160a01b031660009081526003602052604090205490565b600c5460085460405162e4decd60e31b81526004810183905233916001600160a01b031690630726f66890602401602060405180830381865afa158015611067573d6000803e3d6000fd5b505050506040513d601f19601f8201168201806040525081019061108b9190612a4b565b6001600160a01b0316146110ed5760405162461bcd60e51b8152602060048201526024808201527f4f776e61626c653a2063616c6c6572206973206e6f742074686520746c64206f6044820152633bb732b960e11b60648201526084016106ba565b50600090815260076020526040812055565b6060600180546107c290612a68565b600081815260096020526040812054429061112d906276a70090612c18565b1092915050565b600e8054610c8990612a68565b6106cf338383611f96565b600c5460085460405162e4decd60e31b81526004810183905233916001600160a01b031690630726f66890602401602060405180830381865afa158015611197573d6000803e3d6000fd5b505050506040513d601f19601f820116820180604052508101906111bb9190612a4b565b6001600160a01b03161461121d5760405162461bcd60e51b8152602060048201526024808201527f4f776e61626c653a2063616c6c6572206973206e6f742074686520746c64206f6044820152633bb732b960e11b60648201526084016106ba565b6112276000600655565b50565b6112343383611bfd565b6112905760405162461bcd60e51b815260206004820152602760248201527f4552433732313a2063616c6c6572206973206e6f7420617070726f766564206f604482015266391037bbb732b960c91b60648201526084016106ba565b61129c84848484612064565b600a54600b546040516306ab592360e01b81526004810191909152602481018490526001600160a01b038581166044830152909116906306ab5923906064016020604051808303816000875af11580156112fa573d6000803e3d6000fd5b505050506040513d601f19601f82011682018060405250810190610e7c9190612bb0565b600a54600b546040516302571be360e01b8152600481019190915260009130916001600160a01b03909116906302571be390602401602060405180830381865afa158015611370573d6000803e3d6000fd5b505050506040513d601f19601f820116820180604052508101906113949190612a4b565b6001600160a01b0316146113a757600080fd5b6008546040805163f340041960e01b8152905133926001600160a01b03169163f34004199160048083019260209291908290030181865afa1580156113f0573d6000803e3d6000fd5b505050506040513d601f19601f820116820180604052508101906114149190612a4b565b6001600160a01b03161461147f5760405162461bcd60e51b815260206004820152602c60248201527f41636365737369626c653a2063616c6c6572206973206e6f742074686520746c60448201526b321031b7b73a3937b63632b960a11b60648201526084016106ba565b600083815260096020526040902054429061149e906276a70090612c18565b10156114a957600080fd5b6114b66276a70083612c18565b6000848152600960205260409020546276a700906114d5908590612c18565b6114df9190612c18565b116114e957600080fd5b60008381526009602052604081208054849290611507908490612c18565b90915550506000838152600960205260409081902054905184917f9b87a00e30f1ac65d898f070f8a3488fe60517182d0a2098e1b4b93a54aa9bd69161154f91815260200190565b60405180910390a2505060009081526009602052604090205490565b6000818152600260205260409020546060906001600160a01b03166115f85760405162461bcd60e51b815260206004820152602f60248201527f4552433732314d657461646174613a2055524920717565727920666f72206e6f60448201527f6e6578697374656e7420746f6b656e000000000000000000000000000000000060648201526084016106ba565b6000600e805461160790612a68565b80601f016020809104026020016040519081016040528092919081815260200182805461163390612a68565b80156116805780601f1061165557610100808354040283529160200191611680565b820191906000526020600020905b81548152906001019060200180831161166357829003601f168201915b5050505050905060008151116116a557604051806020016040528060008152506116d0565b806116af846120ed565b6040516020016116c0929190612c2b565b6040516020818303038152906040525b9392505050565b60006109a78484846001611931565b6127106bffffffffffffffffffffffff821611156117595760405162461bcd60e51b815260206004820152602a60248201527f455243323938313a20726f79616c7479206665652077696c6c206578636565646044820152692073616c65507269636560b01b60648201526084016106ba565b6001600160a01b0382166117af5760405162461bcd60e51b815260206004820152601960248201527f455243323938313a20696e76616c69642072656365697665720000000000000060448201526064016106ba565b604080518082019091526001600160a01b039092168083526bffffffffffffffffffffffff9091166020909201829052600160a01b90910217600655565b6000818152600260205260409020546001600160a01b03166112275760405162461bcd60e51b815260206004820152601860248201527f4552433732313a20696e76616c696420746f6b656e204944000000000000000060448201526064016106ba565b6000818152600260205260408120546001600160a01b0316806105e05760405162461bcd60e51b815260206004820152601860248201527f4552433732313a20696e76616c696420746f6b656e204944000000000000000060448201526064016106ba565b6000818152600460205260409020805473ffffffffffffffffffffffffffffffffffffffff19166001600160a01b03841690811790915581906118f882611851565b6001600160a01b03167f8c5be1e5ebec7d5bd14f71427d1e84f3dd0314c0f7b2291e5b200ac8c7c3b92560405160405180910390a45050565b600a54600b546040516302571be360e01b8152600481019190915260009130916001600160a01b03909116906302571be390602401602060405180830381865afa158015611983573d6000803e3d6000fd5b505050506040513d601f19601f820116820180604052508101906119a79190612a4b565b6001600160a01b0316146119ba57600080fd5b6008546040805163f340041960e01b8152905133926001600160a01b03169163f34004199160048083019260209291908290030181865afa158015611a03573d6000803e3d6000fd5b505050506040513d601f19601f82011682018060405250810190611a279190612a4b565b6001600160a01b031614611a925760405162461bcd60e51b815260206004820152602c60248201527f41636365737369626c653a2063616c6c6572206973206e6f742074686520746c60448201526b321031b7b73a3937b63632b960a11b60648201526084016106ba565b611a9b8561110e565b611aa457600080fd5b611ab16276a70042612c18565b6276a700611abf8542612c18565b611ac99190612c18565b11611ad357600080fd5b611add8342612c18565b6000868152600960209081526040808320939093556002905220546001600160a01b031615611b0f57611b0f8561218d565b611b1984866121ab565b8115611ba357600a54600b546040516306ab592360e01b81526004810191909152602481018790526001600160a01b038681166044830152909116906306ab5923906064016020604051808303816000875af1158015611b7d573d6000803e3d6000fd5b505050506040513d601f19601f82011682018060405250810190611ba19190612bb0565b505b6001600160a01b038416857fb3d987963d01b2f68493b4bdb130988f157ea43070d4ad840fee0466ed9370d9611bd98642612c18565b60405190815260200160405180910390a3611bf48342612c18565b95945050505050565b600080611c0983610f5f565b9050806001600160a01b0316846001600160a01b03161480611c445750836001600160a01b0316611c3984610845565b6001600160a01b0316145b806109a757506001600160a01b0380821660009081526005602090815260408083209388168352929052205460ff166109a7565b826001600160a01b0316611c8b82611851565b6001600160a01b031614611cef5760405162461bcd60e51b815260206004820152602560248201527f4552433732313a207472616e736665722066726f6d20696e636f72726563742060448201526437bbb732b960d91b60648201526084016106ba565b6001600160a01b038216611d6a5760405162461bcd60e51b8152602060048201526024808201527f4552433732313a207472616e7366657220746f20746865207a65726f2061646460448201527f726573730000000000000000000000000000000000000000000000000000000060648201526084016106ba565b826001600160a01b0316611d7d82611851565b6001600160a01b031614611de15760405162461bcd60e51b815260206004820152602560248201527f4552433732313a207472616e736665722066726f6d20696e636f72726563742060448201526437bbb732b960d91b60648201526084016106ba565b6000818152600460209081526040808320805473ffffffffffffffffffffffffffffffffffffffff199081169091556001600160a01b0387811680865260038552838620805460001901905590871680865283862080546001019055868652600290945282852080549092168417909155905184937fddf252ad1be2c89b69c2b068fc378daa952ba7f163c4a11628f55a4df523b3ef91a4505050565b6127106bffffffffffffffffffffffff82161115611ef15760405162461bcd60e51b815260206004820152602a60248201527f455243323938313a20726f79616c7479206665652077696c6c206578636565646044820152692073616c65507269636560b01b60648201526084016106ba565b6001600160a01b038216611f475760405162461bcd60e51b815260206004820152601b60248201527f455243323938313a20496e76616c696420706172616d6574657273000000000060448201526064016106ba565b6040805180820182526001600160a01b0393841681526bffffffffffffffffffffffff92831660208083019182526000968752600790529190942093519051909116600160a01b029116179055565b816001600160a01b0316836001600160a01b031603611ff75760405162461bcd60e51b815260206004820152601960248201527f4552433732313a20617070726f766520746f2063616c6c65720000000000000060448201526064016106ba565b6001600160a01b03838116600081815260056020908152604080832094871680845294825291829020805460ff191686151590811790915591519182527f17307eab39ab6107e8899845ad3d59bd9653f200f220920489ca2b5937696c31910160405180910390a3505050565b61206f848484611c78565b61207b848484846121ca565b610aa25760405162461bcd60e51b815260206004820152603260248201527f4552433732313a207472616e7366657220746f206e6f6e20455243373231526560448201527f63656976657220696d706c656d656e746572000000000000000000000000000060648201526084016106ba565b606060006120fa8361231e565b600101905060008167ffffffffffffffff81111561211a5761211a61266d565b6040519080825280601f01601f191660200182016040528015612144576020820181803683370190505b5090508181016020015b600019017f3031323334353637383961626364656600000000000000000000000000000000600a86061a8153600a850494508461214e57509392505050565b61219681612400565b6001600f546121a59190612c5a565b600f5550565b6121b582826124a2565b600f546121c3906001612c18565b600f555050565b60006001600160a01b0384163b1561231657604051630a85bd0160e11b81526001600160a01b0385169063150b7a029061220e903390899088908890600401612c6d565b6020604051808303816000875af1925050508015612249575060408051601f3d908101601f1916820190925261224691810190612ca9565b60015b6122fc573d808015612277576040519150601f19603f3d011682016040523d82523d6000602084013e61227c565b606091505b5080516000036122f45760405162461bcd60e51b815260206004820152603260248201527f4552433732313a207472616e7366657220746f206e6f6e20455243373231526560448201527f63656976657220696d706c656d656e746572000000000000000000000000000060648201526084016106ba565b805181602001fd5b6001600160e01b031916630a85bd0160e11b1490506109a7565b5060016109a7565b6000807a184f03e93ff9f4daa797ed6e38ed64bf6a1f0100000000000000008310612367577a184f03e93ff9f4daa797ed6e38ed64bf6a1f010000000000000000830492506040015b6d04ee2d6d415b85acef81000000008310612393576d04ee2d6d415b85acef8100000000830492506020015b662386f26fc1000083106123b157662386f26fc10000830492506010015b6305f5e10083106123c9576305f5e100830492506008015b61271083106123dd57612710830492506004015b606483106123ef576064830492506002015b600a83106105e05760010192915050565b600061240b82611851565b905061241682611851565b6000838152600460209081526040808320805473ffffffffffffffffffffffffffffffffffffffff199081169091556001600160a01b0385168085526003845282852080546000190190558785526002909352818420805490911690555192935084927fddf252ad1be2c89b69c2b068fc378daa952ba7f163c4a11628f55a4df523b3ef908390a45050565b6001600160a01b0382166124f85760405162461bcd60e51b815260206004820181905260248201527f4552433732313a206d696e7420746f20746865207a65726f206164647265737360448201526064016106ba565b6000818152600260205260409020546001600160a01b03161561255d5760405162461bcd60e51b815260206004820152601c60248201527f4552433732313a20746f6b656e20616c7265616479206d696e7465640000000060448201526064016106ba565b6000818152600260205260409020546001600160a01b0316156125c25760405162461bcd60e51b815260206004820152601c60248201527f4552433732313a20746f6b656e20616c7265616479206d696e7465640000000060448201526064016106ba565b6001600160a01b0382166000818152600360209081526040808320805460010190558483526002909152808220805473ffffffffffffffffffffffffffffffffffffffff19168417905551839291907fddf252ad1be2c89b69c2b068fc378daa952ba7f163c4a11628f55a4df523b3ef908290a45050565b6001600160e01b03198116811461122757600080fd5b60006020828403121561266257600080fd5b81356116d08161263a565b634e487b7160e01b600052604160045260246000fd5b600067ffffffffffffffff8084111561269e5761269e61266d565b604051601f8501601f19908116603f011681019082821181831017156126c6576126c661266d565b816040528093508581528686860111156126df57600080fd5b858560208301376000602087830101525050509392505050565b60006020828403121561270b57600080fd5b813567ffffffffffffffff81111561272257600080fd5b8201601f8101841361273357600080fd5b6109a784823560208401612683565b6001600160a01b038116811461122757600080fd5b80356bffffffffffffffffffffffff8116811461277357600080fd5b919050565b6000806040838503121561278b57600080fd5b823561279681612742565b91506127a460208401612757565b90509250929050565b60005b838110156127c85781810151838201526020016127b0565b50506000910152565b600081518084526127e98160208601602086016127ad565b601f01601f19169290920160200192915050565b6020815260006116d060208301846127d1565b60006020828403121561282257600080fd5b5035919050565b6000806040838503121561283c57600080fd5b823561284781612742565b946020939093013593505050565b60008060006060848603121561286a57600080fd5b83359250602084013561287c81612742565b929592945050506040919091013590565b6000806000606084860312156128a257600080fd5b83356128ad81612742565b9250602084013561287c81612742565b600080604083850312156128d057600080fd5b8235915060208301356128e281612742565b809150509250929050565b6000806040838503121561290057600080fd5b50508035926020909101359150565b60006020828403121561292157600080fd5b81356116d081612742565b60008060006060848603121561294157600080fd5b83359250602084013561295381612742565b915061296160408501612757565b90509250925092565b6000806040838503121561297d57600080fd5b823561298881612742565b9150602083013580151581146128e257600080fd5b600080600080608085870312156129b357600080fd5b84356129be81612742565b935060208501356129ce81612742565b925060408501359150606085013567ffffffffffffffff8111156129f157600080fd5b8501601f81018713612a0257600080fd5b612a1187823560208401612683565b91505092959194509250565b60008060408385031215612a3057600080fd5b8235612a3b81612742565b915060208301356128e281612742565b600060208284031215612a5d57600080fd5b81516116d081612742565b600181811c90821680612a7c57607f821691505b602082108103612a9c57634e487b7160e01b600052602260045260246000fd5b50919050565b601f8211156107ae57600081815260208120601f850160051c81016020861015612ac95750805b601f850160051c820191505b81811015612ae857828155600101612ad5565b505050505050565b815167ffffffffffffffff811115612b0a57612b0a61266d565b612b1e81612b188454612a68565b84612aa2565b602080601f831160018114612b535760008415612b3b5750858301515b600019600386901b1c1916600185901b178555612ae8565b600085815260208120601f198616915b82811015612b8257888601518255948401946001909101908401612b63565b5085821015612ba05787850151600019600388901b60f8161c191681555b5050505050600190811b01905550565b600060208284031215612bc257600080fd5b5051919050565b634e487b7160e01b600052601160045260246000fd5b80820281158282048414176105e0576105e0612bc9565b600082612c1357634e487b7160e01b600052601260045260246000fd5b500490565b808201808211156105e0576105e0612bc9565b60008351612c3d8184602088016127ad565b835190830190612c518183602088016127ad565b01949350505050565b818103818111156105e0576105e0612bc9565b60006001600160a01b03808716835280861660208401525083604083015260806060830152612c9f60808301846127d1565b9695505050505050565b600060208284031215612cbb57600080fd5b81516116d08161263a56fea26469706673582212204480479902545b2e62d2f5f236e6e534648778e80029174a86407e996b7dc1e864736f6c63430008120033a26469706673582212202fb9cc4a120bdf71c1398560d6ed3e77589d4436e7821f958e3488147ac8d1b564736f6c63430008120033",
  "linkReferences": {},
  "deployedLinkReferences": {}
}