{
  "_format": "hh-sol-artifact-1",
  "contractName": "DummyTldAccessableImpl",
  "sourceName": "test/access/mocks/DummyTldAccessableImpl.sol",
  "abi": [
    {
      "inputs": [
        {
          "internalType": "contract ISANN",
          "name": "_sann",
          "type": "address"
        }
      ],
      "stateMutability": "nonpayable",
      "type": "constructor"
    },
    {
      "inputs": [],
      "name": "sann",
      "outputs": [
        {
          "internalType": "contract ISANN",
          "name": "",
          "type": "address"
        }
      ],
      "stateMutability": "view",
      "type": "function"
    },
    {
      "inputs": [],
      "name": "testOnlyFactory",
      "outputs": [
        {
          "internalType": "bool",
          "name": "",
          "type": "bool"
        }
      ],
      "stateMutability": "view",
      "type": "function"
    },
    {
      "inputs": [],
      "name": "testOnlyPlatformAdmin",
      "outputs": [
        {
          "internalType": "bool",
          "name": "",
          "type": "bool"
        }
      ],
      "stateMutability": "view",
      "type": "function"
    },
    {
      "inputs": [],
      "name": "testOnlyTldController",
      "outputs": [
        {
          "internalType": "bool",
          "name": "",
          "type": "bool"
        }
      ],
      "stateMutability": "view",
      "type": "function"
    },
    {
      "inputs": [
        {
          "internalType": "uint256",
          "name": "identifier",
          "type": "uint256"
        }
      ],
      "name": "testOnlyTldOwner",
      "outputs": [
        {
          "internalType": "bool",
          "name": "",
          "type": "bool"
        }
      ],
      "stateMutability": "view",
      "type": "function"
    }
  ],
  "bytecode": "0x608060405234801561001057600080fd5b5060405161054438038061054483398101604081905261002f91610054565b600080546001600160a01b0319166001600160a01b0392909216919091179055610084565b60006020828403121561006657600080fd5b81516001600160a01b038116811461007d57600080fd5b9392505050565b6104b1806100936000396000f3fe608060405234801561001057600080fd5b50600436106100575760003560e01c80632c8f02e21461005c5780634c24077814610079578063d46da38714610081578063df9731b6146100ac578063f218d57f146100b4575b600080fd5b6100646100c7565b60405190151581526020015b60405180910390f35b6100646101a4565b600054610094906001600160a01b031681565b6040516001600160a01b039091168152602001610070565b61006461027d565b6100646100c2366004610432565b610356565b6000805460408051636a0dfac160e01b8152905133926001600160a01b031691636a0dfac19160048083019260209291908290030181865afa158015610111573d6000803e3d6000fd5b505050506040513d601f19601f82011682018060405250810190610135919061044b565b6001600160a01b03161461019e5760405162461bcd60e51b815260206004820152602560248201527f41636365737369626c653a2063616c6c6572206973206e6f742074686520666160448201526463746f727960d81b60648201526084015b60405180910390fd5b50600190565b600080546040805163f340041960e01b8152905133926001600160a01b03169163f34004199160048083019260209291908290030181865afa1580156101ee573d6000803e3d6000fd5b505050506040513d601f19601f82011682018060405250810190610212919061044b565b6001600160a01b03161461019e5760405162461bcd60e51b815260206004820152602c60248201527f41636365737369626c653a2063616c6c6572206973206e6f742074686520746c60448201526b321031b7b73a3937b63632b960a11b6064820152608401610195565b600080546040805163cdcd7fb560e01b8152905133926001600160a01b03169163cdcd7fb59160048083019260209291908290030181865afa1580156102c7573d6000803e3d6000fd5b505050506040513d601f19601f820116820180604052508101906102eb919061044b565b6001600160a01b03161461019e5760405162461bcd60e51b815260206004820152602c60248201527f41636365737369626c653a2063616c6c6572206973206e6f742074686520706c60448201526b30ba3337b9369030b236b4b760a11b6064820152608401610195565b6000805460405162e4decd60e31b815260048101849052839133916001600160a01b0390911690630726f66890602401602060405180830381865afa1580156103a3573d6000803e3d6000fd5b505050506040513d601f19601f820116820180604052508101906103c7919061044b565b6001600160a01b0316146104295760405162461bcd60e51b8152602060048201526024808201527f4f776e61626c653a2063616c6c6572206973206e6f742074686520746c64206f6044820152633bb732b960e11b6064820152608401610195565b50600192915050565b60006020828403121561044457600080fd5b5035919050565b60006020828403121561045d57600080fd5b81516001600160a01b038116811461047457600080fd5b939250505056fea26469706673582212203fba2ccb659d2f7a5cd040b958ef77a832b05422234ee0324bd969b8aa81e3b364736f6c63430008120033",
  "linkReferences": {},
  "deployedLinkReferences": {}
}