{
  "_format": "hh-sol-artifact-1",
  "contractName": "DummyNameWrapper",
  "sourceName": "contracts/resolvers/mocks/DummyNameWrapper.sol",
  "abi": [
    {
      "inputs": [
        {
          "internalType": "uint256",
          "name": "",
          "type": "uint256"
        }
      ],
      "name": "ownerOf",
      "outputs": [
        {
          "internalType": "address",
          "name": "",
          "type": "address"
        }
      ],
      "stateMutability": "view",
      "type": "function"
    }
  ],
  "bytecode": "0x6080604052348015600f57600080fd5b5060a78061001e6000396000f3fe6080604052348015600f57600080fd5b506004361060285760003560e01c80636352211e14602d575b600080fd5b603d60383660046059565b503290565b6040516001600160a01b03909116815260200160405180910390f35b600060208284031215606a57600080fd5b503591905056fea2646970667358221220011e8fb1db3c599249b43381fbb8b8b74027abbedffa62151ca47a2a3f3317be64736f6c63430008120033",
  "linkReferences": {},
  "deployedLinkReferences": {}
}