{
  "_format": "hh-sol-artifact-1",
  "contractName": "DefaultDiscountHook",
  "sourceName": "contracts/hook/DefaultDiscountHook.sol",
  "abi": [
    {
      "inputs": [
        {
          "internalType": "contract ISANN",
          "name": "_sann",
          "type": "address"
        },
        {
          "internalType": "uint256",
          "name": "_identifier",
          "type": "uint256"
        },
        {
          "internalType": "contract PreRegistrationState",
          "name": "_state",
          "type": "address"
        },
        {
          "internalType": "contract IPlatformConfig",
          "name": "_config",
          "type": "address"
        },
        {
          "internalType": "contract GiftCardLedger",
          "name": "_ledger",
          "type": "address"
        },
        {
          "internalType": "contract IPriceOracle",
          "name": "_priceOracle",
          "type": "address"
        },
        {
          "internalType": "uint16[]",
          "name": "_preRegiDiscountRateBps",
          "type": "uint16[]"
        },
        {
          "internalType": "uint256",
          "name": "_publicRegistrationStartTime",
          "type": "uint256"
        }
      ],
      "stateMutability": "nonpayable",
      "type": "constructor"
    },
    {
      "inputs": [],
      "name": "PublicRegistrationStarted",
      "type": "error"
    },
    {
      "anonymous": false,
      "inputs": [
        {
          "indexed": false,
          "internalType": "uint256",
          "name": "identifier",
          "type": "uint256"
        },
        {
          "indexed": false,
          "internalType": "uint8",
          "name": "letter",
          "type": "uint8"
        },
        {
          "indexed": false,
          "internalType": "uint16",
          "name": "discountRateBps",
          "type": "uint16"
        }
      ],
      "name": "SetPreRegiDiscountRateBps",
      "type": "event"
    },
    {
      "anonymous": false,
      "inputs": [
        {
          "indexed": false,
          "internalType": "uint256",
          "name": "identifier",
          "type": "uint256"
        },
        {
          "indexed": false,
          "internalType": "uint256",
          "name": "startTime",
          "type": "uint256"
        }
      ],
      "name": "SetPublicRegistrationStartTime",
      "type": "event"
    },
    {
      "inputs": [],
      "name": "MAX_RATE_BPS",
      "outputs": [
        {
          "internalType": "uint256",
          "name": "",
          "type": "uint256"
        }
      ],
      "stateMutability": "view",
      "type": "function"
    },
    {
      "inputs": [
        {
          "internalType": "uint256",
          "name": "_identifier",
          "type": "uint256"
        },
        {
          "internalType": "string",
          "name": "_name",
          "type": "string"
        },
        {
          "internalType": "address",
          "name": "_buyer",
          "type": "address"
        },
        {
          "internalType": "uint256",
          "name": "_duration",
          "type": "uint256"
        },
        {
          "internalType": "uint256",
          "name": "_cost",
          "type": "uint256"
        },
        {
          "internalType": "uint256",
          "name": "_platformFee",
          "type": "uint256"
        },
        {
          "internalType": "bytes",
          "name": "_extraData",
          "type": "bytes"
        }
      ],
      "name": "calcDeduction",
      "outputs": [
        {
          "internalType": "uint256",
          "name": "_discount",
          "type": "uint256"
        },
        {
          "internalType": "uint256",
          "name": "_deductible",
          "type": "uint256"
        }
      ],
      "stateMutability": "view",
      "type": "function"
    },
    {
      "inputs": [
        {
          "internalType": "uint256",
          "name": "_identifier",
          "type": "uint256"
        },
        {
          "internalType": "string",
          "name": "_name",
          "type": "string"
        },
        {
          "internalType": "address",
          "name": "_buyer",
          "type": "address"
        },
        {
          "internalType": "uint256",
          "name": "_duration",
          "type": "uint256"
        },
        {
          "internalType": "uint256",
          "name": "_cost",
          "type": "uint256"
        },
        {
          "internalType": "bytes",
          "name": "_extraData",
          "type": "bytes"
        }
      ],
      "name": "calcNewPrice",
      "outputs": [
        {
          "internalType": "uint256",
          "name": "",
          "type": "uint256"
        }
      ],
      "stateMutability": "view",
      "type": "function"
    },
    {
      "inputs": [
        {
          "internalType": "uint256",
          "name": "_identifier",
          "type": "uint256"
        },
        {
          "internalType": "string",
          "name": "_name",
          "type": "string"
        },
        {
          "internalType": "address",
          "name": "_buyer",
          "type": "address"
        },
        {
          "internalType": "uint256",
          "name": "_duration",
          "type": "uint256"
        },
        {
          "internalType": "uint256",
          "name": "_cost",
          "type": "uint256"
        },
        {
          "internalType": "uint256",
          "name": "_platformFee",
          "type": "uint256"
        },
        {
          "internalType": "bytes",
          "name": "_extraData",
          "type": "bytes"
        }
      ],
      "name": "calcRenewDeduction",
      "outputs": [
        {
          "internalType": "uint256",
          "name": "_discount",
          "type": "uint256"
        },
        {
          "internalType": "uint256",
          "name": "_deductible",
          "type": "uint256"
        }
      ],
      "stateMutability": "view",
      "type": "function"
    },
    {
      "inputs": [
        {
          "internalType": "uint256",
          "name": "_identifier",
          "type": "uint256"
        },
        {
          "internalType": "string",
          "name": "_name",
          "type": "string"
        },
        {
          "internalType": "address",
          "name": "_buyer",
          "type": "address"
        },
        {
          "internalType": "uint256",
          "name": "_duration",
          "type": "uint256"
        },
        {
          "internalType": "uint256",
          "name": "_cost",
          "type": "uint256"
        },
        {
          "internalType": "bytes",
          "name": "_extraData",
          "type": "bytes"
        }
      ],
      "name": "calcRenewNewPrice",
      "outputs": [
        {
          "internalType": "uint256",
          "name": "",
          "type": "uint256"
        }
      ],
      "stateMutability": "view",
      "type": "function"
    },
    {
      "inputs": [
        {
          "internalType": "uint256",
          "name": "_identifier",
          "type": "uint256"
        },
        {
          "internalType": "string",
          "name": "_name",
          "type": "string"
        },
        {
          "internalType": "address",
          "name": "_buyer",
          "type": "address"
        },
        {
          "internalType": "uint256",
          "name": "_duration",
          "type": "uint256"
        },
        {
          "internalType": "uint256",
          "name": "_cost",
          "type": "uint256"
        },
        {
          "internalType": "uint256",
          "name": "_platformFee",
          "type": "uint256"
        },
        {
          "internalType": "bytes",
          "name": "_extraData",
          "type": "bytes"
        }
      ],
      "name": "deduct",
      "outputs": [
        {
          "internalType": "uint256",
          "name": "_discount",
          "type": "uint256"
        },
        {
          "internalType": "uint256",
          "name": "_deductible",
          "type": "uint256"
        }
      ],
      "stateMutability": "nonpayable",
      "type": "function"
    },
    {
      "inputs": [
        {
          "internalType": "uint256",
          "name": "_identifier",
          "type": "uint256"
        },
        {
          "internalType": "string",
          "name": "_name",
          "type": "string"
        },
        {
          "internalType": "address",
          "name": "_buyer",
          "type": "address"
        },
        {
          "internalType": "uint256",
          "name": "_duration",
          "type": "uint256"
        },
        {
          "internalType": "uint256",
          "name": "_cost",
          "type": "uint256"
        },
        {
          "internalType": "uint256",
          "name": "_platformFee",
          "type": "uint256"
        },
        {
          "internalType": "bytes",
          "name": "_extraData",
          "type": "bytes"
        }
      ],
      "name": "deductRenew",
      "outputs": [
        {
          "internalType": "uint256",
          "name": "_discount",
          "type": "uint256"
        },
        {
          "internalType": "uint256",
          "name": "_deductible",
          "type": "uint256"
        }
      ],
      "stateMutability": "nonpayable",
      "type": "function"
    },
    {
      "inputs": [],
      "name": "identifier",
      "outputs": [
        {
          "internalType": "uint256",
          "name": "",
          "type": "uint256"
        }
      ],
      "stateMutability": "view",
      "type": "function"
    },
    {
      "inputs": [],
      "name": "ledger",
      "outputs": [
        {
          "internalType": "contract GiftCardLedger",
          "name": "",
          "type": "address"
        }
      ],
      "stateMutability": "view",
      "type": "function"
    },
    {
      "inputs": [
        {
          "internalType": "uint256",
          "name": "_identifier",
          "type": "uint256"
        },
        {
          "internalType": "string",
          "name": "_name",
          "type": "string"
        },
        {
          "internalType": "address",
          "name": "_buyer",
          "type": "address"
        },
        {
          "internalType": "uint256",
          "name": "_duration",
          "type": "uint256"
        },
        {
          "internalType": "uint256",
          "name": "_cost",
          "type": "uint256"
        },
        {
          "internalType": "bytes",
          "name": "_extraData",
          "type": "bytes"
        }
      ],
      "name": "newPrice",
      "outputs": [
        {
          "internalType": "uint256",
          "name": "",
          "type": "uint256"
        }
      ],
      "stateMutability": "nonpayable",
      "type": "function"
    },
    {
      "inputs": [
        {
          "internalType": "uint256",
          "name": "_identifier",
          "type": "uint256"
        },
        {
          "internalType": "string",
          "name": "_name",
          "type": "string"
        },
        {
          "internalType": "address",
          "name": "_buyer",
          "type": "address"
        },
        {
          "internalType": "uint256",
          "name": "_duration",
          "type": "uint256"
        },
        {
          "internalType": "uint256",
          "name": "_cost",
          "type": "uint256"
        },
        {
          "internalType": "bytes",
          "name": "_extraData",
          "type": "bytes"
        }
      ],
      "name": "newRenewPrice",
      "outputs": [
        {
          "internalType": "uint256",
          "name": "",
          "type": "uint256"
        }
      ],
      "stateMutability": "nonpayable",
      "type": "function"
    },
    {
      "inputs": [],
      "name": "platformConfig",
      "outputs": [
        {
          "internalType": "contract IPlatformConfig",
          "name": "",
          "type": "address"
        }
      ],
      "stateMutability": "view",
      "type": "function"
    },
    {
      "inputs": [
        {
          "internalType": "uint8",
          "name": "",
          "type": "uint8"
        }
      ],
      "name": "preRegiDiscountRateBps",
      "outputs": [
        {
          "internalType": "uint16",
          "name": "",
          "type": "uint16"
        }
      ],
      "stateMutability": "view",
      "type": "function"
    },
    {
      "inputs": [],
      "name": "preRegiState",
      "outputs": [
        {
          "internalType": "contract PreRegistrationState",
          "name": "",
          "type": "address"
        }
      ],
      "stateMutability": "view",
      "type": "function"
    },
    {
      "inputs": [],
      "name": "priceOracle",
      "outputs": [
        {
          "internalType": "contract IPriceOracle",
          "name": "",
          "type": "address"
        }
      ],
      "stateMutability": "view",
      "type": "function"
    },
    {
      "inputs": [],
      "name": "publicRegistrationStartTime",
      "outputs": [
        {
          "internalType": "uint256",
          "name": "",
          "type": "uint256"
        }
      ],
      "stateMutability": "view",
      "type": "function"
    },
    {
      "inputs": [],
      "name": "sann",
      "outputs": [
        {
          "internalType": "contract ISANN",
          "name": "",
          "type": "address"
        }
      ],
      "stateMutability": "view",
      "type": "function"
    },
    {
      "inputs": [
        {
          "internalType": "uint8",
          "name": "letter",
          "type": "uint8"
        },
        {
          "internalType": "uint16",
          "name": "rateBps",
          "type": "uint16"
        }
      ],
      "name": "setPreRegiDiscountRateBps",
      "outputs": [],
      "stateMutability": "nonpayable",
      "type": "function"
    },
    {
      "inputs": [
        {
          "internalType": "uint256",
          "name": "_publicRegistrationStartTime",
          "type": "uint256"
        }
      ],
      "name": "setPublicRegistrationStartTime",
      "outputs": [],
      "stateMutability": "nonpayable",
      "type": "function"
    }
  ],
  "bytecode": "0x60a06040523480156200001157600080fd5b506040516200215c3803806200215c83398101604081905262000034916200022d565b600080546001600160a01b03199081166001600160a01b038b811691909117835560808a90526001805483168a8316179055600280548316898316179055600380548316888316179055600480549092169086161790555b82518160ff16101562000196576000838260ff1681518110620000b357620000b362000382565b602002602001015190506127108161ffff161115620001185760405162461bcd60e51b815260206004820152601e60248201527f696e76616c69642070726552656769446973636f756e74526174654270730000604482015260640160405180910390fd5b60ff8216600081815260056020908152604091829020805461ffff191661ffff861690811790915582518d815291820193909352908101919091527fe3d1f707b794bd5924e6453b500039ba267587f55f8945a88def871cad84c6cb9060600160405180910390a150806200018d8162000398565b9150506200008c565b50600681905560805160408051918252602082018390527f7209932ed961cda2151a57a4ad04f2fba1ce7dd5f0ebedc991802aa16dd97a1f910160405180910390a15050505050505050620003c6565b6001600160a01b0381168114620001fc57600080fd5b50565b634e487b7160e01b600052604160045260246000fd5b805161ffff811681146200022857600080fd5b919050565b600080600080600080600080610100898b0312156200024b57600080fd5b88516200025881620001e6565b809850506020808a0151975060408a01516200027481620001e6565b60608b01519097506200028781620001e6565b60808b01519096506200029a81620001e6565b60a08b0151909550620002ad81620001e6565b60c08b01519094506001600160401b0380821115620002cb57600080fd5b818c0191508c601f830112620002e057600080fd5b815181811115620002f557620002f5620001ff565b8060051b604051601f19603f830116810181811085821117156200031d576200031d620001ff565b60405291825284820192508381018501918f8311156200033c57600080fd5b938501935b828510156200036557620003558562000215565b8452938501939285019262000341565b80975050505050505060e089015190509295985092959890939650565b634e487b7160e01b600052603260045260246000fd5b600060ff821660ff8103620003bd57634e487b7160e01b600052601160045260246000fd5b60010192915050565b608051611d57620004056000396000818161022001528181610795015281816108f80152818161096b01528181610c2b0152610cf60152611d576000f3fe608060405234801561001057600080fd5b50600436106101515760003560e01c806380fd9d8d116100cd578063bd03fbb811610081578063d023c79c11610066578063d023c79c146102c6578063d46da387146102d9578063e9c95034146102ec57600080fd5b8063bd03fbb8146102a8578063bda8265f146102b157600080fd5b8063a833bb07116100b2578063a833bb0714610255578063b013c3bf14610268578063b0c0c2641461029f57600080fd5b806380fd9d8d1461015657806393ba731b1461024257600080fd5b8063392130da1161012457806356397c351161010957806356397c35146102085780637998a1c41461021b5780637a989b651461024257600080fd5b8063392130da146101e25780634d24e236146101f557600080fd5b80630b6ca897146101565780632630c12f1461017c578063273310e3146101a7578063347652e3146101ba575b600080fd5b610169610164366004611763565b6102ff565b6040519081526020015b60405180910390f35b60045461018f906001600160a01b031681565b6040516001600160a01b039091168152602001610173565b60015461018f906001600160a01b031681565b6101cd6101c8366004611804565b610411565b60408051928352602083019190915201610173565b6101cd6101f0366004611804565b61057c565b60025461018f906001600160a01b031681565b60035461018f906001600160a01b031681565b6101697f000000000000000000000000000000000000000000000000000000000000000081565b610169610250366004611763565b6106f7565b6101cd610263366004611804565b610707565b61028c6102763660046118c7565b60056020526000908152604090205461ffff1681565b60405161ffff9091168152602001610173565b61016961271081565b61016960065481565b6102c46102bf3660046118e9565b610784565b005b6102c46102d4366004611927565b61095a565b60005461018f906001600160a01b031681565b6101cd6102fa366004611804565b610c7b565b60008054604080517ff3400419000000000000000000000000000000000000000000000000000000008152905133926001600160a01b03169163f34004199160048083019260209291908290030181865afa158015610362573d6000803e3d6000fd5b505050506040513d601f19601f82011682018060405250810190610386919061194b565b6001600160a01b0316146103f65760405162461bcd60e51b815260206004820152602c60248201527f41636365737369626c653a2063616c6c6572206973206e6f742074686520746c60448201526b321031b7b73a3937b63632b960a11b60648201526084015b60405180910390fd5b610404898989898989610ce5565b9998505050505050505050565b600080336001600160a01b031660008054906101000a90046001600160a01b03166001600160a01b031663f34004196040518163ffffffff1660e01b8152600401602060405180830381865afa15801561046f573d6000803e3d6000fd5b505050506040513d601f19601f82011682018060405250810190610493919061194b565b6001600160a01b0316146104fe5760405162461bcd60e51b815260206004820152602c60248201527f41636365737369626c653a2063616c6c6572206973206e6f742074686520746c60448201526b321031b7b73a3937b63632b960a11b60648201526084016103ed565b6000831561054357600061051485870187611a56565b60408101515190915015610541576000816040015180602001905181019061053c9190611b3f565b519250505b505b60006105548d8d8d8d8d8d88610f7b565b91955093509050801561056c5761056c8a828f610ff4565b5050995099975050505050505050565b600080336001600160a01b031660008054906101000a90046001600160a01b03166001600160a01b031663f34004196040518163ffffffff1660e01b8152600401602060405180830381865afa1580156105da573d6000803e3d6000fd5b505050506040513d601f19601f820116820180604052508101906105fe919061194b565b6001600160a01b0316146106695760405162461bcd60e51b815260206004820152602c60248201527f41636365737369626c653a2063616c6c6572206973206e6f742074686520746c60448201526b321031b7b73a3937b63632b960a11b60648201526084016103ed565b600083156106ae57600061067f85870187611a56565b604081015151909150156106ac57600081604001518060200190518101906106a79190611b3f565b519250505b505b806106c05760008092509250506106e9565b60006106d08d8d8d8d8d8d61107f565b9094509250839050801561056c5761056c8a828f610ff4565b995099975050505050505050565b6000610404898989898989610ce5565b60008080831561074e57600061071f85870187611a56565b6040810151519091501561074c57600081604001518060200190518101906107479190611b3f565b519250505b505b806107605760008092509250506106e9565b60006107708d8d8d8d8d8d61107f565b909e909d509b505050505050505050505050565b60005460405162e4decd60e31b81527f0000000000000000000000000000000000000000000000000000000000000000600482018190529133916001600160a01b0390911690630726f66890602401602060405180830381865afa1580156107f0573d6000803e3d6000fd5b505050506040513d601f19601f82011682018060405250810190610814919061194b565b6001600160a01b0316146108765760405162461bcd60e51b8152602060048201526024808201527f4f776e61626c653a2063616c6c6572206973206e6f742074686520746c64206f6044820152633bb732b960e11b60648201526084016103ed565b6127108261ffff1611156108cc5760405162461bcd60e51b815260206004820152601e60248201527f696e76616c69642070726552656769446973636f756e7452617465427073000060448201526064016103ed565b60ff8316600081815260056020908152604091829020805461ffff191661ffff871690811790915582517f0000000000000000000000000000000000000000000000000000000000000000815291820193909352908101919091527fe3d1f707b794bd5924e6453b500039ba267587f55f8945a88def871cad84c6cb906060015b60405180910390a1505050565b60005460405162e4decd60e31b81527f0000000000000000000000000000000000000000000000000000000000000000600482018190529133916001600160a01b0390911690630726f66890602401602060405180830381865afa1580156109c6573d6000803e3d6000fd5b505050506040513d601f19601f820116820180604052508101906109ea919061194b565b6001600160a01b031614610a4c5760405162461bcd60e51b8152602060048201526024808201527f4f776e61626c653a2063616c6c6572206973206e6f742074686520746c64206f6044820152633bb732b960e11b60648201526084016103ed565b6006544210610a87576040517f397a82ac00000000000000000000000000000000000000000000000000000000815260040160405180910390fd5b814210610afc5760405162461bcd60e51b815260206004820152603860248201527f6e6577207075626c6963526567697374726174696f6e537461727454696d652060448201527f6d7573742062652067726561746572207468616e206e6f77000000000000000060648201526084016103ed565b600154604080517f18969e3c00000000000000000000000000000000000000000000000000000000815290516000926001600160a01b0316916318969e3c9160048083019260209291908290030181865afa158015610b5f573d6000803e3d6000fd5b505050506040513d601f19601f82011682018060405250810190610b839190611b89565b9050828110610c205760405162461bcd60e51b815260206004820152604b60248201527f6e6577207075626c6963526567697374726174696f6e537461727454696d652060448201527f6d7573742062652067726561746572207468616e20707265526567697374726160648201527f74696f6e456e6454696d65000000000000000000000000000000000000000000608482015260a4016103ed565b6006839055604080517f00000000000000000000000000000000000000000000000000000000000000008152602081018590527f7209932ed961cda2151a57a4ad04f2fba1ce7dd5f0ebedc991802aa16dd97a1f910161094d565b600080808315610cc2576000610c9385870187611a56565b60408101515190915015610cc05760008160400151806020019051810190610cbb9190611b3f565b519250505b505b610cd18c8c8c8c8c8c87610f7b565b50909d909c509a5050505050505050505050565b60005460405162e4decd60e31b81527f0000000000000000000000000000000000000000000000000000000000000000600482015282916001600160a01b0386811692911690630726f66890602401602060405180830381865afa158015610d51573d6000803e3d6000fd5b505050506040513d601f19601f82011682018060405250810190610d75919061194b565b6001600160a01b031603610e5057600654421015610e50576001546001600160a01b031615610e4857600154604080517fffeaf35f00000000000000000000000000000000000000000000000000000000815290516000926001600160a01b03169163ffeaf35f9160048083019260209291908290030181865afa158015610e01573d6000803e3d6000fd5b505050506040513d601f19601f82011682018060405250810190610e259190611b89565b9050801580610e3357508042105b15610e42576000915050610f71565b50610e50565b506000610f71565b6001546001600160a01b031615610f7157600160009054906101000a90046001600160a01b03166001600160a01b0316632399bd636040518163ffffffff1660e01b8152600401602060405180830381865afa158015610eb4573d6000803e3d6000fd5b505050506040513d601f19601f82011682018060405250810190610ed89190611ba2565b15610f71576000610f1e87878080601f0160208091040260200160405190810160405280939291908181526020018383808284376000920191909152506111b592505050565b905060058160ff161115610f30575060055b60ff811660009081526005602052604081205461ffff1690612710610f558387611bd3565b610f5f9190611bf0565b9050610f6b8185611c12565b93505050505b9695505050505050565b6000806000610f8e8a8a8a8a8a8a611344565b9093509150828511610fa557508391506000610fe7565b610faf8386611c12565b945060008415610fcd57610fc78b8b8b8b8b8b61107f565b90925090505b610fd78285611c25565b9350610fe38184611c25565b9250505b9750975097945050505050565b6003546040517f698f9585000000000000000000000000000000000000000000000000000000008152600481018390526001600160a01b038581166024830152604482018590529091169063698f958590606401600060405180830381600087803b15801561106257600080fd5b505af1158015611076573d6000803e3d6000fd5b50505050505050565b6003546040517f3656eec2000000000000000000000000000000000000000000000000000000008152600481018890526001600160a01b0385811660248301526000928392839290911690633656eec290604401602060405180830381865afa1580156110f0573d6000803e3d6000fd5b505050506040513d601f19601f820116820180604052508101906111149190611b89565b9050838111156111265783925061112a565b8092505b82156111a9576002546040516338ad915960e01b8152600481018b9052602481018590526000916001600160a01b0316906338ad915990604401602060405180830381865afa158015611181573d6000803e3d6000fd5b505050506040513d601f19601f820116820180604052508101906111a59190611b89565b9250505b50965096945050505050565b8051600090819081905b8082101561133b5760008583815181106111db576111db611c38565b01602001516001600160f81b03191690507f80000000000000000000000000000000000000000000000000000000000000008110156112265761121f600184611c25565b9250611328565b7fe0000000000000000000000000000000000000000000000000000000000000006001600160f81b0319821610156112635761121f600284611c25565b7ff0000000000000000000000000000000000000000000000000000000000000006001600160f81b0319821610156112a05761121f600384611c25565b7ff8000000000000000000000000000000000000000000000000000000000000006001600160f81b0319821610156112dd5761121f600484611c25565b7ffc000000000000000000000000000000000000000000000000000000000000006001600160f81b03198216101561131a5761121f600584611c25565b611325600684611c25565b92505b508261133381611c4e565b9350506111bf565b50909392505050565b60015460009081906001600160a01b0316156116f757600160009054906101000a90046001600160a01b03166001600160a01b0316639efdb7cf6040518163ffffffff1660e01b8152600401602060405180830381865afa1580156113ad573d6000803e3d6000fd5b505050506040513d601f19601f820116820180604052508101906113d19190611ba2565b156116f757600087876040516113e8929190611c67565b6040519081900381206001547f96da43b6000000000000000000000000000000000000000000000000000000008352600483018290529092506000916001600160a01b03909116906396da43b690602401600060405180830381865afa158015611456573d6000803e3d6000fd5b505050506040513d6000823e601f3d908101601f1916820160405261147e9190810190611c77565b50915050866001600160a01b0316816001600160a01b0316036116f4576001546040517f2d3f2b05000000000000000000000000000000000000000000000000000000008152600481018490526001600160a01b0389811660248301526000921690632d3f2b0590604401602060405180830381865afa158015611506573d6000803e3d6000fd5b505050506040513d601f19601f8201168201806040525081019061152a9190611b89565b600480546040517f6c01c8740000000000000000000000000000000000000000000000000000000081529182018390529192506000916001600160a01b031690636c01c87490602401602060405180830381865afa158015611590573d6000803e3d6000fd5b505050506040513d601f19601f820116820180604052508101906115b49190611b89565b6002546040516338ad915960e01b8152600481018f9052602481018390529192506000916001600160a01b03909116906338ad915990604401602060405180830381865afa15801561160a573d6000803e3d6000fd5b505050506040513d601f19601f8201168201806040525081019061162e9190611b89565b905061163a8187611c25565b95505050506000600160009054906101000a90046001600160a01b03166001600160a01b031663888319d66040518163ffffffff1660e01b8152600401602060405180830381865afa158015611694573d6000803e3d6000fd5b505050506040513d601f19601f820116820180604052508101906116b89190611b89565b90508087116116cc578594505050506116f7565b6000876116d98884611bd3565b6116e39190611bf0565b90506116ef8187611c25565b955050505b50505b965096945050505050565b60008083601f84011261171457600080fd5b50813567ffffffffffffffff81111561172c57600080fd5b60208301915083602082850101111561174457600080fd5b9250929050565b6001600160a01b038116811461176057600080fd5b50565b60008060008060008060008060c0898b03121561177f57600080fd5b88359750602089013567ffffffffffffffff8082111561179e57600080fd5b6117aa8c838d01611702565b909950975060408b013591506117bf8261174b565b90955060608a0135945060808a0135935060a08a013590808211156117e357600080fd5b506117f08b828c01611702565b999c989b5096995094979396929594505050565b600080600080600080600080600060e08a8c03121561182257600080fd5b8935985060208a013567ffffffffffffffff8082111561184157600080fd5b61184d8d838e01611702565b909a50985060408c013591506118628261174b565b90965060608b0135955060808b0135945060a08b0135935060c08b0135908082111561188d57600080fd5b5061189a8c828d01611702565b915080935050809150509295985092959850929598565b803560ff811681146118c257600080fd5b919050565b6000602082840312156118d957600080fd5b6118e2826118b1565b9392505050565b600080604083850312156118fc57600080fd5b611905836118b1565b9150602083013561ffff8116811461191c57600080fd5b809150509250929050565b60006020828403121561193957600080fd5b5035919050565b80516118c28161174b565b60006020828403121561195d57600080fd5b81516118e28161174b565b634e487b7160e01b600052604160045260246000fd5b6040516080810167ffffffffffffffff811182821017156119a1576119a1611968565b60405290565b604051601f8201601f1916810167ffffffffffffffff811182821017156119d0576119d0611968565b604052919050565b600067ffffffffffffffff8211156119f2576119f2611968565b50601f01601f191660200190565b600082601f830112611a1157600080fd5b8135611a24611a1f826119d8565b6119a7565b818152846020838601011115611a3957600080fd5b816020850160208301376000918101602001919091529392505050565b600060208284031215611a6857600080fd5b813567ffffffffffffffff80821115611a8057600080fd5b9083019060808286031215611a9457600080fd5b611a9c61197e565b823582811115611aab57600080fd5b611ab787828601611a00565b825250602083013582811115611acc57600080fd5b611ad887828601611a00565b602083015250604083013582811115611af057600080fd5b611afc87828601611a00565b604083015250606083013582811115611b1457600080fd5b611b2087828601611a00565b60608301525095945050505050565b805180151581146118c257600080fd5b600060208284031215611b5157600080fd5b6040516020810181811067ffffffffffffffff82111715611b7457611b74611968565b604052611b8083611b2f565b81529392505050565b600060208284031215611b9b57600080fd5b5051919050565b600060208284031215611bb457600080fd5b6118e282611b2f565b634e487b7160e01b600052601160045260246000fd5b8082028115828204841417611bea57611bea611bbd565b92915050565b600082611c0d57634e487b7160e01b600052601260045260246000fd5b500490565b81810381811115611bea57611bea611bbd565b80820180821115611bea57611bea611bbd565b634e487b7160e01b600052603260045260246000fd5b600060018201611c6057611c60611bbd565b5060010190565b8183823760009101908152919050565b600080600060608486031215611c8c57600080fd5b835167ffffffffffffffff811115611ca357600080fd5b8401601f81018613611cb457600080fd5b8051611cc2611a1f826119d8565b81815260208881848601011115611cd857600080fd5b60005b83811015611cf6578481018201518382018301528101611cdb565b506000818484010152819650611d0d818901611940565b95505050505060408401519050925092509256fea2646970667358221220da87496e7f63269b2048d444cbb1a763036bd58c909514663730b50284659ac264736f6c63430008120033",
  "linkReferences": {},
  "deployedLinkReferences": {}
}