{
  "_format": "hh-sol-artifact-1",
  "contractName": "DefaultDiscountHook",
  "sourceName": "contracts/hook/DefaultDiscountHook.sol",
  "abi": [
    {
      "inputs": [
        {
          "internalType": "contract ISANN",
          "name": "_sann",
          "type": "address"
        },
        {
          "internalType": "uint256",
          "name": "_identifier",
          "type": "uint256"
        },
        {
          "internalType": "contract PreRegistrationState",
          "name": "_state",
          "type": "address"
        },
        {
          "internalType": "contract IPlatformConfig",
          "name": "_config",
          "type": "address"
        },
        {
          "internalType": "contract GiftCardLedger",
          "name": "_ledger",
          "type": "address"
        },
        {
          "internalType": "contract IPriceOracle",
          "name": "_priceOracle",
          "type": "address"
        },
        {
          "internalType": "uint16[]",
          "name": "_preRegiDiscountRateBps",
          "type": "uint16[]"
        },
        {
          "internalType": "uint256",
          "name": "_publicRegistrationStartTime",
          "type": "uint256"
        }
      ],
      "stateMutability": "nonpayable",
      "type": "constructor"
    },
    {
      "inputs": [],
      "name": "PublicRegistrationStarted",
      "type": "error"
    },
    {
      "anonymous": false,
      "inputs": [
        {
          "indexed": false,
          "internalType": "uint256",
          "name": "identifier",
          "type": "uint256"
        },
        {
          "indexed": false,
          "internalType": "uint8",
          "name": "letter",
          "type": "uint8"
        },
        {
          "indexed": false,
          "internalType": "uint16",
          "name": "discountRateBps",
          "type": "uint16"
        }
      ],
      "name": "SetPreRegiDiscountRateBps",
      "type": "event"
    },
    {
      "anonymous": false,
      "inputs": [
        {
          "indexed": false,
          "internalType": "uint256",
          "name": "identifier",
          "type": "uint256"
        },
        {
          "indexed": false,
          "internalType": "uint256",
          "name": "startTime",
          "type": "uint256"
        }
      ],
      "name": "SetPublicRegistrationStartTime",
      "type": "event"
    },
    {
      "inputs": [],
      "name": "MAX_RATE_BPS",
      "outputs": [
        {
          "internalType": "uint256",
          "name": "",
          "type": "uint256"
        }
      ],
      "stateMutability": "view",
      "type": "function"
    },
    {
      "inputs": [
        {
          "internalType": "uint256",
          "name": "_identifier",
          "type": "uint256"
        },
        {
          "internalType": "string",
          "name": "_name",
          "type": "string"
        },
        {
          "internalType": "address",
          "name": "_buyer",
          "type": "address"
        },
        {
          "internalType": "uint256",
          "name": "_duration",
          "type": "uint256"
        },
        {
          "internalType": "uint256",
          "name": "_cost",
          "type": "uint256"
        },
        {
          "internalType": "uint256",
          "name": "_platformFee",
          "type": "uint256"
        },
        {
          "internalType": "bytes",
          "name": "_extraData",
          "type": "bytes"
        }
      ],
      "name": "calcDeduction",
      "outputs": [
        {
          "internalType": "uint256",
          "name": "_discount",
          "type": "uint256"
        },
        {
          "internalType": "uint256",
          "name": "_deductible",
          "type": "uint256"
        }
      ],
      "stateMutability": "view",
      "type": "function"
    },
    {
      "inputs": [
        {
          "internalType": "uint256",
          "name": "_identifier",
          "type": "uint256"
        },
        {
          "internalType": "string",
          "name": "_name",
          "type": "string"
        },
        {
          "internalType": "address",
          "name": "_buyer",
          "type": "address"
        },
        {
          "internalType": "uint256",
          "name": "_duration",
          "type": "uint256"
        },
        {
          "internalType": "uint256",
          "name": "_cost",
          "type": "uint256"
        },
        {
          "internalType": "bytes",
          "name": "_extraData",
          "type": "bytes"
        }
      ],
      "name": "calcNewPrice",
      "outputs": [
        {
          "internalType": "uint256",
          "name": "",
          "type": "uint256"
        }
      ],
      "stateMutability": "view",
      "type": "function"
    },
    {
      "inputs": [
        {
          "internalType": "uint256",
          "name": "_identifier",
          "type": "uint256"
        },
        {
          "internalType": "string",
          "name": "_name",
          "type": "string"
        },
        {
          "internalType": "address",
          "name": "_buyer",
          "type": "address"
        },
        {
          "internalType": "uint256",
          "name": "_duration",
          "type": "uint256"
        },
        {
          "internalType": "uint256",
          "name": "_cost",
          "type": "uint256"
        },
        {
          "internalType": "uint256",
          "name": "_platformFee",
          "type": "uint256"
        },
        {
          "internalType": "bytes",
          "name": "_extraData",
          "type": "bytes"
        }
      ],
      "name": "calcRenewDeduction",
      "outputs": [
        {
          "internalType": "uint256",
          "name": "_discount",
          "type": "uint256"
        },
        {
          "internalType": "uint256",
          "name": "_deductible",
          "type": "uint256"
        }
      ],
      "stateMutability": "view",
      "type": "function"
    },
    {
      "inputs": [
        {
          "internalType": "uint256",
          "name": "_identifier",
          "type": "uint256"
        },
        {
          "internalType": "string",
          "name": "_name",
          "type": "string"
        },
        {
          "internalType": "address",
          "name": "_buyer",
          "type": "address"
        },
        {
          "internalType": "uint256",
          "name": "_duration",
          "type": "uint256"
        },
        {
          "internalType": "uint256",
          "name": "_cost",
          "type": "uint256"
        },
        {
          "internalType": "bytes",
          "name": "_extraData",
          "type": "bytes"
        }
      ],
      "name": "calcRenewNewPrice",
      "outputs": [
        {
          "internalType": "uint256",
          "name": "",
          "type": "uint256"
        }
      ],
      "stateMutability": "view",
      "type": "function"
    },
    {
      "inputs": [
        {
          "internalType": "uint256",
          "name": "_identifier",
          "type": "uint256"
        },
        {
          "internalType": "string",
          "name": "_name",
          "type": "string"
        },
        {
          "internalType": "address",
          "name": "_buyer",
          "type": "address"
        },
        {
          "internalType": "uint256",
          "name": "_duration",
          "type": "uint256"
        },
        {
          "internalType": "uint256",
          "name": "_cost",
          "type": "uint256"
        },
        {
          "internalType": "uint256",
          "name": "_platformFee",
          "type": "uint256"
        },
        {
          "internalType": "bytes",
          "name": "_extraData",
          "type": "bytes"
        }
      ],
      "name": "deduct",
      "outputs": [
        {
          "internalType": "uint256",
          "name": "_discount",
          "type": "uint256"
        },
        {
          "internalType": "uint256",
          "name": "_deductible",
          "type": "uint256"
        }
      ],
      "stateMutability": "nonpayable",
      "type": "function"
    },
    {
      "inputs": [
        {
          "internalType": "uint256",
          "name": "_identifier",
          "type": "uint256"
        },
        {
          "internalType": "string",
          "name": "_name",
          "type": "string"
        },
        {
          "internalType": "address",
          "name": "_buyer",
          "type": "address"
        },
        {
          "internalType": "uint256",
          "name": "_duration",
          "type": "uint256"
        },
        {
          "internalType": "uint256",
          "name": "_cost",
          "type": "uint256"
        },
        {
          "internalType": "uint256",
          "name": "_platformFee",
          "type": "uint256"
        },
        {
          "internalType": "bytes",
          "name": "_extraData",
          "type": "bytes"
        }
      ],
      "name": "deductRenew",
      "outputs": [
        {
          "internalType": "uint256",
          "name": "_discount",
          "type": "uint256"
        },
        {
          "internalType": "uint256",
          "name": "_deductible",
          "type": "uint256"
        }
      ],
      "stateMutability": "nonpayable",
      "type": "function"
    },
    {
      "inputs": [],
      "name": "identifier",
      "outputs": [
        {
          "internalType": "uint256",
          "name": "",
          "type": "uint256"
        }
      ],
      "stateMutability": "view",
      "type": "function"
    },
    {
      "inputs": [],
      "name": "ledger",
      "outputs": [
        {
          "internalType": "contract GiftCardLedger",
          "name": "",
          "type": "address"
        }
      ],
      "stateMutability": "view",
      "type": "function"
    },
    {
      "inputs": [
        {
          "internalType": "uint256",
          "name": "_identifier",
          "type": "uint256"
        },
        {
          "internalType": "string",
          "name": "_name",
          "type": "string"
        },
        {
          "internalType": "address",
          "name": "_buyer",
          "type": "address"
        },
        {
          "internalType": "uint256",
          "name": "_duration",
          "type": "uint256"
        },
        {
          "internalType": "uint256",
          "name": "_cost",
          "type": "uint256"
        },
        {
          "internalType": "bytes",
          "name": "_extraData",
          "type": "bytes"
        }
      ],
      "name": "newPrice",
      "outputs": [
        {
          "internalType": "uint256",
          "name": "",
          "type": "uint256"
        }
      ],
      "stateMutability": "nonpayable",
      "type": "function"
    },
    {
      "inputs": [
        {
          "internalType": "uint256",
          "name": "_identifier",
          "type": "uint256"
        },
        {
          "internalType": "string",
          "name": "_name",
          "type": "string"
        },
        {
          "internalType": "address",
          "name": "_buyer",
          "type": "address"
        },
        {
          "internalType": "uint256",
          "name": "_duration",
          "type": "uint256"
        },
        {
          "internalType": "uint256",
          "name": "_cost",
          "type": "uint256"
        },
        {
          "internalType": "bytes",
          "name": "_extraData",
          "type": "bytes"
        }
      ],
      "name": "newRenewPrice",
      "outputs": [
        {
          "internalType": "uint256",
          "name": "",
          "type": "uint256"
        }
      ],
      "stateMutability": "nonpayable",
      "type": "function"
    },
    {
      "inputs": [],
      "name": "platformConfig",
      "outputs": [
        {
          "internalType": "contract IPlatformConfig",
          "name": "",
          "type": "address"
        }
      ],
      "stateMutability": "view",
      "type": "function"
    },
    {
      "inputs": [
        {
          "internalType": "uint8",
          "name": "",
          "type": "uint8"
        }
      ],
      "name": "preRegiDiscountRateBps",
      "outputs": [
        {
          "internalType": "uint16",
          "name": "",
          "type": "uint16"
        }
      ],
      "stateMutability": "view",
      "type": "function"
    },
    {
      "inputs": [],
      "name": "preRegiState",
      "outputs": [
        {
          "internalType": "contract PreRegistrationState",
          "name": "",
          "type": "address"
        }
      ],
      "stateMutability": "view",
      "type": "function"
    },
    {
      "inputs": [],
      "name": "priceOracle",
      "outputs": [
        {
          "internalType": "contract IPriceOracle",
          "name": "",
          "type": "address"
        }
      ],
      "stateMutability": "view",
      "type": "function"
    },
    {
      "inputs": [],
      "name": "publicRegistrationStartTime",
      "outputs": [
        {
          "internalType": "uint256",
          "name": "",
          "type": "uint256"
        }
      ],
      "stateMutability": "view",
      "type": "function"
    },
    {
      "inputs": [],
      "name": "sann",
      "outputs": [
        {
          "internalType": "contract ISANN",
          "name": "",
          "type": "address"
        }
      ],
      "stateMutability": "view",
      "type": "function"
    },
    {
      "inputs": [
        {
          "internalType": "uint8",
          "name": "letter",
          "type": "uint8"
        },
        {
          "internalType": "uint16",
          "name": "rateBps",
          "type": "uint16"
        }
      ],
      "name": "setPreRegiDiscountRateBps",
      "outputs": [],
      "stateMutability": "nonpayable",
      "type": "function"
    },
    {
      "inputs": [
        {
          "internalType": "uint256",
          "name": "_publicRegistrationStartTime",
          "type": "uint256"
        }
      ],
      "name": "setPublicRegistrationStartTime",
      "outputs": [],
      "stateMutability": "nonpayable",
      "type": "function"
    }
  ],
  "bytecode": "0x60a06040523480156200001157600080fd5b5060405162001efd38038062001efd83398101604081905262000034916200022d565b600080546001600160a01b03199081166001600160a01b038b811691909117835560808a90526001805483168a8316179055600280548316898316179055600380548316888316179055600480549092169086161790555b82518160ff16101562000196576000838260ff1681518110620000b357620000b362000382565b602002602001015190506127108161ffff161115620001185760405162461bcd60e51b815260206004820152601e60248201527f696e76616c69642070726552656769446973636f756e74526174654270730000604482015260640160405180910390fd5b60ff8216600081815260056020908152604091829020805461ffff191661ffff861690811790915582518d815291820193909352908101919091527fe3d1f707b794bd5924e6453b500039ba267587f55f8945a88def871cad84c6cb9060600160405180910390a150806200018d8162000398565b9150506200008c565b50600681905560805160408051918252602082018390527f7209932ed961cda2151a57a4ad04f2fba1ce7dd5f0ebedc991802aa16dd97a1f910160405180910390a15050505050505050620003c6565b6001600160a01b0381168114620001fc57600080fd5b50565b634e487b7160e01b600052604160045260246000fd5b805161ffff811681146200022857600080fd5b919050565b600080600080600080600080610100898b0312156200024b57600080fd5b88516200025881620001e6565b809850506020808a0151975060408a01516200027481620001e6565b60608b01519097506200028781620001e6565b60808b01519096506200029a81620001e6565b60a08b0151909550620002ad81620001e6565b60c08b01519094506001600160401b0380821115620002cb57600080fd5b818c0191508c601f830112620002e057600080fd5b815181811115620002f557620002f5620001ff565b8060051b604051601f19603f830116810181811085821117156200031d576200031d620001ff565b60405291825284820192508381018501918f8311156200033c57600080fd5b938501935b828510156200036557620003558562000215565b8452938501939285019262000341565b80975050505050505060e089015190509295985092959890939650565b634e487b7160e01b600052603260045260246000fd5b600060ff821660ff8103620003bd57634e487b7160e01b600052601160045260246000fd5b60010192915050565b608051611af862000405600039600081816101f001528181610681015281816107a80152818161081b01528181610a5b0152610b260152611af86000f3fe608060405234801561001057600080fd5b50600436106101215760003560e01c806380fd9d8d116100ad578063bd03fbb811610071578063bd03fbb814610278578063bda8265f14610281578063d023c79c14610296578063d46da387146102a9578063e9c95034146102bc57600080fd5b806380fd9d8d1461012657806393ba731b14610212578063a833bb0714610225578063b013c3bf14610238578063b0c0c2641461026f57600080fd5b8063392130da116100f4578063392130da146101b25780634d24e236146101c557806356397c35146101d85780637998a1c4146101eb5780637a989b651461021257600080fd5b80630b6ca897146101265780632630c12f1461014c578063273310e314610177578063347652e31461018a575b600080fd5b610139610134366004611474565b6102cf565b6040519081526020015b60405180910390f35b60045461015f906001600160a01b031681565b6040516001600160a01b039091168152602001610143565b60015461015f906001600160a01b031681565b61019d610198366004611515565b610387565b60408051928352602083019190915201610143565b61019d6101c0366004611515565b6104ad565b60025461015f906001600160a01b031681565b60035461015f906001600160a01b031681565b6101397f000000000000000000000000000000000000000000000000000000000000000081565b610139610220366004611474565b6105e3565b61019d610233366004611515565b6105f3565b61025c6102463660046115d8565b60056020526000908152604090205461ffff1681565b60405161ffff9091168152602001610143565b61013961271081565b61013960065481565b61029461028f3660046115fa565b610670565b005b6102946102a4366004611638565b61080a565b60005461015f906001600160a01b031681565b61019d6102ca366004611515565b610aab565b600080546040805163f340041960e01b8152905133926001600160a01b03169163f34004199160048083019260209291908290030181865afa158015610319573d6000803e3d6000fd5b505050506040513d601f19601f8201168201806040525081019061033d919061165c565b6001600160a01b03161461036c5760405162461bcd60e51b815260040161036390611679565b60405180910390fd5b61037a898989898989610b15565b9998505050505050505050565b600080336001600160a01b031660008054906101000a90046001600160a01b03166001600160a01b031663f34004196040518163ffffffff1660e01b8152600401602060405180830381865afa1580156103e5573d6000803e3d6000fd5b505050506040513d601f19601f82011682018060405250810190610409919061165c565b6001600160a01b03161461042f5760405162461bcd60e51b815260040161036390611679565b60008315610474576000610445858701876117b3565b60408101515190915015610472576000816040015180602001905181019061046d919061189c565b519250505b505b60006104858d8d8d8d8d8d88610d95565b91955093509050801561049d5761049d8a828f610e0e565b5050995099975050505050505050565b600080336001600160a01b031660008054906101000a90046001600160a01b03166001600160a01b031663f34004196040518163ffffffff1660e01b8152600401602060405180830381865afa15801561050b573d6000803e3d6000fd5b505050506040513d601f19601f8201168201806040525081019061052f919061165c565b6001600160a01b0316146105555760405162461bcd60e51b815260040161036390611679565b6000831561059a57600061056b858701876117b3565b604081015151909150156105985760008160400151806020019051810190610593919061189c565b519250505b505b806105ac5760008092509250506105d5565b60006105bc8d8d8d8d8d8d610e80565b9094509250839050801561049d5761049d8a828f610e0e565b995099975050505050505050565b600061037a898989898989610b15565b60008080831561063a57600061060b858701876117b3565b604081015151909150156106385760008160400151806020019051810190610633919061189c565b519250505b505b8061064c5760008092509250506105d5565b600061065c8d8d8d8d8d8d610e80565b909e909d509b505050505050505050505050565b60005460405162e4decd60e31b81527f0000000000000000000000000000000000000000000000000000000000000000600482018190529133916001600160a01b0390911690630726f66890602401602060405180830381865afa1580156106dc573d6000803e3d6000fd5b505050506040513d601f19601f82011682018060405250810190610700919061165c565b6001600160a01b0316146107265760405162461bcd60e51b8152600401610363906118e6565b6127108261ffff16111561077c5760405162461bcd60e51b815260206004820152601e60248201527f696e76616c69642070726552656769446973636f756e745261746542707300006044820152606401610363565b60ff8316600081815260056020908152604091829020805461ffff191661ffff871690811790915582517f0000000000000000000000000000000000000000000000000000000000000000815291820193909352908101919091527fe3d1f707b794bd5924e6453b500039ba267587f55f8945a88def871cad84c6cb906060015b60405180910390a1505050565b60005460405162e4decd60e31b81527f0000000000000000000000000000000000000000000000000000000000000000600482018190529133916001600160a01b0390911690630726f66890602401602060405180830381865afa158015610876573d6000803e3d6000fd5b505050506040513d601f19601f8201168201806040525081019061089a919061165c565b6001600160a01b0316146108c05760405162461bcd60e51b8152600401610363906118e6565b60065442106108e257604051630e5ea0ab60e21b815260040160405180910390fd5b8142106109575760405162461bcd60e51b815260206004820152603860248201527f6e6577207075626c6963526567697374726174696f6e537461727454696d652060448201527f6d7573742062652067726561746572207468616e206e6f7700000000000000006064820152608401610363565b60015460408051630625a78f60e21b815290516000926001600160a01b0316916318969e3c9160048083019260209291908290030181865afa1580156109a1573d6000803e3d6000fd5b505050506040513d601f19601f820116820180604052508101906109c5919061192a565b9050828110610a505760405162461bcd60e51b815260206004820152604b60248201527f6e6577207075626c6963526567697374726174696f6e537461727454696d652060448201527f6d7573742062652067726561746572207468616e20707265526567697374726160648201526a74696f6e456e6454696d6560a81b608482015260a401610363565b6006839055604080517f00000000000000000000000000000000000000000000000000000000000000008152602081018590527f7209932ed961cda2151a57a4ad04f2fba1ce7dd5f0ebedc991802aa16dd97a1f91016107fd565b600080808315610af2576000610ac3858701876117b3565b60408101515190915015610af05760008160400151806020019051810190610aeb919061189c565b519250505b505b610b018c8c8c8c8c8c87610d95565b50909d909c509a5050505050505050505050565b60005460405162e4decd60e31b81527f0000000000000000000000000000000000000000000000000000000000000000600482015282916001600160a01b0386811692911690630726f66890602401602060405180830381865afa158015610b81573d6000803e3d6000fd5b505050506040513d601f19601f82011682018060405250810190610ba5919061165c565b6001600160a01b031603610c6a57600654421015610c6a576001546001600160a01b031615610c625760015460408051600162150ca160e01b0319815290516000926001600160a01b03169163ffeaf35f9160048083019260209291908290030181865afa158015610c1b573d6000803e3d6000fd5b505050506040513d601f19601f82011682018060405250810190610c3f919061192a565b9050801580610c4d57508042105b15610c5c576000915050610d8b565b50610c6a565b506000610d8b565b6001546001600160a01b031615610d8b57600160009054906101000a90046001600160a01b03166001600160a01b0316632399bd636040518163ffffffff1660e01b8152600401602060405180830381865afa158015610cce573d6000803e3d6000fd5b505050506040513d601f19601f82011682018060405250810190610cf29190611943565b15610d8b576000610d3887878080601f016020809104026020016040519081016040528093929190818152602001838380828437600092019190915250610f9d92505050565b905060058160ff161115610d4a575060055b60ff811660009081526005602052604081205461ffff1690612710610d6f8387611974565b610d799190611991565b9050610d8581856119b3565b93505050505b9695505050505050565b6000806000610da88a8a8a8a8a8a6110a0565b9093509150828511610dbf57508391506000610e01565b610dc983866119b3565b945060008415610de757610de18b8b8b8b8b8b610e80565b90925090505b610df182856119c6565b9350610dfd81846119c6565b9250505b9750975097945050505050565b60035460405163698f958560e01b8152600481018390526001600160a01b038581166024830152604482018590529091169063698f958590606401600060405180830381600087803b158015610e6357600080fd5b505af1158015610e77573d6000803e3d6000fd5b50505050505050565b600354604051631b2b776160e11b8152600481018890526001600160a01b0385811660248301526000928392839290911690633656eec290604401602060405180830381865afa158015610ed8573d6000803e3d6000fd5b505050506040513d601f19601f82011682018060405250810190610efc919061192a565b905083811115610f0e57839250610f12565b8092505b8215610f91576002546040516338ad915960e01b8152600481018b9052602481018590526000916001600160a01b0316906338ad915990604401602060405180830381865afa158015610f69573d6000803e3d6000fd5b505050506040513d601f19601f82011682018060405250810190610f8d919061192a565b9250505b50965096945050505050565b8051600090819081905b80821015611097576000858381518110610fc357610fc36119d9565b01602001516001600160f81b0319169050600160ff1b811015610ff257610feb6001846119c6565b9250611084565b600760fd1b6001600160f81b03198216101561101357610feb6002846119c6565b600f60fc1b6001600160f81b03198216101561103457610feb6003846119c6565b601f60fb1b6001600160f81b03198216101561105557610feb6004846119c6565b603f60fa1b6001600160f81b03198216101561107657610feb6005846119c6565b6110816006846119c6565b92505b508261108f816119ef565b935050610fa7565b50909392505050565b60015460009081906001600160a01b03161561140857600160009054906101000a90046001600160a01b03166001600160a01b0316639efdb7cf6040518163ffffffff1660e01b8152600401602060405180830381865afa158015611109573d6000803e3d6000fd5b505050506040513d601f19601f8201168201806040525081019061112d9190611943565b156114085760008787604051611144929190611a08565b604051908190038120600154634b6d21db60e11b8352600483018290529092506000916001600160a01b03909116906396da43b690602401600060405180830381865afa158015611199573d6000803e3d6000fd5b505050506040513d6000823e601f3d908101601f191682016040526111c19190810190611a18565b50915050866001600160a01b0316816001600160a01b03160361140557600154604051632d3f2b0560e01b8152600481018490526001600160a01b0389811660248301526000921690632d3f2b0590604401602060405180830381865afa158015611230573d6000803e3d6000fd5b505050506040513d601f19601f82011682018060405250810190611254919061192a565b60048054604051631b00721d60e21b81529182018390529192506000916001600160a01b031690636c01c87490602401602060405180830381865afa1580156112a1573d6000803e3d6000fd5b505050506040513d601f19601f820116820180604052508101906112c5919061192a565b6002546040516338ad915960e01b8152600481018f9052602481018390529192506000916001600160a01b03909116906338ad915990604401602060405180830381865afa15801561131b573d6000803e3d6000fd5b505050506040513d601f19601f8201168201806040525081019061133f919061192a565b905061134b81876119c6565b95505050506000600160009054906101000a90046001600160a01b03166001600160a01b031663888319d66040518163ffffffff1660e01b8152600401602060405180830381865afa1580156113a5573d6000803e3d6000fd5b505050506040513d601f19601f820116820180604052508101906113c9919061192a565b90508087116113dd57859450505050611408565b6000876113ea8884611974565b6113f49190611991565b905061140081876119c6565b955050505b50505b965096945050505050565b60008083601f84011261142557600080fd5b50813567ffffffffffffffff81111561143d57600080fd5b60208301915083602082850101111561145557600080fd5b9250929050565b6001600160a01b038116811461147157600080fd5b50565b60008060008060008060008060c0898b03121561149057600080fd5b88359750602089013567ffffffffffffffff808211156114af57600080fd5b6114bb8c838d01611413565b909950975060408b013591506114d08261145c565b90955060608a0135945060808a0135935060a08a013590808211156114f457600080fd5b506115018b828c01611413565b999c989b5096995094979396929594505050565b600080600080600080600080600060e08a8c03121561153357600080fd5b8935985060208a013567ffffffffffffffff8082111561155257600080fd5b61155e8d838e01611413565b909a50985060408c013591506115738261145c565b90965060608b0135955060808b0135945060a08b0135935060c08b0135908082111561159e57600080fd5b506115ab8c828d01611413565b915080935050809150509295985092959850929598565b803560ff811681146115d357600080fd5b919050565b6000602082840312156115ea57600080fd5b6115f3826115c2565b9392505050565b6000806040838503121561160d57600080fd5b611616836115c2565b9150602083013561ffff8116811461162d57600080fd5b809150509250929050565b60006020828403121561164a57600080fd5b5035919050565b80516115d38161145c565b60006020828403121561166e57600080fd5b81516115f38161145c565b6020808252602c908201527f41636365737369626c653a2063616c6c6572206973206e6f742074686520746c60408201526b321031b7b73a3937b63632b960a11b606082015260800190565b634e487b7160e01b600052604160045260246000fd5b6040516080810167ffffffffffffffff811182821017156116fe576116fe6116c5565b60405290565b604051601f8201601f1916810167ffffffffffffffff8111828210171561172d5761172d6116c5565b604052919050565b600067ffffffffffffffff82111561174f5761174f6116c5565b50601f01601f191660200190565b600082601f83011261176e57600080fd5b813561178161177c82611735565b611704565b81815284602083860101111561179657600080fd5b816020850160208301376000918101602001919091529392505050565b6000602082840312156117c557600080fd5b813567ffffffffffffffff808211156117dd57600080fd5b90830190608082860312156117f157600080fd5b6117f96116db565b82358281111561180857600080fd5b6118148782860161175d565b82525060208301358281111561182957600080fd5b6118358782860161175d565b60208301525060408301358281111561184d57600080fd5b6118598782860161175d565b60408301525060608301358281111561187157600080fd5b61187d8782860161175d565b60608301525095945050505050565b805180151581146115d357600080fd5b6000602082840312156118ae57600080fd5b6040516020810181811067ffffffffffffffff821117156118d1576118d16116c5565b6040526118dd8361188c565b81529392505050565b60208082526024908201527f4f776e61626c653a2063616c6c6572206973206e6f742074686520746c64206f6040820152633bb732b960e11b606082015260800190565b60006020828403121561193c57600080fd5b5051919050565b60006020828403121561195557600080fd5b6115f38261188c565b634e487b7160e01b600052601160045260246000fd5b808202811582820484141761198b5761198b61195e565b92915050565b6000826119ae57634e487b7160e01b600052601260045260246000fd5b500490565b8181038181111561198b5761198b61195e565b8082018082111561198b5761198b61195e565b634e487b7160e01b600052603260045260246000fd5b600060018201611a0157611a0161195e565b5060010190565b8183823760009101908152919050565b600080600060608486031215611a2d57600080fd5b835167ffffffffffffffff811115611a4457600080fd5b8401601f81018613611a5557600080fd5b8051611a6361177c82611735565b81815260208881848601011115611a7957600080fd5b60005b83811015611a97578481018201518382018301528101611a7c565b506000818484010152819650611aae818901611651565b95505050505060408401519050925092509256fea26469706673582212205e62818c5e87275cd7f678fb3c10a54547efb1835dd85fcf5d075932548a211c64736f6c63430008120033",
  "linkReferences": {},
  "deployedLinkReferences": {}
}