{
  "_format": "hh-sol-artifact-1",
  "contractName": "TldFactory",
  "sourceName": "contracts/admin/TldFactory.sol",
  "abi": [
    {
      "inputs": [
        {
          "internalType": "contract ISANN",
          "name": "_sann",
          "type": "address"
        }
      ],
      "stateMutability": "nonpayable",
      "type": "constructor"
    },
    {
      "anonymous": false,
      "inputs": [
        {
          "indexed": false,
          "internalType": "uint8",
          "name": "version",
          "type": "uint8"
        }
      ],
      "name": "Initialized",
      "type": "event"
    },
    {
      "anonymous": false,
      "inputs": [
        {
          "indexed": false,
          "internalType": "address",
          "name": "creator",
          "type": "address"
        },
        {
          "indexed": false,
          "internalType": "uint256",
          "name": "chainId",
          "type": "uint256"
        },
        {
          "indexed": false,
          "internalType": "uint256",
          "name": "identifier",
          "type": "uint256"
        },
        {
          "indexed": false,
          "internalType": "string",
          "name": "tld",
          "type": "string"
        },
        {
          "indexed": false,
          "internalType": "address",
          "name": "controller",
          "type": "address"
        },
        {
          "indexed": false,
          "internalType": "address",
          "name": "base",
          "type": "address"
        }
      ],
      "name": "NewDomainService",
      "type": "event"
    },
    {
      "anonymous": false,
      "inputs": [
        {
          "indexed": false,
          "internalType": "address",
          "name": "stateAddr",
          "type": "address"
        },
        {
          "indexed": false,
          "internalType": "address",
          "name": "auctionAddr",
          "type": "address"
        },
        {
          "indexed": false,
          "internalType": "address",
          "name": "owner",
          "type": "address"
        },
        {
          "indexed": false,
          "internalType": "uint256",
          "name": "identifier",
          "type": "uint256"
        }
      ],
      "name": "PreRegistrationCreated",
      "type": "event"
    },
    {
      "anonymous": false,
      "inputs": [
        {
          "indexed": false,
          "internalType": "address",
          "name": "defaultPriceOracle",
          "type": "address"
        }
      ],
      "name": "SetDefaultPriceOracle",
      "type": "event"
    },
    {
      "anonymous": false,
      "inputs": [
        {
          "indexed": true,
          "internalType": "address",
          "name": "user",
          "type": "address"
        },
        {
          "indexed": false,
          "internalType": "uint256",
          "name": "amount",
          "type": "uint256"
        }
      ],
      "name": "Staked",
      "type": "event"
    },
    {
      "anonymous": false,
      "inputs": [
        {
          "indexed": true,
          "internalType": "address",
          "name": "user",
          "type": "address"
        },
        {
          "indexed": false,
          "internalType": "uint256",
          "name": "amount",
          "type": "uint256"
        }
      ],
      "name": "UnStake",
      "type": "event"
    },
    {
      "inputs": [],
      "name": "MINIMUM_STAKE",
      "outputs": [
        {
          "internalType": "uint256",
          "name": "",
          "type": "uint256"
        }
      ],
      "stateMutability": "view",
      "type": "function"
    },
    {
      "inputs": [],
      "name": "baseCreator",
      "outputs": [
        {
          "internalType": "contract IBaseCreator",
          "name": "",
          "type": "address"
        }
      ],
      "stateMutability": "view",
      "type": "function"
    },
    {
      "inputs": [
        {
          "internalType": "string",
          "name": "tld",
          "type": "string"
        },
        {
          "internalType": "address",
          "name": "tldOwner",
          "type": "address"
        },
        {
          "components": [
            {
              "components": [
                {
                  "internalType": "uint256",
                  "name": "minDomainLength",
                  "type": "uint256"
                },
                {
                  "internalType": "uint256",
                  "name": "maxDomainLength",
                  "type": "uint256"
                },
                {
                  "internalType": "uint256",
                  "name": "minRegistrationDuration",
                  "type": "uint256"
                },
                {
                  "internalType": "uint256",
                  "name": "minRenewDuration",
                  "type": "uint256"
                },
                {
                  "internalType": "uint256",
                  "name": "mintCap",
                  "type": "uint256"
                }
              ],
              "internalType": "struct TldConfig",
              "name": "config",
              "type": "tuple"
            },
            {
              "internalType": "uint8[]",
              "name": "letters",
              "type": "uint8[]"
            },
            {
              "internalType": "uint64[]",
              "name": "prices",
              "type": "uint64[]"
            },
            {
              "internalType": "bool",
              "name": "enableGiftCard",
              "type": "bool"
            },
            {
              "internalType": "uint256[]",
              "name": "giftCardPrices",
              "type": "uint256[]"
            },
            {
              "internalType": "bool",
              "name": "enableReferral",
              "type": "bool"
            },
            {
              "internalType": "uint256[]",
              "name": "referralLevels",
              "type": "uint256[]"
            },
            {
              "components": [
                {
                  "internalType": "uint256",
                  "name": "minimumReferralCount",
                  "type": "uint256"
                },
                {
                  "internalType": "uint256",
                  "name": "referrerRate",
                  "type": "uint256"
                },
                {
                  "internalType": "uint256",
                  "name": "refereeRate",
                  "type": "uint256"
                },
                {
                  "internalType": "bool",
                  "name": "isValid",
                  "type": "bool"
                }
              ],
              "internalType": "struct ReferralHub.Comission[]",
              "name": "referralComissions",
              "type": "tuple[]"
            },
            {
              "internalType": "bool",
              "name": "enablePreRegistration",
              "type": "bool"
            },
            {
              "components": [
                {
                  "internalType": "bool",
                  "name": "enableAuction",
                  "type": "bool"
                },
                {
                  "internalType": "uint256",
                  "name": "auctionStartTime",
                  "type": "uint256"
                },
                {
                  "internalType": "uint256",
                  "name": "auctionInitialEndTime",
                  "type": "uint256"
                },
                {
                  "internalType": "uint256",
                  "name": "auctionExtendDuration",
                  "type": "uint256"
                },
                {
                  "internalType": "uint256",
                  "name": "auctionRetentionDuration",
                  "type": "uint256"
                },
                {
                  "internalType": "uint256",
                  "name": "auctionMinRegistrationDuration",
                  "type": "uint256"
                },
                {
                  "internalType": "bool",
                  "name": "enableFcfs",
                  "type": "bool"
                },
                {
                  "internalType": "uint256",
                  "name": "fcfsStartTime",
                  "type": "uint256"
                },
                {
                  "internalType": "uint256",
                  "name": "fcfsEndTime",
                  "type": "uint256"
                }
              ],
              "internalType": "struct PreRegistrationUpdateConfig",
              "name": "preRegiConfig",
              "type": "tuple"
            },
            {
              "internalType": "uint16[]",
              "name": "preRegiDiscountRateBps",
              "type": "uint16[]"
            },
            {
              "internalType": "uint256",
              "name": "publicRegistrationStartTime",
              "type": "uint256"
            },
            {
              "internalType": "bool",
              "name": "publicRegistrationPaused",
              "type": "bool"
            },
            {
              "internalType": "string",
              "name": "baseUri",
              "type": "string"
            }
          ],
          "internalType": "struct TldInitData",
          "name": "initData",
          "type": "tuple"
        }
      ],
      "name": "createDomainService",
      "outputs": [
        {
          "internalType": "uint256",
          "name": "identifier",
          "type": "uint256"
        }
      ],
      "stateMutability": "nonpayable",
      "type": "function"
    },
    {
      "inputs": [],
      "name": "defaultPriceOracle",
      "outputs": [
        {
          "internalType": "address",
          "name": "",
          "type": "address"
        }
      ],
      "stateMutability": "view",
      "type": "function"
    },
    {
      "inputs": [],
      "name": "getStakeDetails",
      "outputs": [
        {
          "internalType": "address",
          "name": "owner",
          "type": "address"
        },
        {
          "internalType": "uint256",
          "name": "identifier",
          "type": "uint256"
        },
        {
          "internalType": "uint256",
          "name": "stakedAmount",
          "type": "uint256"
        }
      ],
      "stateMutability": "view",
      "type": "function"
    },
    {
      "inputs": [],
      "name": "giftCardLedger",
      "outputs": [
        {
          "internalType": "contract GiftCardLedger",
          "name": "",
          "type": "address"
        }
      ],
      "stateMutability": "view",
      "type": "function"
    },
    {
      "inputs": [],
      "name": "giftCardVoucher",
      "outputs": [
        {
          "internalType": "contract GiftCardVoucher",
          "name": "",
          "type": "address"
        }
      ],
      "stateMutability": "view",
      "type": "function"
    },
    {
      "inputs": [
        {
          "internalType": "address",
          "name": "",
          "type": "address"
        }
      ],
      "name": "identifiers",
      "outputs": [
        {
          "internalType": "uint256",
          "name": "",
          "type": "uint256"
        }
      ],
      "stateMutability": "view",
      "type": "function"
    },
    {
      "inputs": [
        {
          "internalType": "contract IBaseCreator",
          "name": "_baseCreator",
          "type": "address"
        },
        {
          "internalType": "contract IRegistrarController",
          "name": "_controller",
          "type": "address"
        },
        {
          "internalType": "address",
          "name": "_platformConfig",
          "type": "address"
        },
        {
          "internalType": "address",
          "name": "_priceOracle",
          "type": "address"
        },
        {
          "internalType": "contract GiftCardVoucher",
          "name": "_giftCardVoucher",
          "type": "address"
        },
        {
          "internalType": "contract GiftCardLedger",
          "name": "_giftCardLedger",
          "type": "address"
        },
        {
          "internalType": "contract ReferralHub",
          "name": "_referralHub",
          "type": "address"
        },
        {
          "internalType": "contract IPreRegistrationCreator",
          "name": "_preRegiCreator",
          "type": "address"
        },
        {
          "internalType": "contract PrepaidPlatformFee",
          "name": "_prepaidPlatformFee",
          "type": "address"
        }
      ],
      "name": "initialize",
      "outputs": [],
      "stateMutability": "nonpayable",
      "type": "function"
    },
    {
      "inputs": [],
      "name": "platformConfig",
      "outputs": [
        {
          "internalType": "address",
          "name": "",
          "type": "address"
        }
      ],
      "stateMutability": "view",
      "type": "function"
    },
    {
      "inputs": [],
      "name": "preRegiCreator",
      "outputs": [
        {
          "internalType": "contract IPreRegistrationCreator",
          "name": "",
          "type": "address"
        }
      ],
      "stateMutability": "view",
      "type": "function"
    },
    {
      "inputs": [],
      "name": "prepaidPlatformFee",
      "outputs": [
        {
          "internalType": "contract PrepaidPlatformFee",
          "name": "",
          "type": "address"
        }
      ],
      "stateMutability": "view",
      "type": "function"
    },
    {
      "inputs": [],
      "name": "referralHub",
      "outputs": [
        {
          "internalType": "contract ReferralHub",
          "name": "",
          "type": "address"
        }
      ],
      "stateMutability": "view",
      "type": "function"
    },
    {
      "inputs": [],
      "name": "registrar",
      "outputs": [
        {
          "internalType": "contract IRegistrarController",
          "name": "",
          "type": "address"
        }
      ],
      "stateMutability": "view",
      "type": "function"
    },
    {
      "inputs": [],
      "name": "sann",
      "outputs": [
        {
          "internalType": "contract ISANN",
          "name": "",
          "type": "address"
        }
      ],
      "stateMutability": "view",
      "type": "function"
    },
    {
      "inputs": [
        {
          "internalType": "address",
          "name": "_defaultPriceOracle",
          "type": "address"
        }
      ],
      "name": "setDefaultPriceOracle",
      "outputs": [],
      "stateMutability": "nonpayable",
      "type": "function"
    },
    {
      "inputs": [
        {
          "internalType": "uint256",
          "name": "identifier",
          "type": "uint256"
        },
        {
          "internalType": "string",
          "name": "tld",
          "type": "string"
        }
      ],
      "name": "stake",
      "outputs": [],
      "stateMutability": "payable",
      "type": "function"
    },
    {
      "inputs": [
        {
          "internalType": "address",
          "name": "",
          "type": "address"
        }
      ],
      "name": "stakes",
      "outputs": [
        {
          "internalType": "uint256",
          "name": "",
          "type": "uint256"
        }
      ],
      "stateMutability": "view",
      "type": "function"
    },
    {
      "inputs": [
        {
          "internalType": "uint256",
          "name": "",
          "type": "uint256"
        }
      ],
      "name": "tldList",
      "outputs": [
        {
          "internalType": "string",
          "name": "",
          "type": "string"
        }
      ],
      "stateMutability": "view",
      "type": "function"
    },
    {
      "inputs": [],
      "name": "unStake",
      "outputs": [],
      "stateMutability": "nonpayable",
      "type": "function"
    }
  ],
  "bytecode": "0x670de0b6b3a76400006003908155610160818152620cae8d60eb1b610180526080908152600a6101a090815269313637b1b5b1b430b4b760b11b6101c05260a05260066101e09081526563727970746f60d01b6102005260c0526004610220818152636d6f646560e01b6102405260e052610260838152621cdbdb60ea1b610280526101005260026102a09081526106f760f41b6102c052610120526103206040526102e09283526230b93160e91b6103005261014092909252620000c7919060076200011e565b50348015620000d557600080fd5b506040516200617538038062006175833981016040819052620000f891620001f5565b600080546001600160a01b0319166001600160a01b039290921691909117905562000398565b82805482825590600052602060002090810192821562000169579160200282015b82811115620001695782518290620001589082620002cc565b50916020019190600101906200013f565b50620001779291506200017b565b5090565b80821115620001775760006200019282826200019c565b506001016200017b565b508054620001aa906200023d565b6000825580601f10620001bb575050565b601f016020900490600052602060002090810190620001db9190620001de565b50565b5b80821115620001775760008155600101620001df565b6000602082840312156200020857600080fd5b81516001600160a01b03811681146200022057600080fd5b9392505050565b634e487b7160e01b600052604160045260246000fd5b600181811c908216806200025257607f821691505b6020821081036200027357634e487b7160e01b600052602260045260246000fd5b50919050565b601f821115620002c757600081815260208120601f850160051c81016020861015620002a25750805b601f850160051c820191505b81811015620002c357828155600101620002ae565b5050505b505050565b81516001600160401b03811115620002e857620002e862000227565b6200030081620002f984546200023d565b8462000279565b602080601f8311600181146200033857600084156200031f5750858301515b600019600386901b1c1916600185901b178555620002c3565b600085815260208120601f198616915b82811015620003695788860151825594840194600190910190840162000348565b5085821015620003885787850151600019600388901b60f8161c191681555b5050505050600190811b01905550565b615dcd80620003a86000396000f3fe6080604052600436106200017b5760003560e01c8063807e5d4711620000cf578063bdeb810e116200007d578063e16f84361162000060578063e16f84361462000433578063e7e4e1f71462000455578063f5e95acb146200046c57600080fd5b8063bdeb810e14620003dd578063d46da387146200041157600080fd5b806381e991cc11620000b257806381e991cc146200035657806392ef42581462000378578063a289cf8414620003bb57600080fd5b8063807e5d47146200031257806380b6853e146200033457600080fd5b8063576b3a64116200012d578063656bb8961162000110578063656bb89614620002b35780636dc805e814620002d557806373cf575a14620002fa57600080fd5b8063576b3a6414620002605780635c171473146200028257600080fd5b806316934fc4116200016257806316934fc414620001d25780632b20e39714620002035780634d24e236146200023e57600080fd5b806308dbbb031462000180578063116fb34414620001ab575b600080fd5b3480156200018d57600080fd5b506200019860035481565b6040519081526020015b60405180910390f35b348015620001b857600080fd5b50620001d0620001ca36600462001ee6565b62000491565b005b348015620001df57600080fd5b5062000198620001f136600462001ee6565b60016020526000908152604090205481565b3480156200021057600080fd5b5060085462000225906001600160a01b031681565b6040516001600160a01b039091168152602001620001a2565b3480156200024b57600080fd5b5060055462000225906001600160a01b031681565b3480156200026d57600080fd5b5060075462000225906001600160a01b031681565b3480156200028f57600080fd5b5062000198620002a136600462001ee6565b60026020526000908152604090205481565b348015620002c057600080fd5b50600c5462000225906001600160a01b031681565b348015620002e257600080fd5b5062000198620002f436600462001f59565b6200062b565b3480156200030757600080fd5b50620001d062000c94565b3480156200031f57600080fd5b5060065462000225906001600160a01b031681565b3480156200034157600080fd5b50600a5462000225906001600160a01b031681565b3480156200036357600080fd5b50600b5462000225906001600160a01b031681565b3480156200038557600080fd5b503360008181526002602090815260408083205460018352928190205481519485529184019290925290820152606001620001a2565b348015620003c857600080fd5b50600d5462000225906001600160a01b031681565b348015620003ea57600080fd5b5062000402620003fc36600462001fe5565b62000d68565b604051620001a2919062001fff565b3480156200041e57600080fd5b5060005462000225906001600160a01b031681565b3480156200044057600080fd5b5060095462000225906001600160a01b031681565b620001d0620004663660046200204f565b62000e1d565b3480156200047957600080fd5b50620001d06200048b3660046200209f565b62000f5f565b6000546040805163cdcd7fb560e01b8152905133926001600160a01b03169163cdcd7fb59160048083019260209291908290030181865afa158015620004db573d6000803e3d6000fd5b505050506040513d601f19601f820116820180604052508101906200050191906200216e565b6001600160a01b031614620005725760405162461bcd60e51b815260206004820152602c60248201527f41636365737369626c653a2063616c6c6572206973206e6f742074686520706c60448201526b30ba3337b9369030b236b4b760a11b60648201526084015b60405180910390fd5b6001600160a01b038116620005ca5760405162461bcd60e51b815260206004820152601460248201527f696e76616c6964207072696365206f7261636c65000000000000000000000000604482015260640162000569565b6007805473ffffffffffffffffffffffffffffffffffffffff19166001600160a01b0383169081179091556040519081527f3e44d8338b9402ad16cf357c6ff64e5ec68c5c0fd3e5d9ee3beb921e620e5c449060200160405180910390a150565b6003543360009081526001602052604081205490911115620006b65760405162461bcd60e51b815260206004820152602960248201527f596f75206d757374207374616b652074686520726571756972656420616d6f7560448201527f6e74206f66204554480000000000000000000000000000000000000000000000606482015260840162000569565b6000546040517f1e038cc80000000000000000000000000000000000000000000000000000000081526001600160a01b0390911690631e038cc8906200070590889088908890600401620021b7565b602060405180830381865afa15801562000723573d6000803e3d6000fd5b505050506040513d601f19601f82011682018060405250810190620007499190620021e6565b60065460008054604080517f7b103999000000000000000000000000000000000000000000000000000000008152905194955091936001600160a01b039384169363c0985c3293921691637b1039999160048083019260209291908290030181865afa158015620007be573d6000803e3d6000fd5b505050506040513d601f19601f82011682018060405250810190620007e491906200216e565b848989620007f76103208a018a62002200565b6040518763ffffffff1660e01b81526004016200081a969594939291906200224a565b6020604051808303816000875af11580156200083a573d6000803e3d6000fd5b505050506040513d601f19601f820116820180604052508101906200086091906200216e565b6000546040517fa334815a0000000000000000000000000000000000000000000000000000000081529192506001600160a01b03169063a334815a90620008b4908990899087903090889060040162002297565b600060405180830381600087803b158015620008cf57600080fd5b505af1158015620008e4573d6000803e3d6000fd5b5050600854604080517fc048cb2000000000000000000000000000000000000000000000000000000000815260048101879052873560248201526020880135604482015290870135606482015260608701356084820152608087013560a48201526001600160a01b03909116925063c048cb20915060c401600060405180830381600087803b1580156200097757600080fd5b505af11580156200098c573d6000803e3d6000fd5b50505050620009bc82848060a00190620009a79190620022d4565b620009b660c0880188620022d4565b620012bb565b6000620009d26101a08501610180860162002337565b15620009fb57600d54620009f890849087906001600160a01b03166101a0880162001521565b90505b60006001600160a01b03821615158062000a265750600062000a226102c0870187620022d4565b9050115b8062000a3757506000856102e00135115b1562000a625762000a5f848362000a536102c0890189620022d4565b896102e001356200164d565b90505b6000856102e00135118062000a86575062000a866103208601610300870162002337565b8062000a9a57506001600160a01b03821615155b1562000ac65762000ac68462000ab96103208801610300890162002337565b876102e001358562001984565b62000ad9610100860160e0870162002337565b1562000afa5762000afa8462000af4610100880188620022d4565b62001b18565b62000b0e6101408601610120870162002337565b1562000b3f5762000b3f8462000b29610140880188620022d4565b62000b396101608a018a62002355565b62001bdb565b6000546040517f4376c801000000000000000000000000000000000000000000000000000000008152600481018690526001600160a01b03888116602483015290911690634376c80190604401600060405180830381600087803b15801562000ba757600080fd5b505af115801562000bbc573d6000803e3d6000fd5b505050507f6ddbb1a3a3d0722a5299698ddc6574ba92e317460539cde58adbf3b63c511c3d8660008054906101000a90046001600160a01b03166001600160a01b0316639a8a05926040518163ffffffff1660e01b8152600401602060405180830381865afa15801562000c34573d6000803e3d6000fd5b505050506040513d601f19601f8201168201806040525081019062000c5a9190620021e6565b60085460405162000c8193929189918e918e916001600160a01b03909116908b90620023a2565b60405180910390a1505050949350505050565b336000908152600160205260409020548062000cf35760405162461bcd60e51b815260206004820152601460248201527f4e6f207374616b6520746f207769746864726177000000000000000000000000604482015260640162000569565b336000818152600160205260408082208290555183156108fc0291849190818181858888f1935050505015801562000d2f573d6000803e3d6000fd5b5060405181815233907fb24546d975e2628748efc9aced80665e0fad66272033e5c0ea25fd3afac997959060200160405180910390a250565b6004818154811062000d7957600080fd5b90600052602060002001600091509050805462000d9690620023f0565b80601f016020809104026020016040519081016040528092919081815260200182805462000dc490620023f0565b801562000e155780601f1062000de95761010080835404028352916020019162000e15565b820191906000526020600020905b81548152906001019060200180831162000df757829003601f168201915b505050505081565b60035434101562000e715760405162461bcd60e51b815260206004820152601b60248201527f496e73756666696369656e74207374616b696e6720616d6f756e740000000000604482015260640162000569565b62000e7d828262001dfd565b1562000ef25760405162461bcd60e51b815260206004820152602c60248201527f544c4420796f7527726520747279696e6720746f20726567697374657220616c60448201527f7265616479206578697374730000000000000000000000000000000000000000606482015260840162000569565b33600090815260026020908152604080832086905560019091528120805434929062000f2090849062002442565b909155505060405134815233907f9e71bc8eea02a63969f509818f2dafb9254532904319f9dbda79b67bd34a5f3d9060200160405180910390a2505050565b600054600160a81b900460ff161580801562000f8857506000546001600160a01b90910460ff16105b8062000fab5750303b15801562000fab5750600054600160a01b900460ff166001145b6200101f5760405162461bcd60e51b815260206004820152602e60248201527f496e697469616c697a61626c653a20636f6e747261637420697320616c72656160448201527f647920696e697469616c697a6564000000000000000000000000000000000000606482015260840162000569565b600080547fffffffffffffffffffffff00ffffffffffffffffffffffffffffffffffffffff16600160a01b179055801562001068576000805460ff60a81b1916600160a81b1790555b6000546040805163cdcd7fb560e01b8152905133926001600160a01b03169163cdcd7fb59160048083019260209291908290030181865afa158015620010b2573d6000803e3d6000fd5b505050506040513d601f19601f82011682018060405250810190620010d891906200216e565b6001600160a01b031614620011455760405162461bcd60e51b815260206004820152602c60248201527f41636365737369626c653a2063616c6c6572206973206e6f742074686520706c60448201526b30ba3337b9369030b236b4b760a11b606482015260840162000569565b6001600160a01b0387166200119d5760405162461bcd60e51b815260206004820152601460248201527f696e76616c6964207072696365206f7261636c65000000000000000000000000604482015260640162000569565b6005805473ffffffffffffffffffffffffffffffffffffffff199081166001600160a01b038b8116919091179092556006805482168d84161790556007805482168a84169081179091556008805483168d8516179055600980548316878516179055600a805483168a8516179055600b80548316898516179055600c80548316888516179055600d80549092169285169290921790556040519081527f3e44d8338b9402ad16cf357c6ff64e5ec68c5c0fd3e5d9ee3beb921e620e5c449060200160405180910390a18015620012af576000805460ff60a81b19169055604051600181527f7f26b83ff96e1f2b6a682f133852f6798a09c465da95921460cefb38474024989060200160405180910390a15b50505050505050505050565b828114620013325760405162461bcd60e51b815260206004820152602860248201527f6c656e677468206f66206c65747465727320616e6420707269636573206e6f7460448201527f206d617463686564000000000000000000000000000000000000000000000000606482015260840162000569565b6005831115620013855760405162461bcd60e51b815260206004820152601460248201527f746f6f206d616e792070726963652072756c6573000000000000000000000000604482015260640162000569565b600583101562001409576007546040517fcd1e520f000000000000000000000000000000000000000000000000000000008152600481018790526001600160a01b039091169063cd1e520f90602401600060405180830381600087803b158015620013ef57600080fd5b505af115801562001404573d6000803e3d6000fd5b505050505b60005b8381101562001519576007546001600160a01b031663d1d0ee10878787858181106200143c576200143c62002458565b90506020020160208101906200145391906200246e565b86868681811062001468576200146862002458565b90506020020160208101906200147f919062002493565b6040517fffffffff0000000000000000000000000000000000000000000000000000000060e086901b168152600481019390935260ff909116602483015267ffffffffffffffff166044820152606401600060405180830381600087803b158015620014ea57600080fd5b505af1158015620014ff573d6000803e3d6000fd5b5050505080806200151090620024bf565b9150506200140c565b505050505050565b600954600080546008546005546040517f5053dcfd0000000000000000000000000000000000000000000000000000000081529394859485946001600160a01b0392831694635053dcfd946200158b94928316938e938e9381169216908d908d90600401620024db565b60408051808303816000875af1158015620015aa573d6000803e3d6000fd5b505050506040513d601f19601f82011682018060405250810190620015d0919062002592565b90925090506001600160a01b03811615620016435760405163a7fc7a0760e01b81526001600160a01b03828116600483015283169063a7fc7a0790602401600060405180830381600087803b1580156200162957600080fd5b505af11580156200163e573d6000803e3d6000fd5b505050505b5095945050505050565b600080866040516020016200166491815260200190565b60408051601f1981840301815290829052805160209091012060008054600554600b54600754949650929486946001600160a01b03938416948e948e948116939181169216908d908d908d90620016bb9062001eb1565b620016cf99989796959493929190620025d1565b8190604051809103906000f5905080158015620016f0573d6000803e3d6000fd5b506008546040517fe944463c000000000000000000000000000000000000000000000000000000008152600481018b90526001600160a01b03808416602483015292935091169063e944463c90604401600060405180830381600087803b1580156200175b57600080fd5b505af115801562001770573d6000803e3d6000fd5b50506008546040517fd2bc8adc000000000000000000000000000000000000000000000000000000008152600481018c90526001600160a01b038581166024830152909116925063d2bc8adc9150604401600060405180830381600087803b158015620017dc57600080fd5b505af1158015620017f1573d6000803e3d6000fd5b50506008546040517fb34de3e7000000000000000000000000000000000000000000000000000000008152600481018c90526001600160a01b038581166024830152909116925063b34de3e79150604401600060405180830381600087803b1580156200185d57600080fd5b505af115801562001872573d6000803e3d6000fd5b50506008546040517f669ce5cd000000000000000000000000000000000000000000000000000000008152600481018c90526001600160a01b038581166024830152909116925063669ce5cd9150604401600060405180830381600087803b158015620018de57600080fd5b505af1158015620018f3573d6000803e3d6000fd5b5050600b546040517f88a1625b000000000000000000000000000000000000000000000000000000008152600481018c90526001600160a01b03858116602483015290911692506388a1625b9150604401600060405180830381600087803b1580156200195f57600080fd5b505af115801562001974573d6000803e3d6000fd5b50929a9950505050505050505050565b6000846040516020016200199a91815260200190565b60405160208183030381529060405280519060200120905060008160008054906101000a90046001600160a01b031687858789604051620019db9062001ebf565b6001600160a01b03958616815260208101949094529390911660408301526060820152901515608082015260a0018190604051809103906000f590508015801562001a2a573d6000803e3d6000fd5b5090506001600160a01b0383161562001a9b5760405163a7fc7a0760e01b81526001600160a01b03828116600483015284169063a7fc7a0790602401600060405180830381600087803b15801562001a8157600080fd5b505af115801562001a96573d6000803e3d6000fd5b505050505b6008546040517fe6bc7ea2000000000000000000000000000000000000000000000000000000008152600481018890526001600160a01b0383811660248301529091169063e6bc7ea290604401600060405180830381600087803b15801562001b0357600080fd5b505af1158015620012af573d6000803e3d6000fd5b60005b8181101562001bd557600a546001600160a01b031663581981588585858581811062001b4b5762001b4b62002458565b905060200201356040518363ffffffff1660e01b815260040162001b79929190918252602082015260400190565b6020604051808303816000875af115801562001b99573d6000803e3d6000fd5b505050506040513d601f19601f8201168201806040525081019062001bbf9190620021e6565b508062001bcc81620024bf565b91505062001b1b565b50505050565b82811462001c525760405162461bcd60e51b815260206004820152602b60248201527f6c656e677468206f66206c6576656c7320616e6420636f6d697373696f6e732060448201527f6e6f74206d617463686564000000000000000000000000000000000000000000606482015260840162000569565b60005b8381101562001d7257600c546001600160a01b0316636b2d538e8787878581811062001c855762001c8562002458565b9050602002013586868681811062001ca15762001ca162002458565b9050608002016000013587878781811062001cc05762001cc062002458565b9050608002016020013588888881811062001cdf5762001cdf62002458565b905060800201604001356040518663ffffffff1660e01b815260040162001d28959493929190948552602085019390935260408401919091526060830152608082015260a00190565b600060405180830381600087803b15801562001d4357600080fd5b505af115801562001d58573d6000803e3d6000fd5b50505050808062001d6990620024bf565b91505062001c55565b50600854600c546040517f076730c7000000000000000000000000000000000000000000000000000000008152600481018890526001600160a01b03918216602482015291169063076730c790604401600060405180830381600087803b15801562001ddd57600080fd5b505af115801562001df2573d6000803e3d6000fd5b505050505050505050565b6000805b60045481101562001ea557838360405160200162001e219291906200266f565b604051602081830303815290604052805190602001206004828154811062001e4d5762001e4d62002458565b9060005260206000200160405160200162001e6991906200267f565b604051602081830303815290604052805190602001200362001e9057600191505062001eab565b8062001e9c81620024bf565b91505062001e01565b50600090505b92915050565b61215c806200272783390190565b611515806200488383390190565b6001600160a01b038116811462001ee357600080fd5b50565b60006020828403121562001ef957600080fd5b813562001f068162001ecd565b9392505050565b60008083601f84011262001f2057600080fd5b50813567ffffffffffffffff81111562001f3957600080fd5b60208301915083602082850101111562001f5257600080fd5b9250929050565b6000806000806060858703121562001f7057600080fd5b843567ffffffffffffffff8082111562001f8957600080fd5b62001f978883890162001f0d565b90965094506020870135915062001fae8262001ecd565b9092506040860135908082111562001fc557600080fd5b508501610340818803121562001fda57600080fd5b939692955090935050565b60006020828403121562001ff857600080fd5b5035919050565b600060208083528351808285015260005b818110156200202e5785810183015185820160400152820162002010565b506000604082860101526040601f19601f8301168501019250505092915050565b6000806000604084860312156200206557600080fd5b83359250602084013567ffffffffffffffff8111156200208457600080fd5b620020928682870162001f0d565b9497909650939450505050565b60008060008060008060008060006101208a8c031215620020bf57600080fd5b8935620020cc8162001ecd565b985060208a0135620020de8162001ecd565b975060408a0135620020f08162001ecd565b965060608a0135620021028162001ecd565b955060808a0135620021148162001ecd565b945060a08a0135620021268162001ecd565b935060c08a0135620021388162001ecd565b925060e08a01356200214a8162001ecd565b91506101008a01356200215d8162001ecd565b809150509295985092959850929598565b6000602082840312156200218157600080fd5b815162001f068162001ecd565b81835281816020850137506000828201602090810191909152601f909101601f19169091010190565b604081526000620021cd6040830185876200218e565b90506001600160a01b0383166020830152949350505050565b600060208284031215620021f957600080fd5b5051919050565b6000808335601e198436030181126200221857600080fd5b83018035915067ffffffffffffffff8211156200223457600080fd5b60200191503681900382131562001f5257600080fd5b6001600160a01b0387168152856020820152608060408201526000620022756080830186886200218e565b82810360608401526200228a8185876200218e565b9998505050505050505050565b608081526000620022ad6080830187896200218e565b6020830195909552506001600160a01b039283166040820152911660609091015292915050565b6000808335601e19843603018112620022ec57600080fd5b83018035915067ffffffffffffffff8211156200230857600080fd5b6020019150600581901b360382131562001f5257600080fd5b803580151581146200233257600080fd5b919050565b6000602082840312156200234a57600080fd5b62001f068262002321565b6000808335601e198436030181126200236d57600080fd5b83018035915067ffffffffffffffff8211156200238957600080fd5b6020019150600781901b360382131562001f5257600080fd5b60006001600160a01b03808a16835288602084015287604084015260c06060840152620023d460c0840187896200218e565b94811660808401529290921660a0909101525095945050505050565b600181811c908216806200240557607f821691505b6020821081036200242657634e487b7160e01b600052602260045260246000fd5b50919050565b634e487b7160e01b600052601160045260246000fd5b8082018082111562001eab5762001eab6200242c565b634e487b7160e01b600052603260045260246000fd5b6000602082840312156200248157600080fd5b813560ff8116811462001f0657600080fd5b600060208284031215620024a657600080fd5b813567ffffffffffffffff8116811462001f0657600080fd5b600060018201620024d457620024d46200242c565b5060010190565b6001600160a01b03888116825260208201889052868116604083015285811660608301528481166080830152831660a08201526101e081016200251e8362002321565b151560c0830152602083013560e08301526101006040840135818401526060840135610120840152608084013561014084015260a08401356101608401526200256a60c0850162002321565b151561018084015260e08401356101a0840152909201356101c0909101529695505050505050565b60008060408385031215620025a657600080fd5b8251620025b38162001ecd565b6020840151909250620025c68162001ecd565b809150509250929050565b6001600160a01b038a8116825260208083018b905289821660408401528882166060840152878216608084015290861660a083015261010060c08301819052820184905260009061012083019086908390815b888110156200265457833561ffff811680821462002640578485fd5b865250938101939281019260010162002624565b5050505060e092909201929092529998505050505050505050565b8183823760009101908152919050565b600080835481600182811c9150808316806200269c57607f831692505b60208084108203620026bc57634e487b7160e01b86526022600452602486fd5b818015620026d35760018114620026e95762002718565b60ff198616895284151585028901965062002718565b60008a81526020902060005b86811015620027105781548b820152908501908301620026f5565b505084890196505b50949897505050505050505056fe60a06040523480156200001157600080fd5b506040516200215c3803806200215c83398101604081905262000034916200022d565b600080546001600160a01b03199081166001600160a01b038b811691909117835560808a90526001805483168a8316179055600280548316898316179055600380548316888316179055600480549092169086161790555b82518160ff16101562000196576000838260ff1681518110620000b357620000b362000382565b602002602001015190506127108161ffff161115620001185760405162461bcd60e51b815260206004820152601e60248201527f696e76616c69642070726552656769446973636f756e74526174654270730000604482015260640160405180910390fd5b60ff8216600081815260056020908152604091829020805461ffff191661ffff861690811790915582518d815291820193909352908101919091527fe3d1f707b794bd5924e6453b500039ba267587f55f8945a88def871cad84c6cb9060600160405180910390a150806200018d8162000398565b9150506200008c565b50600681905560805160408051918252602082018390527f7209932ed961cda2151a57a4ad04f2fba1ce7dd5f0ebedc991802aa16dd97a1f910160405180910390a15050505050505050620003c6565b6001600160a01b0381168114620001fc57600080fd5b50565b634e487b7160e01b600052604160045260246000fd5b805161ffff811681146200022857600080fd5b919050565b600080600080600080600080610100898b0312156200024b57600080fd5b88516200025881620001e6565b809850506020808a0151975060408a01516200027481620001e6565b60608b01519097506200028781620001e6565b60808b01519096506200029a81620001e6565b60a08b0151909550620002ad81620001e6565b60c08b01519094506001600160401b0380821115620002cb57600080fd5b818c0191508c601f830112620002e057600080fd5b815181811115620002f557620002f5620001ff565b8060051b604051601f19603f830116810181811085821117156200031d576200031d620001ff565b60405291825284820192508381018501918f8311156200033c57600080fd5b938501935b828510156200036557620003558562000215565b8452938501939285019262000341565b80975050505050505060e089015190509295985092959890939650565b634e487b7160e01b600052603260045260246000fd5b600060ff821660ff8103620003bd57634e487b7160e01b600052601160045260246000fd5b60010192915050565b608051611d57620004056000396000818161022001528181610795015281816108f80152818161096b01528181610c2b0152610cf60152611d576000f3fe608060405234801561001057600080fd5b50600436106101515760003560e01c806380fd9d8d116100cd578063bd03fbb811610081578063d023c79c11610066578063d023c79c146102c6578063d46da387146102d9578063e9c95034146102ec57600080fd5b8063bd03fbb8146102a8578063bda8265f146102b157600080fd5b8063a833bb07116100b2578063a833bb0714610255578063b013c3bf14610268578063b0c0c2641461029f57600080fd5b806380fd9d8d1461015657806393ba731b1461024257600080fd5b8063392130da1161012457806356397c351161010957806356397c35146102085780637998a1c41461021b5780637a989b651461024257600080fd5b8063392130da146101e25780634d24e236146101f557600080fd5b80630b6ca897146101565780632630c12f1461017c578063273310e3146101a7578063347652e3146101ba575b600080fd5b610169610164366004611763565b6102ff565b6040519081526020015b60405180910390f35b60045461018f906001600160a01b031681565b6040516001600160a01b039091168152602001610173565b60015461018f906001600160a01b031681565b6101cd6101c8366004611804565b610411565b60408051928352602083019190915201610173565b6101cd6101f0366004611804565b61057c565b60025461018f906001600160a01b031681565b60035461018f906001600160a01b031681565b6101697f000000000000000000000000000000000000000000000000000000000000000081565b610169610250366004611763565b6106f7565b6101cd610263366004611804565b610707565b61028c6102763660046118c7565b60056020526000908152604090205461ffff1681565b60405161ffff9091168152602001610173565b61016961271081565b61016960065481565b6102c46102bf3660046118e9565b610784565b005b6102c46102d4366004611927565b61095a565b60005461018f906001600160a01b031681565b6101cd6102fa366004611804565b610c7b565b60008054604080517ff3400419000000000000000000000000000000000000000000000000000000008152905133926001600160a01b03169163f34004199160048083019260209291908290030181865afa158015610362573d6000803e3d6000fd5b505050506040513d601f19601f82011682018060405250810190610386919061194b565b6001600160a01b0316146103f65760405162461bcd60e51b815260206004820152602c60248201527f41636365737369626c653a2063616c6c6572206973206e6f742074686520746c60448201526b321031b7b73a3937b63632b960a11b60648201526084015b60405180910390fd5b610404898989898989610ce5565b9998505050505050505050565b600080336001600160a01b031660008054906101000a90046001600160a01b03166001600160a01b031663f34004196040518163ffffffff1660e01b8152600401602060405180830381865afa15801561046f573d6000803e3d6000fd5b505050506040513d601f19601f82011682018060405250810190610493919061194b565b6001600160a01b0316146104fe5760405162461bcd60e51b815260206004820152602c60248201527f41636365737369626c653a2063616c6c6572206973206e6f742074686520746c60448201526b321031b7b73a3937b63632b960a11b60648201526084016103ed565b6000831561054357600061051485870187611a56565b60408101515190915015610541576000816040015180602001905181019061053c9190611b3f565b519250505b505b60006105548d8d8d8d8d8d88610f7b565b91955093509050801561056c5761056c8a828f610ff4565b5050995099975050505050505050565b600080336001600160a01b031660008054906101000a90046001600160a01b03166001600160a01b031663f34004196040518163ffffffff1660e01b8152600401602060405180830381865afa1580156105da573d6000803e3d6000fd5b505050506040513d601f19601f820116820180604052508101906105fe919061194b565b6001600160a01b0316146106695760405162461bcd60e51b815260206004820152602c60248201527f41636365737369626c653a2063616c6c6572206973206e6f742074686520746c60448201526b321031b7b73a3937b63632b960a11b60648201526084016103ed565b600083156106ae57600061067f85870187611a56565b604081015151909150156106ac57600081604001518060200190518101906106a79190611b3f565b519250505b505b806106c05760008092509250506106e9565b60006106d08d8d8d8d8d8d61107f565b9094509250839050801561056c5761056c8a828f610ff4565b995099975050505050505050565b6000610404898989898989610ce5565b60008080831561074e57600061071f85870187611a56565b6040810151519091501561074c57600081604001518060200190518101906107479190611b3f565b519250505b505b806107605760008092509250506106e9565b60006107708d8d8d8d8d8d61107f565b909e909d509b505050505050505050505050565b60005460405162e4decd60e31b81527f0000000000000000000000000000000000000000000000000000000000000000600482018190529133916001600160a01b0390911690630726f66890602401602060405180830381865afa1580156107f0573d6000803e3d6000fd5b505050506040513d601f19601f82011682018060405250810190610814919061194b565b6001600160a01b0316146108765760405162461bcd60e51b8152602060048201526024808201527f4f776e61626c653a2063616c6c6572206973206e6f742074686520746c64206f6044820152633bb732b960e11b60648201526084016103ed565b6127108261ffff1611156108cc5760405162461bcd60e51b815260206004820152601e60248201527f696e76616c69642070726552656769446973636f756e7452617465427073000060448201526064016103ed565b60ff8316600081815260056020908152604091829020805461ffff191661ffff871690811790915582517f0000000000000000000000000000000000000000000000000000000000000000815291820193909352908101919091527fe3d1f707b794bd5924e6453b500039ba267587f55f8945a88def871cad84c6cb906060015b60405180910390a1505050565b60005460405162e4decd60e31b81527f0000000000000000000000000000000000000000000000000000000000000000600482018190529133916001600160a01b0390911690630726f66890602401602060405180830381865afa1580156109c6573d6000803e3d6000fd5b505050506040513d601f19601f820116820180604052508101906109ea919061194b565b6001600160a01b031614610a4c5760405162461bcd60e51b8152602060048201526024808201527f4f776e61626c653a2063616c6c6572206973206e6f742074686520746c64206f6044820152633bb732b960e11b60648201526084016103ed565b6006544210610a87576040517f397a82ac00000000000000000000000000000000000000000000000000000000815260040160405180910390fd5b814210610afc5760405162461bcd60e51b815260206004820152603860248201527f6e6577207075626c6963526567697374726174696f6e537461727454696d652060448201527f6d7573742062652067726561746572207468616e206e6f77000000000000000060648201526084016103ed565b600154604080517f18969e3c00000000000000000000000000000000000000000000000000000000815290516000926001600160a01b0316916318969e3c9160048083019260209291908290030181865afa158015610b5f573d6000803e3d6000fd5b505050506040513d601f19601f82011682018060405250810190610b839190611b89565b9050828110610c205760405162461bcd60e51b815260206004820152604b60248201527f6e6577207075626c6963526567697374726174696f6e537461727454696d652060448201527f6d7573742062652067726561746572207468616e20707265526567697374726160648201527f74696f6e456e6454696d65000000000000000000000000000000000000000000608482015260a4016103ed565b6006839055604080517f00000000000000000000000000000000000000000000000000000000000000008152602081018590527f7209932ed961cda2151a57a4ad04f2fba1ce7dd5f0ebedc991802aa16dd97a1f910161094d565b600080808315610cc2576000610c9385870187611a56565b60408101515190915015610cc05760008160400151806020019051810190610cbb9190611b3f565b519250505b505b610cd18c8c8c8c8c8c87610f7b565b50909d909c509a5050505050505050505050565b60005460405162e4decd60e31b81527f0000000000000000000000000000000000000000000000000000000000000000600482015282916001600160a01b0386811692911690630726f66890602401602060405180830381865afa158015610d51573d6000803e3d6000fd5b505050506040513d601f19601f82011682018060405250810190610d75919061194b565b6001600160a01b031603610e5057600654421015610e50576001546001600160a01b031615610e4857600154604080517fffeaf35f00000000000000000000000000000000000000000000000000000000815290516000926001600160a01b03169163ffeaf35f9160048083019260209291908290030181865afa158015610e01573d6000803e3d6000fd5b505050506040513d601f19601f82011682018060405250810190610e259190611b89565b9050801580610e3357508042105b15610e42576000915050610f71565b50610e50565b506000610f71565b6001546001600160a01b031615610f7157600160009054906101000a90046001600160a01b03166001600160a01b0316632399bd636040518163ffffffff1660e01b8152600401602060405180830381865afa158015610eb4573d6000803e3d6000fd5b505050506040513d601f19601f82011682018060405250810190610ed89190611ba2565b15610f71576000610f1e87878080601f0160208091040260200160405190810160405280939291908181526020018383808284376000920191909152506111b592505050565b905060058160ff161115610f30575060055b60ff811660009081526005602052604081205461ffff1690612710610f558387611bd3565b610f5f9190611bf0565b9050610f6b8185611c12565b93505050505b9695505050505050565b6000806000610f8e8a8a8a8a8a8a611344565b9093509150828511610fa557508391506000610fe7565b610faf8386611c12565b945060008415610fcd57610fc78b8b8b8b8b8b61107f565b90925090505b610fd78285611c25565b9350610fe38184611c25565b9250505b9750975097945050505050565b6003546040517f698f9585000000000000000000000000000000000000000000000000000000008152600481018390526001600160a01b038581166024830152604482018590529091169063698f958590606401600060405180830381600087803b15801561106257600080fd5b505af1158015611076573d6000803e3d6000fd5b50505050505050565b6003546040517f3656eec2000000000000000000000000000000000000000000000000000000008152600481018890526001600160a01b0385811660248301526000928392839290911690633656eec290604401602060405180830381865afa1580156110f0573d6000803e3d6000fd5b505050506040513d601f19601f820116820180604052508101906111149190611b89565b9050838111156111265783925061112a565b8092505b82156111a9576002546040516338ad915960e01b8152600481018b9052602481018590526000916001600160a01b0316906338ad915990604401602060405180830381865afa158015611181573d6000803e3d6000fd5b505050506040513d601f19601f820116820180604052508101906111a59190611b89565b9250505b50965096945050505050565b8051600090819081905b8082101561133b5760008583815181106111db576111db611c38565b01602001516001600160f81b03191690507f80000000000000000000000000000000000000000000000000000000000000008110156112265761121f600184611c25565b9250611328565b7fe0000000000000000000000000000000000000000000000000000000000000006001600160f81b0319821610156112635761121f600284611c25565b7ff0000000000000000000000000000000000000000000000000000000000000006001600160f81b0319821610156112a05761121f600384611c25565b7ff8000000000000000000000000000000000000000000000000000000000000006001600160f81b0319821610156112dd5761121f600484611c25565b7ffc000000000000000000000000000000000000000000000000000000000000006001600160f81b03198216101561131a5761121f600584611c25565b611325600684611c25565b92505b508261133381611c4e565b9350506111bf565b50909392505050565b60015460009081906001600160a01b0316156116f757600160009054906101000a90046001600160a01b03166001600160a01b0316639efdb7cf6040518163ffffffff1660e01b8152600401602060405180830381865afa1580156113ad573d6000803e3d6000fd5b505050506040513d601f19601f820116820180604052508101906113d19190611ba2565b156116f757600087876040516113e8929190611c67565b6040519081900381206001547f96da43b6000000000000000000000000000000000000000000000000000000008352600483018290529092506000916001600160a01b03909116906396da43b690602401600060405180830381865afa158015611456573d6000803e3d6000fd5b505050506040513d6000823e601f3d908101601f1916820160405261147e9190810190611c77565b50915050866001600160a01b0316816001600160a01b0316036116f4576001546040517f2d3f2b05000000000000000000000000000000000000000000000000000000008152600481018490526001600160a01b0389811660248301526000921690632d3f2b0590604401602060405180830381865afa158015611506573d6000803e3d6000fd5b505050506040513d601f19601f8201168201806040525081019061152a9190611b89565b600480546040517f6c01c8740000000000000000000000000000000000000000000000000000000081529182018390529192506000916001600160a01b031690636c01c87490602401602060405180830381865afa158015611590573d6000803e3d6000fd5b505050506040513d601f19601f820116820180604052508101906115b49190611b89565b6002546040516338ad915960e01b8152600481018f9052602481018390529192506000916001600160a01b03909116906338ad915990604401602060405180830381865afa15801561160a573d6000803e3d6000fd5b505050506040513d601f19601f8201168201806040525081019061162e9190611b89565b905061163a8187611c25565b95505050506000600160009054906101000a90046001600160a01b03166001600160a01b031663888319d66040518163ffffffff1660e01b8152600401602060405180830381865afa158015611694573d6000803e3d6000fd5b505050506040513d601f19601f820116820180604052508101906116b89190611b89565b90508087116116cc578594505050506116f7565b6000876116d98884611bd3565b6116e39190611bf0565b90506116ef8187611c25565b955050505b50505b965096945050505050565b60008083601f84011261171457600080fd5b50813567ffffffffffffffff81111561172c57600080fd5b60208301915083602082850101111561174457600080fd5b9250929050565b6001600160a01b038116811461176057600080fd5b50565b60008060008060008060008060c0898b03121561177f57600080fd5b88359750602089013567ffffffffffffffff8082111561179e57600080fd5b6117aa8c838d01611702565b909950975060408b013591506117bf8261174b565b90955060608a0135945060808a0135935060a08a013590808211156117e357600080fd5b506117f08b828c01611702565b999c989b5096995094979396929594505050565b600080600080600080600080600060e08a8c03121561182257600080fd5b8935985060208a013567ffffffffffffffff8082111561184157600080fd5b61184d8d838e01611702565b909a50985060408c013591506118628261174b565b90965060608b0135955060808b0135945060a08b0135935060c08b0135908082111561188d57600080fd5b5061189a8c828d01611702565b915080935050809150509295985092959850929598565b803560ff811681146118c257600080fd5b919050565b6000602082840312156118d957600080fd5b6118e2826118b1565b9392505050565b600080604083850312156118fc57600080fd5b611905836118b1565b9150602083013561ffff8116811461191c57600080fd5b809150509250929050565b60006020828403121561193957600080fd5b5035919050565b80516118c28161174b565b60006020828403121561195d57600080fd5b81516118e28161174b565b634e487b7160e01b600052604160045260246000fd5b6040516080810167ffffffffffffffff811182821017156119a1576119a1611968565b60405290565b604051601f8201601f1916810167ffffffffffffffff811182821017156119d0576119d0611968565b604052919050565b600067ffffffffffffffff8211156119f2576119f2611968565b50601f01601f191660200190565b600082601f830112611a1157600080fd5b8135611a24611a1f826119d8565b6119a7565b818152846020838601011115611a3957600080fd5b816020850160208301376000918101602001919091529392505050565b600060208284031215611a6857600080fd5b813567ffffffffffffffff80821115611a8057600080fd5b9083019060808286031215611a9457600080fd5b611a9c61197e565b823582811115611aab57600080fd5b611ab787828601611a00565b825250602083013582811115611acc57600080fd5b611ad887828601611a00565b602083015250604083013582811115611af057600080fd5b611afc87828601611a00565b604083015250606083013582811115611b1457600080fd5b611b2087828601611a00565b60608301525095945050505050565b805180151581146118c257600080fd5b600060208284031215611b5157600080fd5b6040516020810181811067ffffffffffffffff82111715611b7457611b74611968565b604052611b8083611b2f565b81529392505050565b600060208284031215611b9b57600080fd5b5051919050565b600060208284031215611bb457600080fd5b6118e282611b2f565b634e487b7160e01b600052601160045260246000fd5b8082028115828204841417611bea57611bea611bbd565b92915050565b600082611c0d57634e487b7160e01b600052601260045260246000fd5b500490565b81810381811115611bea57611bea611bbd565b80820180821115611bea57611bea611bbd565b634e487b7160e01b600052603260045260246000fd5b600060018201611c6057611c60611bbd565b5060010190565b8183823760009101908152919050565b600080600060608486031215611c8c57600080fd5b835167ffffffffffffffff811115611ca357600080fd5b8401601f81018613611cb457600080fd5b8051611cc2611a1f826119d8565b81815260208881848601011115611cd857600080fd5b60005b83811015611cf6578481018201518382018301528101611cdb565b506000818484010152819650611d0d818901611940565b95505050505060408401519050925092509256fea2646970667358221220da87496e7f63269b2048d444cbb1a763036bd58c909514663730b50284659ac264736f6c6343000812003360a06040523480156200001157600080fd5b50604051620015153803806200151583398101604081905262000034916200023d565b600080546001600160a01b0319166001600160a01b03878116919091178255608086905260028054610100600160a81b0319166101008784168102919091179182905590041615620000fd57600260019054906101000a90046001600160a01b03166001600160a01b03166318969e3c6040518163ffffffff1660e01b8152600401602060405180830381865afa158015620000d4573d6000803e3d6000fd5b505050506040513d601f19601f82011682018060405250810190620000fa9190620002a9565b90505b828111156200018c5760405162461bcd60e51b815260206004820152604b60248201527f6e6577207075626c6963526567697374726174696f6e537461727454696d652060448201527f6d7573742062652067726561746572207468616e20707265526567697374726160648201526a74696f6e456e6454696d6560a81b608482015260a40160405180910390fd5b60018390556002805460ff191683151517905560805160408051918252602082018590527f7209932ed961cda2151a57a4ad04f2fba1ce7dd5f0ebedc991802aa16dd97a1f910160405180910390a16080516040805191825283151560208301527f5602d41126ea699a93f4ab359d93e8701e97587ef6ecaf53ba0bfcfbc9b9443b910160405180910390a1505050505050620002c3565b6001600160a01b03811681146200023a57600080fd5b50565b600080600080600060a086880312156200025657600080fd5b8551620002638162000224565b6020870151604088015191965094506200027d8162000224565b60608701516080880151919450925080151581146200029b57600080fd5b809150509295509295909350565b600060208284031215620002bc57600080fd5b5051919050565b60805161120c6200030960003960008181610133015281816103a8015281816104dc01528181610545015281816106770152818161092901526109ad015261120c6000f3fe608060405234801561001057600080fd5b50600436106100be5760003560e01c8063a81e3af211610076578063d023c79c1161005b578063d023c79c14610194578063d46da387146101a7578063eea8fe0a146101ba57600080fd5b8063a81e3af214610178578063bd03fbb81461018b57600080fd5b80635b299fb5116100a75780635b299fb51461011b5780637998a1c41461012e5780637b242c781461016357600080fd5b8063273310e3146100c357806336625cc3146100f8575b600080fd5b6002546100db9061010090046001600160a01b031681565b6040516001600160a01b0390911681526020015b60405180910390f35b61010b610106366004611050565b6101c7565b60405190151581526020016100ef565b61010b610129366004611050565b610377565b6101557f000000000000000000000000000000000000000000000000000000000000000081565b6040519081526020016100ef565b6101766101713660046110f6565b610397565b005b61017661018636600461111a565b610534565b61015560015481565b6101766101a2366004611137565b610666565b6000546100db906001600160a01b031681565b60025461010b9060ff1681565b60008054604080517ff3400419000000000000000000000000000000000000000000000000000000008152905133926001600160a01b03169163f34004199160048083019260209291908290030181865afa15801561022a573d6000803e3d6000fd5b505050506040513d601f19601f8201168201806040525081019061024e9190611150565b6001600160a01b0316146102cf5760405162461bcd60e51b815260206004820152602c60248201527f41636365737369626c653a2063616c6c6572206973206e6f742074686520746c60448201527f6420636f6e74726f6c6c6572000000000000000000000000000000000000000060648201526084015b60405180910390fd5b6000806102e18a8a8a8a8a8a8a610981565b91509150801561036a576002546040517f8cbec9320000000000000000000000000000000000000000000000000000000081526001600160a01b03898116600483015261010090920490911690638cbec93290602401600060405180830381600087803b15801561035157600080fd5b505af1158015610365573d6000803e3d6000fd5b505050505b5098975050505050505050565b60008061038989898989898989610981565b509998505050505050505050565b60005460405162e4decd60e31b81527f0000000000000000000000000000000000000000000000000000000000000000600482018190529133916001600160a01b0390911690630726f66890602401602060405180830381865afa158015610403573d6000803e3d6000fd5b505050506040513d601f19601f820116820180604052508101906104279190611150565b6001600160a01b0316146104895760405162461bcd60e51b8152602060048201526024808201527f4f776e61626c653a2063616c6c6572206973206e6f742074686520746c64206f6044820152633bb732b960e11b60648201526084016102c6565b6001544210156104c5576040517f4dbc9bc000000000000000000000000000000000000000000000000000000000815260040160405180910390fd5b6002805460ff1916831515908117909155604080517f0000000000000000000000000000000000000000000000000000000000000000815260208101929092527f5602d41126ea699a93f4ab359d93e8701e97587ef6ecaf53ba0bfcfbc9b9443b910160405180910390a15050565b60005460405162e4decd60e31b81527f0000000000000000000000000000000000000000000000000000000000000000600482018190529133916001600160a01b0390911690630726f66890602401602060405180830381865afa1580156105a0573d6000803e3d6000fd5b505050506040513d601f19601f820116820180604052508101906105c49190611150565b6001600160a01b0316146106265760405162461bcd60e51b8152602060048201526024808201527f4f776e61626c653a2063616c6c6572206973206e6f742074686520746c64206f6044820152633bb732b960e11b60648201526084016102c6565b50600280546001600160a01b03909216610100027fffffffffffffffffffffff0000000000000000000000000000000000000000ff909216919091179055565b60005460405162e4decd60e31b81527f0000000000000000000000000000000000000000000000000000000000000000600482018190529133916001600160a01b0390911690630726f66890602401602060405180830381865afa1580156106d2573d6000803e3d6000fd5b505050506040513d601f19601f820116820180604052508101906106f69190611150565b6001600160a01b0316146107585760405162461bcd60e51b8152602060048201526024808201527f4f776e61626c653a2063616c6c6572206973206e6f742074686520746c64206f6044820152633bb732b960e11b60648201526084016102c6565b6001544210610793576040517f397a82ac00000000000000000000000000000000000000000000000000000000815260040160405180910390fd5b8142106108085760405162461bcd60e51b815260206004820152603860248201527f6e6577207075626c6963526567697374726174696f6e537461727454696d652060448201527f6d7573742062652067726561746572207468616e206e6f77000000000000000060648201526084016102c6565b6000600260019054906101000a90046001600160a01b03166001600160a01b03166318969e3c6040518163ffffffff1660e01b8152600401602060405180830381865afa15801561085d573d6000803e3d6000fd5b505050506040513d601f19601f82011682018060405250810190610881919061116d565b905082811061091e5760405162461bcd60e51b815260206004820152604b60248201527f6e6577207075626c6963526567697374726174696f6e537461727454696d652060448201527f6d7573742062652067726561746572207468616e20707265526567697374726160648201527f74696f6e456e6454696d65000000000000000000000000000000000000000000608482015260a4016102c6565b6001839055604080517f00000000000000000000000000000000000000000000000000000000000000008152602081018590527f7209932ed961cda2151a57a4ad04f2fba1ce7dd5f0ebedc991802aa16dd97a1f910160405180910390a1505050565b60008060008888604051610996929190611186565b60405190819003812060005462e4decd60e31b83527f000000000000000000000000000000000000000000000000000000000000000060048401529092506001600160a01b0389811692911690630726f66890602401602060405180830381865afa158015610a09573d6000803e3d6000fd5b505050506040513d601f19601f82011682018060405250810190610a2d9190611150565b6001600160a01b031603610b0a57600154421015610b0a5760025461010090046001600160a01b031615610afc576000600260019054906101000a90046001600160a01b03166001600160a01b031663ffeaf35f6040518163ffffffff1660e01b8152600401602060405180830381865afa158015610ab0573d6000803e3d6000fd5b505050506040513d601f19601f82011682018060405250810190610ad4919061116d565b9050801580610ae257508042105b15610af65760016000935093505050610fe3565b50610b0a565b600160009250925050610fe3565b60025461010090046001600160a01b031615610faa57600260019054906101000a90046001600160a01b03166001600160a01b031663b6fc138f6040518163ffffffff1660e01b8152600401602060405180830381865afa158015610b73573d6000803e3d6000fd5b505050506040513d601f19601f82011682018060405250810190610b979190611196565b15610d7757600260019054906101000a90046001600160a01b03166001600160a01b031663045535b76040518163ffffffff1660e01b8152600401602060405180830381865afa158015610bef573d6000803e3d6000fd5b505050506040513d601f19601f82011682018060405250810190610c13919061116d565b4211610c26576000809250925050610fe3565b600260019054906101000a90046001600160a01b03166001600160a01b0316639efdb7cf6040518163ffffffff1660e01b8152600401602060405180830381865afa158015610c79573d6000803e3d6000fd5b505050506040513d601f19601f82011682018060405250810190610c9d9190611196565b15610d77576002546040517f8cb5d7000000000000000000000000000000000000000000000000000000000081526004810183905260009161010090046001600160a01b031690638cb5d70090602401602060405180830381865afa158015610d0a573d6000803e3d6000fd5b505050506040513d601f19601f82011682018060405250810190610d2e9190611150565b9050876001600160a01b0316816001600160a01b031603610d585760016000935093505050610fe3565b6001600160a01b03811615610d7557600080935093505050610fe3565b505b600260019054906101000a90046001600160a01b03166001600160a01b031663dd3cb4a96040518163ffffffff1660e01b8152600401602060405180830381865afa158015610dca573d6000803e3d6000fd5b505050506040513d601f19601f82011682018060405250810190610dee9190611196565b15610faa57600260019054906101000a90046001600160a01b03166001600160a01b031663c989d0756040518163ffffffff1660e01b8152600401602060405180830381865afa158015610e46573d6000803e3d6000fd5b505050506040513d601f19601f82011682018060405250810190610e6a919061116d565b421015610e7e576000809250925050610fe3565b600260019054906101000a90046001600160a01b03166001600160a01b031663c39887f56040518163ffffffff1660e01b8152600401602060405180830381865afa158015610ed1573d6000803e3d6000fd5b505050506040513d601f19601f82011682018060405250810190610ef5919061116d565b4211610faa576002546040517f403451c80000000000000000000000000000000000000000000000000000000081526001600160a01b0389811660048301526000926101009004169063403451c890602401602060405180830381865afa158015610f64573d6000803e3d6000fd5b505050506040513d601f19601f82011682018060405250810190610f8891906111b3565b60ff1611610f9d576000809250925050610fe3565b6001809250925050610fe3565b600154421015610fc1576000809250925050610fe3565b60025460ff1615610fd9576000809250925050610fe3565b6001600092509250505b97509795505050505050565b60008083601f84011261100157600080fd5b50813567ffffffffffffffff81111561101957600080fd5b60208301915083602082850101111561103157600080fd5b9250929050565b6001600160a01b038116811461104d57600080fd5b50565b600080600080600080600060a0888a03121561106b57600080fd5b87359650602088013567ffffffffffffffff8082111561108a57600080fd5b6110968b838c01610fef565b909850965060408a013591506110ab82611038565b90945060608901359350608089013590808211156110c857600080fd5b506110d58a828b01610fef565b989b979a50959850939692959293505050565b801515811461104d57600080fd5b60006020828403121561110857600080fd5b8135611113816110e8565b9392505050565b60006020828403121561112c57600080fd5b813561111381611038565b60006020828403121561114957600080fd5b5035919050565b60006020828403121561116257600080fd5b815161111381611038565b60006020828403121561117f57600080fd5b5051919050565b8183823760009101908152919050565b6000602082840312156111a857600080fd5b8151611113816110e8565b6000602082840312156111c557600080fd5b815160ff8116811461111357600080fdfea2646970667358221220b17b12e920d6eb83232103251d5a5884ebf458d3ff5f87386665984a701eec5264736f6c63430008120033a2646970667358221220f005f4f462b7b0d94418effc8fa45bc40fee9649baa339b9f6b24595372071e064736f6c63430008120033",
  "linkReferences": {},
  "deployedLinkReferences": {}
}