{
  "_format": "hh-sol-artifact-1",
  "contractName": "TldFactory",
  "sourceName": "contracts/admin/TldFactory.sol",
  "abi": [
    {
      "inputs": [
        {
          "internalType": "contract ISANN",
          "name": "_sann",
          "type": "address"
        }
      ],
      "stateMutability": "nonpayable",
      "type": "constructor"
    },
    {
      "anonymous": false,
      "inputs": [
        {
          "indexed": false,
          "internalType": "uint8",
          "name": "version",
          "type": "uint8"
        }
      ],
      "name": "Initialized",
      "type": "event"
    },
    {
      "anonymous": false,
      "inputs": [
        {
          "indexed": false,
          "internalType": "address",
          "name": "creator",
          "type": "address"
        },
        {
          "indexed": false,
          "internalType": "uint256",
          "name": "chainId",
          "type": "uint256"
        },
        {
          "indexed": false,
          "internalType": "uint256",
          "name": "identifier",
          "type": "uint256"
        },
        {
          "indexed": false,
          "internalType": "string",
          "name": "tld",
          "type": "string"
        },
        {
          "indexed": false,
          "internalType": "address",
          "name": "controller",
          "type": "address"
        },
        {
          "indexed": false,
          "internalType": "address",
          "name": "base",
          "type": "address"
        }
      ],
      "name": "NewDomainService",
      "type": "event"
    },
    {
      "anonymous": false,
      "inputs": [
        {
          "indexed": false,
          "internalType": "address",
          "name": "stateAddr",
          "type": "address"
        },
        {
          "indexed": false,
          "internalType": "address",
          "name": "auctionAddr",
          "type": "address"
        },
        {
          "indexed": false,
          "internalType": "address",
          "name": "owner",
          "type": "address"
        },
        {
          "indexed": false,
          "internalType": "uint256",
          "name": "identifier",
          "type": "uint256"
        }
      ],
      "name": "PreRegistrationCreated",
      "type": "event"
    },
    {
      "anonymous": false,
      "inputs": [
        {
          "indexed": false,
          "internalType": "address",
          "name": "defaultPriceOracle",
          "type": "address"
        }
      ],
      "name": "SetDefaultPriceOracle",
      "type": "event"
    },
    {
      "inputs": [],
      "name": "baseCreator",
      "outputs": [
        {
          "internalType": "contract IBaseCreator",
          "name": "",
          "type": "address"
        }
      ],
      "stateMutability": "view",
      "type": "function"
    },
    {
      "inputs": [
        {
          "internalType": "string",
          "name": "tld",
          "type": "string"
        },
        {
          "internalType": "address",
          "name": "tldOwner",
          "type": "address"
        },
        {
          "components": [
            {
              "components": [
                {
                  "internalType": "uint256",
                  "name": "minDomainLength",
                  "type": "uint256"
                },
                {
                  "internalType": "uint256",
                  "name": "maxDomainLength",
                  "type": "uint256"
                },
                {
                  "internalType": "uint256",
                  "name": "minRegistrationDuration",
                  "type": "uint256"
                },
                {
                  "internalType": "uint256",
                  "name": "minRenewDuration",
                  "type": "uint256"
                },
                {
                  "internalType": "uint256",
                  "name": "mintCap",
                  "type": "uint256"
                }
              ],
              "internalType": "struct TldConfig",
              "name": "config",
              "type": "tuple"
            },
            {
              "internalType": "uint8[]",
              "name": "letters",
              "type": "uint8[]"
            },
            {
              "internalType": "uint64[]",
              "name": "prices",
              "type": "uint64[]"
            },
            {
              "internalType": "bool",
              "name": "enableGiftCard",
              "type": "bool"
            },
            {
              "internalType": "uint256[]",
              "name": "giftCardPrices",
              "type": "uint256[]"
            },
            {
              "internalType": "bool",
              "name": "enableReferral",
              "type": "bool"
            },
            {
              "internalType": "uint256[]",
              "name": "referralLevels",
              "type": "uint256[]"
            },
            {
              "components": [
                {
                  "internalType": "uint256",
                  "name": "minimumReferralCount",
                  "type": "uint256"
                },
                {
                  "internalType": "uint256",
                  "name": "referrerRate",
                  "type": "uint256"
                },
                {
                  "internalType": "uint256",
                  "name": "refereeRate",
                  "type": "uint256"
                },
                {
                  "internalType": "bool",
                  "name": "isValid",
                  "type": "bool"
                }
              ],
              "internalType": "struct ReferralHub.Comission[]",
              "name": "referralComissions",
              "type": "tuple[]"
            },
            {
              "internalType": "bool",
              "name": "enablePreRegistration",
              "type": "bool"
            },
            {
              "components": [
                {
                  "internalType": "bool",
                  "name": "enableAuction",
                  "type": "bool"
                },
                {
                  "internalType": "uint256",
                  "name": "auctionStartTime",
                  "type": "uint256"
                },
                {
                  "internalType": "uint256",
                  "name": "auctionInitialEndTime",
                  "type": "uint256"
                },
                {
                  "internalType": "uint256",
                  "name": "auctionExtendDuration",
                  "type": "uint256"
                },
                {
                  "internalType": "uint256",
                  "name": "auctionRetentionDuration",
                  "type": "uint256"
                },
                {
                  "internalType": "uint256",
                  "name": "auctionMinRegistrationDuration",
                  "type": "uint256"
                },
                {
                  "internalType": "bool",
                  "name": "enableFcfs",
                  "type": "bool"
                },
                {
                  "internalType": "uint256",
                  "name": "fcfsStartTime",
                  "type": "uint256"
                },
                {
                  "internalType": "uint256",
                  "name": "fcfsEndTime",
                  "type": "uint256"
                }
              ],
              "internalType": "struct PreRegistrationUpdateConfig",
              "name": "preRegiConfig",
              "type": "tuple"
            },
            {
              "internalType": "uint16[]",
              "name": "preRegiDiscountRateBps",
              "type": "uint16[]"
            },
            {
              "internalType": "uint256",
              "name": "publicRegistrationStartTime",
              "type": "uint256"
            },
            {
              "internalType": "bool",
              "name": "publicRegistrationPaused",
              "type": "bool"
            },
            {
              "internalType": "string",
              "name": "baseUri",
              "type": "string"
            }
          ],
          "internalType": "struct TldInitData",
          "name": "initData",
          "type": "tuple"
        }
      ],
      "name": "createDomainService",
      "outputs": [
        {
          "internalType": "uint256",
          "name": "identifier",
          "type": "uint256"
        }
      ],
      "stateMutability": "nonpayable",
      "type": "function"
    },
    {
      "inputs": [],
      "name": "defaultPriceOracle",
      "outputs": [
        {
          "internalType": "address",
          "name": "",
          "type": "address"
        }
      ],
      "stateMutability": "view",
      "type": "function"
    },
    {
      "inputs": [],
      "name": "giftCardLedger",
      "outputs": [
        {
          "internalType": "contract GiftCardLedger",
          "name": "",
          "type": "address"
        }
      ],
      "stateMutability": "view",
      "type": "function"
    },
    {
      "inputs": [],
      "name": "giftCardVoucher",
      "outputs": [
        {
          "internalType": "contract GiftCardVoucher",
          "name": "",
          "type": "address"
        }
      ],
      "stateMutability": "view",
      "type": "function"
    },
    {
      "inputs": [
        {
          "internalType": "contract IStaking",
          "name": "_stakingContract",
          "type": "address"
        },
        {
          "internalType": "contract IBaseCreator",
          "name": "_baseCreator",
          "type": "address"
        },
        {
          "internalType": "contract IRegistrarController",
          "name": "_controller",
          "type": "address"
        },
        {
          "internalType": "address",
          "name": "_platformConfig",
          "type": "address"
        },
        {
          "internalType": "address",
          "name": "_priceOracle",
          "type": "address"
        },
        {
          "internalType": "contract GiftCardVoucher",
          "name": "_giftCardVoucher",
          "type": "address"
        },
        {
          "internalType": "contract GiftCardLedger",
          "name": "_giftCardLedger",
          "type": "address"
        },
        {
          "internalType": "contract ReferralHub",
          "name": "_referralHub",
          "type": "address"
        },
        {
          "internalType": "contract IPreRegistrationCreator",
          "name": "_preRegiCreator",
          "type": "address"
        },
        {
          "internalType": "contract PrepaidPlatformFee",
          "name": "_prepaidPlatformFee",
          "type": "address"
        }
      ],
      "name": "initialize",
      "outputs": [],
      "stateMutability": "nonpayable",
      "type": "function"
    },
    {
      "inputs": [],
      "name": "platformConfig",
      "outputs": [
        {
          "internalType": "address",
          "name": "",
          "type": "address"
        }
      ],
      "stateMutability": "view",
      "type": "function"
    },
    {
      "inputs": [],
      "name": "preRegiCreator",
      "outputs": [
        {
          "internalType": "contract IPreRegistrationCreator",
          "name": "",
          "type": "address"
        }
      ],
      "stateMutability": "view",
      "type": "function"
    },
    {
      "inputs": [],
      "name": "prepaidPlatformFee",
      "outputs": [
        {
          "internalType": "contract PrepaidPlatformFee",
          "name": "",
          "type": "address"
        }
      ],
      "stateMutability": "view",
      "type": "function"
    },
    {
      "inputs": [],
      "name": "referralHub",
      "outputs": [
        {
          "internalType": "contract ReferralHub",
          "name": "",
          "type": "address"
        }
      ],
      "stateMutability": "view",
      "type": "function"
    },
    {
      "inputs": [],
      "name": "registrar",
      "outputs": [
        {
          "internalType": "contract IRegistrarController",
          "name": "",
          "type": "address"
        }
      ],
      "stateMutability": "view",
      "type": "function"
    },
    {
      "inputs": [],
      "name": "sann",
      "outputs": [
        {
          "internalType": "contract ISANN",
          "name": "",
          "type": "address"
        }
      ],
      "stateMutability": "view",
      "type": "function"
    },
    {
      "inputs": [
        {
          "internalType": "address",
          "name": "_defaultPriceOracle",
          "type": "address"
        }
      ],
      "name": "setDefaultPriceOracle",
      "outputs": [],
      "stateMutability": "nonpayable",
      "type": "function"
    },
    {
      "inputs": [],
      "name": "stakingContract",
      "outputs": [
        {
          "internalType": "contract IStaking",
          "name": "",
          "type": "address"
        }
      ],
      "stateMutability": "view",
      "type": "function"
    }
  ],
  "bytecode": "0x608060405234801561001057600080fd5b50604051620051713803806200517183398101604081905261003191610056565b600080546001600160a01b0319166001600160a01b0392909216919091179055610086565b60006020828403121561006857600080fd5b81516001600160a01b038116811461007f57600080fd5b9392505050565b6150db80620000966000396000f3fe60806040523480156200001157600080fd5b5060043610620000fd5760003560e01c806380b6853e1162000097578063c306b378116200006e578063c306b37814620001fe578063d46da3871462000215578063e16f84361462000229578063ee99205c146200023d57600080fd5b806380b6853e14620001c257806381e991cc14620001d6578063a289cf8414620001ea57600080fd5b8063576b3a6411620000d8578063576b3a641462000160578063656bb89614620001745780636dc805e81462000188578063807e5d4714620001ae57600080fd5b8063116fb34414620001025780632b20e397146200011b5780634d24e236146200014c575b600080fd5b62000119620001133660046200170a565b62000251565b005b6004546200012f906001600160a01b031681565b6040516001600160a01b0390911681526020015b60405180910390f35b6001546200012f906001600160a01b031681565b6003546200012f906001600160a01b031681565b6009546200012f906001600160a01b031681565b6200019f6200019936600462001731565b62000396565b60405190815260200162000143565b6002546200012f906001600160a01b031681565b6007546200012f906001600160a01b031681565b6008546200012f906001600160a01b031681565b600a546200012f906001600160a01b031681565b620001196200020f366004620017e9565b620009c2565b6000546200012f906001600160a01b031681565b6005546200012f906001600160a01b031681565b6006546200012f906001600160a01b031681565b6000546040805163cdcd7fb560e01b8152905133926001600160a01b03169163cdcd7fb59160048083019260209291908290030181865afa1580156200029b573d6000803e3d6000fd5b505050506040513d601f19601f82011682018060405250810190620002c19190620018ce565b6001600160a01b031614620002f35760405162461bcd60e51b8152600401620002ea90620018ee565b60405180910390fd5b6001600160a01b038116620003425760405162461bcd60e51b8152602060048201526014602482015273696e76616c6964207072696365206f7261636c6560601b6044820152606401620002ea565b600380546001600160a01b0319166001600160a01b0383169081179091556040519081527f3e44d8338b9402ad16cf357c6ff64e5ec68c5c0fd3e5d9ee3beb921e620e5c449060200160405180910390a150565b60065460405163324f23cd60e21b81523360048201526000916001600160a01b03169063c93c8f3490602401602060405180830381865afa158015620003e0573d6000803e3d6000fd5b505050506040513d601f19601f8201168201806040525081019062000406919062001949565b620004645760405162461bcd60e51b815260206004820152602760248201527f5374616b696e6720697320726571756972656420666f722072656769737465726044820152661a5b99c815131160ca1b6064820152608401620002ea565b6000546040516303c0719960e31b81526001600160a01b0390911690631e038cc8906200049a9088908890889060040162001992565b602060405180830381865afa158015620004b8573d6000803e3d6000fd5b505050506040513d601f19601f82011682018060405250810190620004de9190620019c0565b6002546000805460408051637b10399960e01b8152905194955091936001600160a01b039384169363c0985c3293921691637b1039999160048083019260209291908290030181865afa1580156200053a573d6000803e3d6000fd5b505050506040513d601f19601f82011682018060405250810190620005609190620018ce565b848989620005736103208a018a620019da565b6040518763ffffffff1660e01b8152600401620005969695949392919062001a2b565b6020604051808303816000875af1158015620005b6573d6000803e3d6000fd5b505050506040513d601f19601f82011682018060405250810190620005dc9190620018ce565b60005460405163519a40ad60e11b81529192506001600160a01b03169063a334815a9062000617908990899087903090889060040162001a77565b600060405180830381600087803b1580156200063257600080fd5b505af115801562000647573d6000803e3d6000fd5b50506004805460408051630602465960e51b81529283018790528735602484015260208801356044840152870135606483015260608701356084830152608087013560a48301526001600160a01b0316925063c048cb20915060c401600060405180830381600087803b158015620006be57600080fd5b505af1158015620006d3573d6000803e3d6000fd5b505050506200070382848060a00190620006ee919062001ab4565b620006fd60c088018862001ab4565b62000ca7565b6000620007196101a08501610180860162001b13565b156200074257600a546200073f90849087906001600160a01b03166101a0880162000ebe565b90505b60006001600160a01b0382161515806200076d57506000620007696102c087018762001ab4565b9050115b806200077e57506000856102e00135115b15620007a957620007a684836200079a6102c089018962001ab4565b896102e0013562000fd4565b90505b6000856102e001351180620007cd5750620007cd6103208601610300870162001b13565b80620007e157506001600160a01b03821615155b156200080d576200080d84620008006103208801610300890162001b13565b876102e001358562001297565b62000820610100860160e0870162001b13565b15620008415762000841846200083b61010088018862001ab4565b6200141c565b620008556101408601610120870162001b13565b15620008865762000886846200087061014088018862001ab4565b620008806101608a018a62001b33565b620014df565b600054604051634376c80160e01b8152600481018690526001600160a01b03888116602483015290911690634376c80190604401600060405180830381600087803b158015620008d557600080fd5b505af1158015620008ea573d6000803e3d6000fd5b505050507f6ddbb1a3a3d0722a5299698ddc6574ba92e317460539cde58adbf3b63c511c3d8660008054906101000a90046001600160a01b03166001600160a01b0316639a8a05926040518163ffffffff1660e01b8152600401602060405180830381865afa15801562000962573d6000803e3d6000fd5b505050506040513d601f19601f82011682018060405250810190620009889190620019c0565b600454604051620009af93929189918e918e916001600160a01b03909116908b9062001b80565b60405180910390a1505050949350505050565b600054600160a81b900460ff1615808015620009eb57506000546001600160a01b90910460ff16105b8062000a0e5750303b15801562000a0e5750600054600160a01b900460ff166001145b62000a735760405162461bcd60e51b815260206004820152602e60248201527f496e697469616c697a61626c653a20636f6e747261637420697320616c72656160448201526d191e481a5b9a5d1a585b1a5e995960921b6064820152608401620002ea565b6000805460ff60a01b1916600160a01b179055801562000aa1576000805460ff60a81b1916600160a81b1790555b6000546040805163cdcd7fb560e01b8152905133926001600160a01b03169163cdcd7fb59160048083019260209291908290030181865afa15801562000aeb573d6000803e3d6000fd5b505050506040513d601f19601f8201168201806040525081019062000b119190620018ce565b6001600160a01b03161462000b3a5760405162461bcd60e51b8152600401620002ea90620018ee565b6001600160a01b03871662000b895760405162461bcd60e51b8152602060048201526014602482015273696e76616c6964207072696365206f7261636c6560601b6044820152606401620002ea565b600680546001600160a01b03199081166001600160a01b038e8116919091179092556001805482168b84161790556002805482168d84161790556003805482168a84169081179091556004805483168d85161790556005805483168785161790556007805483168a8516179055600880548316898516179055600980548316888516179055600a80549092169285169290921790556040519081527f3e44d8338b9402ad16cf357c6ff64e5ec68c5c0fd3e5d9ee3beb921e620e5c449060200160405180910390a1801562000c9a576000805460ff60a81b19169055604051600181527f7f26b83ff96e1f2b6a682f133852f6798a09c465da95921460cefb38474024989060200160405180910390a15b5050505050505050505050565b82811462000d095760405162461bcd60e51b815260206004820152602860248201527f6c656e677468206f66206c65747465727320616e6420707269636573206e6f74604482015267081b585d18da195960c21b6064820152608401620002ea565b600583111562000d535760405162461bcd60e51b8152602060048201526014602482015273746f6f206d616e792070726963652072756c657360601b6044820152606401620002ea565b600583101562000dbe5760035460405163cd1e520f60e01b8152600481018790526001600160a01b039091169063cd1e520f90602401600060405180830381600087803b15801562000da457600080fd5b505af115801562000db9573d6000803e3d6000fd5b505050505b60005b8381101562000eb6576003546001600160a01b031663d1d0ee108787878581811062000df15762000df162001bcd565b905060200201602081019062000e08919062001be3565b86868681811062000e1d5762000e1d62001bcd565b905060200201602081019062000e34919062001c08565b6040516001600160e01b031960e086901b168152600481019390935260ff909116602483015267ffffffffffffffff166044820152606401600060405180830381600087803b15801562000e8757600080fd5b505af115801562000e9c573d6000803e3d6000fd5b50505050808062000ead9062001c34565b91505062000dc1565b505050505050565b6005546000805460048054600154604051635053dcfd60e01b81529495869586956001600160a01b0392831695635053dcfd9562000f1295928516948f948f949282169392909116918e918e910162001c5c565b60408051808303816000875af115801562000f31573d6000803e3d6000fd5b505050506040513d601f19601f8201168201806040525081019062000f57919062001d17565b90925090506001600160a01b0381161562000fca5760405163a7fc7a0760e01b81526001600160a01b03828116600483015283169063a7fc7a0790602401600060405180830381600087803b15801562000fb057600080fd5b505af115801562000fc5573d6000803e3d6000fd5b505050505b5095945050505050565b6000808660405160200162000feb91815260200190565b60408051601f1981840301815290829052805160209091012060008054600154600854600354949650929486946001600160a01b03938416948e948e948116939181169216908d908d908d906200104290620016d5565b620010569998979695949392919062001d56565b8190604051809103906000f590508015801562001077573d6000803e3d6000fd5b5060048054604051633a51118f60e21b81529293506001600160a01b03169163e944463c91620010bd918c918691019182526001600160a01b0316602082015260400190565b600060405180830381600087803b158015620010d857600080fd5b505af1158015620010ed573d6000803e3d6000fd5b5050600480546040516334af22b760e21b81529182018c90526001600160a01b03858116602484015216925063d2bc8adc9150604401600060405180830381600087803b1580156200113e57600080fd5b505af115801562001153573d6000803e3d6000fd5b50506004805460405163b34de3e760e01b81529182018c90526001600160a01b03858116602484015216925063b34de3e79150604401600060405180830381600087803b158015620011a457600080fd5b505af1158015620011b9573d6000803e3d6000fd5b50506004805460405163669ce5cd60e01b81529182018c90526001600160a01b03858116602484015216925063669ce5cd9150604401600060405180830381600087803b1580156200120a57600080fd5b505af11580156200121f573d6000803e3d6000fd5b50506008546040516388a1625b60e01b8152600481018c90526001600160a01b03858116602483015290911692506388a1625b9150604401600060405180830381600087803b1580156200127257600080fd5b505af115801562001287573d6000803e3d6000fd5b50929a9950505050505050505050565b600084604051602001620012ad91815260200190565b60405160208183030381529060405280519060200120905060008160008054906101000a90046001600160a01b031687858789604051620012ee90620016e3565b6001600160a01b03958616815260208101949094529390911660408301526060820152901515608082015260a0018190604051809103906000f59050801580156200133d573d6000803e3d6000fd5b5090506001600160a01b03831615620013ae5760405163a7fc7a0760e01b81526001600160a01b03828116600483015284169063a7fc7a0790602401600060405180830381600087803b1580156200139457600080fd5b505af1158015620013a9573d6000803e3d6000fd5b505050505b6004805460405163735e3f5160e11b81529182018890526001600160a01b038381166024840152169063e6bc7ea290604401600060405180830381600087803b158015620013fb57600080fd5b505af115801562001410573d6000803e3d6000fd5b50505050505050505050565b60005b81811015620014d9576007546001600160a01b03166358198158858585858181106200144f576200144f62001bcd565b905060200201356040518363ffffffff1660e01b81526004016200147d929190918252602082015260400190565b6020604051808303816000875af11580156200149d573d6000803e3d6000fd5b505050506040513d601f19601f82011682018060405250810190620014c39190620019c0565b5080620014d08162001c34565b9150506200141f565b50505050565b828114620015445760405162461bcd60e51b815260206004820152602b60248201527f6c656e677468206f66206c6576656c7320616e6420636f6d697373696f6e732060448201526a1b9bdd081b585d18da195960aa1b6064820152608401620002ea565b60005b8381101562001664576009546001600160a01b0316636b2d538e8787878581811062001577576200157762001bcd565b9050602002013586868681811062001593576200159362001bcd565b90506080020160000135878787818110620015b257620015b262001bcd565b90506080020160200135888888818110620015d157620015d162001bcd565b905060800201604001356040518663ffffffff1660e01b81526004016200161a959493929190948552602085019390935260408401919091526060830152608082015260a00190565b600060405180830381600087803b1580156200163557600080fd5b505af11580156200164a573d6000803e3d6000fd5b5050505080806200165b9062001c34565b91505062001547565b506004805460095460405163076730c760e01b81529283018890526001600160a01b039081166024840152169063076730c790604401600060405180830381600087803b158015620016b557600080fd5b505af1158015620016ca573d6000803e3d6000fd5b505050505050505050565b611efd8062001df583390190565b6113b48062003cf283390190565b6001600160a01b03811681146200170757600080fd5b50565b6000602082840312156200171d57600080fd5b81356200172a81620016f1565b9392505050565b600080600080606085870312156200174857600080fd5b843567ffffffffffffffff808211156200176157600080fd5b818701915087601f8301126200177657600080fd5b8135818111156200178657600080fd5b8860208285010111156200179957600080fd5b6020928301965094509086013590620017b282620016f1565b90925060408601359080821115620017c957600080fd5b5085016103408188031215620017de57600080fd5b939692955090935050565b6000806000806000806000806000806101408b8d0312156200180a57600080fd5b8a356200181781620016f1565b995060208b01356200182981620016f1565b985060408b01356200183b81620016f1565b975060608b01356200184d81620016f1565b965060808b01356200185f81620016f1565b955060a08b01356200187181620016f1565b945060c08b01356200188381620016f1565b935060e08b01356200189581620016f1565b92506101008b0135620018a881620016f1565b91506101208b0135620018bb81620016f1565b809150509295989b9194979a5092959850565b600060208284031215620018e157600080fd5b81516200172a81620016f1565b6020808252602c908201527f41636365737369626c653a2063616c6c6572206973206e6f742074686520706c60408201526b30ba3337b9369030b236b4b760a11b606082015260800190565b80151581146200170757600080fd5b6000602082840312156200195c57600080fd5b81516200172a816200193a565b81835281816020850137506000828201602090810191909152601f909101601f19169091010190565b604081526000620019a860408301858762001969565b905060018060a01b0383166020830152949350505050565b600060208284031215620019d357600080fd5b5051919050565b6000808335601e19843603018112620019f257600080fd5b83018035915067ffffffffffffffff82111562001a0e57600080fd5b60200191503681900382131562001a2457600080fd5b9250929050565b60018060a01b038716815285602082015260806040820152600062001a5560808301868862001969565b828103606084015262001a6a81858762001969565b9998505050505050505050565b60808152600062001a8d60808301878962001969565b6020830195909552506001600160a01b039283166040820152911660609091015292915050565b6000808335601e1984360301811262001acc57600080fd5b83018035915067ffffffffffffffff82111562001ae857600080fd5b6020019150600581901b360382131562001a2457600080fd5b803562001b0e816200193a565b919050565b60006020828403121562001b2657600080fd5b81356200172a816200193a565b6000808335601e1984360301811262001b4b57600080fd5b83018035915067ffffffffffffffff82111562001b6757600080fd5b6020019150600781901b360382131562001a2457600080fd5b600060018060a01b03808a16835288602084015287604084015260c0606084015262001bb160c08401878962001969565b94811660808401529290921660a0909101525095945050505050565b634e487b7160e01b600052603260045260246000fd5b60006020828403121562001bf657600080fd5b813560ff811681146200172a57600080fd5b60006020828403121562001c1b57600080fd5b813567ffffffffffffffff811681146200172a57600080fd5b60006001820162001c5557634e487b7160e01b600052601160045260246000fd5b5060010190565b6001600160a01b03888116825260208201889052868116604083015285811660608301528481166080830152831660a08201526101e08101823562001ca1816200193a565b80151560c084015250602083013560e08301526101006040840135818401526060840135610120840152608084013561014084015260a084013561016084015262001cef60c0850162001b01565b151561018084015260e08401356101a0840152909201356101c0909101529695505050505050565b6000806040838503121562001d2b57600080fd5b825162001d3881620016f1565b602084015190925062001d4b81620016f1565b809150509250929050565b6001600160a01b038a8116825260208083018b905289821660408401528882166060840152878216608084015290861660a083015261010060c08301819052820184905260009061012083019086908390815b8881101562001dd957833561ffff811680821462001dc5578485fd5b865250938101939281019260010162001da9565b5050505060e09290920192909252999850505050505050505056fe60a06040523480156200001157600080fd5b5060405162001efd38038062001efd83398101604081905262000034916200022d565b600080546001600160a01b03199081166001600160a01b038b811691909117835560808a90526001805483168a8316179055600280548316898316179055600380548316888316179055600480549092169086161790555b82518160ff16101562000196576000838260ff1681518110620000b357620000b362000382565b602002602001015190506127108161ffff161115620001185760405162461bcd60e51b815260206004820152601e60248201527f696e76616c69642070726552656769446973636f756e74526174654270730000604482015260640160405180910390fd5b60ff8216600081815260056020908152604091829020805461ffff191661ffff861690811790915582518d815291820193909352908101919091527fe3d1f707b794bd5924e6453b500039ba267587f55f8945a88def871cad84c6cb9060600160405180910390a150806200018d8162000398565b9150506200008c565b50600681905560805160408051918252602082018390527f7209932ed961cda2151a57a4ad04f2fba1ce7dd5f0ebedc991802aa16dd97a1f910160405180910390a15050505050505050620003c6565b6001600160a01b0381168114620001fc57600080fd5b50565b634e487b7160e01b600052604160045260246000fd5b805161ffff811681146200022857600080fd5b919050565b600080600080600080600080610100898b0312156200024b57600080fd5b88516200025881620001e6565b809850506020808a0151975060408a01516200027481620001e6565b60608b01519097506200028781620001e6565b60808b01519096506200029a81620001e6565b60a08b0151909550620002ad81620001e6565b60c08b01519094506001600160401b0380821115620002cb57600080fd5b818c0191508c601f830112620002e057600080fd5b815181811115620002f557620002f5620001ff565b8060051b604051601f19603f830116810181811085821117156200031d576200031d620001ff565b60405291825284820192508381018501918f8311156200033c57600080fd5b938501935b828510156200036557620003558562000215565b8452938501939285019262000341565b80975050505050505060e089015190509295985092959890939650565b634e487b7160e01b600052603260045260246000fd5b600060ff821660ff8103620003bd57634e487b7160e01b600052601160045260246000fd5b60010192915050565b608051611af862000405600039600081816101f001528181610681015281816107a80152818161081b01528181610a5b0152610b260152611af86000f3fe608060405234801561001057600080fd5b50600436106101215760003560e01c806380fd9d8d116100ad578063bd03fbb811610071578063bd03fbb814610278578063bda8265f14610281578063d023c79c14610296578063d46da387146102a9578063e9c95034146102bc57600080fd5b806380fd9d8d1461012657806393ba731b14610212578063a833bb0714610225578063b013c3bf14610238578063b0c0c2641461026f57600080fd5b8063392130da116100f4578063392130da146101b25780634d24e236146101c557806356397c35146101d85780637998a1c4146101eb5780637a989b651461021257600080fd5b80630b6ca897146101265780632630c12f1461014c578063273310e314610177578063347652e31461018a575b600080fd5b610139610134366004611474565b6102cf565b6040519081526020015b60405180910390f35b60045461015f906001600160a01b031681565b6040516001600160a01b039091168152602001610143565b60015461015f906001600160a01b031681565b61019d610198366004611515565b610387565b60408051928352602083019190915201610143565b61019d6101c0366004611515565b6104ad565b60025461015f906001600160a01b031681565b60035461015f906001600160a01b031681565b6101397f000000000000000000000000000000000000000000000000000000000000000081565b610139610220366004611474565b6105e3565b61019d610233366004611515565b6105f3565b61025c6102463660046115d8565b60056020526000908152604090205461ffff1681565b60405161ffff9091168152602001610143565b61013961271081565b61013960065481565b61029461028f3660046115fa565b610670565b005b6102946102a4366004611638565b61080a565b60005461015f906001600160a01b031681565b61019d6102ca366004611515565b610aab565b600080546040805163f340041960e01b8152905133926001600160a01b03169163f34004199160048083019260209291908290030181865afa158015610319573d6000803e3d6000fd5b505050506040513d601f19601f8201168201806040525081019061033d919061165c565b6001600160a01b03161461036c5760405162461bcd60e51b815260040161036390611679565b60405180910390fd5b61037a898989898989610b15565b9998505050505050505050565b600080336001600160a01b031660008054906101000a90046001600160a01b03166001600160a01b031663f34004196040518163ffffffff1660e01b8152600401602060405180830381865afa1580156103e5573d6000803e3d6000fd5b505050506040513d601f19601f82011682018060405250810190610409919061165c565b6001600160a01b03161461042f5760405162461bcd60e51b815260040161036390611679565b60008315610474576000610445858701876117b3565b60408101515190915015610472576000816040015180602001905181019061046d919061189c565b519250505b505b60006104858d8d8d8d8d8d88610d95565b91955093509050801561049d5761049d8a828f610e0e565b5050995099975050505050505050565b600080336001600160a01b031660008054906101000a90046001600160a01b03166001600160a01b031663f34004196040518163ffffffff1660e01b8152600401602060405180830381865afa15801561050b573d6000803e3d6000fd5b505050506040513d601f19601f8201168201806040525081019061052f919061165c565b6001600160a01b0316146105555760405162461bcd60e51b815260040161036390611679565b6000831561059a57600061056b858701876117b3565b604081015151909150156105985760008160400151806020019051810190610593919061189c565b519250505b505b806105ac5760008092509250506105d5565b60006105bc8d8d8d8d8d8d610e80565b9094509250839050801561049d5761049d8a828f610e0e565b995099975050505050505050565b600061037a898989898989610b15565b60008080831561063a57600061060b858701876117b3565b604081015151909150156106385760008160400151806020019051810190610633919061189c565b519250505b505b8061064c5760008092509250506105d5565b600061065c8d8d8d8d8d8d610e80565b909e909d509b505050505050505050505050565b60005460405162e4decd60e31b81527f0000000000000000000000000000000000000000000000000000000000000000600482018190529133916001600160a01b0390911690630726f66890602401602060405180830381865afa1580156106dc573d6000803e3d6000fd5b505050506040513d601f19601f82011682018060405250810190610700919061165c565b6001600160a01b0316146107265760405162461bcd60e51b8152600401610363906118e6565b6127108261ffff16111561077c5760405162461bcd60e51b815260206004820152601e60248201527f696e76616c69642070726552656769446973636f756e745261746542707300006044820152606401610363565b60ff8316600081815260056020908152604091829020805461ffff191661ffff871690811790915582517f0000000000000000000000000000000000000000000000000000000000000000815291820193909352908101919091527fe3d1f707b794bd5924e6453b500039ba267587f55f8945a88def871cad84c6cb906060015b60405180910390a1505050565b60005460405162e4decd60e31b81527f0000000000000000000000000000000000000000000000000000000000000000600482018190529133916001600160a01b0390911690630726f66890602401602060405180830381865afa158015610876573d6000803e3d6000fd5b505050506040513d601f19601f8201168201806040525081019061089a919061165c565b6001600160a01b0316146108c05760405162461bcd60e51b8152600401610363906118e6565b60065442106108e257604051630e5ea0ab60e21b815260040160405180910390fd5b8142106109575760405162461bcd60e51b815260206004820152603860248201527f6e6577207075626c6963526567697374726174696f6e537461727454696d652060448201527f6d7573742062652067726561746572207468616e206e6f7700000000000000006064820152608401610363565b60015460408051630625a78f60e21b815290516000926001600160a01b0316916318969e3c9160048083019260209291908290030181865afa1580156109a1573d6000803e3d6000fd5b505050506040513d601f19601f820116820180604052508101906109c5919061192a565b9050828110610a505760405162461bcd60e51b815260206004820152604b60248201527f6e6577207075626c6963526567697374726174696f6e537461727454696d652060448201527f6d7573742062652067726561746572207468616e20707265526567697374726160648201526a74696f6e456e6454696d6560a81b608482015260a401610363565b6006839055604080517f00000000000000000000000000000000000000000000000000000000000000008152602081018590527f7209932ed961cda2151a57a4ad04f2fba1ce7dd5f0ebedc991802aa16dd97a1f91016107fd565b600080808315610af2576000610ac3858701876117b3565b60408101515190915015610af05760008160400151806020019051810190610aeb919061189c565b519250505b505b610b018c8c8c8c8c8c87610d95565b50909d909c509a5050505050505050505050565b60005460405162e4decd60e31b81527f0000000000000000000000000000000000000000000000000000000000000000600482015282916001600160a01b0386811692911690630726f66890602401602060405180830381865afa158015610b81573d6000803e3d6000fd5b505050506040513d601f19601f82011682018060405250810190610ba5919061165c565b6001600160a01b031603610c6a57600654421015610c6a576001546001600160a01b031615610c625760015460408051600162150ca160e01b0319815290516000926001600160a01b03169163ffeaf35f9160048083019260209291908290030181865afa158015610c1b573d6000803e3d6000fd5b505050506040513d601f19601f82011682018060405250810190610c3f919061192a565b9050801580610c4d57508042105b15610c5c576000915050610d8b565b50610c6a565b506000610d8b565b6001546001600160a01b031615610d8b57600160009054906101000a90046001600160a01b03166001600160a01b0316632399bd636040518163ffffffff1660e01b8152600401602060405180830381865afa158015610cce573d6000803e3d6000fd5b505050506040513d601f19601f82011682018060405250810190610cf29190611943565b15610d8b576000610d3887878080601f016020809104026020016040519081016040528093929190818152602001838380828437600092019190915250610f9d92505050565b905060058160ff161115610d4a575060055b60ff811660009081526005602052604081205461ffff1690612710610d6f8387611974565b610d799190611991565b9050610d8581856119b3565b93505050505b9695505050505050565b6000806000610da88a8a8a8a8a8a6110a0565b9093509150828511610dbf57508391506000610e01565b610dc983866119b3565b945060008415610de757610de18b8b8b8b8b8b610e80565b90925090505b610df182856119c6565b9350610dfd81846119c6565b9250505b9750975097945050505050565b60035460405163698f958560e01b8152600481018390526001600160a01b038581166024830152604482018590529091169063698f958590606401600060405180830381600087803b158015610e6357600080fd5b505af1158015610e77573d6000803e3d6000fd5b50505050505050565b600354604051631b2b776160e11b8152600481018890526001600160a01b0385811660248301526000928392839290911690633656eec290604401602060405180830381865afa158015610ed8573d6000803e3d6000fd5b505050506040513d601f19601f82011682018060405250810190610efc919061192a565b905083811115610f0e57839250610f12565b8092505b8215610f91576002546040516338ad915960e01b8152600481018b9052602481018590526000916001600160a01b0316906338ad915990604401602060405180830381865afa158015610f69573d6000803e3d6000fd5b505050506040513d601f19601f82011682018060405250810190610f8d919061192a565b9250505b50965096945050505050565b8051600090819081905b80821015611097576000858381518110610fc357610fc36119d9565b01602001516001600160f81b0319169050600160ff1b811015610ff257610feb6001846119c6565b9250611084565b600760fd1b6001600160f81b03198216101561101357610feb6002846119c6565b600f60fc1b6001600160f81b03198216101561103457610feb6003846119c6565b601f60fb1b6001600160f81b03198216101561105557610feb6004846119c6565b603f60fa1b6001600160f81b03198216101561107657610feb6005846119c6565b6110816006846119c6565b92505b508261108f816119ef565b935050610fa7565b50909392505050565b60015460009081906001600160a01b03161561140857600160009054906101000a90046001600160a01b03166001600160a01b0316639efdb7cf6040518163ffffffff1660e01b8152600401602060405180830381865afa158015611109573d6000803e3d6000fd5b505050506040513d601f19601f8201168201806040525081019061112d9190611943565b156114085760008787604051611144929190611a08565b604051908190038120600154634b6d21db60e11b8352600483018290529092506000916001600160a01b03909116906396da43b690602401600060405180830381865afa158015611199573d6000803e3d6000fd5b505050506040513d6000823e601f3d908101601f191682016040526111c19190810190611a18565b50915050866001600160a01b0316816001600160a01b03160361140557600154604051632d3f2b0560e01b8152600481018490526001600160a01b0389811660248301526000921690632d3f2b0590604401602060405180830381865afa158015611230573d6000803e3d6000fd5b505050506040513d601f19601f82011682018060405250810190611254919061192a565b60048054604051631b00721d60e21b81529182018390529192506000916001600160a01b031690636c01c87490602401602060405180830381865afa1580156112a1573d6000803e3d6000fd5b505050506040513d601f19601f820116820180604052508101906112c5919061192a565b6002546040516338ad915960e01b8152600481018f9052602481018390529192506000916001600160a01b03909116906338ad915990604401602060405180830381865afa15801561131b573d6000803e3d6000fd5b505050506040513d601f19601f8201168201806040525081019061133f919061192a565b905061134b81876119c6565b95505050506000600160009054906101000a90046001600160a01b03166001600160a01b031663888319d66040518163ffffffff1660e01b8152600401602060405180830381865afa1580156113a5573d6000803e3d6000fd5b505050506040513d601f19601f820116820180604052508101906113c9919061192a565b90508087116113dd57859450505050611408565b6000876113ea8884611974565b6113f49190611991565b905061140081876119c6565b955050505b50505b965096945050505050565b60008083601f84011261142557600080fd5b50813567ffffffffffffffff81111561143d57600080fd5b60208301915083602082850101111561145557600080fd5b9250929050565b6001600160a01b038116811461147157600080fd5b50565b60008060008060008060008060c0898b03121561149057600080fd5b88359750602089013567ffffffffffffffff808211156114af57600080fd5b6114bb8c838d01611413565b909950975060408b013591506114d08261145c565b90955060608a0135945060808a0135935060a08a013590808211156114f457600080fd5b506115018b828c01611413565b999c989b5096995094979396929594505050565b600080600080600080600080600060e08a8c03121561153357600080fd5b8935985060208a013567ffffffffffffffff8082111561155257600080fd5b61155e8d838e01611413565b909a50985060408c013591506115738261145c565b90965060608b0135955060808b0135945060a08b0135935060c08b0135908082111561159e57600080fd5b506115ab8c828d01611413565b915080935050809150509295985092959850929598565b803560ff811681146115d357600080fd5b919050565b6000602082840312156115ea57600080fd5b6115f3826115c2565b9392505050565b6000806040838503121561160d57600080fd5b611616836115c2565b9150602083013561ffff8116811461162d57600080fd5b809150509250929050565b60006020828403121561164a57600080fd5b5035919050565b80516115d38161145c565b60006020828403121561166e57600080fd5b81516115f38161145c565b6020808252602c908201527f41636365737369626c653a2063616c6c6572206973206e6f742074686520746c60408201526b321031b7b73a3937b63632b960a11b606082015260800190565b634e487b7160e01b600052604160045260246000fd5b6040516080810167ffffffffffffffff811182821017156116fe576116fe6116c5565b60405290565b604051601f8201601f1916810167ffffffffffffffff8111828210171561172d5761172d6116c5565b604052919050565b600067ffffffffffffffff82111561174f5761174f6116c5565b50601f01601f191660200190565b600082601f83011261176e57600080fd5b813561178161177c82611735565b611704565b81815284602083860101111561179657600080fd5b816020850160208301376000918101602001919091529392505050565b6000602082840312156117c557600080fd5b813567ffffffffffffffff808211156117dd57600080fd5b90830190608082860312156117f157600080fd5b6117f96116db565b82358281111561180857600080fd5b6118148782860161175d565b82525060208301358281111561182957600080fd5b6118358782860161175d565b60208301525060408301358281111561184d57600080fd5b6118598782860161175d565b60408301525060608301358281111561187157600080fd5b61187d8782860161175d565b60608301525095945050505050565b805180151581146115d357600080fd5b6000602082840312156118ae57600080fd5b6040516020810181811067ffffffffffffffff821117156118d1576118d16116c5565b6040526118dd8361188c565b81529392505050565b60208082526024908201527f4f776e61626c653a2063616c6c6572206973206e6f742074686520746c64206f6040820152633bb732b960e11b606082015260800190565b60006020828403121561193c57600080fd5b5051919050565b60006020828403121561195557600080fd5b6115f38261188c565b634e487b7160e01b600052601160045260246000fd5b808202811582820484141761198b5761198b61195e565b92915050565b6000826119ae57634e487b7160e01b600052601260045260246000fd5b500490565b8181038181111561198b5761198b61195e565b8082018082111561198b5761198b61195e565b634e487b7160e01b600052603260045260246000fd5b600060018201611a0157611a0161195e565b5060010190565b8183823760009101908152919050565b600080600060608486031215611a2d57600080fd5b835167ffffffffffffffff811115611a4457600080fd5b8401601f81018613611a5557600080fd5b8051611a6361177c82611735565b81815260208881848601011115611a7957600080fd5b60005b83811015611a97578481018201518382018301528101611a7c565b506000818484010152819650611aae818901611651565b95505050505060408401519050925092509256fea2646970667358221220ac87c543a80c0ee1e9a2ec309e480f03804afa994e785a8ca4ebc0489ec0cc5f64736f6c6343000812003360a06040523480156200001157600080fd5b50604051620013b4380380620013b483398101604081905262000034916200023d565b600080546001600160a01b0319166001600160a01b03878116919091178255608086905260028054610100600160a81b0319166101008784168102919091179182905590041615620000fd57600260019054906101000a90046001600160a01b03166001600160a01b03166318969e3c6040518163ffffffff1660e01b8152600401602060405180830381865afa158015620000d4573d6000803e3d6000fd5b505050506040513d601f19601f82011682018060405250810190620000fa9190620002a9565b90505b828111156200018c5760405162461bcd60e51b815260206004820152604b60248201527f6e6577207075626c6963526567697374726174696f6e537461727454696d652060448201527f6d7573742062652067726561746572207468616e20707265526567697374726160648201526a74696f6e456e6454696d6560a81b608482015260a40160405180910390fd5b60018390556002805460ff191683151517905560805160408051918252602082018590527f7209932ed961cda2151a57a4ad04f2fba1ce7dd5f0ebedc991802aa16dd97a1f910160405180910390a16080516040805191825283151560208301527f5602d41126ea699a93f4ab359d93e8701e97587ef6ecaf53ba0bfcfbc9b9443b910160405180910390a1505050505050620002c3565b6001600160a01b03811681146200023a57600080fd5b50565b600080600080600060a086880312156200025657600080fd5b8551620002638162000224565b6020870151604088015191965094506200027d8162000224565b60608701516080880151919450925080151581146200029b57600080fd5b809150509295509295909350565b600060208284031215620002bc57600080fd5b5051919050565b6080516110ab620003096000396000818161011301528181610345015281816104240152818161048d0152818161056c015281816107b7015261083b01526110ab6000f3fe608060405234801561001057600080fd5b506004361061009e5760003560e01c8063a81e3af211610066578063a81e3af214610158578063bd03fbb81461016b578063d023c79c14610174578063d46da38714610187578063eea8fe0a1461019a57600080fd5b8063273310e3146100a357806336625cc3146100d85780635b299fb5146100fb5780637998a1c41461010e5780637b242c7814610143575b600080fd5b6002546100bb9061010090046001600160a01b031681565b6040516001600160a01b0390911681526020015b60405180910390f35b6100eb6100e6366004610eab565b6101a7565b60405190151581526020016100cf565b6100eb610109366004610eab565b610314565b6101357f000000000000000000000000000000000000000000000000000000000000000081565b6040519081526020016100cf565b610156610151366004610f51565b610334565b005b610156610166366004610f75565b61047c565b61013560015481565b610156610182366004610f92565b61055b565b6000546100bb906001600160a01b031681565b6002546100eb9060ff1681565b600080546040805163f340041960e01b8152905133926001600160a01b03169163f34004199160048083019260209291908290030181865afa1580156101f1573d6000803e3d6000fd5b505050506040513d601f19601f820116820180604052508101906102159190610fab565b6001600160a01b0316146102855760405162461bcd60e51b815260206004820152602c60248201527f41636365737369626c653a2063616c6c6572206973206e6f742074686520746c60448201526b321031b7b73a3937b63632b960a11b60648201526084015b60405180910390fd5b6000806102978a8a8a8a8a8a8a61080f565b9150915080156103075760025460405163465f649960e11b81526001600160a01b03898116600483015261010090920490911690638cbec93290602401600060405180830381600087803b1580156102ee57600080fd5b505af1158015610302573d6000803e3d6000fd5b505050505b5098975050505050505050565b6000806103268989898989898961080f565b509998505050505050505050565b60005460405162e4decd60e31b81527f0000000000000000000000000000000000000000000000000000000000000000600482018190529133916001600160a01b0390911690630726f66890602401602060405180830381865afa1580156103a0573d6000803e3d6000fd5b505050506040513d601f19601f820116820180604052508101906103c49190610fab565b6001600160a01b0316146103ea5760405162461bcd60e51b815260040161027c90610fc8565b60015442101561040d57604051630136f26f60e61b815260040160405180910390fd5b6002805460ff1916831515908117909155604080517f0000000000000000000000000000000000000000000000000000000000000000815260208101929092527f5602d41126ea699a93f4ab359d93e8701e97587ef6ecaf53ba0bfcfbc9b9443b910160405180910390a15050565b60005460405162e4decd60e31b81527f0000000000000000000000000000000000000000000000000000000000000000600482018190529133916001600160a01b0390911690630726f66890602401602060405180830381865afa1580156104e8573d6000803e3d6000fd5b505050506040513d601f19601f8201168201806040525081019061050c9190610fab565b6001600160a01b0316146105325760405162461bcd60e51b815260040161027c90610fc8565b50600280546001600160a01b0390921661010002610100600160a81b0319909216919091179055565b60005460405162e4decd60e31b81527f0000000000000000000000000000000000000000000000000000000000000000600482018190529133916001600160a01b0390911690630726f66890602401602060405180830381865afa1580156105c7573d6000803e3d6000fd5b505050506040513d601f19601f820116820180604052508101906105eb9190610fab565b6001600160a01b0316146106115760405162461bcd60e51b815260040161027c90610fc8565b600154421061063357604051630e5ea0ab60e21b815260040160405180910390fd5b8142106106a85760405162461bcd60e51b815260206004820152603860248201527f6e6577207075626c6963526567697374726174696f6e537461727454696d652060448201527f6d7573742062652067726561746572207468616e206e6f770000000000000000606482015260840161027c565b6000600260019054906101000a90046001600160a01b03166001600160a01b03166318969e3c6040518163ffffffff1660e01b8152600401602060405180830381865afa1580156106fd573d6000803e3d6000fd5b505050506040513d601f19601f82011682018060405250810190610721919061100c565b90508281106107ac5760405162461bcd60e51b815260206004820152604b60248201527f6e6577207075626c6963526567697374726174696f6e537461727454696d652060448201527f6d7573742062652067726561746572207468616e20707265526567697374726160648201526a74696f6e456e6454696d6560a81b608482015260a40161027c565b6001839055604080517f00000000000000000000000000000000000000000000000000000000000000008152602081018590527f7209932ed961cda2151a57a4ad04f2fba1ce7dd5f0ebedc991802aa16dd97a1f910160405180910390a1505050565b60008060008888604051610824929190611025565b60405190819003812060005462e4decd60e31b83527f000000000000000000000000000000000000000000000000000000000000000060048401529092506001600160a01b0389811692911690630726f66890602401602060405180830381865afa158015610897573d6000803e3d6000fd5b505050506040513d601f19601f820116820180604052508101906108bb9190610fab565b6001600160a01b031603610998576001544210156109985760025461010090046001600160a01b03161561098a576000600260019054906101000a90046001600160a01b03166001600160a01b031663ffeaf35f6040518163ffffffff1660e01b8152600401602060405180830381865afa15801561093e573d6000803e3d6000fd5b505050506040513d601f19601f82011682018060405250810190610962919061100c565b905080158061097057508042105b156109845760016000935093505050610e3e565b50610998565b600160009250925050610e3e565b60025461010090046001600160a01b031615610e0557600260019054906101000a90046001600160a01b03166001600160a01b031663b6fc138f6040518163ffffffff1660e01b8152600401602060405180830381865afa158015610a01573d6000803e3d6000fd5b505050506040513d601f19601f82011682018060405250810190610a259190611035565b15610beb57600260019054906101000a90046001600160a01b03166001600160a01b031663045535b76040518163ffffffff1660e01b8152600401602060405180830381865afa158015610a7d573d6000803e3d6000fd5b505050506040513d601f19601f82011682018060405250810190610aa1919061100c565b4211610ab4576000809250925050610e3e565b600260019054906101000a90046001600160a01b03166001600160a01b0316639efdb7cf6040518163ffffffff1660e01b8152600401602060405180830381865afa158015610b07573d6000803e3d6000fd5b505050506040513d601f19601f82011682018060405250810190610b2b9190611035565b15610beb57600254604051628cb5d760e81b81526004810183905260009161010090046001600160a01b031690638cb5d70090602401602060405180830381865afa158015610b7e573d6000803e3d6000fd5b505050506040513d601f19601f82011682018060405250810190610ba29190610fab565b9050876001600160a01b0316816001600160a01b031603610bcc5760016000935093505050610e3e565b6001600160a01b03811615610be957600080935093505050610e3e565b505b600260019054906101000a90046001600160a01b03166001600160a01b031663dd3cb4a96040518163ffffffff1660e01b8152600401602060405180830381865afa158015610c3e573d6000803e3d6000fd5b505050506040513d601f19601f82011682018060405250810190610c629190611035565b15610e0557600260019054906101000a90046001600160a01b03166001600160a01b031663c989d0756040518163ffffffff1660e01b8152600401602060405180830381865afa158015610cba573d6000803e3d6000fd5b505050506040513d601f19601f82011682018060405250810190610cde919061100c565b421015610cf2576000809250925050610e3e565b600260019054906101000a90046001600160a01b03166001600160a01b031663c39887f56040518163ffffffff1660e01b8152600401602060405180830381865afa158015610d45573d6000803e3d6000fd5b505050506040513d601f19601f82011682018060405250810190610d69919061100c565b4211610e05576002546040516308068a3960e31b81526001600160a01b0389811660048301526000926101009004169063403451c890602401602060405180830381865afa158015610dbf573d6000803e3d6000fd5b505050506040513d601f19601f82011682018060405250810190610de39190611052565b60ff1611610df8576000809250925050610e3e565b6001809250925050610e3e565b600154421015610e1c576000809250925050610e3e565b60025460ff1615610e34576000809250925050610e3e565b6001600092509250505b97509795505050505050565b60008083601f840112610e5c57600080fd5b50813567ffffffffffffffff811115610e7457600080fd5b602083019150836020828501011115610e8c57600080fd5b9250929050565b6001600160a01b0381168114610ea857600080fd5b50565b600080600080600080600060a0888a031215610ec657600080fd5b87359650602088013567ffffffffffffffff80821115610ee557600080fd5b610ef18b838c01610e4a565b909850965060408a01359150610f0682610e93565b9094506060890135935060808901359080821115610f2357600080fd5b50610f308a828b01610e4a565b989b979a50959850939692959293505050565b8015158114610ea857600080fd5b600060208284031215610f6357600080fd5b8135610f6e81610f43565b9392505050565b600060208284031215610f8757600080fd5b8135610f6e81610e93565b600060208284031215610fa457600080fd5b5035919050565b600060208284031215610fbd57600080fd5b8151610f6e81610e93565b60208082526024908201527f4f776e61626c653a2063616c6c6572206973206e6f742074686520746c64206f6040820152633bb732b960e11b606082015260800190565b60006020828403121561101e57600080fd5b5051919050565b8183823760009101908152919050565b60006020828403121561104757600080fd5b8151610f6e81610f43565b60006020828403121561106457600080fd5b815160ff81168114610f6e57600080fdfea264697066735822122028e13c8bd6cc13d6836b7950afa06b67444d96756c615122bcf47e47ef11957564736f6c63430008120033a26469706673582212205fad91f7bc2901b68ed5846c2e347d9dba87e2b9537852ce5464db9201a8917a64736f6c63430008120033",
  "linkReferences": {},
  "deployedLinkReferences": {}
}