{
  "_format": "hh-sol-artifact-1",
  "contractName": "TldFactory",
  "sourceName": "contracts/admin/TldFactory.sol",
  "abi": [
    {
      "inputs": [
        {
          "internalType": "contract ISANN",
          "name": "_sann",
          "type": "address"
        }
      ],
      "stateMutability": "nonpayable",
      "type": "constructor"
    },
    {
      "anonymous": false,
      "inputs": [
        {
          "indexed": false,
          "internalType": "uint8",
          "name": "version",
          "type": "uint8"
        }
      ],
      "name": "Initialized",
      "type": "event"
    },
    {
      "anonymous": false,
      "inputs": [
        {
          "indexed": false,
          "internalType": "address",
          "name": "creator",
          "type": "address"
        },
        {
          "indexed": false,
          "internalType": "uint256",
          "name": "chainId",
          "type": "uint256"
        },
        {
          "indexed": false,
          "internalType": "uint256",
          "name": "identifier",
          "type": "uint256"
        },
        {
          "indexed": false,
          "internalType": "string",
          "name": "tld",
          "type": "string"
        },
        {
          "indexed": false,
          "internalType": "address",
          "name": "controller",
          "type": "address"
        },
        {
          "indexed": false,
          "internalType": "address",
          "name": "base",
          "type": "address"
        }
      ],
      "name": "NewDomainService",
      "type": "event"
    },
    {
      "anonymous": false,
      "inputs": [
        {
          "indexed": false,
          "internalType": "address",
          "name": "stateAddr",
          "type": "address"
        },
        {
          "indexed": false,
          "internalType": "address",
          "name": "auctionAddr",
          "type": "address"
        },
        {
          "indexed": false,
          "internalType": "address",
          "name": "owner",
          "type": "address"
        },
        {
          "indexed": false,
          "internalType": "uint256",
          "name": "identifier",
          "type": "uint256"
        }
      ],
      "name": "PreRegistrationCreated",
      "type": "event"
    },
    {
      "anonymous": false,
      "inputs": [
        {
          "indexed": false,
          "internalType": "address",
          "name": "defaultPriceOracle",
          "type": "address"
        }
      ],
      "name": "SetDefaultPriceOracle",
      "type": "event"
    },
    {
      "anonymous": false,
      "inputs": [
        {
          "indexed": true,
          "internalType": "address",
          "name": "user",
          "type": "address"
        },
        {
          "indexed": false,
          "internalType": "uint256",
          "name": "amount",
          "type": "uint256"
        }
      ],
      "name": "Staked",
      "type": "event"
    },
    {
      "anonymous": false,
      "inputs": [
        {
          "indexed": true,
          "internalType": "address",
          "name": "user",
          "type": "address"
        },
        {
          "indexed": false,
          "internalType": "uint256",
          "name": "amount",
          "type": "uint256"
        }
      ],
      "name": "UnStake",
      "type": "event"
    },
    {
      "inputs": [],
      "name": "MINIMUM_STAKE",
      "outputs": [
        {
          "internalType": "uint256",
          "name": "",
          "type": "uint256"
        }
      ],
      "stateMutability": "view",
      "type": "function"
    },
    {
      "inputs": [],
      "name": "baseCreator",
      "outputs": [
        {
          "internalType": "contract IBaseCreator",
          "name": "",
          "type": "address"
        }
      ],
      "stateMutability": "view",
      "type": "function"
    },
    {
      "inputs": [
        {
          "internalType": "string",
          "name": "tld",
          "type": "string"
        },
        {
          "internalType": "bytes32[]",
          "name": "proof",
          "type": "bytes32[]"
        }
      ],
      "name": "checkAvailability",
      "outputs": [
        {
          "internalType": "bool",
          "name": "",
          "type": "bool"
        }
      ],
      "stateMutability": "view",
      "type": "function"
    },
    {
      "inputs": [
        {
          "internalType": "string",
          "name": "tld",
          "type": "string"
        },
        {
          "internalType": "address",
          "name": "tldOwner",
          "type": "address"
        },
        {
          "components": [
            {
              "components": [
                {
                  "internalType": "uint256",
                  "name": "minDomainLength",
                  "type": "uint256"
                },
                {
                  "internalType": "uint256",
                  "name": "maxDomainLength",
                  "type": "uint256"
                },
                {
                  "internalType": "uint256",
                  "name": "minRegistrationDuration",
                  "type": "uint256"
                },
                {
                  "internalType": "uint256",
                  "name": "minRenewDuration",
                  "type": "uint256"
                },
                {
                  "internalType": "uint256",
                  "name": "mintCap",
                  "type": "uint256"
                }
              ],
              "internalType": "struct TldConfig",
              "name": "config",
              "type": "tuple"
            },
            {
              "internalType": "uint8[]",
              "name": "letters",
              "type": "uint8[]"
            },
            {
              "internalType": "uint64[]",
              "name": "prices",
              "type": "uint64[]"
            },
            {
              "internalType": "bool",
              "name": "enableGiftCard",
              "type": "bool"
            },
            {
              "internalType": "uint256[]",
              "name": "giftCardPrices",
              "type": "uint256[]"
            },
            {
              "internalType": "bool",
              "name": "enableReferral",
              "type": "bool"
            },
            {
              "internalType": "uint256[]",
              "name": "referralLevels",
              "type": "uint256[]"
            },
            {
              "components": [
                {
                  "internalType": "uint256",
                  "name": "minimumReferralCount",
                  "type": "uint256"
                },
                {
                  "internalType": "uint256",
                  "name": "referrerRate",
                  "type": "uint256"
                },
                {
                  "internalType": "uint256",
                  "name": "refereeRate",
                  "type": "uint256"
                },
                {
                  "internalType": "bool",
                  "name": "isValid",
                  "type": "bool"
                }
              ],
              "internalType": "struct ReferralHub.Comission[]",
              "name": "referralComissions",
              "type": "tuple[]"
            },
            {
              "internalType": "bool",
              "name": "enablePreRegistration",
              "type": "bool"
            },
            {
              "components": [
                {
                  "internalType": "bool",
                  "name": "enableAuction",
                  "type": "bool"
                },
                {
                  "internalType": "uint256",
                  "name": "auctionStartTime",
                  "type": "uint256"
                },
                {
                  "internalType": "uint256",
                  "name": "auctionInitialEndTime",
                  "type": "uint256"
                },
                {
                  "internalType": "uint256",
                  "name": "auctionExtendDuration",
                  "type": "uint256"
                },
                {
                  "internalType": "uint256",
                  "name": "auctionRetentionDuration",
                  "type": "uint256"
                },
                {
                  "internalType": "uint256",
                  "name": "auctionMinRegistrationDuration",
                  "type": "uint256"
                },
                {
                  "internalType": "bool",
                  "name": "enableFcfs",
                  "type": "bool"
                },
                {
                  "internalType": "uint256",
                  "name": "fcfsStartTime",
                  "type": "uint256"
                },
                {
                  "internalType": "uint256",
                  "name": "fcfsEndTime",
                  "type": "uint256"
                }
              ],
              "internalType": "struct PreRegistrationUpdateConfig",
              "name": "preRegiConfig",
              "type": "tuple"
            },
            {
              "internalType": "uint16[]",
              "name": "preRegiDiscountRateBps",
              "type": "uint16[]"
            },
            {
              "internalType": "uint256",
              "name": "publicRegistrationStartTime",
              "type": "uint256"
            },
            {
              "internalType": "bool",
              "name": "publicRegistrationPaused",
              "type": "bool"
            },
            {
              "internalType": "string",
              "name": "baseUri",
              "type": "string"
            }
          ],
          "internalType": "struct TldInitData",
          "name": "initData",
          "type": "tuple"
        }
      ],
      "name": "createDomainService",
      "outputs": [
        {
          "internalType": "uint256",
          "name": "identifier",
          "type": "uint256"
        }
      ],
      "stateMutability": "nonpayable",
      "type": "function"
    },
    {
      "inputs": [],
      "name": "defaultPriceOracle",
      "outputs": [
        {
          "internalType": "address",
          "name": "",
          "type": "address"
        }
      ],
      "stateMutability": "view",
      "type": "function"
    },
    {
      "inputs": [],
      "name": "getStakeDetails",
      "outputs": [
        {
          "internalType": "address",
          "name": "owner",
          "type": "address"
        },
        {
          "internalType": "uint256",
          "name": "identifier",
          "type": "uint256"
        },
        {
          "internalType": "uint256",
          "name": "stakedAmount",
          "type": "uint256"
        }
      ],
      "stateMutability": "view",
      "type": "function"
    },
    {
      "inputs": [],
      "name": "giftCardLedger",
      "outputs": [
        {
          "internalType": "contract GiftCardLedger",
          "name": "",
          "type": "address"
        }
      ],
      "stateMutability": "view",
      "type": "function"
    },
    {
      "inputs": [],
      "name": "giftCardVoucher",
      "outputs": [
        {
          "internalType": "contract GiftCardVoucher",
          "name": "",
          "type": "address"
        }
      ],
      "stateMutability": "view",
      "type": "function"
    },
    {
      "inputs": [
        {
          "internalType": "address",
          "name": "",
          "type": "address"
        }
      ],
      "name": "identifiers",
      "outputs": [
        {
          "internalType": "uint256",
          "name": "",
          "type": "uint256"
        }
      ],
      "stateMutability": "view",
      "type": "function"
    },
    {
      "inputs": [
        {
          "internalType": "contract IBaseCreator",
          "name": "_baseCreator",
          "type": "address"
        },
        {
          "internalType": "contract IRegistrarController",
          "name": "_controller",
          "type": "address"
        },
        {
          "internalType": "address",
          "name": "_platformConfig",
          "type": "address"
        },
        {
          "internalType": "address",
          "name": "_priceOracle",
          "type": "address"
        },
        {
          "internalType": "contract GiftCardVoucher",
          "name": "_giftCardVoucher",
          "type": "address"
        },
        {
          "internalType": "contract GiftCardLedger",
          "name": "_giftCardLedger",
          "type": "address"
        },
        {
          "internalType": "contract ReferralHub",
          "name": "_referralHub",
          "type": "address"
        },
        {
          "internalType": "contract IPreRegistrationCreator",
          "name": "_preRegiCreator",
          "type": "address"
        },
        {
          "internalType": "contract PrepaidPlatformFee",
          "name": "_prepaidPlatformFee",
          "type": "address"
        }
      ],
      "name": "initialize",
      "outputs": [],
      "stateMutability": "nonpayable",
      "type": "function"
    },
    {
      "inputs": [],
      "name": "merkleRoot",
      "outputs": [
        {
          "internalType": "bytes32",
          "name": "",
          "type": "bytes32"
        }
      ],
      "stateMutability": "view",
      "type": "function"
    },
    {
      "inputs": [],
      "name": "platformConfig",
      "outputs": [
        {
          "internalType": "address",
          "name": "",
          "type": "address"
        }
      ],
      "stateMutability": "view",
      "type": "function"
    },
    {
      "inputs": [],
      "name": "preRegiCreator",
      "outputs": [
        {
          "internalType": "contract IPreRegistrationCreator",
          "name": "",
          "type": "address"
        }
      ],
      "stateMutability": "view",
      "type": "function"
    },
    {
      "inputs": [],
      "name": "prepaidPlatformFee",
      "outputs": [
        {
          "internalType": "contract PrepaidPlatformFee",
          "name": "",
          "type": "address"
        }
      ],
      "stateMutability": "view",
      "type": "function"
    },
    {
      "inputs": [],
      "name": "referralHub",
      "outputs": [
        {
          "internalType": "contract ReferralHub",
          "name": "",
          "type": "address"
        }
      ],
      "stateMutability": "view",
      "type": "function"
    },
    {
      "inputs": [],
      "name": "registrar",
      "outputs": [
        {
          "internalType": "contract IRegistrarController",
          "name": "",
          "type": "address"
        }
      ],
      "stateMutability": "view",
      "type": "function"
    },
    {
      "inputs": [],
      "name": "sann",
      "outputs": [
        {
          "internalType": "contract ISANN",
          "name": "",
          "type": "address"
        }
      ],
      "stateMutability": "view",
      "type": "function"
    },
    {
      "inputs": [
        {
          "internalType": "address",
          "name": "_defaultPriceOracle",
          "type": "address"
        }
      ],
      "name": "setDefaultPriceOracle",
      "outputs": [],
      "stateMutability": "nonpayable",
      "type": "function"
    },
    {
      "inputs": [
        {
          "internalType": "uint256",
          "name": "amount",
          "type": "uint256"
        }
      ],
      "name": "setStakeLimit",
      "outputs": [],
      "stateMutability": "nonpayable",
      "type": "function"
    },
    {
      "inputs": [
        {
          "internalType": "uint256",
          "name": "identifier",
          "type": "uint256"
        },
        {
          "internalType": "string",
          "name": "tld",
          "type": "string"
        },
        {
          "internalType": "bytes32[]",
          "name": "proof",
          "type": "bytes32[]"
        }
      ],
      "name": "stake",
      "outputs": [],
      "stateMutability": "payable",
      "type": "function"
    },
    {
      "inputs": [
        {
          "internalType": "address",
          "name": "",
          "type": "address"
        }
      ],
      "name": "stakes",
      "outputs": [
        {
          "internalType": "uint256",
          "name": "",
          "type": "uint256"
        }
      ],
      "stateMutability": "view",
      "type": "function"
    },
    {
      "inputs": [],
      "name": "unStake",
      "outputs": [],
      "stateMutability": "nonpayable",
      "type": "function"
    },
    {
      "inputs": [
        {
          "internalType": "string",
          "name": "_merkleRoot",
          "type": "string"
        }
      ],
      "name": "updateMerkleRoot",
      "outputs": [],
      "stateMutability": "nonpayable",
      "type": "function"
    }
  ],
  "bytecode": "0x60806040523480156200001157600080fd5b5060405162005a4538038062005a4583398101604081905262000034916200005a565b600080546001600160a01b0319166001600160a01b03929092169190911790556200008c565b6000602082840312156200006d57600080fd5b81516001600160a01b03811681146200008557600080fd5b9392505050565b6159a9806200009c6000396000f3fe6080604052600436106200015b5760003560e01c80636dc805e811620000c5578063a1c9b2131162000078578063a1c9b2131462000400578063a289cf841462000425578063c0f418b21462000447578063d46da387146200046c578063e16f8436146200048e578063f5e95acb14620004b057600080fd5b80636dc805e8146200031a57806373cf575a146200033f578063807e5d47146200035757806380b6853e146200037957806381e991cc146200039b57806392ef425814620003bd57600080fd5b80633b4e0ab9116200011e5780633b4e0ab914620002365780634d24e236146200024d578063576b3a64146200026f5780635bafb69714620002915780635c17147314620002c7578063656bb89614620002f857600080fd5b806308dbbb031462000160578063116fb344146200018b57806316934fc414620001b25780632b20e39714620001e35780632eb4a7ab146200021e575b600080fd5b3480156200016d57600080fd5b5062000178600d5481565b6040519081526020015b60405180910390f35b3480156200019857600080fd5b50620001b0620001aa36600462001d68565b620004d5565b005b348015620001bf57600080fd5b5062000178620001d136600462001d68565b600b6020526000908152604090205481565b348015620001f057600080fd5b5060055462000205906001600160a01b031681565b6040516001600160a01b03909116815260200162000182565b3480156200022b57600080fd5b506200017860015481565b620001b06200024736600462001ea7565b6200061a565b3480156200025a57600080fd5b5060025462000205906001600160a01b031681565b3480156200027c57600080fd5b5060045462000205906001600160a01b031681565b3480156200029e57600080fd5b50620002b6620002b036600462001f21565b6200074d565b604051901515815260200162000182565b348015620002d457600080fd5b5062000178620002e636600462001d68565b600c6020526000908152604090205481565b3480156200030557600080fd5b5060095462000205906001600160a01b031681565b3480156200032757600080fd5b50620001786200033936600462001f91565b62000795565b3480156200034c57600080fd5b50620001b062000d6d565b3480156200036457600080fd5b5060035462000205906001600160a01b031681565b3480156200038657600080fd5b5060075462000205906001600160a01b031681565b348015620003a857600080fd5b5060085462000205906001600160a01b031681565b348015620003ca57600080fd5b50336000818152600c6020908152604080832054600b835292819020548151948552918401929092529082015260600162000182565b3480156200040d57600080fd5b50620001b06200041f3660046200201d565b62000e38565b3480156200043257600080fd5b50600a5462000205906001600160a01b031681565b3480156200045457600080fd5b50620001b06200046636600462002037565b62000ed6565b3480156200047957600080fd5b5060005462000205906001600160a01b031681565b3480156200049b57600080fd5b5060065462000205906001600160a01b031681565b348015620004bd57600080fd5b50620001b0620004cf366004620020d5565b62000f80565b6000546040805163cdcd7fb560e01b8152905133926001600160a01b03169163cdcd7fb59160048083019260209291908290030181865afa1580156200051f573d6000803e3d6000fd5b505050506040513d601f19601f82011682018060405250810190620005459190620021a4565b6001600160a01b031614620005775760405162461bcd60e51b81526004016200056e90620021c4565b60405180910390fd5b6001600160a01b038116620005c65760405162461bcd60e51b8152602060048201526014602482015273696e76616c6964207072696365206f7261636c6560601b60448201526064016200056e565b600480546001600160a01b0319166001600160a01b0383169081179091556040519081527f3e44d8338b9402ad16cf357c6ff64e5ec68c5c0fd3e5d9ee3beb921e620e5c449060200160405180910390a150565b600d543410156200066e5760405162461bcd60e51b815260206004820152601b60248201527f496e73756666696369656e74207374616b696e6720616d6f756e74000000000060448201526064016200056e565b6200067b8383836200074d565b15620006df5760405162461bcd60e51b815260206004820152602c60248201527f544c4420796f7527726520747279696e6720746f20726567697374657220616c60448201526b72656164792065786973747360a01b60648201526084016200056e565b336000908152600c60209081526040808320879055600b909152812080543492906200070d90849062002226565b909155505060405134815233907f9e71bc8eea02a63969f509818f2dafb9254532904319f9dbda79b67bd34a5f3d9060200160405180910390a250505050565b6000808484604051602001620007659291906200223c565b6040516020818303038152906040528051906020012090506200078c836001548362001258565b95945050505050565b600d54336000908152600b6020526040812054909111156200080c5760405162461bcd60e51b815260206004820152602960248201527f596f75206d757374207374616b652074686520726571756972656420616d6f756044820152680dce840decc408aa8960bb1b60648201526084016200056e565b6000546040516303c0719960e31b81526001600160a01b0390911690631e038cc890620008429088908890889060040162002275565b602060405180830381865afa15801562000860573d6000803e3d6000fd5b505050506040513d601f19601f82011682018060405250810190620008869190620022a3565b6003546000805460408051637b10399960e01b8152905194955091936001600160a01b039384169363c0985c3293921691637b1039999160048083019260209291908290030181865afa158015620008e2573d6000803e3d6000fd5b505050506040513d601f19601f82011682018060405250810190620009089190620021a4565b8489896200091b6103208a018a620022bd565b6040518763ffffffff1660e01b81526004016200093e9695949392919062002307565b6020604051808303816000875af11580156200095e573d6000803e3d6000fd5b505050506040513d601f19601f82011682018060405250810190620009849190620021a4565b60005460405163519a40ad60e11b81529192506001600160a01b03169063a334815a90620009bf908990899087903090889060040162002353565b600060405180830381600087803b158015620009da57600080fd5b505af1158015620009ef573d6000803e3d6000fd5b505060055460408051630602465960e51b815260048101879052873560248201526020880135604482015290870135606482015260608701356084820152608087013560a48201526001600160a01b03909116925063c048cb20915060c401600060405180830381600087803b15801562000a6957600080fd5b505af115801562000a7e573d6000803e3d6000fd5b5050505062000aae82848060a0019062000a99919062002390565b62000aa860c088018862002390565b62001270565b600062000ac46101a085016101808601620023f3565b1562000aed57600a5462000aea90849087906001600160a01b03166101a0880162001485565b90505b60006001600160a01b03821615158062000b185750600062000b146102c087018762002390565b9050115b8062000b2957506000856102e00135115b1562000b545762000b51848362000b456102c089018962002390565b896102e0013562001598565b90505b6000856102e00135118062000b78575062000b7861032086016103008701620023f3565b8062000b8c57506001600160a01b03821615155b1562000bb85762000bb88462000bab61032088016103008901620023f3565b876102e001358562001852565b62000bcb610100860160e08701620023f3565b1562000bec5762000bec8462000be661010088018862002390565b620019cd565b62000c0061014086016101208701620023f3565b1562000c315762000c318462000c1b61014088018862002390565b62000c2b6101608a018a62002411565b62001a90565b600054604051634376c80160e01b8152600481018690526001600160a01b03888116602483015290911690634376c80190604401600060405180830381600087803b15801562000c8057600080fd5b505af115801562000c95573d6000803e3d6000fd5b505050507f6ddbb1a3a3d0722a5299698ddc6574ba92e317460539cde58adbf3b63c511c3d8660008054906101000a90046001600160a01b03166001600160a01b0316639a8a05926040518163ffffffff1660e01b8152600401602060405180830381865afa15801562000d0d573d6000803e3d6000fd5b505050506040513d601f19601f8201168201806040525081019062000d339190620022a3565b60055460405162000d5a93929189918e918e916001600160a01b03909116908b906200245e565b60405180910390a1505050949350505050565b336000908152600b60205260409020548062000dc35760405162461bcd60e51b81526020600482015260146024820152734e6f207374616b6520746f20776974686472617760601b60448201526064016200056e565b336000818152600b60205260408082208290555183156108fc0291849190818181858888f1935050505015801562000dff573d6000803e3d6000fd5b5060405181815233907fb24546d975e2628748efc9aced80665e0fad66272033e5c0ea25fd3afac997959060200160405180910390a250565b6000546040805163cdcd7fb560e01b8152905133926001600160a01b03169163cdcd7fb59160048083019260209291908290030181865afa15801562000e82573d6000803e3d6000fd5b505050506040513d601f19601f8201168201806040525081019062000ea89190620021a4565b6001600160a01b03161462000ed15760405162461bcd60e51b81526004016200056e90620021c4565b600d55565b6000546040805163cdcd7fb560e01b8152905133926001600160a01b03169163cdcd7fb59160048083019260209291908290030181865afa15801562000f20573d6000803e3d6000fd5b505050506040513d601f19601f8201168201806040525081019062000f469190620021a4565b6001600160a01b03161462000f6f5760405162461bcd60e51b81526004016200056e90620021c4565b62000f7a8162001c87565b60015550565b600054600160a81b900460ff161580801562000fa957506000546001600160a01b90910460ff16105b8062000fcc5750303b15801562000fcc5750600054600160a01b900460ff166001145b620010315760405162461bcd60e51b815260206004820152602e60248201527f496e697469616c697a61626c653a20636f6e747261637420697320616c72656160448201526d191e481a5b9a5d1a585b1a5e995960921b60648201526084016200056e565b6000805460ff60a01b1916600160a01b17905580156200105f576000805460ff60a81b1916600160a81b1790555b6000546040805163cdcd7fb560e01b8152905133926001600160a01b03169163cdcd7fb59160048083019260209291908290030181865afa158015620010a9573d6000803e3d6000fd5b505050506040513d601f19601f82011682018060405250810190620010cf9190620021a4565b6001600160a01b031614620010f85760405162461bcd60e51b81526004016200056e90620021c4565b6001600160a01b038716620011475760405162461bcd60e51b8152602060048201526014602482015273696e76616c6964207072696365206f7261636c6560601b60448201526064016200056e565b600280546001600160a01b03199081166001600160a01b038b8116919091179092556003805482168d84161790556004805482168a84169081179091556005805483168d85161790556006805483168785161790556007805483168a8516179055600880548316898516179055600980548316888516179055600a80549092169285169290921790556040519081527f3e44d8338b9402ad16cf357c6ff64e5ec68c5c0fd3e5d9ee3beb921e620e5c449060200160405180910390a180156200124c576000805460ff60a81b19169055604051600181527f7f26b83ff96e1f2b6a682f133852f6798a09c465da95921460cefb38474024989060200160405180910390a15b50505050505050505050565b60008262001267858462001ca7565b14949350505050565b828114620012d25760405162461bcd60e51b815260206004820152602860248201527f6c656e677468206f66206c65747465727320616e6420707269636573206e6f74604482015267081b585d18da195960c21b60648201526084016200056e565b60058311156200131c5760405162461bcd60e51b8152602060048201526014602482015273746f6f206d616e792070726963652072756c657360601b60448201526064016200056e565b600583101562001385576004805460405163cd1e520f60e01b81529182018790526001600160a01b03169063cd1e520f90602401600060405180830381600087803b1580156200136b57600080fd5b505af115801562001380573d6000803e3d6000fd5b505050505b60005b838110156200147d576004546001600160a01b031663d1d0ee1087878785818110620013b857620013b8620024ab565b9050602002016020810190620013cf9190620024c1565b868686818110620013e457620013e4620024ab565b9050602002016020810190620013fb9190620024e6565b6040516001600160e01b031960e086901b168152600481019390935260ff909116602483015267ffffffffffffffff166044820152606401600060405180830381600087803b1580156200144e57600080fd5b505af115801562001463573d6000803e3d6000fd5b505050508080620014749062002512565b91505062001388565b505050505050565b60065460008054600554600254604051635053dcfd60e01b81529394859485946001600160a01b0392831694635053dcfd94620014d694928316938e938e9381169216908d908d906004016200252e565b60408051808303816000875af1158015620014f5573d6000803e3d6000fd5b505050506040513d601f19601f820116820180604052508101906200151b9190620025e5565b90925090506001600160a01b038116156200158e5760405163a7fc7a0760e01b81526001600160a01b03828116600483015283169063a7fc7a0790602401600060405180830381600087803b1580156200157457600080fd5b505af115801562001589573d6000803e3d6000fd5b505050505b5095945050505050565b60008086604051602001620015af91815260200190565b60408051601f1981840301815290829052805160209091012060008054600254600854600454949650929486946001600160a01b03938416948e948e948116939181169216908d908d908d90620016069062001d33565b6200161a9998979695949392919062002624565b8190604051809103906000f59050801580156200163b573d6000803e3d6000fd5b50600554604051633a51118f60e21b8152600481018b90526001600160a01b03808416602483015292935091169063e944463c90604401600060405180830381600087803b1580156200168d57600080fd5b505af1158015620016a2573d6000803e3d6000fd5b50506005546040516334af22b760e21b8152600481018c90526001600160a01b038581166024830152909116925063d2bc8adc9150604401600060405180830381600087803b158015620016f557600080fd5b505af11580156200170a573d6000803e3d6000fd5b505060055460405163b34de3e760e01b8152600481018c90526001600160a01b038581166024830152909116925063b34de3e79150604401600060405180830381600087803b1580156200175d57600080fd5b505af115801562001772573d6000803e3d6000fd5b505060055460405163669ce5cd60e01b8152600481018c90526001600160a01b038581166024830152909116925063669ce5cd9150604401600060405180830381600087803b158015620017c557600080fd5b505af1158015620017da573d6000803e3d6000fd5b50506008546040516388a1625b60e01b8152600481018c90526001600160a01b03858116602483015290911692506388a1625b9150604401600060405180830381600087803b1580156200182d57600080fd5b505af115801562001842573d6000803e3d6000fd5b50929a9950505050505050505050565b6000846040516020016200186891815260200190565b60405160208183030381529060405280519060200120905060008160008054906101000a90046001600160a01b031687858789604051620018a99062001d41565b6001600160a01b03958616815260208101949094529390911660408301526060820152901515608082015260a0018190604051809103906000f5905080158015620018f8573d6000803e3d6000fd5b5090506001600160a01b03831615620019695760405163a7fc7a0760e01b81526001600160a01b03828116600483015284169063a7fc7a0790602401600060405180830381600087803b1580156200194f57600080fd5b505af115801562001964573d6000803e3d6000fd5b505050505b60055460405163735e3f5160e11b8152600481018890526001600160a01b0383811660248301529091169063e6bc7ea290604401600060405180830381600087803b158015620019b857600080fd5b505af11580156200124c573d6000803e3d6000fd5b60005b8181101562001a8a576007546001600160a01b031663581981588585858581811062001a005762001a00620024ab565b905060200201356040518363ffffffff1660e01b815260040162001a2e929190918252602082015260400190565b6020604051808303816000875af115801562001a4e573d6000803e3d6000fd5b505050506040513d601f19601f8201168201806040525081019062001a749190620022a3565b508062001a818162002512565b915050620019d0565b50505050565b82811462001af55760405162461bcd60e51b815260206004820152602b60248201527f6c656e677468206f66206c6576656c7320616e6420636f6d697373696f6e732060448201526a1b9bdd081b585d18da195960aa1b60648201526084016200056e565b60005b8381101562001c15576009546001600160a01b0316636b2d538e8787878581811062001b285762001b28620024ab565b9050602002013586868681811062001b445762001b44620024ab565b9050608002016000013587878781811062001b635762001b63620024ab565b9050608002016020013588888881811062001b825762001b82620024ab565b905060800201604001356040518663ffffffff1660e01b815260040162001bcb959493929190948552602085019390935260408401919091526060830152608082015260a00190565b600060405180830381600087803b15801562001be657600080fd5b505af115801562001bfb573d6000803e3d6000fd5b50505050808062001c0c9062002512565b91505062001af8565b5060055460095460405163076730c760e01b8152600481018890526001600160a01b03918216602482015291169063076730c790604401600060405180830381600087803b15801562001c6757600080fd5b505af115801562001c7c573d6000803e3d6000fd5b505050505050505050565b80516000908290820362001c9e5750600092915050565b50506020015190565b600081815b845181101562001cf55762001cde8286838151811062001cd05762001cd0620024ab565b602002602001015162001cff565b91508062001cec8162002512565b91505062001cac565b5090505b92915050565b600081831062001d1d57600082815260208490526040902062001d2c565b60008381526020839052604090205b9392505050565b611efd80620026c383390190565b6113b480620045c083390190565b6001600160a01b038116811462001d6557600080fd5b50565b60006020828403121562001d7b57600080fd5b813562001d2c8162001d4f565b60008083601f84011262001d9b57600080fd5b50813567ffffffffffffffff81111562001db457600080fd5b60208301915083602082850101111562001dcd57600080fd5b9250929050565b634e487b7160e01b600052604160045260246000fd5b604051601f8201601f1916810167ffffffffffffffff8111828210171562001e165762001e1662001dd4565b604052919050565b600082601f83011262001e3057600080fd5b8135602067ffffffffffffffff82111562001e4f5762001e4f62001dd4565b8160051b62001e6082820162001dea565b928352848101820192828101908785111562001e7b57600080fd5b83870192505b8483101562001e9c5782358252918301919083019062001e81565b979650505050505050565b6000806000806060858703121562001ebe57600080fd5b84359350602085013567ffffffffffffffff8082111562001ede57600080fd5b62001eec8883890162001d88565b9095509350604087013591508082111562001f0657600080fd5b5062001f158782880162001e1e565b91505092959194509250565b60008060006040848603121562001f3757600080fd5b833567ffffffffffffffff8082111562001f5057600080fd5b62001f5e8783880162001d88565b9095509350602086013591508082111562001f7857600080fd5b5062001f878682870162001e1e565b9150509250925092565b6000806000806060858703121562001fa857600080fd5b843567ffffffffffffffff8082111562001fc157600080fd5b62001fcf8883890162001d88565b90965094506020870135915062001fe68262001d4f565b9092506040860135908082111562001ffd57600080fd5b50850161034081880312156200201257600080fd5b939692955090935050565b6000602082840312156200203057600080fd5b5035919050565b600060208083850312156200204b57600080fd5b823567ffffffffffffffff808211156200206457600080fd5b818501915085601f8301126200207957600080fd5b8135818111156200208e576200208e62001dd4565b620020a2601f8201601f1916850162001dea565b91508082528684828501011115620020b957600080fd5b8084840185840137600090820190930192909252509392505050565b60008060008060008060008060006101208a8c031215620020f557600080fd5b8935620021028162001d4f565b985060208a0135620021148162001d4f565b975060408a0135620021268162001d4f565b965060608a0135620021388162001d4f565b955060808a01356200214a8162001d4f565b945060a08a01356200215c8162001d4f565b935060c08a01356200216e8162001d4f565b925060e08a0135620021808162001d4f565b91506101008a0135620021938162001d4f565b809150509295985092959850929598565b600060208284031215620021b757600080fd5b815162001d2c8162001d4f565b6020808252602c908201527f41636365737369626c653a2063616c6c6572206973206e6f742074686520706c60408201526b30ba3337b9369030b236b4b760a11b606082015260800190565b634e487b7160e01b600052601160045260246000fd5b8082018082111562001cf95762001cf962002210565b8183823760009101908152919050565b81835281816020850137506000828201602090810191909152601f909101601f19169091010190565b6040815260006200228b6040830185876200224c565b905060018060a01b0383166020830152949350505050565b600060208284031215620022b657600080fd5b5051919050565b6000808335601e19843603018112620022d557600080fd5b83018035915067ffffffffffffffff821115620022f157600080fd5b60200191503681900382131562001dcd57600080fd5b60018060a01b0387168152856020820152608060408201526000620023316080830186886200224c565b8281036060840152620023468185876200224c565b9998505050505050505050565b608081526000620023696080830187896200224c565b6020830195909552506001600160a01b039283166040820152911660609091015292915050565b6000808335601e19843603018112620023a857600080fd5b83018035915067ffffffffffffffff821115620023c457600080fd5b6020019150600581901b360382131562001dcd57600080fd5b80358015158114620023ee57600080fd5b919050565b6000602082840312156200240657600080fd5b62001d2c82620023dd565b6000808335601e198436030181126200242957600080fd5b83018035915067ffffffffffffffff8211156200244557600080fd5b6020019150600781901b360382131562001dcd57600080fd5b600060018060a01b03808a16835288602084015287604084015260c060608401526200248f60c0840187896200224c565b94811660808401529290921660a0909101525095945050505050565b634e487b7160e01b600052603260045260246000fd5b600060208284031215620024d457600080fd5b813560ff8116811462001d2c57600080fd5b600060208284031215620024f957600080fd5b813567ffffffffffffffff8116811462001d2c57600080fd5b60006001820162002527576200252762002210565b5060010190565b6001600160a01b03888116825260208201889052868116604083015285811660608301528481166080830152831660a08201526101e081016200257183620023dd565b151560c0830152602083013560e08301526101006040840135818401526060840135610120840152608084013561014084015260a0840135610160840152620025bd60c08501620023dd565b151561018084015260e08401356101a0840152909201356101c0909101529695505050505050565b60008060408385031215620025f957600080fd5b8251620026068162001d4f565b6020840151909250620026198162001d4f565b809150509250929050565b6001600160a01b038a8116825260208083018b905289821660408401528882166060840152878216608084015290861660a083015261010060c08301819052820184905260009061012083019086908390815b88811015620026a757833561ffff811680821462002693578485fd5b865250938101939281019260010162002677565b5050505060e09290920192909252999850505050505050505056fe60a06040523480156200001157600080fd5b5060405162001efd38038062001efd83398101604081905262000034916200022d565b600080546001600160a01b03199081166001600160a01b038b811691909117835560808a90526001805483168a8316179055600280548316898316179055600380548316888316179055600480549092169086161790555b82518160ff16101562000196576000838260ff1681518110620000b357620000b362000382565b602002602001015190506127108161ffff161115620001185760405162461bcd60e51b815260206004820152601e60248201527f696e76616c69642070726552656769446973636f756e74526174654270730000604482015260640160405180910390fd5b60ff8216600081815260056020908152604091829020805461ffff191661ffff861690811790915582518d815291820193909352908101919091527fe3d1f707b794bd5924e6453b500039ba267587f55f8945a88def871cad84c6cb9060600160405180910390a150806200018d8162000398565b9150506200008c565b50600681905560805160408051918252602082018390527f7209932ed961cda2151a57a4ad04f2fba1ce7dd5f0ebedc991802aa16dd97a1f910160405180910390a15050505050505050620003c6565b6001600160a01b0381168114620001fc57600080fd5b50565b634e487b7160e01b600052604160045260246000fd5b805161ffff811681146200022857600080fd5b919050565b600080600080600080600080610100898b0312156200024b57600080fd5b88516200025881620001e6565b809850506020808a0151975060408a01516200027481620001e6565b60608b01519097506200028781620001e6565b60808b01519096506200029a81620001e6565b60a08b0151909550620002ad81620001e6565b60c08b01519094506001600160401b0380821115620002cb57600080fd5b818c0191508c601f830112620002e057600080fd5b815181811115620002f557620002f5620001ff565b8060051b604051601f19603f830116810181811085821117156200031d576200031d620001ff565b60405291825284820192508381018501918f8311156200033c57600080fd5b938501935b828510156200036557620003558562000215565b8452938501939285019262000341565b80975050505050505060e089015190509295985092959890939650565b634e487b7160e01b600052603260045260246000fd5b600060ff821660ff8103620003bd57634e487b7160e01b600052601160045260246000fd5b60010192915050565b608051611af862000405600039600081816101f001528181610681015281816107a80152818161081b01528181610a5b0152610b260152611af86000f3fe608060405234801561001057600080fd5b50600436106101215760003560e01c806380fd9d8d116100ad578063bd03fbb811610071578063bd03fbb814610278578063bda8265f14610281578063d023c79c14610296578063d46da387146102a9578063e9c95034146102bc57600080fd5b806380fd9d8d1461012657806393ba731b14610212578063a833bb0714610225578063b013c3bf14610238578063b0c0c2641461026f57600080fd5b8063392130da116100f4578063392130da146101b25780634d24e236146101c557806356397c35146101d85780637998a1c4146101eb5780637a989b651461021257600080fd5b80630b6ca897146101265780632630c12f1461014c578063273310e314610177578063347652e31461018a575b600080fd5b610139610134366004611474565b6102cf565b6040519081526020015b60405180910390f35b60045461015f906001600160a01b031681565b6040516001600160a01b039091168152602001610143565b60015461015f906001600160a01b031681565b61019d610198366004611515565b610387565b60408051928352602083019190915201610143565b61019d6101c0366004611515565b6104ad565b60025461015f906001600160a01b031681565b60035461015f906001600160a01b031681565b6101397f000000000000000000000000000000000000000000000000000000000000000081565b610139610220366004611474565b6105e3565b61019d610233366004611515565b6105f3565b61025c6102463660046115d8565b60056020526000908152604090205461ffff1681565b60405161ffff9091168152602001610143565b61013961271081565b61013960065481565b61029461028f3660046115fa565b610670565b005b6102946102a4366004611638565b61080a565b60005461015f906001600160a01b031681565b61019d6102ca366004611515565b610aab565b600080546040805163f340041960e01b8152905133926001600160a01b03169163f34004199160048083019260209291908290030181865afa158015610319573d6000803e3d6000fd5b505050506040513d601f19601f8201168201806040525081019061033d919061165c565b6001600160a01b03161461036c5760405162461bcd60e51b815260040161036390611679565b60405180910390fd5b61037a898989898989610b15565b9998505050505050505050565b600080336001600160a01b031660008054906101000a90046001600160a01b03166001600160a01b031663f34004196040518163ffffffff1660e01b8152600401602060405180830381865afa1580156103e5573d6000803e3d6000fd5b505050506040513d601f19601f82011682018060405250810190610409919061165c565b6001600160a01b03161461042f5760405162461bcd60e51b815260040161036390611679565b60008315610474576000610445858701876117b3565b60408101515190915015610472576000816040015180602001905181019061046d919061189c565b519250505b505b60006104858d8d8d8d8d8d88610d95565b91955093509050801561049d5761049d8a828f610e0e565b5050995099975050505050505050565b600080336001600160a01b031660008054906101000a90046001600160a01b03166001600160a01b031663f34004196040518163ffffffff1660e01b8152600401602060405180830381865afa15801561050b573d6000803e3d6000fd5b505050506040513d601f19601f8201168201806040525081019061052f919061165c565b6001600160a01b0316146105555760405162461bcd60e51b815260040161036390611679565b6000831561059a57600061056b858701876117b3565b604081015151909150156105985760008160400151806020019051810190610593919061189c565b519250505b505b806105ac5760008092509250506105d5565b60006105bc8d8d8d8d8d8d610e80565b9094509250839050801561049d5761049d8a828f610e0e565b995099975050505050505050565b600061037a898989898989610b15565b60008080831561063a57600061060b858701876117b3565b604081015151909150156106385760008160400151806020019051810190610633919061189c565b519250505b505b8061064c5760008092509250506105d5565b600061065c8d8d8d8d8d8d610e80565b909e909d509b505050505050505050505050565b60005460405162e4decd60e31b81527f0000000000000000000000000000000000000000000000000000000000000000600482018190529133916001600160a01b0390911690630726f66890602401602060405180830381865afa1580156106dc573d6000803e3d6000fd5b505050506040513d601f19601f82011682018060405250810190610700919061165c565b6001600160a01b0316146107265760405162461bcd60e51b8152600401610363906118e6565b6127108261ffff16111561077c5760405162461bcd60e51b815260206004820152601e60248201527f696e76616c69642070726552656769446973636f756e745261746542707300006044820152606401610363565b60ff8316600081815260056020908152604091829020805461ffff191661ffff871690811790915582517f0000000000000000000000000000000000000000000000000000000000000000815291820193909352908101919091527fe3d1f707b794bd5924e6453b500039ba267587f55f8945a88def871cad84c6cb906060015b60405180910390a1505050565b60005460405162e4decd60e31b81527f0000000000000000000000000000000000000000000000000000000000000000600482018190529133916001600160a01b0390911690630726f66890602401602060405180830381865afa158015610876573d6000803e3d6000fd5b505050506040513d601f19601f8201168201806040525081019061089a919061165c565b6001600160a01b0316146108c05760405162461bcd60e51b8152600401610363906118e6565b60065442106108e257604051630e5ea0ab60e21b815260040160405180910390fd5b8142106109575760405162461bcd60e51b815260206004820152603860248201527f6e6577207075626c6963526567697374726174696f6e537461727454696d652060448201527f6d7573742062652067726561746572207468616e206e6f7700000000000000006064820152608401610363565b60015460408051630625a78f60e21b815290516000926001600160a01b0316916318969e3c9160048083019260209291908290030181865afa1580156109a1573d6000803e3d6000fd5b505050506040513d601f19601f820116820180604052508101906109c5919061192a565b9050828110610a505760405162461bcd60e51b815260206004820152604b60248201527f6e6577207075626c6963526567697374726174696f6e537461727454696d652060448201527f6d7573742062652067726561746572207468616e20707265526567697374726160648201526a74696f6e456e6454696d6560a81b608482015260a401610363565b6006839055604080517f00000000000000000000000000000000000000000000000000000000000000008152602081018590527f7209932ed961cda2151a57a4ad04f2fba1ce7dd5f0ebedc991802aa16dd97a1f91016107fd565b600080808315610af2576000610ac3858701876117b3565b60408101515190915015610af05760008160400151806020019051810190610aeb919061189c565b519250505b505b610b018c8c8c8c8c8c87610d95565b50909d909c509a5050505050505050505050565b60005460405162e4decd60e31b81527f0000000000000000000000000000000000000000000000000000000000000000600482015282916001600160a01b0386811692911690630726f66890602401602060405180830381865afa158015610b81573d6000803e3d6000fd5b505050506040513d601f19601f82011682018060405250810190610ba5919061165c565b6001600160a01b031603610c6a57600654421015610c6a576001546001600160a01b031615610c625760015460408051600162150ca160e01b0319815290516000926001600160a01b03169163ffeaf35f9160048083019260209291908290030181865afa158015610c1b573d6000803e3d6000fd5b505050506040513d601f19601f82011682018060405250810190610c3f919061192a565b9050801580610c4d57508042105b15610c5c576000915050610d8b565b50610c6a565b506000610d8b565b6001546001600160a01b031615610d8b57600160009054906101000a90046001600160a01b03166001600160a01b0316632399bd636040518163ffffffff1660e01b8152600401602060405180830381865afa158015610cce573d6000803e3d6000fd5b505050506040513d601f19601f82011682018060405250810190610cf29190611943565b15610d8b576000610d3887878080601f016020809104026020016040519081016040528093929190818152602001838380828437600092019190915250610f9d92505050565b905060058160ff161115610d4a575060055b60ff811660009081526005602052604081205461ffff1690612710610d6f8387611974565b610d799190611991565b9050610d8581856119b3565b93505050505b9695505050505050565b6000806000610da88a8a8a8a8a8a6110a0565b9093509150828511610dbf57508391506000610e01565b610dc983866119b3565b945060008415610de757610de18b8b8b8b8b8b610e80565b90925090505b610df182856119c6565b9350610dfd81846119c6565b9250505b9750975097945050505050565b60035460405163698f958560e01b8152600481018390526001600160a01b038581166024830152604482018590529091169063698f958590606401600060405180830381600087803b158015610e6357600080fd5b505af1158015610e77573d6000803e3d6000fd5b50505050505050565b600354604051631b2b776160e11b8152600481018890526001600160a01b0385811660248301526000928392839290911690633656eec290604401602060405180830381865afa158015610ed8573d6000803e3d6000fd5b505050506040513d601f19601f82011682018060405250810190610efc919061192a565b905083811115610f0e57839250610f12565b8092505b8215610f91576002546040516338ad915960e01b8152600481018b9052602481018590526000916001600160a01b0316906338ad915990604401602060405180830381865afa158015610f69573d6000803e3d6000fd5b505050506040513d601f19601f82011682018060405250810190610f8d919061192a565b9250505b50965096945050505050565b8051600090819081905b80821015611097576000858381518110610fc357610fc36119d9565b01602001516001600160f81b0319169050600160ff1b811015610ff257610feb6001846119c6565b9250611084565b600760fd1b6001600160f81b03198216101561101357610feb6002846119c6565b600f60fc1b6001600160f81b03198216101561103457610feb6003846119c6565b601f60fb1b6001600160f81b03198216101561105557610feb6004846119c6565b603f60fa1b6001600160f81b03198216101561107657610feb6005846119c6565b6110816006846119c6565b92505b508261108f816119ef565b935050610fa7565b50909392505050565b60015460009081906001600160a01b03161561140857600160009054906101000a90046001600160a01b03166001600160a01b0316639efdb7cf6040518163ffffffff1660e01b8152600401602060405180830381865afa158015611109573d6000803e3d6000fd5b505050506040513d601f19601f8201168201806040525081019061112d9190611943565b156114085760008787604051611144929190611a08565b604051908190038120600154634b6d21db60e11b8352600483018290529092506000916001600160a01b03909116906396da43b690602401600060405180830381865afa158015611199573d6000803e3d6000fd5b505050506040513d6000823e601f3d908101601f191682016040526111c19190810190611a18565b50915050866001600160a01b0316816001600160a01b03160361140557600154604051632d3f2b0560e01b8152600481018490526001600160a01b0389811660248301526000921690632d3f2b0590604401602060405180830381865afa158015611230573d6000803e3d6000fd5b505050506040513d601f19601f82011682018060405250810190611254919061192a565b60048054604051631b00721d60e21b81529182018390529192506000916001600160a01b031690636c01c87490602401602060405180830381865afa1580156112a1573d6000803e3d6000fd5b505050506040513d601f19601f820116820180604052508101906112c5919061192a565b6002546040516338ad915960e01b8152600481018f9052602481018390529192506000916001600160a01b03909116906338ad915990604401602060405180830381865afa15801561131b573d6000803e3d6000fd5b505050506040513d601f19601f8201168201806040525081019061133f919061192a565b905061134b81876119c6565b95505050506000600160009054906101000a90046001600160a01b03166001600160a01b031663888319d66040518163ffffffff1660e01b8152600401602060405180830381865afa1580156113a5573d6000803e3d6000fd5b505050506040513d601f19601f820116820180604052508101906113c9919061192a565b90508087116113dd57859450505050611408565b6000876113ea8884611974565b6113f49190611991565b905061140081876119c6565b955050505b50505b965096945050505050565b60008083601f84011261142557600080fd5b50813567ffffffffffffffff81111561143d57600080fd5b60208301915083602082850101111561145557600080fd5b9250929050565b6001600160a01b038116811461147157600080fd5b50565b60008060008060008060008060c0898b03121561149057600080fd5b88359750602089013567ffffffffffffffff808211156114af57600080fd5b6114bb8c838d01611413565b909950975060408b013591506114d08261145c565b90955060608a0135945060808a0135935060a08a013590808211156114f457600080fd5b506115018b828c01611413565b999c989b5096995094979396929594505050565b600080600080600080600080600060e08a8c03121561153357600080fd5b8935985060208a013567ffffffffffffffff8082111561155257600080fd5b61155e8d838e01611413565b909a50985060408c013591506115738261145c565b90965060608b0135955060808b0135945060a08b0135935060c08b0135908082111561159e57600080fd5b506115ab8c828d01611413565b915080935050809150509295985092959850929598565b803560ff811681146115d357600080fd5b919050565b6000602082840312156115ea57600080fd5b6115f3826115c2565b9392505050565b6000806040838503121561160d57600080fd5b611616836115c2565b9150602083013561ffff8116811461162d57600080fd5b809150509250929050565b60006020828403121561164a57600080fd5b5035919050565b80516115d38161145c565b60006020828403121561166e57600080fd5b81516115f38161145c565b6020808252602c908201527f41636365737369626c653a2063616c6c6572206973206e6f742074686520746c60408201526b321031b7b73a3937b63632b960a11b606082015260800190565b634e487b7160e01b600052604160045260246000fd5b6040516080810167ffffffffffffffff811182821017156116fe576116fe6116c5565b60405290565b604051601f8201601f1916810167ffffffffffffffff8111828210171561172d5761172d6116c5565b604052919050565b600067ffffffffffffffff82111561174f5761174f6116c5565b50601f01601f191660200190565b600082601f83011261176e57600080fd5b813561178161177c82611735565b611704565b81815284602083860101111561179657600080fd5b816020850160208301376000918101602001919091529392505050565b6000602082840312156117c557600080fd5b813567ffffffffffffffff808211156117dd57600080fd5b90830190608082860312156117f157600080fd5b6117f96116db565b82358281111561180857600080fd5b6118148782860161175d565b82525060208301358281111561182957600080fd5b6118358782860161175d565b60208301525060408301358281111561184d57600080fd5b6118598782860161175d565b60408301525060608301358281111561187157600080fd5b61187d8782860161175d565b60608301525095945050505050565b805180151581146115d357600080fd5b6000602082840312156118ae57600080fd5b6040516020810181811067ffffffffffffffff821117156118d1576118d16116c5565b6040526118dd8361188c565b81529392505050565b60208082526024908201527f4f776e61626c653a2063616c6c6572206973206e6f742074686520746c64206f6040820152633bb732b960e11b606082015260800190565b60006020828403121561193c57600080fd5b5051919050565b60006020828403121561195557600080fd5b6115f38261188c565b634e487b7160e01b600052601160045260246000fd5b808202811582820484141761198b5761198b61195e565b92915050565b6000826119ae57634e487b7160e01b600052601260045260246000fd5b500490565b8181038181111561198b5761198b61195e565b8082018082111561198b5761198b61195e565b634e487b7160e01b600052603260045260246000fd5b600060018201611a0157611a0161195e565b5060010190565b8183823760009101908152919050565b600080600060608486031215611a2d57600080fd5b835167ffffffffffffffff811115611a4457600080fd5b8401601f81018613611a5557600080fd5b8051611a6361177c82611735565b81815260208881848601011115611a7957600080fd5b60005b83811015611a97578481018201518382018301528101611a7c565b506000818484010152819650611aae818901611651565b95505050505060408401519050925092509256fea26469706673582212205e62818c5e87275cd7f678fb3c10a54547efb1835dd85fcf5d075932548a211c64736f6c6343000812003360a06040523480156200001157600080fd5b50604051620013b4380380620013b483398101604081905262000034916200023d565b600080546001600160a01b0319166001600160a01b03878116919091178255608086905260028054610100600160a81b0319166101008784168102919091179182905590041615620000fd57600260019054906101000a90046001600160a01b03166001600160a01b03166318969e3c6040518163ffffffff1660e01b8152600401602060405180830381865afa158015620000d4573d6000803e3d6000fd5b505050506040513d601f19601f82011682018060405250810190620000fa9190620002a9565b90505b828111156200018c5760405162461bcd60e51b815260206004820152604b60248201527f6e6577207075626c6963526567697374726174696f6e537461727454696d652060448201527f6d7573742062652067726561746572207468616e20707265526567697374726160648201526a74696f6e456e6454696d6560a81b608482015260a40160405180910390fd5b60018390556002805460ff191683151517905560805160408051918252602082018590527f7209932ed961cda2151a57a4ad04f2fba1ce7dd5f0ebedc991802aa16dd97a1f910160405180910390a16080516040805191825283151560208301527f5602d41126ea699a93f4ab359d93e8701e97587ef6ecaf53ba0bfcfbc9b9443b910160405180910390a1505050505050620002c3565b6001600160a01b03811681146200023a57600080fd5b50565b600080600080600060a086880312156200025657600080fd5b8551620002638162000224565b6020870151604088015191965094506200027d8162000224565b60608701516080880151919450925080151581146200029b57600080fd5b809150509295509295909350565b600060208284031215620002bc57600080fd5b5051919050565b6080516110ab620003096000396000818161011301528181610345015281816104240152818161048d0152818161056c015281816107b7015261083b01526110ab6000f3fe608060405234801561001057600080fd5b506004361061009e5760003560e01c8063a81e3af211610066578063a81e3af214610158578063bd03fbb81461016b578063d023c79c14610174578063d46da38714610187578063eea8fe0a1461019a57600080fd5b8063273310e3146100a357806336625cc3146100d85780635b299fb5146100fb5780637998a1c41461010e5780637b242c7814610143575b600080fd5b6002546100bb9061010090046001600160a01b031681565b6040516001600160a01b0390911681526020015b60405180910390f35b6100eb6100e6366004610eab565b6101a7565b60405190151581526020016100cf565b6100eb610109366004610eab565b610314565b6101357f000000000000000000000000000000000000000000000000000000000000000081565b6040519081526020016100cf565b610156610151366004610f51565b610334565b005b610156610166366004610f75565b61047c565b61013560015481565b610156610182366004610f92565b61055b565b6000546100bb906001600160a01b031681565b6002546100eb9060ff1681565b600080546040805163f340041960e01b8152905133926001600160a01b03169163f34004199160048083019260209291908290030181865afa1580156101f1573d6000803e3d6000fd5b505050506040513d601f19601f820116820180604052508101906102159190610fab565b6001600160a01b0316146102855760405162461bcd60e51b815260206004820152602c60248201527f41636365737369626c653a2063616c6c6572206973206e6f742074686520746c60448201526b321031b7b73a3937b63632b960a11b60648201526084015b60405180910390fd5b6000806102978a8a8a8a8a8a8a61080f565b9150915080156103075760025460405163465f649960e11b81526001600160a01b03898116600483015261010090920490911690638cbec93290602401600060405180830381600087803b1580156102ee57600080fd5b505af1158015610302573d6000803e3d6000fd5b505050505b5098975050505050505050565b6000806103268989898989898961080f565b509998505050505050505050565b60005460405162e4decd60e31b81527f0000000000000000000000000000000000000000000000000000000000000000600482018190529133916001600160a01b0390911690630726f66890602401602060405180830381865afa1580156103a0573d6000803e3d6000fd5b505050506040513d601f19601f820116820180604052508101906103c49190610fab565b6001600160a01b0316146103ea5760405162461bcd60e51b815260040161027c90610fc8565b60015442101561040d57604051630136f26f60e61b815260040160405180910390fd5b6002805460ff1916831515908117909155604080517f0000000000000000000000000000000000000000000000000000000000000000815260208101929092527f5602d41126ea699a93f4ab359d93e8701e97587ef6ecaf53ba0bfcfbc9b9443b910160405180910390a15050565b60005460405162e4decd60e31b81527f0000000000000000000000000000000000000000000000000000000000000000600482018190529133916001600160a01b0390911690630726f66890602401602060405180830381865afa1580156104e8573d6000803e3d6000fd5b505050506040513d601f19601f8201168201806040525081019061050c9190610fab565b6001600160a01b0316146105325760405162461bcd60e51b815260040161027c90610fc8565b50600280546001600160a01b0390921661010002610100600160a81b0319909216919091179055565b60005460405162e4decd60e31b81527f0000000000000000000000000000000000000000000000000000000000000000600482018190529133916001600160a01b0390911690630726f66890602401602060405180830381865afa1580156105c7573d6000803e3d6000fd5b505050506040513d601f19601f820116820180604052508101906105eb9190610fab565b6001600160a01b0316146106115760405162461bcd60e51b815260040161027c90610fc8565b600154421061063357604051630e5ea0ab60e21b815260040160405180910390fd5b8142106106a85760405162461bcd60e51b815260206004820152603860248201527f6e6577207075626c6963526567697374726174696f6e537461727454696d652060448201527f6d7573742062652067726561746572207468616e206e6f770000000000000000606482015260840161027c565b6000600260019054906101000a90046001600160a01b03166001600160a01b03166318969e3c6040518163ffffffff1660e01b8152600401602060405180830381865afa1580156106fd573d6000803e3d6000fd5b505050506040513d601f19601f82011682018060405250810190610721919061100c565b90508281106107ac5760405162461bcd60e51b815260206004820152604b60248201527f6e6577207075626c6963526567697374726174696f6e537461727454696d652060448201527f6d7573742062652067726561746572207468616e20707265526567697374726160648201526a74696f6e456e6454696d6560a81b608482015260a40161027c565b6001839055604080517f00000000000000000000000000000000000000000000000000000000000000008152602081018590527f7209932ed961cda2151a57a4ad04f2fba1ce7dd5f0ebedc991802aa16dd97a1f910160405180910390a1505050565b60008060008888604051610824929190611025565b60405190819003812060005462e4decd60e31b83527f000000000000000000000000000000000000000000000000000000000000000060048401529092506001600160a01b0389811692911690630726f66890602401602060405180830381865afa158015610897573d6000803e3d6000fd5b505050506040513d601f19601f820116820180604052508101906108bb9190610fab565b6001600160a01b031603610998576001544210156109985760025461010090046001600160a01b03161561098a576000600260019054906101000a90046001600160a01b03166001600160a01b031663ffeaf35f6040518163ffffffff1660e01b8152600401602060405180830381865afa15801561093e573d6000803e3d6000fd5b505050506040513d601f19601f82011682018060405250810190610962919061100c565b905080158061097057508042105b156109845760016000935093505050610e3e565b50610998565b600160009250925050610e3e565b60025461010090046001600160a01b031615610e0557600260019054906101000a90046001600160a01b03166001600160a01b031663b6fc138f6040518163ffffffff1660e01b8152600401602060405180830381865afa158015610a01573d6000803e3d6000fd5b505050506040513d601f19601f82011682018060405250810190610a259190611035565b15610beb57600260019054906101000a90046001600160a01b03166001600160a01b031663045535b76040518163ffffffff1660e01b8152600401602060405180830381865afa158015610a7d573d6000803e3d6000fd5b505050506040513d601f19601f82011682018060405250810190610aa1919061100c565b4211610ab4576000809250925050610e3e565b600260019054906101000a90046001600160a01b03166001600160a01b0316639efdb7cf6040518163ffffffff1660e01b8152600401602060405180830381865afa158015610b07573d6000803e3d6000fd5b505050506040513d601f19601f82011682018060405250810190610b2b9190611035565b15610beb57600254604051628cb5d760e81b81526004810183905260009161010090046001600160a01b031690638cb5d70090602401602060405180830381865afa158015610b7e573d6000803e3d6000fd5b505050506040513d601f19601f82011682018060405250810190610ba29190610fab565b9050876001600160a01b0316816001600160a01b031603610bcc5760016000935093505050610e3e565b6001600160a01b03811615610be957600080935093505050610e3e565b505b600260019054906101000a90046001600160a01b03166001600160a01b031663dd3cb4a96040518163ffffffff1660e01b8152600401602060405180830381865afa158015610c3e573d6000803e3d6000fd5b505050506040513d601f19601f82011682018060405250810190610c629190611035565b15610e0557600260019054906101000a90046001600160a01b03166001600160a01b031663c989d0756040518163ffffffff1660e01b8152600401602060405180830381865afa158015610cba573d6000803e3d6000fd5b505050506040513d601f19601f82011682018060405250810190610cde919061100c565b421015610cf2576000809250925050610e3e565b600260019054906101000a90046001600160a01b03166001600160a01b031663c39887f56040518163ffffffff1660e01b8152600401602060405180830381865afa158015610d45573d6000803e3d6000fd5b505050506040513d601f19601f82011682018060405250810190610d69919061100c565b4211610e05576002546040516308068a3960e31b81526001600160a01b0389811660048301526000926101009004169063403451c890602401602060405180830381865afa158015610dbf573d6000803e3d6000fd5b505050506040513d601f19601f82011682018060405250810190610de39190611052565b60ff1611610df8576000809250925050610e3e565b6001809250925050610e3e565b600154421015610e1c576000809250925050610e3e565b60025460ff1615610e34576000809250925050610e3e565b6001600092509250505b97509795505050505050565b60008083601f840112610e5c57600080fd5b50813567ffffffffffffffff811115610e7457600080fd5b602083019150836020828501011115610e8c57600080fd5b9250929050565b6001600160a01b0381168114610ea857600080fd5b50565b600080600080600080600060a0888a031215610ec657600080fd5b87359650602088013567ffffffffffffffff80821115610ee557600080fd5b610ef18b838c01610e4a565b909850965060408a01359150610f0682610e93565b9094506060890135935060808901359080821115610f2357600080fd5b50610f308a828b01610e4a565b989b979a50959850939692959293505050565b8015158114610ea857600080fd5b600060208284031215610f6357600080fd5b8135610f6e81610f43565b9392505050565b600060208284031215610f8757600080fd5b8135610f6e81610e93565b600060208284031215610fa457600080fd5b5035919050565b600060208284031215610fbd57600080fd5b8151610f6e81610e93565b60208082526024908201527f4f776e61626c653a2063616c6c6572206973206e6f742074686520746c64206f6040820152633bb732b960e11b606082015260800190565b60006020828403121561101e57600080fd5b5051919050565b8183823760009101908152919050565b60006020828403121561104757600080fd5b8151610f6e81610f43565b60006020828403121561106457600080fd5b815160ff81168114610f6e57600080fdfea264697066735822122045d5334f39998efb077364e1b43b72957c4bd2d4d654f70b1f64b044c7a3c40764736f6c63430008120033a26469706673582212207aeab11404453a3bda7515aacb4e766b2f790b683aa5add3f6e9120bf7bca02964736f6c63430008120033",
  "linkReferences": {},
  "deployedLinkReferences": {}
}