{
  "_format": "hh-sol-artifact-1",
  "contractName": "DummyUpgradeableSANN",
  "sourceName": "test/admin/mocks/DummyUpgradeableSANN.sol",
  "abi": [
    {
      "inputs": [
        {
          "internalType": "string",
          "name": "tld",
          "type": "string"
        }
      ],
      "name": "InvalidTLD",
      "type": "error"
    },
    {
      "anonymous": false,
      "inputs": [
        {
          "indexed": false,
          "internalType": "address",
          "name": "previousAdmin",
          "type": "address"
        },
        {
          "indexed": false,
          "internalType": "address",
          "name": "newAdmin",
          "type": "address"
        }
      ],
      "name": "AdminChanged",
      "type": "event"
    },
    {
      "anonymous": false,
      "inputs": [
        {
          "indexed": true,
          "internalType": "address",
          "name": "beacon",
          "type": "address"
        }
      ],
      "name": "BeaconUpgraded",
      "type": "event"
    },
    {
      "anonymous": false,
      "inputs": [
        {
          "indexed": false,
          "internalType": "uint8",
          "name": "version",
          "type": "uint8"
        }
      ],
      "name": "Initialized",
      "type": "event"
    },
    {
      "anonymous": false,
      "inputs": [
        {
          "indexed": false,
          "internalType": "address",
          "name": "tldFactory",
          "type": "address"
        }
      ],
      "name": "NewPlatformAdmin",
      "type": "event"
    },
    {
      "anonymous": false,
      "inputs": [
        {
          "indexed": false,
          "internalType": "string",
          "name": "tld",
          "type": "string"
        },
        {
          "indexed": false,
          "internalType": "uint256",
          "name": "identifier",
          "type": "uint256"
        },
        {
          "indexed": false,
          "internalType": "address",
          "name": "owner",
          "type": "address"
        },
        {
          "indexed": false,
          "internalType": "address",
          "name": "base",
          "type": "address"
        },
        {
          "indexed": false,
          "internalType": "address",
          "name": "controller",
          "type": "address"
        }
      ],
      "name": "NewTld",
      "type": "event"
    },
    {
      "anonymous": false,
      "inputs": [
        {
          "indexed": false,
          "internalType": "address",
          "name": "tldController",
          "type": "address"
        }
      ],
      "name": "NewTldController",
      "type": "event"
    },
    {
      "anonymous": false,
      "inputs": [
        {
          "indexed": false,
          "internalType": "address",
          "name": "tldFactory",
          "type": "address"
        }
      ],
      "name": "NewTldFactory",
      "type": "event"
    },
    {
      "anonymous": false,
      "inputs": [
        {
          "indexed": false,
          "internalType": "uint256",
          "name": "identifier",
          "type": "uint256"
        },
        {
          "indexed": false,
          "internalType": "address",
          "name": "owner",
          "type": "address"
        }
      ],
      "name": "NewTldOwner",
      "type": "event"
    },
    {
      "anonymous": false,
      "inputs": [
        {
          "indexed": false,
          "internalType": "uint256",
          "name": "maxTldLength",
          "type": "uint256"
        }
      ],
      "name": "SetMaxTldLength",
      "type": "event"
    },
    {
      "anonymous": false,
      "inputs": [
        {
          "indexed": false,
          "internalType": "uint256",
          "name": "minTldLength",
          "type": "uint256"
        }
      ],
      "name": "SetMinTldLength",
      "type": "event"
    },
    {
      "anonymous": false,
      "inputs": [
        {
          "indexed": true,
          "internalType": "address",
          "name": "implementation",
          "type": "address"
        }
      ],
      "name": "Upgraded",
      "type": "event"
    },
    {
      "inputs": [],
      "name": "chainId",
      "outputs": [
        {
          "internalType": "uint256",
          "name": "",
          "type": "uint256"
        }
      ],
      "stateMutability": "view",
      "type": "function"
    },
    {
      "inputs": [],
      "name": "currentTldController",
      "outputs": [
        {
          "internalType": "address",
          "name": "",
          "type": "address"
        }
      ],
      "stateMutability": "view",
      "type": "function"
    },
    {
      "inputs": [],
      "name": "currentTldFactory",
      "outputs": [
        {
          "internalType": "address",
          "name": "",
          "type": "address"
        }
      ],
      "stateMutability": "view",
      "type": "function"
    },
    {
      "inputs": [],
      "name": "dummyString",
      "outputs": [
        {
          "internalType": "string",
          "name": "",
          "type": "string"
        }
      ],
      "stateMutability": "pure",
      "type": "function"
    },
    {
      "inputs": [
        {
          "internalType": "address",
          "name": "_domainRegistry",
          "type": "address"
        },
        {
          "internalType": "address",
          "name": "_platformAdmin",
          "type": "address"
        }
      ],
      "name": "initialize",
      "outputs": [],
      "stateMutability": "nonpayable",
      "type": "function"
    },
    {
      "inputs": [],
      "name": "maxTldLength",
      "outputs": [
        {
          "internalType": "uint256",
          "name": "",
          "type": "uint256"
        }
      ],
      "stateMutability": "view",
      "type": "function"
    },
    {
      "inputs": [],
      "name": "minTldLength",
      "outputs": [
        {
          "internalType": "uint256",
          "name": "",
          "type": "uint256"
        }
      ],
      "stateMutability": "view",
      "type": "function"
    },
    {
      "inputs": [],
      "name": "platformAdmin",
      "outputs": [
        {
          "internalType": "address",
          "name": "",
          "type": "address"
        }
      ],
      "stateMutability": "view",
      "type": "function"
    },
    {
      "inputs": [],
      "name": "proxiableUUID",
      "outputs": [
        {
          "internalType": "bytes32",
          "name": "",
          "type": "bytes32"
        }
      ],
      "stateMutability": "view",
      "type": "function"
    },
    {
      "inputs": [
        {
          "internalType": "string",
          "name": "tldName",
          "type": "string"
        },
        {
          "internalType": "uint256",
          "name": "identifier",
          "type": "uint256"
        },
        {
          "internalType": "address",
          "name": "owner",
          "type": "address"
        },
        {
          "internalType": "address",
          "name": "base",
          "type": "address"
        }
      ],
      "name": "registerTld",
      "outputs": [],
      "stateMutability": "nonpayable",
      "type": "function"
    },
    {
      "inputs": [],
      "name": "registry",
      "outputs": [
        {
          "internalType": "address",
          "name": "",
          "type": "address"
        }
      ],
      "stateMutability": "view",
      "type": "function"
    },
    {
      "inputs": [
        {
          "internalType": "uint256",
          "name": "_maxTldLength",
          "type": "uint256"
        }
      ],
      "name": "setMaxTldLength",
      "outputs": [],
      "stateMutability": "nonpayable",
      "type": "function"
    },
    {
      "inputs": [
        {
          "internalType": "uint256",
          "name": "_minTldLength",
          "type": "uint256"
        }
      ],
      "name": "setMinTldLength",
      "outputs": [],
      "stateMutability": "nonpayable",
      "type": "function"
    },
    {
      "inputs": [
        {
          "internalType": "address",
          "name": "_platformAdmin",
          "type": "address"
        }
      ],
      "name": "setPlatformAdmin",
      "outputs": [],
      "stateMutability": "nonpayable",
      "type": "function"
    },
    {
      "inputs": [
        {
          "internalType": "address",
          "name": "_tldController",
          "type": "address"
        }
      ],
      "name": "setTldController",
      "outputs": [],
      "stateMutability": "nonpayable",
      "type": "function"
    },
    {
      "inputs": [
        {
          "internalType": "address",
          "name": "tldFactory",
          "type": "address"
        }
      ],
      "name": "setTldFactory",
      "outputs": [],
      "stateMutability": "nonpayable",
      "type": "function"
    },
    {
      "inputs": [
        {
          "internalType": "uint256",
          "name": "identifier",
          "type": "uint256"
        },
        {
          "internalType": "address",
          "name": "newOwner",
          "type": "address"
        }
      ],
      "name": "setTldOwner",
      "outputs": [],
      "stateMutability": "nonpayable",
      "type": "function"
    },
    {
      "inputs": [
        {
          "internalType": "uint256",
          "name": "identifier",
          "type": "uint256"
        }
      ],
      "name": "tld",
      "outputs": [
        {
          "internalType": "string",
          "name": "",
          "type": "string"
        }
      ],
      "stateMutability": "view",
      "type": "function"
    },
    {
      "inputs": [
        {
          "internalType": "uint256",
          "name": "identifier",
          "type": "uint256"
        }
      ],
      "name": "tldBase",
      "outputs": [
        {
          "internalType": "address",
          "name": "",
          "type": "address"
        }
      ],
      "stateMutability": "view",
      "type": "function"
    },
    {
      "inputs": [],
      "name": "tldController",
      "outputs": [
        {
          "internalType": "address",
          "name": "",
          "type": "address"
        }
      ],
      "stateMutability": "view",
      "type": "function"
    },
    {
      "inputs": [
        {
          "internalType": "string",
          "name": "tldName",
          "type": "string"
        },
        {
          "internalType": "address",
          "name": "owner",
          "type": "address"
        }
      ],
      "name": "tldIdentifier",
      "outputs": [
        {
          "internalType": "uint256",
          "name": "",
          "type": "uint256"
        }
      ],
      "stateMutability": "view",
      "type": "function"
    },
    {
      "inputs": [
        {
          "internalType": "uint256",
          "name": "",
          "type": "uint256"
        }
      ],
      "name": "tldInfos",
      "outputs": [
        {
          "internalType": "string",
          "name": "tld",
          "type": "string"
        },
        {
          "internalType": "address",
          "name": "owner",
          "type": "address"
        },
        {
          "internalType": "address",
          "name": "base",
          "type": "address"
        }
      ],
      "stateMutability": "view",
      "type": "function"
    },
    {
      "inputs": [
        {
          "internalType": "uint256",
          "name": "identifier",
          "type": "uint256"
        }
      ],
      "name": "tldOwner",
      "outputs": [
        {
          "internalType": "address",
          "name": "",
          "type": "address"
        }
      ],
      "stateMutability": "view",
      "type": "function"
    },
    {
      "inputs": [
        {
          "internalType": "bytes32",
          "name": "node",
          "type": "bytes32"
        },
        {
          "internalType": "address",
          "name": "newOwner",
          "type": "address"
        }
      ],
      "name": "transferNodeOwner",
      "outputs": [],
      "stateMutability": "nonpayable",
      "type": "function"
    },
    {
      "inputs": [
        {
          "internalType": "address",
          "name": "newImplementation",
          "type": "address"
        }
      ],
      "name": "upgradeTo",
      "outputs": [],
      "stateMutability": "nonpayable",
      "type": "function"
    },
    {
      "inputs": [
        {
          "internalType": "address",
          "name": "newImplementation",
          "type": "address"
        },
        {
          "internalType": "bytes",
          "name": "data",
          "type": "bytes"
        }
      ],
      "name": "upgradeToAndCall",
      "outputs": [],
      "stateMutability": "payable",
      "type": "function"
    }
  ],
  "bytecode": "0x60a06040523060805234801561001457600080fd5b5061001d610022565b6100e1565b600054610100900460ff161561008e5760405162461bcd60e51b815260206004820152602760248201527f496e697469616c697a61626c653a20636f6e747261637420697320696e697469604482015266616c697a696e6760c81b606482015260840160405180910390fd5b60005460ff908116146100df576000805460ff191660ff9081179091556040519081527f7f26b83ff96e1f2b6a682f133852f6798a09c465da95921460cefb38474024989060200160405180910390a15b565b608051611dc761011860003960008181610663015281816106a301528181610ab401528181610af40152610b870152611dc76000f3fe6080604052600436106101815760003560e01c806353bdd0c6116100d15780639424bff81161008a578063a334815a11610064578063a334815a146104a2578063b202ca11146104c2578063cdcd7fb5146104d8578063f3400419146104f857600080fd5b80639424bff81461044c57806397793e2a1461046c5780639a8a05921461048c57600080fd5b806353bdd0c61461038c5780636a0dfac1146103ac5780637805dca3146103cc5780637b103999146103ec5780637ee664fa1461040c57806389a71c2c1461042c57600080fd5b80632cb130d41161013e5780634376c801116101185780634376c80114610324578063485cc955146103445780634f1ef2861461036457806352d1902d1461037757600080fd5b80632cb130d41461029b5780633659cfe6146102d55780633e696ffc146102f557600080fd5b80630726f668146101865780630975f8dd146101dc5780631ce96ae7146101fe5780631e038cc81461021e578063261bd4c51461024c5780632c7263b514610262575b600080fd5b34801561019257600080fd5b506101bf6101a13660046116f6565b6000908152600860205260409020600101546001600160a01b031690565b6040516001600160a01b0390911681526020015b60405180910390f35b3480156101e857600080fd5b506101fc6101f736600461172b565b610516565b005b34801561020a57600080fd5b506101fc61021936600461172b565b61059e565b34801561022a57600080fd5b5061023e61023936600461178f565b610616565b6040519081526020016101d3565b34801561025857600080fd5b5061023e60065481565b34801561026e57600080fd5b506101bf61027d3660046116f6565b6000908152600860205260409020600201546001600160a01b031690565b3480156102a757600080fd5b506040805180820190915260088152672732bb9029a0a72760c11b60208201525b6040516101d39190611833565b3480156102e157600080fd5b506101fc6102f036600461172b565b610659565b34801561030157600080fd5b506103156103103660046116f6565b610738565b6040516101d393929190611846565b34801561033057600080fd5b506101fc61033f366004611879565b6107ef565b34801561035057600080fd5b506101fc61035f3660046118a5565b6108b6565b6101fc6103723660046118e5565b610aaa565b34801561038357600080fd5b5061023e610b7a565b34801561039857600080fd5b506101fc6103a7366004611879565b610c2d565b3480156103b857600080fd5b506002546101bf906001600160a01b031681565b3480156103d857600080fd5b506101fc6103e73660046116f6565b610d06565b3480156103f857600080fd5b506005546101bf906001600160a01b031681565b34801561041857600080fd5b506101fc6104273660046116f6565b610d65565b34801561043857600080fd5b506003546101bf906001600160a01b031681565b34801561045857600080fd5b506102c86104673660046116f6565b610dc4565b34801561047857600080fd5b506101fc61048736600461172b565b610e66565b34801561049857600080fd5b5061023e60015481565b3480156104ae57600080fd5b506101fc6104bd3660046119a7565b610ede565b3480156104ce57600080fd5b5061023e60075481565b3480156104e457600080fd5b506004546101bf906001600160a01b031681565b34801561050457600080fd5b506003546001600160a01b03166101bf565b6004546001600160a01b031633146105495760405162461bcd60e51b815260040161054090611a15565b60405180910390fd5b600380546001600160a01b0319166001600160a01b0383169081179091556040519081527f6cf26c4bb730d3a50074d1f62d9edaa313bf3019d6d1ddd081b934ea6d1c7102906020015b60405180910390a150565b6004546001600160a01b031633146105c85760405162461bcd60e51b815260040161054090611a15565b600480546001600160a01b0319166001600160a01b0383169081179091556040519081527f42d3f9a40a5172c752f90ad0ba180b6be6323be2fa3431e428377a1b6aaf7b6a90602001610593565b6000602082858560405160200161062f93929190611a42565b60408051601f19818403018152919052805160209091012060015460e01b911c1790509392505050565b6001600160a01b037f00000000000000000000000000000000000000000000000000000000000000001630036106a15760405162461bcd60e51b815260040161054090611a6e565b7f00000000000000000000000000000000000000000000000000000000000000006001600160a01b03166106ea600080516020611d4b833981519152546001600160a01b031690565b6001600160a01b0316146107105760405162461bcd60e51b815260040161054090611aba565b61071981611223565b604080516000808252602082019092526107359183919061124d565b50565b60086020526000908152604090208054819061075390611b06565b80601f016020809104026020016040519081016040528092919081815260200182805461077f90611b06565b80156107cc5780601f106107a1576101008083540402835291602001916107cc565b820191906000526020600020905b8154815290600101906020018083116107af57829003601f168201915b50505050600183015460029093015491926001600160a01b039081169216905083565b60008281526008602052604090206001015482906001600160a01b0316331461084b5760405162461bcd60e51b815260206004820152600e60248201526d37b7363c903a36321037bbb732b960911b6044820152606401610540565b60008381526008602090815260409182902060010180546001600160a01b0319166001600160a01b0386169081179091558251868152918201527fd84dedae7e875b17c62d587f2bbfc7af84cda07be53c8bc1c867c59e300b8c6291015b60405180910390a1505050565b600054610100900460ff16158080156108d65750600054600160ff909116105b806108f05750303b1580156108f0575060005460ff166001145b6109535760405162461bcd60e51b815260206004820152602e60248201527f496e697469616c697a61626c653a20636f6e747261637420697320616c72656160448201526d191e481a5b9a5d1a585b1a5e995960921b6064820152608401610540565b6000805460ff191660011790558015610976576000805461ff0019166101001790555b46600155600280546001600160a01b0319908116909155600480546001600160a01b0385169216821790556040519081527f42d3f9a40a5172c752f90ad0ba180b6be6323be2fa3431e428377a1b6aaf7b6a9060200160405180910390a1600580546001600160a01b0319166001600160a01b038516179055600360068190556040519081527f6b5c80d77bb052d8516ace3d07ad7dd68ddaf7015995199ee2e8eec9e8e591289060200160405180910390a1600560078190556040519081527f6e477cd155c7e73030167ff820363b94fb27b6fcc2f484d83b9a8c87a5c77fcf9060200160405180910390a18015610aa5576000805461ff0019169055604051600181527f7f26b83ff96e1f2b6a682f133852f6798a09c465da95921460cefb3847402498906020016108a9565b505050565b6001600160a01b037f0000000000000000000000000000000000000000000000000000000000000000163003610af25760405162461bcd60e51b815260040161054090611a6e565b7f00000000000000000000000000000000000000000000000000000000000000006001600160a01b0316610b3b600080516020611d4b833981519152546001600160a01b031690565b6001600160a01b031614610b615760405162461bcd60e51b815260040161054090611aba565b610b6a82611223565b610b768282600161124d565b5050565b6000306001600160a01b037f00000000000000000000000000000000000000000000000000000000000000001614610c1a5760405162461bcd60e51b815260206004820152603860248201527f555550535570677261646561626c653a206d757374206e6f742062652063616c60448201527f6c6564207468726f7567682064656c656761746563616c6c00000000000000006064820152608401610540565b50600080516020611d4b83398151915290565b6004546001600160a01b03163314610c575760405162461bcd60e51b815260040161054090611a15565b6001600160a01b038116610c9c5760405162461bcd60e51b815260206004820152600c60248201526b7a65726f206164647265737360a01b6044820152606401610540565b600554604051635b0fc9c360e01b8152600481018490526001600160a01b03838116602483015290911690635b0fc9c390604401600060405180830381600087803b158015610cea57600080fd5b505af1158015610cfe573d6000803e3d6000fd5b505050505050565b6004546001600160a01b03163314610d305760405162461bcd60e51b815260040161054090611a15565b60068190556040518181527f6b5c80d77bb052d8516ace3d07ad7dd68ddaf7015995199ee2e8eec9e8e5912890602001610593565b6004546001600160a01b03163314610d8f5760405162461bcd60e51b815260040161054090611a15565b60078190556040518181527f6e477cd155c7e73030167ff820363b94fb27b6fcc2f484d83b9a8c87a5c77fcf90602001610593565b6000818152600860205260409020805460609190610de190611b06565b80601f0160208091040260200160405190810160405280929190818152602001828054610e0d90611b06565b8015610e5a5780601f10610e2f57610100808354040283529160200191610e5a565b820191906000526020600020905b815481529060010190602001808311610e3d57829003601f168201915b50505050509050919050565b6004546001600160a01b03163314610e905760405162461bcd60e51b815260040161054090611a15565b600280546001600160a01b0319166001600160a01b0383169081179091556040519081527fbc133274df720db82d6c944422fee883c098d643cee44ed7c18626c59939620e90602001610593565b6002546001600160a01b03163314610f315760405162461bcd60e51b81526020600482015260166024820152756f6e6c792076616c696420746c6420666163746f727960501b6044820152606401610540565b6001600160a01b038216610f7f5760405162461bcd60e51b8152602060048201526015602482015274696e76616c6964206f776e6572206164647265737360581b6044820152606401610540565b6001600160a01b038116610fcc5760405162461bcd60e51b8152602060048201526014602482015273696e76616c69642062617365206164647265737360601b6044820152606401610540565b610fd685856113b8565b610ff7578484604051633a257dad60e21b8152600401610540929190611b69565b6000838152600860205260409020805461101090611b06565b15905061105f5760405162461bcd60e51b815260206004820152601760248201527f544c4420686173206265656e20726567697374657265640000000000000000006044820152606401610540565b6000838152600860205260409020611078858783611bc3565b50600083815260086020526040908190206001810180546001600160a01b038087166001600160a01b0319928316179092556002909201805485831693169290921790915560035491517fe600e4a40deb2e23ab9133f4c86b57e1605f608a7623a6e6da1171837813b7f8926110fb928992899289928992899290911690611c84565b60405180910390a16005546040516306ab592360e01b815260006004820181905260248201869052306044830152916001600160a01b0316906306ab5923906064016020604051808303816000875af115801561115c573d6000803e3d6000fd5b505050506040513d601f19601f820116820180604052508101906111809190611cc8565b905060008686604051611194929190611ce1565b6040519081900381206005546306ab592360e01b835260048301859052602483018290526001600160a01b03868116604485015291935016906306ab5923906064016020604051808303816000875af11580156111f5573d6000803e3d6000fd5b505050506040513d601f19601f820116820180604052508101906112199190611cc8565b5050505050505050565b6004546001600160a01b031633146107355760405162461bcd60e51b815260040161054090611a15565b7f4910fdfa16fed3260ed0e7147f7cc6da11a60208b5b9406d12a635614ffd91435460ff161561128057610aa5836114a0565b826001600160a01b03166352d1902d6040518163ffffffff1660e01b8152600401602060405180830381865afa9250505080156112da575060408051601f3d908101601f191682019092526112d791810190611cc8565b60015b61133d5760405162461bcd60e51b815260206004820152602e60248201527f45524331393637557067726164653a206e657720696d706c656d656e7461746960448201526d6f6e206973206e6f74205555505360901b6064820152608401610540565b600080516020611d4b83398151915281146113ac5760405162461bcd60e51b815260206004820152602960248201527f45524331393637557067726164653a20756e737570706f727465642070726f786044820152681a58589b195555525160ba1b6064820152608401610540565b50610aa583838361153c565b6006546000908390839081908110806113d2575060075481115b156113e3576000935050505061149a565b60005b8181101561149157600084848381811061140257611402611cf1565b909101356001600160f81b031916915050606160f81b81108015906114355750603d60f91b6001600160f81b0319821611155b15801561146b5750600360fc1b6001600160f81b03198216108015906114695750603960f81b6001600160f81b0319821611155b155b1561147e5760009550505050505061149a565b508061148981611d07565b9150506113e6565b50600193505050505b92915050565b6001600160a01b0381163b61150d5760405162461bcd60e51b815260206004820152602d60248201527f455243313936373a206e657720696d706c656d656e746174696f6e206973206e60448201526c1bdd08184818dbdb9d1c9858dd609a1b6064820152608401610540565b600080516020611d4b83398151915280546001600160a01b0319166001600160a01b0392909216919091179055565b61154583611567565b6000825111806115525750805b15610aa55761156183836115a7565b50505050565b611570816114a0565b6040516001600160a01b038216907fbc7cd75a20ee27fd9adebab32041f755214dbc6bffa90cc0225b39da2e5c2d3b90600090a250565b60606115cc8383604051806060016040528060278152602001611d6b602791396115d3565b9392505050565b6060600080856001600160a01b0316856040516115f09190611d2e565b600060405180830381855af49150503d806000811461162b576040519150601f19603f3d011682016040523d82523d6000602084013e611630565b606091505b50915091506116418683838761164b565b9695505050505050565b606083156116ba5782516000036116b3576001600160a01b0385163b6116b35760405162461bcd60e51b815260206004820152601d60248201527f416464726573733a2063616c6c20746f206e6f6e2d636f6e74726163740000006044820152606401610540565b50816116c4565b6116c483836116cc565b949350505050565b8151156116dc5781518083602001fd5b8060405162461bcd60e51b81526004016105409190611833565b60006020828403121561170857600080fd5b5035919050565b80356001600160a01b038116811461172657600080fd5b919050565b60006020828403121561173d57600080fd5b6115cc8261170f565b60008083601f84011261175857600080fd5b50813567ffffffffffffffff81111561177057600080fd5b60208301915083602082850101111561178857600080fd5b9250929050565b6000806000604084860312156117a457600080fd5b833567ffffffffffffffff8111156117bb57600080fd5b6117c786828701611746565b90945092506117da90506020850161170f565b90509250925092565b60005b838110156117fe5781810151838201526020016117e6565b50506000910152565b6000815180845261181f8160208601602086016117e3565b601f01601f19169290920160200192915050565b6020815260006115cc6020830184611807565b6060815260006118596060830186611807565b6001600160a01b0394851660208401529290931660409091015292915050565b6000806040838503121561188c57600080fd5b8235915061189c6020840161170f565b90509250929050565b600080604083850312156118b857600080fd5b6118c18361170f565b915061189c6020840161170f565b634e487b7160e01b600052604160045260246000fd5b600080604083850312156118f857600080fd5b6119018361170f565b9150602083013567ffffffffffffffff8082111561191e57600080fd5b818501915085601f83011261193257600080fd5b813581811115611944576119446118cf565b604051601f8201601f19908116603f0116810190838211818310171561196c5761196c6118cf565b8160405282815288602084870101111561198557600080fd5b8260208601602083013760006020848301015280955050505050509250929050565b6000806000806000608086880312156119bf57600080fd5b853567ffffffffffffffff8111156119d657600080fd5b6119e288828901611746565b909650945050602086013592506119fb6040870161170f565b9150611a096060870161170f565b90509295509295909350565b60208082526013908201527237b7363c90383630ba3337b9369030b236b4b760691b604082015260600190565b6bffffffffffffffffffffffff198460601b168152818360148301376000910160140190815292915050565b6020808252602c908201527f46756e6374696f6e206d7573742062652063616c6c6564207468726f7567682060408201526b19195b1959d85d1958d85b1b60a21b606082015260800190565b6020808252602c908201527f46756e6374696f6e206d7573742062652063616c6c6564207468726f7567682060408201526b6163746976652070726f787960a01b606082015260800190565b600181811c90821680611b1a57607f821691505b602082108103611b3a57634e487b7160e01b600052602260045260246000fd5b50919050565b81835281816020850137506000828201602090810191909152601f909101601f19169091010190565b6020815260006116c4602083018486611b40565b601f821115610aa557600081815260208120601f850160051c81016020861015611ba45750805b601f850160051c820191505b81811015610cfe57828155600101611bb0565b67ffffffffffffffff831115611bdb57611bdb6118cf565b611bef83611be98354611b06565b83611b7d565b6000601f841160018114611c235760008515611c0b5750838201355b600019600387901b1c1916600186901b178355611c7d565b600083815260209020601f19861690835b82811015611c545786850135825560209485019460019092019101611c34565b5086821015611c715760001960f88860031b161c19848701351681555b505060018560011b0183555b5050505050565b60a081526000611c9860a08301888a611b40565b6020830196909652506001600160a01b039384166040820152918316606083015290911660809091015292915050565b600060208284031215611cda57600080fd5b5051919050565b8183823760009101908152919050565b634e487b7160e01b600052603260045260246000fd5b600060018201611d2757634e487b7160e01b600052601160045260246000fd5b5060010190565b60008251611d408184602087016117e3565b919091019291505056fe360894a13ba1a3210667c828492db98dca3e2076cc3735a920a3ca505d382bbc416464726573733a206c6f772d6c6576656c2064656c65676174652063616c6c206661696c6564a2646970667358221220d0f4b11f87e8d9239e77655385a3044cea24d7b60f7bc115751f44198337654d64736f6c63430008120033",
  "linkReferences": {},
  "deployedLinkReferences": {}
}