{
  "_format": "hh-sol-artifact-1",
  "contractName": "DummyUpgradeableSANN",
  "sourceName": "test/admin/mocks/DummyUpgradeableSANN.sol",
  "abi": [
    {
      "inputs": [
        {
          "internalType": "string",
          "name": "tld",
          "type": "string"
        }
      ],
      "name": "InvalidTLD",
      "type": "error"
    },
    {
      "anonymous": false,
      "inputs": [
        {
          "indexed": false,
          "internalType": "address",
          "name": "previousAdmin",
          "type": "address"
        },
        {
          "indexed": false,
          "internalType": "address",
          "name": "newAdmin",
          "type": "address"
        }
      ],
      "name": "AdminChanged",
      "type": "event"
    },
    {
      "anonymous": false,
      "inputs": [
        {
          "indexed": true,
          "internalType": "address",
          "name": "beacon",
          "type": "address"
        }
      ],
      "name": "BeaconUpgraded",
      "type": "event"
    },
    {
      "anonymous": false,
      "inputs": [
        {
          "indexed": false,
          "internalType": "uint8",
          "name": "version",
          "type": "uint8"
        }
      ],
      "name": "Initialized",
      "type": "event"
    },
    {
      "anonymous": false,
      "inputs": [
        {
          "indexed": false,
          "internalType": "address",
          "name": "tldFactory",
          "type": "address"
        }
      ],
      "name": "NewPlatformAdmin",
      "type": "event"
    },
    {
      "anonymous": false,
      "inputs": [
        {
          "indexed": false,
          "internalType": "string",
          "name": "tld",
          "type": "string"
        },
        {
          "indexed": false,
          "internalType": "uint256",
          "name": "identifier",
          "type": "uint256"
        },
        {
          "indexed": false,
          "internalType": "address",
          "name": "owner",
          "type": "address"
        },
        {
          "indexed": false,
          "internalType": "address",
          "name": "base",
          "type": "address"
        },
        {
          "indexed": false,
          "internalType": "address",
          "name": "controller",
          "type": "address"
        }
      ],
      "name": "NewTld",
      "type": "event"
    },
    {
      "anonymous": false,
      "inputs": [
        {
          "indexed": false,
          "internalType": "address",
          "name": "tldController",
          "type": "address"
        }
      ],
      "name": "NewTldController",
      "type": "event"
    },
    {
      "anonymous": false,
      "inputs": [
        {
          "indexed": false,
          "internalType": "address",
          "name": "tldFactory",
          "type": "address"
        }
      ],
      "name": "NewTldFactory",
      "type": "event"
    },
    {
      "anonymous": false,
      "inputs": [
        {
          "indexed": false,
          "internalType": "uint256",
          "name": "identifier",
          "type": "uint256"
        },
        {
          "indexed": false,
          "internalType": "address",
          "name": "owner",
          "type": "address"
        }
      ],
      "name": "NewTldOwner",
      "type": "event"
    },
    {
      "anonymous": false,
      "inputs": [
        {
          "indexed": false,
          "internalType": "uint256",
          "name": "maxTldLength",
          "type": "uint256"
        }
      ],
      "name": "SetMaxTldLength",
      "type": "event"
    },
    {
      "anonymous": false,
      "inputs": [
        {
          "indexed": false,
          "internalType": "uint256",
          "name": "minTldLength",
          "type": "uint256"
        }
      ],
      "name": "SetMinTldLength",
      "type": "event"
    },
    {
      "anonymous": false,
      "inputs": [
        {
          "indexed": true,
          "internalType": "address",
          "name": "implementation",
          "type": "address"
        }
      ],
      "name": "Upgraded",
      "type": "event"
    },
    {
      "inputs": [],
      "name": "chainId",
      "outputs": [
        {
          "internalType": "uint256",
          "name": "",
          "type": "uint256"
        }
      ],
      "stateMutability": "view",
      "type": "function"
    },
    {
      "inputs": [],
      "name": "currentTldController",
      "outputs": [
        {
          "internalType": "address",
          "name": "",
          "type": "address"
        }
      ],
      "stateMutability": "view",
      "type": "function"
    },
    {
      "inputs": [],
      "name": "currentTldFactory",
      "outputs": [
        {
          "internalType": "address",
          "name": "",
          "type": "address"
        }
      ],
      "stateMutability": "view",
      "type": "function"
    },
    {
      "inputs": [],
      "name": "dummyString",
      "outputs": [
        {
          "internalType": "string",
          "name": "",
          "type": "string"
        }
      ],
      "stateMutability": "pure",
      "type": "function"
    },
    {
      "inputs": [
        {
          "internalType": "address",
          "name": "_domainRegistry",
          "type": "address"
        },
        {
          "internalType": "address",
          "name": "_platformAdmin",
          "type": "address"
        }
      ],
      "name": "initialize",
      "outputs": [],
      "stateMutability": "nonpayable",
      "type": "function"
    },
    {
      "inputs": [],
      "name": "maxTldLength",
      "outputs": [
        {
          "internalType": "uint256",
          "name": "",
          "type": "uint256"
        }
      ],
      "stateMutability": "view",
      "type": "function"
    },
    {
      "inputs": [],
      "name": "minTldLength",
      "outputs": [
        {
          "internalType": "uint256",
          "name": "",
          "type": "uint256"
        }
      ],
      "stateMutability": "view",
      "type": "function"
    },
    {
      "inputs": [],
      "name": "platformAdmin",
      "outputs": [
        {
          "internalType": "address",
          "name": "",
          "type": "address"
        }
      ],
      "stateMutability": "view",
      "type": "function"
    },
    {
      "inputs": [],
      "name": "proxiableUUID",
      "outputs": [
        {
          "internalType": "bytes32",
          "name": "",
          "type": "bytes32"
        }
      ],
      "stateMutability": "view",
      "type": "function"
    },
    {
      "inputs": [
        {
          "internalType": "string",
          "name": "tldName",
          "type": "string"
        },
        {
          "internalType": "uint256",
          "name": "identifier",
          "type": "uint256"
        },
        {
          "internalType": "address",
          "name": "owner",
          "type": "address"
        },
        {
          "internalType": "address",
          "name": "base",
          "type": "address"
        }
      ],
      "name": "registerTld",
      "outputs": [],
      "stateMutability": "nonpayable",
      "type": "function"
    },
    {
      "inputs": [],
      "name": "registry",
      "outputs": [
        {
          "internalType": "address",
          "name": "",
          "type": "address"
        }
      ],
      "stateMutability": "view",
      "type": "function"
    },
    {
      "inputs": [
        {
          "internalType": "uint256",
          "name": "_maxTldLength",
          "type": "uint256"
        }
      ],
      "name": "setMaxTldLength",
      "outputs": [],
      "stateMutability": "nonpayable",
      "type": "function"
    },
    {
      "inputs": [
        {
          "internalType": "uint256",
          "name": "_minTldLength",
          "type": "uint256"
        }
      ],
      "name": "setMinTldLength",
      "outputs": [],
      "stateMutability": "nonpayable",
      "type": "function"
    },
    {
      "inputs": [
        {
          "internalType": "address",
          "name": "_platformAdmin",
          "type": "address"
        }
      ],
      "name": "setPlatformAdmin",
      "outputs": [],
      "stateMutability": "nonpayable",
      "type": "function"
    },
    {
      "inputs": [
        {
          "internalType": "address",
          "name": "_tldController",
          "type": "address"
        }
      ],
      "name": "setTldController",
      "outputs": [],
      "stateMutability": "nonpayable",
      "type": "function"
    },
    {
      "inputs": [
        {
          "internalType": "address",
          "name": "tldFactory",
          "type": "address"
        }
      ],
      "name": "setTldFactory",
      "outputs": [],
      "stateMutability": "nonpayable",
      "type": "function"
    },
    {
      "inputs": [
        {
          "internalType": "uint256",
          "name": "identifier",
          "type": "uint256"
        },
        {
          "internalType": "address",
          "name": "newOwner",
          "type": "address"
        }
      ],
      "name": "setTldOwner",
      "outputs": [],
      "stateMutability": "nonpayable",
      "type": "function"
    },
    {
      "inputs": [
        {
          "internalType": "uint256",
          "name": "identifier",
          "type": "uint256"
        }
      ],
      "name": "tld",
      "outputs": [
        {
          "internalType": "string",
          "name": "",
          "type": "string"
        }
      ],
      "stateMutability": "view",
      "type": "function"
    },
    {
      "inputs": [
        {
          "internalType": "uint256",
          "name": "identifier",
          "type": "uint256"
        }
      ],
      "name": "tldBase",
      "outputs": [
        {
          "internalType": "address",
          "name": "",
          "type": "address"
        }
      ],
      "stateMutability": "view",
      "type": "function"
    },
    {
      "inputs": [],
      "name": "tldController",
      "outputs": [
        {
          "internalType": "address",
          "name": "",
          "type": "address"
        }
      ],
      "stateMutability": "view",
      "type": "function"
    },
    {
      "inputs": [
        {
          "internalType": "string",
          "name": "tldName",
          "type": "string"
        },
        {
          "internalType": "address",
          "name": "owner",
          "type": "address"
        }
      ],
      "name": "tldIdentifier",
      "outputs": [
        {
          "internalType": "uint256",
          "name": "",
          "type": "uint256"
        }
      ],
      "stateMutability": "view",
      "type": "function"
    },
    {
      "inputs": [
        {
          "internalType": "uint256",
          "name": "",
          "type": "uint256"
        }
      ],
      "name": "tldInfos",
      "outputs": [
        {
          "internalType": "string",
          "name": "tld",
          "type": "string"
        },
        {
          "internalType": "address",
          "name": "owner",
          "type": "address"
        },
        {
          "internalType": "address",
          "name": "base",
          "type": "address"
        }
      ],
      "stateMutability": "view",
      "type": "function"
    },
    {
      "inputs": [
        {
          "internalType": "uint256",
          "name": "identifier",
          "type": "uint256"
        }
      ],
      "name": "tldOwner",
      "outputs": [
        {
          "internalType": "address",
          "name": "",
          "type": "address"
        }
      ],
      "stateMutability": "view",
      "type": "function"
    },
    {
      "inputs": [
        {
          "internalType": "bytes32",
          "name": "node",
          "type": "bytes32"
        },
        {
          "internalType": "address",
          "name": "newOwner",
          "type": "address"
        }
      ],
      "name": "transferNodeOwner",
      "outputs": [],
      "stateMutability": "nonpayable",
      "type": "function"
    },
    {
      "inputs": [
        {
          "internalType": "address",
          "name": "newImplementation",
          "type": "address"
        }
      ],
      "name": "upgradeTo",
      "outputs": [],
      "stateMutability": "nonpayable",
      "type": "function"
    },
    {
      "inputs": [
        {
          "internalType": "address",
          "name": "newImplementation",
          "type": "address"
        },
        {
          "internalType": "bytes",
          "name": "data",
          "type": "bytes"
        }
      ],
      "name": "upgradeToAndCall",
      "outputs": [],
      "stateMutability": "payable",
      "type": "function"
    }
  ],
  "bytecode": "0x60a06040523060805234801561001457600080fd5b5061001d610022565b6100e1565b600054610100900460ff161561008e5760405162461bcd60e51b815260206004820152602760248201527f496e697469616c697a61626c653a20636f6e747261637420697320696e697469604482015266616c697a696e6760c81b606482015260840160405180910390fd5b60005460ff908116146100df576000805460ff191660ff9081179091556040519081527f7f26b83ff96e1f2b6a682f133852f6798a09c465da95921460cefb38474024989060200160405180910390a15b565b6080516120a762000119600039600081816106e00152818161076501528181610beb01528181610c700152610d5a01526120a76000f3fe6080604052600436106101a15760003560e01c806353bdd0c6116100e15780639424bff81161008a578063a334815a11610064578063a334815a146104d7578063b202ca11146104f7578063cdcd7fb51461050d578063f34004191461052d57600080fd5b80639424bff81461048157806397793e2a146104a15780639a8a0592146104c157600080fd5b80637b103999116100bb5780637b103999146104215780637ee664fa1461044157806389a71c2c1461046157600080fd5b806353bdd0c6146103c15780636a0dfac1146103e15780637805dca31461040157600080fd5b80632cb130d41161014e5780634376c801116101285780634376c80114610359578063485cc955146103795780634f1ef2861461039957806352d1902d146103ac57600080fd5b80632cb130d4146102bb5780633659cfe61461030a5780633e696ffc1461032a57600080fd5b80631e038cc81161017f5780631e038cc81461023e578063261bd4c51461026c5780632c7263b51461028257600080fd5b80630726f668146101a65780630975f8dd146101fc5780631ce96ae71461021e575b600080fd5b3480156101b257600080fd5b506101df6101c1366004611abb565b6000908152600860205260409020600101546001600160a01b031690565b6040516001600160a01b0390911681526020015b60405180910390f35b34801561020857600080fd5b5061021c610217366004611af0565b61054b565b005b34801561022a57600080fd5b5061021c610239366004611af0565b6105f5565b34801561024a57600080fd5b5061025e610259366004611b54565b610693565b6040519081526020016101f3565b34801561027857600080fd5b5061025e60065481565b34801561028e57600080fd5b506101df61029d366004611abb565b6000908152600860205260409020600201546001600160a01b031690565b3480156102c757600080fd5b5060408051808201909152600881527f4e65772053414e4e00000000000000000000000000000000000000000000000060208201525b6040516101f39190611bf8565b34801561031657600080fd5b5061021c610325366004611af0565b6106d6565b34801561033657600080fd5b5061034a610345366004611abb565b610851565b6040516101f393929190611c0b565b34801561036557600080fd5b5061021c610374366004611c3e565b610908565b34801561038557600080fd5b5061021c610394366004611c6a565b6109de565b61021c6103a7366004611caa565b610be1565b3480156103b857600080fd5b5061025e610d4d565b3480156103cd57600080fd5b5061021c6103dc366004611c3e565b610e12565b3480156103ed57600080fd5b506002546101df906001600160a01b031681565b34801561040d57600080fd5b5061021c61041c366004611abb565b610f3b565b34801561042d57600080fd5b506005546101df906001600160a01b031681565b34801561044d57600080fd5b5061021c61045c366004611abb565b610fc0565b34801561046d57600080fd5b506003546101df906001600160a01b031681565b34801561048d57600080fd5b506102fd61049c366004611abb565b611045565b3480156104ad57600080fd5b5061021c6104bc366004611af0565b6110e7565b3480156104cd57600080fd5b5061025e60015481565b3480156104e357600080fd5b5061021c6104f2366004611d6c565b611185565b34801561050357600080fd5b5061025e60075481565b34801561051957600080fd5b506004546101df906001600160a01b031681565b34801561053957600080fd5b506003546001600160a01b03166101df565b6004546001600160a01b031633146105a05760405162461bcd60e51b815260206004820152601360248201527237b7363c90383630ba3337b9369030b236b4b760691b60448201526064015b60405180910390fd5b600380546001600160a01b0319166001600160a01b0383169081179091556040519081527f6cf26c4bb730d3a50074d1f62d9edaa313bf3019d6d1ddd081b934ea6d1c7102906020015b60405180910390a150565b6004546001600160a01b031633146106455760405162461bcd60e51b815260206004820152601360248201527237b7363c90383630ba3337b9369030b236b4b760691b6044820152606401610597565b600480546001600160a01b0319166001600160a01b0383169081179091556040519081527f42d3f9a40a5172c752f90ad0ba180b6be6323be2fa3431e428377a1b6aaf7b6a906020016105ea565b600060208285856040516020016106ac93929190611dda565b60408051601f19818403018152919052805160209091012060015460e01b911c1790509392505050565b6001600160a01b037f00000000000000000000000000000000000000000000000000000000000000001630036107635760405162461bcd60e51b815260206004820152602c60248201527f46756e6374696f6e206d7573742062652063616c6c6564207468726f7567682060448201526b19195b1959d85d1958d85b1b60a21b6064820152608401610597565b7f00000000000000000000000000000000000000000000000000000000000000006001600160a01b03166107be7f360894a13ba1a3210667c828492db98dca3e2076cc3735a920a3ca505d382bbc546001600160a01b031690565b6001600160a01b0316146108295760405162461bcd60e51b815260206004820152602c60248201527f46756e6374696f6e206d7573742062652063616c6c6564207468726f7567682060448201526b6163746976652070726f787960a01b6064820152608401610597565b610832816114fb565b6040805160008082526020820190925261084e9183919061154b565b50565b60086020526000908152604090208054819061086c90611e06565b80601f016020809104026020016040519081016040528092919081815260200182805461089890611e06565b80156108e55780601f106108ba576101008083540402835291602001916108e5565b820191906000526020600020905b8154815290600101906020018083116108c857829003601f168201915b50505050600183015460029093015491926001600160a01b039081169216905083565b60008281526008602052604090206001015482906001600160a01b031633146109735760405162461bcd60e51b815260206004820152600e60248201527f6f6e6c7920746c64206f776e65720000000000000000000000000000000000006044820152606401610597565b60008381526008602090815260409182902060010180546001600160a01b0319166001600160a01b0386169081179091558251868152918201527fd84dedae7e875b17c62d587f2bbfc7af84cda07be53c8bc1c867c59e300b8c6291015b60405180910390a1505050565b600054610100900460ff16158080156109fe5750600054600160ff909116105b80610a185750303b158015610a18575060005460ff166001145b610a8a5760405162461bcd60e51b815260206004820152602e60248201527f496e697469616c697a61626c653a20636f6e747261637420697320616c72656160448201527f647920696e697469616c697a65640000000000000000000000000000000000006064820152608401610597565b6000805460ff191660011790558015610aad576000805461ff0019166101001790555b46600155600280546001600160a01b0319908116909155600480546001600160a01b0385169216821790556040519081527f42d3f9a40a5172c752f90ad0ba180b6be6323be2fa3431e428377a1b6aaf7b6a9060200160405180910390a1600580546001600160a01b0319166001600160a01b038516179055600360068190556040519081527f6b5c80d77bb052d8516ace3d07ad7dd68ddaf7015995199ee2e8eec9e8e591289060200160405180910390a1600560078190556040519081527f6e477cd155c7e73030167ff820363b94fb27b6fcc2f484d83b9a8c87a5c77fcf9060200160405180910390a18015610bdc576000805461ff0019169055604051600181527f7f26b83ff96e1f2b6a682f133852f6798a09c465da95921460cefb3847402498906020016109d1565b505050565b6001600160a01b037f0000000000000000000000000000000000000000000000000000000000000000163003610c6e5760405162461bcd60e51b815260206004820152602c60248201527f46756e6374696f6e206d7573742062652063616c6c6564207468726f7567682060448201526b19195b1959d85d1958d85b1b60a21b6064820152608401610597565b7f00000000000000000000000000000000000000000000000000000000000000006001600160a01b0316610cc97f360894a13ba1a3210667c828492db98dca3e2076cc3735a920a3ca505d382bbc546001600160a01b031690565b6001600160a01b031614610d345760405162461bcd60e51b815260206004820152602c60248201527f46756e6374696f6e206d7573742062652063616c6c6564207468726f7567682060448201526b6163746976652070726f787960a01b6064820152608401610597565b610d3d826114fb565b610d498282600161154b565b5050565b6000306001600160a01b037f00000000000000000000000000000000000000000000000000000000000000001614610ded5760405162461bcd60e51b815260206004820152603860248201527f555550535570677261646561626c653a206d757374206e6f742062652063616c60448201527f6c6564207468726f7567682064656c656761746563616c6c00000000000000006064820152608401610597565b507f360894a13ba1a3210667c828492db98dca3e2076cc3735a920a3ca505d382bbc90565b6004546001600160a01b03163314610e625760405162461bcd60e51b815260206004820152601360248201527237b7363c90383630ba3337b9369030b236b4b760691b6044820152606401610597565b6001600160a01b038116610eb85760405162461bcd60e51b815260206004820152600c60248201527f7a65726f206164647265737300000000000000000000000000000000000000006044820152606401610597565b6005546040517f5b0fc9c3000000000000000000000000000000000000000000000000000000008152600481018490526001600160a01b03838116602483015290911690635b0fc9c390604401600060405180830381600087803b158015610f1f57600080fd5b505af1158015610f33573d6000803e3d6000fd5b505050505050565b6004546001600160a01b03163314610f8b5760405162461bcd60e51b815260206004820152601360248201527237b7363c90383630ba3337b9369030b236b4b760691b6044820152606401610597565b60068190556040518181527f6b5c80d77bb052d8516ace3d07ad7dd68ddaf7015995199ee2e8eec9e8e59128906020016105ea565b6004546001600160a01b031633146110105760405162461bcd60e51b815260206004820152601360248201527237b7363c90383630ba3337b9369030b236b4b760691b6044820152606401610597565b60078190556040518181527f6e477cd155c7e73030167ff820363b94fb27b6fcc2f484d83b9a8c87a5c77fcf906020016105ea565b600081815260086020526040902080546060919061106290611e06565b80601f016020809104026020016040519081016040528092919081815260200182805461108e90611e06565b80156110db5780601f106110b0576101008083540402835291602001916110db565b820191906000526020600020905b8154815290600101906020018083116110be57829003601f168201915b50505050509050919050565b6004546001600160a01b031633146111375760405162461bcd60e51b815260206004820152601360248201527237b7363c90383630ba3337b9369030b236b4b760691b6044820152606401610597565b600280546001600160a01b0319166001600160a01b0383169081179091556040519081527fbc133274df720db82d6c944422fee883c098d643cee44ed7c18626c59939620e906020016105ea565b6002546001600160a01b031633146111df5760405162461bcd60e51b815260206004820152601660248201527f6f6e6c792076616c696420746c6420666163746f7279000000000000000000006044820152606401610597565b6001600160a01b0382166112355760405162461bcd60e51b815260206004820152601560248201527f696e76616c6964206f776e6572206164647265737300000000000000000000006044820152606401610597565b6001600160a01b03811661128b5760405162461bcd60e51b815260206004820152601460248201527f696e76616c6964206261736520616464726573730000000000000000000000006044820152606401610597565b61129585856116eb565b6112cf5784846040517fe895f6b4000000000000000000000000000000000000000000000000000000008152600401610597929190611e69565b600083815260086020526040902080546112e890611e06565b1590506113375760405162461bcd60e51b815260206004820152601760248201527f544c4420686173206265656e20726567697374657265640000000000000000006044820152606401610597565b6000838152600860205260409020611350858783611ec3565b50600083815260086020526040908190206001810180546001600160a01b038087166001600160a01b0319928316179092556002909201805485831693169290921790915560035491517fe600e4a40deb2e23ab9133f4c86b57e1605f608a7623a6e6da1171837813b7f8926113d3928992899289928992899290911690611f84565b60405180910390a16005546040516306ab592360e01b815260006004820181905260248201869052306044830152916001600160a01b0316906306ab5923906064016020604051808303816000875af1158015611434573d6000803e3d6000fd5b505050506040513d601f19601f820116820180604052508101906114589190611fc8565b90506000868660405161146c929190611fe1565b6040519081900381206005546306ab592360e01b835260048301859052602483018290526001600160a01b03868116604485015291935016906306ab5923906064016020604051808303816000875af11580156114cd573d6000803e3d6000fd5b505050506040513d601f19601f820116820180604052508101906114f19190611fc8565b5050505050505050565b6004546001600160a01b0316331461084e5760405162461bcd60e51b815260206004820152601360248201527237b7363c90383630ba3337b9369030b236b4b760691b6044820152606401610597565b7f4910fdfa16fed3260ed0e7147f7cc6da11a60208b5b9406d12a635614ffd91435460ff161561157e57610bdc83611843565b826001600160a01b03166352d1902d6040518163ffffffff1660e01b8152600401602060405180830381865afa9250505080156115d8575060408051601f3d908101601f191682019092526115d591810190611fc8565b60015b61164a5760405162461bcd60e51b815260206004820152602e60248201527f45524331393637557067726164653a206e657720696d706c656d656e7461746960448201527f6f6e206973206e6f7420555550530000000000000000000000000000000000006064820152608401610597565b7f360894a13ba1a3210667c828492db98dca3e2076cc3735a920a3ca505d382bbc81146116df5760405162461bcd60e51b815260206004820152602960248201527f45524331393637557067726164653a20756e737570706f727465642070726f7860448201527f6961626c655555494400000000000000000000000000000000000000000000006064820152608401610597565b50610bdc838383611901565b600654600090839083908190811080611705575060075481115b15611716576000935050505061183d565b60005b8181101561183457600084848381811061173557611735611ff1565b909101356001600160f81b0319169150507f610000000000000000000000000000000000000000000000000000000000000081108015906117a057507f7a000000000000000000000000000000000000000000000000000000000000006001600160f81b0319821611155b15801561180e57507f30000000000000000000000000000000000000000000000000000000000000006001600160f81b031982161080159061180c57507f39000000000000000000000000000000000000000000000000000000000000006001600160f81b0319821611155b155b156118215760009550505050505061183d565b508061182c81612007565b915050611719565b50600193505050505b92915050565b6001600160a01b0381163b6118c05760405162461bcd60e51b815260206004820152602d60248201527f455243313936373a206e657720696d706c656d656e746174696f6e206973206e60448201527f6f74206120636f6e7472616374000000000000000000000000000000000000006064820152608401610597565b7f360894a13ba1a3210667c828492db98dca3e2076cc3735a920a3ca505d382bbc80546001600160a01b0319166001600160a01b0392909216919091179055565b61190a8361192c565b6000825111806119175750805b15610bdc57611926838361196c565b50505050565b61193581611843565b6040516001600160a01b038216907fbc7cd75a20ee27fd9adebab32041f755214dbc6bffa90cc0225b39da2e5c2d3b90600090a250565b6060611991838360405180606001604052806027815260200161204b60279139611998565b9392505050565b6060600080856001600160a01b0316856040516119b5919061202e565b600060405180830381855af49150503d80600081146119f0576040519150601f19603f3d011682016040523d82523d6000602084013e6119f5565b606091505b5091509150611a0686838387611a10565b9695505050505050565b60608315611a7f578251600003611a78576001600160a01b0385163b611a785760405162461bcd60e51b815260206004820152601d60248201527f416464726573733a2063616c6c20746f206e6f6e2d636f6e74726163740000006044820152606401610597565b5081611a89565b611a898383611a91565b949350505050565b815115611aa15781518083602001fd5b8060405162461bcd60e51b81526004016105979190611bf8565b600060208284031215611acd57600080fd5b5035919050565b80356001600160a01b0381168114611aeb57600080fd5b919050565b600060208284031215611b0257600080fd5b61199182611ad4565b60008083601f840112611b1d57600080fd5b50813567ffffffffffffffff811115611b3557600080fd5b602083019150836020828501011115611b4d57600080fd5b9250929050565b600080600060408486031215611b6957600080fd5b833567ffffffffffffffff811115611b8057600080fd5b611b8c86828701611b0b565b9094509250611b9f905060208501611ad4565b90509250925092565b60005b83811015611bc3578181015183820152602001611bab565b50506000910152565b60008151808452611be4816020860160208601611ba8565b601f01601f19169290920160200192915050565b6020815260006119916020830184611bcc565b606081526000611c1e6060830186611bcc565b6001600160a01b0394851660208401529290931660409091015292915050565b60008060408385031215611c5157600080fd5b82359150611c6160208401611ad4565b90509250929050565b60008060408385031215611c7d57600080fd5b611c8683611ad4565b9150611c6160208401611ad4565b634e487b7160e01b600052604160045260246000fd5b60008060408385031215611cbd57600080fd5b611cc683611ad4565b9150602083013567ffffffffffffffff80821115611ce357600080fd5b818501915085601f830112611cf757600080fd5b813581811115611d0957611d09611c94565b604051601f8201601f19908116603f01168101908382118183101715611d3157611d31611c94565b81604052828152886020848701011115611d4a57600080fd5b8260208601602083013760006020848301015280955050505050509250929050565b600080600080600060808688031215611d8457600080fd5b853567ffffffffffffffff811115611d9b57600080fd5b611da788828901611b0b565b90965094505060208601359250611dc060408701611ad4565b9150611dce60608701611ad4565b90509295509295909350565b6bffffffffffffffffffffffff198460601b168152818360148301376000910160140190815292915050565b600181811c90821680611e1a57607f821691505b602082108103611e3a57634e487b7160e01b600052602260045260246000fd5b50919050565b81835281816020850137506000828201602090810191909152601f909101601f19169091010190565b602081526000611a89602083018486611e40565b601f821115610bdc57600081815260208120601f850160051c81016020861015611ea45750805b601f850160051c820191505b81811015610f3357828155600101611eb0565b67ffffffffffffffff831115611edb57611edb611c94565b611eef83611ee98354611e06565b83611e7d565b6000601f841160018114611f235760008515611f0b5750838201355b600019600387901b1c1916600186901b178355611f7d565b600083815260209020601f19861690835b82811015611f545786850135825560209485019460019092019101611f34565b5086821015611f715760001960f88860031b161c19848701351681555b505060018560011b0183555b5050505050565b60a081526000611f9860a08301888a611e40565b6020830196909652506001600160a01b039384166040820152918316606083015290911660809091015292915050565b600060208284031215611fda57600080fd5b5051919050565b8183823760009101908152919050565b634e487b7160e01b600052603260045260246000fd5b60006001820161202757634e487b7160e01b600052601160045260246000fd5b5060010190565b60008251612040818460208701611ba8565b919091019291505056fe416464726573733a206c6f772d6c6576656c2064656c65676174652063616c6c206661696c6564a2646970667358221220f73afef7e5a37b451613ef9b976f88d845e0c5857d6e2372f410b573937eec6964736f6c63430008120033",
  "linkReferences": {},
  "deployedLinkReferences": {}
}