{
  "_format": "hh-sol-artifact-1",
  "contractName": "Dummy",
  "sourceName": "test/common/mocks/Dummy.sol",
  "abi": [
    {
      "inputs": [],
      "stateMutability": "nonpayable",
      "type": "constructor"
    },
    {
      "inputs": [
        {
          "internalType": "string",
          "name": "name",
          "type": "string"
        }
      ],
      "name": "containsZeroWidthChar",
      "outputs": [
        {
          "internalType": "bool",
          "name": "",
          "type": "bool"
        }
      ],
      "stateMutability": "pure",
      "type": "function"
    }
  ],
  "bytecode": "0x608060405234801561001057600080fd5b506103c7806100206000396000f3fe608060405234801561001057600080fd5b506004361061002b5760003560e01c8063841e87f614610030575b600080fd5b61004361003e3660046102b4565b610057565b604051901515815260200160405180910390f35b600061009883838080601f0160208091040260200160405190810160405280939291908181526020018383808284376000920191909152506100a292505050565b1590505b92915050565b6000808290506003815110156100bb5750600192915050565b60005b600282516100cc919061033c565b8110156102aa578181815181106100e5576100e561034f565b6020910101516001600160f81b031916607160f91b14801561013557508161010e826001610365565b8151811061011e5761011e61034f565b6020910101516001600160f81b031916600160ff1b145b156101f25781610146826002610365565b815181106101565761015661034f565b6020910101516001600160f81b031916608b60f81b14806101a557508161017e826002610365565b8151811061018e5761018e61034f565b6020910101516001600160f81b031916602360fa1b145b806101de5750816101b7826002610365565b815181106101c7576101c761034f565b6020910101516001600160f81b031916608d60f81b145b156101ed575060009392505050565b610298565b8181815181106102045761020461034f565b01602001516001600160f81b03191660ef60f81b036102985781610229826001610365565b815181106102395761023961034f565b6020910101516001600160f81b03191660bb60f81b148015610289575081610262826002610365565b815181106102725761027261034f565b6020910101516001600160f81b03191660bf60f81b145b15610298575060009392505050565b806102a281610378565b9150506100be565b5060019392505050565b600080602083850312156102c757600080fd5b823567ffffffffffffffff808211156102df57600080fd5b818501915085601f8301126102f357600080fd5b81358181111561030257600080fd5b86602082850101111561031457600080fd5b60209290920196919550909350505050565b634e487b7160e01b600052601160045260246000fd5b8181038181111561009c5761009c610326565b634e487b7160e01b600052603260045260246000fd5b8082018082111561009c5761009c610326565b60006001820161038a5761038a610326565b506001019056fea26469706673582212208e03c7c7b0ff9d004a41e81d78e3b523470c03d51fcc08a7f754b0765bdc29c464736f6c63430008120033",
  "linkReferences": {},
  "deployedLinkReferences": {}
}