{
  "_format": "hh-sol-artifact-1",
  "contractName": "Base",
  "sourceName": "contracts/base/Base.sol",
  "abi": [
    {
      "inputs": [
        {
          "internalType": "contract ISANN",
          "name": "_sann",
          "type": "address"
        },
        {
          "internalType": "contract IMetaTldsRegistry",
          "name": "_metaTldsRegistry",
          "type": "address"
        },
        {
          "internalType": "uint256",
          "name": "_identifier",
          "type": "uint256"
        },
        {
          "internalType": "string",
          "name": "_tld",
          "type": "string"
        },
        {
          "internalType": "string",
          "name": "_baseUri",
          "type": "string"
        }
      ],
      "stateMutability": "nonpayable",
      "type": "constructor"
    },
    {
      "anonymous": false,
      "inputs": [
        {
          "indexed": true,
          "internalType": "address",
          "name": "owner",
          "type": "address"
        },
        {
          "indexed": true,
          "internalType": "address",
          "name": "approved",
          "type": "address"
        },
        {
          "indexed": true,
          "internalType": "uint256",
          "name": "tokenId",
          "type": "uint256"
        }
      ],
      "name": "Approval",
      "type": "event"
    },
    {
      "anonymous": false,
      "inputs": [
        {
          "indexed": true,
          "internalType": "address",
          "name": "owner",
          "type": "address"
        },
        {
          "indexed": true,
          "internalType": "address",
          "name": "operator",
          "type": "address"
        },
        {
          "indexed": false,
          "internalType": "bool",
          "name": "approved",
          "type": "bool"
        }
      ],
      "name": "ApprovalForAll",
      "type": "event"
    },
    {
      "anonymous": false,
      "inputs": [
        {
          "indexed": true,
          "internalType": "address",
          "name": "controller",
          "type": "address"
        }
      ],
      "name": "ControllerAdded",
      "type": "event"
    },
    {
      "anonymous": false,
      "inputs": [
        {
          "indexed": true,
          "internalType": "address",
          "name": "controller",
          "type": "address"
        }
      ],
      "name": "ControllerRemoved",
      "type": "event"
    },
    {
      "anonymous": false,
      "inputs": [
        {
          "indexed": true,
          "internalType": "uint256",
          "name": "id",
          "type": "uint256"
        },
        {
          "indexed": true,
          "internalType": "address",
          "name": "owner",
          "type": "address"
        },
        {
          "indexed": false,
          "internalType": "uint256",
          "name": "expires",
          "type": "uint256"
        }
      ],
      "name": "NameMigrated",
      "type": "event"
    },
    {
      "anonymous": false,
      "inputs": [
        {
          "indexed": true,
          "internalType": "uint256",
          "name": "id",
          "type": "uint256"
        },
        {
          "indexed": true,
          "internalType": "address",
          "name": "owner",
          "type": "address"
        },
        {
          "indexed": false,
          "internalType": "uint256",
          "name": "expires",
          "type": "uint256"
        }
      ],
      "name": "NameRegistered",
      "type": "event"
    },
    {
      "anonymous": false,
      "inputs": [
        {
          "indexed": true,
          "internalType": "uint256",
          "name": "id",
          "type": "uint256"
        },
        {
          "indexed": false,
          "internalType": "uint256",
          "name": "expires",
          "type": "uint256"
        }
      ],
      "name": "NameRenewed",
      "type": "event"
    },
    {
      "anonymous": false,
      "inputs": [
        {
          "indexed": true,
          "internalType": "address",
          "name": "from",
          "type": "address"
        },
        {
          "indexed": true,
          "internalType": "address",
          "name": "to",
          "type": "address"
        },
        {
          "indexed": true,
          "internalType": "uint256",
          "name": "tokenId",
          "type": "uint256"
        }
      ],
      "name": "Transfer",
      "type": "event"
    },
    {
      "inputs": [],
      "name": "GRACE_PERIOD",
      "outputs": [
        {
          "internalType": "uint256",
          "name": "",
          "type": "uint256"
        }
      ],
      "stateMutability": "view",
      "type": "function"
    },
    {
      "inputs": [
        {
          "internalType": "address",
          "name": "to",
          "type": "address"
        },
        {
          "internalType": "uint256",
          "name": "tokenId",
          "type": "uint256"
        }
      ],
      "name": "approve",
      "outputs": [],
      "stateMutability": "nonpayable",
      "type": "function"
    },
    {
      "inputs": [
        {
          "internalType": "uint256",
          "name": "id",
          "type": "uint256"
        }
      ],
      "name": "available",
      "outputs": [
        {
          "internalType": "bool",
          "name": "",
          "type": "bool"
        }
      ],
      "stateMutability": "view",
      "type": "function"
    },
    {
      "inputs": [
        {
          "internalType": "address",
          "name": "owner",
          "type": "address"
        }
      ],
      "name": "balanceOf",
      "outputs": [
        {
          "internalType": "uint256",
          "name": "",
          "type": "uint256"
        }
      ],
      "stateMutability": "view",
      "type": "function"
    },
    {
      "inputs": [],
      "name": "baseNode",
      "outputs": [
        {
          "internalType": "bytes32",
          "name": "",
          "type": "bytes32"
        }
      ],
      "stateMutability": "view",
      "type": "function"
    },
    {
      "inputs": [],
      "name": "baseUri",
      "outputs": [
        {
          "internalType": "string",
          "name": "",
          "type": "string"
        }
      ],
      "stateMutability": "view",
      "type": "function"
    },
    {
      "inputs": [],
      "name": "deleteDefaultRoyalty",
      "outputs": [],
      "stateMutability": "nonpayable",
      "type": "function"
    },
    {
      "inputs": [
        {
          "internalType": "uint256",
          "name": "tokenId",
          "type": "uint256"
        }
      ],
      "name": "getApproved",
      "outputs": [
        {
          "internalType": "address",
          "name": "",
          "type": "address"
        }
      ],
      "stateMutability": "view",
      "type": "function"
    },
    {
      "inputs": [],
      "name": "identifier",
      "outputs": [
        {
          "internalType": "uint256",
          "name": "",
          "type": "uint256"
        }
      ],
      "stateMutability": "view",
      "type": "function"
    },
    {
      "inputs": [
        {
          "internalType": "address",
          "name": "owner",
          "type": "address"
        },
        {
          "internalType": "address",
          "name": "operator",
          "type": "address"
        }
      ],
      "name": "isApprovedForAll",
      "outputs": [
        {
          "internalType": "bool",
          "name": "",
          "type": "bool"
        }
      ],
      "stateMutability": "view",
      "type": "function"
    },
    {
      "inputs": [],
      "name": "metaTldsRegistry",
      "outputs": [
        {
          "internalType": "contract IMetaTldsRegistry",
          "name": "",
          "type": "address"
        }
      ],
      "stateMutability": "view",
      "type": "function"
    },
    {
      "inputs": [],
      "name": "name",
      "outputs": [
        {
          "internalType": "string",
          "name": "",
          "type": "string"
        }
      ],
      "stateMutability": "view",
      "type": "function"
    },
    {
      "inputs": [
        {
          "internalType": "uint256",
          "name": "id",
          "type": "uint256"
        }
      ],
      "name": "nameExpires",
      "outputs": [
        {
          "internalType": "uint256",
          "name": "",
          "type": "uint256"
        }
      ],
      "stateMutability": "view",
      "type": "function"
    },
    {
      "inputs": [
        {
          "internalType": "uint256",
          "name": "tokenId",
          "type": "uint256"
        }
      ],
      "name": "ownerOf",
      "outputs": [
        {
          "internalType": "address",
          "name": "",
          "type": "address"
        }
      ],
      "stateMutability": "view",
      "type": "function"
    },
    {
      "inputs": [
        {
          "internalType": "uint256",
          "name": "id",
          "type": "uint256"
        },
        {
          "internalType": "address",
          "name": "owner",
          "type": "address"
        }
      ],
      "name": "reclaim",
      "outputs": [],
      "stateMutability": "nonpayable",
      "type": "function"
    },
    {
      "inputs": [
        {
          "internalType": "uint256",
          "name": "id",
          "type": "uint256"
        },
        {
          "internalType": "address",
          "name": "owner",
          "type": "address"
        },
        {
          "internalType": "uint256",
          "name": "duration",
          "type": "uint256"
        }
      ],
      "name": "register",
      "outputs": [
        {
          "internalType": "uint256",
          "name": "",
          "type": "uint256"
        }
      ],
      "stateMutability": "nonpayable",
      "type": "function"
    },
    {
      "inputs": [
        {
          "internalType": "uint256",
          "name": "id",
          "type": "uint256"
        },
        {
          "internalType": "address",
          "name": "owner",
          "type": "address"
        },
        {
          "internalType": "uint256",
          "name": "duration",
          "type": "uint256"
        }
      ],
      "name": "registerOnly",
      "outputs": [
        {
          "internalType": "uint256",
          "name": "",
          "type": "uint256"
        }
      ],
      "stateMutability": "nonpayable",
      "type": "function"
    },
    {
      "inputs": [
        {
          "internalType": "uint256",
          "name": "id",
          "type": "uint256"
        },
        {
          "internalType": "uint256",
          "name": "duration",
          "type": "uint256"
        }
      ],
      "name": "renew",
      "outputs": [
        {
          "internalType": "uint256",
          "name": "",
          "type": "uint256"
        }
      ],
      "stateMutability": "nonpayable",
      "type": "function"
    },
    {
      "inputs": [
        {
          "internalType": "uint256",
          "name": "_tokenId",
          "type": "uint256"
        }
      ],
      "name": "resetTokenRoyalty",
      "outputs": [],
      "stateMutability": "nonpayable",
      "type": "function"
    },
    {
      "inputs": [
        {
          "internalType": "uint256",
          "name": "tokenId",
          "type": "uint256"
        },
        {
          "internalType": "uint256",
          "name": "salePrice",
          "type": "uint256"
        }
      ],
      "name": "royaltyInfo",
      "outputs": [
        {
          "internalType": "address",
          "name": "",
          "type": "address"
        },
        {
          "internalType": "uint256",
          "name": "",
          "type": "uint256"
        }
      ],
      "stateMutability": "view",
      "type": "function"
    },
    {
      "inputs": [
        {
          "internalType": "address",
          "name": "from",
          "type": "address"
        },
        {
          "internalType": "address",
          "name": "to",
          "type": "address"
        },
        {
          "internalType": "uint256",
          "name": "tokenId",
          "type": "uint256"
        }
      ],
      "name": "safeTransferFrom",
      "outputs": [],
      "stateMutability": "nonpayable",
      "type": "function"
    },
    {
      "inputs": [
        {
          "internalType": "address",
          "name": "from",
          "type": "address"
        },
        {
          "internalType": "address",
          "name": "to",
          "type": "address"
        },
        {
          "internalType": "uint256",
          "name": "tokenId",
          "type": "uint256"
        },
        {
          "internalType": "bytes",
          "name": "_data",
          "type": "bytes"
        }
      ],
      "name": "safeTransferFrom",
      "outputs": [],
      "stateMutability": "nonpayable",
      "type": "function"
    },
    {
      "inputs": [],
      "name": "sann",
      "outputs": [
        {
          "internalType": "contract ISANN",
          "name": "",
          "type": "address"
        }
      ],
      "stateMutability": "view",
      "type": "function"
    },
    {
      "inputs": [
        {
          "internalType": "address",
          "name": "operator",
          "type": "address"
        },
        {
          "internalType": "bool",
          "name": "approved",
          "type": "bool"
        }
      ],
      "name": "setApprovalForAll",
      "outputs": [],
      "stateMutability": "nonpayable",
      "type": "function"
    },
    {
      "inputs": [
        {
          "internalType": "address",
          "name": "_receiver",
          "type": "address"
        },
        {
          "internalType": "uint96",
          "name": "_feeNumerator",
          "type": "uint96"
        }
      ],
      "name": "setDefaultRoyalty",
      "outputs": [],
      "stateMutability": "nonpayable",
      "type": "function"
    },
    {
      "inputs": [
        {
          "internalType": "address",
          "name": "resolver",
          "type": "address"
        }
      ],
      "name": "setResolver",
      "outputs": [],
      "stateMutability": "nonpayable",
      "type": "function"
    },
    {
      "inputs": [
        {
          "internalType": "uint256",
          "name": "_tokenId",
          "type": "uint256"
        },
        {
          "internalType": "address",
          "name": "_receiver",
          "type": "address"
        },
        {
          "internalType": "uint96",
          "name": "_feeNumerator",
          "type": "uint96"
        }
      ],
      "name": "setTokenRoyalty",
      "outputs": [],
      "stateMutability": "nonpayable",
      "type": "function"
    },
    {
      "inputs": [
        {
          "internalType": "string",
          "name": "newURI",
          "type": "string"
        }
      ],
      "name": "setURI",
      "outputs": [],
      "stateMutability": "nonpayable",
      "type": "function"
    },
    {
      "inputs": [],
      "name": "supplyAmount",
      "outputs": [
        {
          "internalType": "uint256",
          "name": "",
          "type": "uint256"
        }
      ],
      "stateMutability": "view",
      "type": "function"
    },
    {
      "inputs": [
        {
          "internalType": "bytes4",
          "name": "interfaceID",
          "type": "bytes4"
        }
      ],
      "name": "supportsInterface",
      "outputs": [
        {
          "internalType": "bool",
          "name": "",
          "type": "bool"
        }
      ],
      "stateMutability": "pure",
      "type": "function"
    },
    {
      "inputs": [],
      "name": "symbol",
      "outputs": [
        {
          "internalType": "string",
          "name": "",
          "type": "string"
        }
      ],
      "stateMutability": "view",
      "type": "function"
    },
    {
      "inputs": [],
      "name": "tld",
      "outputs": [
        {
          "internalType": "string",
          "name": "",
          "type": "string"
        }
      ],
      "stateMutability": "view",
      "type": "function"
    },
    {
      "inputs": [
        {
          "internalType": "uint256",
          "name": "tokenId",
          "type": "uint256"
        }
      ],
      "name": "tokenURI",
      "outputs": [
        {
          "internalType": "string",
          "name": "",
          "type": "string"
        }
      ],
      "stateMutability": "view",
      "type": "function"
    },
    {
      "inputs": [],
      "name": "totalSupply",
      "outputs": [
        {
          "internalType": "uint256",
          "name": "",
          "type": "uint256"
        }
      ],
      "stateMutability": "view",
      "type": "function"
    },
    {
      "inputs": [
        {
          "internalType": "address",
          "name": "from",
          "type": "address"
        },
        {
          "internalType": "address",
          "name": "to",
          "type": "address"
        },
        {
          "internalType": "uint256",
          "name": "tokenId",
          "type": "uint256"
        }
      ],
      "name": "transferFrom",
      "outputs": [],
      "stateMutability": "nonpayable",
      "type": "function"
    }
  ],
  "bytecode": "0x60806040526000600f553480156200001657600080fd5b5060405162002d8b38038062002d8b83398101604081905262000039916200022f565b60408051808201909152601581527f4d657461544c4473204e616d6520536572766963650000000000000000000000602082015285908360006200007e83826200035d565b5060016200008d82826200035d565b5050600880546001600160a01b03199081166001600160a01b0394851617909155600a80549091169287169290921790915550600c839055600d620000d383826200035d565b50600c54604051620000f391600091602001918252602082015260400190565b60408051601f198184030181528282528051602091820120855186830120918401529082015260600160408051601f198184030181529190528051602090910120600b55600e6200014582826200035d565b50505050505062000429565b6001600160a01b03811681146200016757600080fd5b50565b634e487b7160e01b600052604160045260246000fd5b600082601f8301126200019257600080fd5b81516001600160401b0380821115620001af57620001af6200016a565b604051601f8301601f19908116603f01168101908282118183101715620001da57620001da6200016a565b81604052838152602092508683858801011115620001f757600080fd5b600091505b838210156200021b5785820183015181830184015290820190620001fc565b600093810190920192909252949350505050565b600080600080600060a086880312156200024857600080fd5b8551620002558162000151565b6020870151909550620002688162000151565b6040870151606088015191955093506001600160401b03808211156200028d57600080fd5b6200029b89838a0162000180565b93506080880151915080821115620002b257600080fd5b50620002c18882890162000180565b9150509295509295909350565b600181811c90821680620002e357607f821691505b6020821081036200030457634e487b7160e01b600052602260045260246000fd5b50919050565b601f8211156200035857600081815260208120601f850160051c81016020861015620003335750805b601f850160051c820191505b8181101562000354578281556001016200033f565b5050505b505050565b81516001600160401b038111156200037957620003796200016a565b62000391816200038a8454620002ce565b846200030a565b602080601f831160018114620003c95760008415620003b05750858301515b600019600386901b1c1916600185901b17855562000354565b600085815260208120601f198616915b82811015620003fa57888601518255948401946001909101908401620003d9565b5085821015620004195787850151600019600388901b60f8161c191681555b5050505050600190811b01905550565b61295280620004396000396000f3fe608060405234801561001057600080fd5b50600436106102115760003560e01c806370a0823111610125578063bc344ca1116100ad578063d46da3871161007c578063d46da3871461045a578063d6e4fa861461046d578063ddf7fcb01461048d578063e985e9c514610496578063fca247ac146104d257600080fd5b8063bc344ca114610417578063c1a287e21461042a578063c475abff14610434578063c87b56dd1461044757600080fd5b806396e494e8116100f457806396e494e8146103ce5780639abc8320146103e1578063a22cb465146103e9578063aa1b103f146103fc578063b88d4fde1461040457600080fd5b806370a08231146103975780637998a1c4146103aa5780638a616bc0146103b357806395d89b41146103c657600080fd5b806323b872dd116101a857806342842e0e1161017757806342842e0e146103425780634e543b26146103555780635944c753146103685780636352211e1461037b5780636f3d8fe81461038e57600080fd5b806323b872dd146102e257806328ed4f6c146102f55780632a55205a146103085780632d5514321461033a57600080fd5b8063081812fc116101e4578063081812fc1461027b578063095ea7b3146102a65780630e297b45146102b957806318160ddd146102da57600080fd5b806301ffc9a71461021657806302fe53051461023e57806304634d8d1461025357806306fdde0314610266575b600080fd5b6102296102243660046120a6565b6104e5565b60405190151581526020015b60405180910390f35b61025161024c36600461214f565b610552565b005b6102516102613660046121c9565b6105fe565b61026e6106a2565b604051610235919061224e565b61028e610289366004612261565b610734565b6040516001600160a01b039091168152602001610235565b6102516102b436600461227a565b61075b565b6102cc6102c73660046122a6565b61086b565b604051908152602001610235565b600f546102cc565b6102516102f03660046122de565b610882565b61025161030336600461230e565b61093b565b61031b61031636600461233e565b610a54565b604080516001600160a01b039093168352602083019190915201610235565b61026e610b00565b6102516103503660046122de565b610b8e565b610251610363366004612360565b610ba9565b61025161037636600461237d565b610ca9565b61028e610389366004612261565b610d49565b6102cc600f5481565b6102cc6103a5366004612360565b610d6c565b6102cc600c5481565b6102516103c1366004612261565b610df2565b61026e610e99565b6102296103dc366004612261565b610ea8565b61026e610ece565b6102516103f73660046123bb565b610edb565b610251610ee6565b6102516104123660046123ee565b610f88565b600a5461028e906001600160a01b031681565b6102cc6276a70081565b6102cc61044236600461233e565b61103c565b61026e610455366004612261565b611244565b60085461028e906001600160a01b031681565b6102cc61047b366004612261565b60009081526009602052604090205490565b6102cc600b5481565b6102296104a436600461246e565b6001600160a01b03918216600090815260056020908152604080832093909416825291909152205460ff1690565b6102cc6104e03660046122a6565b6113a2565b60006001600160e01b031982166301ffc9a760e01b148061051657506001600160e01b031982166380ac58cd60e01b145b8061053157506001600160e01b03198216630a3b53db60e21b145b8061054c57506001600160e01b0319821663152a902d60e11b145b92915050565b6008546040805163cdcd7fb560e01b8152905133926001600160a01b03169163cdcd7fb59160048083019260209291908290030181865afa15801561059b573d6000803e3d6000fd5b505050506040513d601f19601f820116820180604052508101906105bf919061249c565b6001600160a01b0316146105ee5760405162461bcd60e51b81526004016105e5906124b9565b60405180910390fd5b600e6105fa828261258d565b5050565b600c5460085460405162e4decd60e31b81526004810183905233916001600160a01b031690630726f66890602401602060405180830381865afa158015610649573d6000803e3d6000fd5b505050506040513d601f19601f8201168201806040525081019061066d919061249c565b6001600160a01b0316146106935760405162461bcd60e51b81526004016105e59061264d565b61069d83836113b1565b505050565b6060600080546106b190612505565b80601f01602080910402602001604051908101604052809291908181526020018280546106dd90612505565b801561072a5780601f106106ff5761010080835404028352916020019161072a565b820191906000526020600020905b81548152906001019060200180831161070d57829003601f168201915b5050505050905090565b600061073f8261146b565b506000908152600460205260409020546001600160a01b031690565b6000610766826114ca565b9050806001600160a01b0316836001600160a01b0316036107d35760405162461bcd60e51b815260206004820152602160248201527f4552433732313a20617070726f76616c20746f2063757272656e74206f776e656044820152603960f91b60648201526084016105e5565b336001600160a01b03821614806107ef57506107ef81336104a4565b6108615760405162461bcd60e51b815260206004820152603d60248201527f4552433732313a20617070726f76652063616c6c6572206973206e6f7420746f60448201527f6b656e206f776e6572206f7220617070726f76656420666f7220616c6c00000060648201526084016105e5565b61069d838361152a565b600061087a8484846000611598565b949350505050565b61088c338261181f565b6108a85760405162461bcd60e51b81526004016105e590612691565b6108b383838361189a565b600a54600b546040516306ab592360e01b81526004810191909152602481018390526001600160a01b038481166044830152909116906306ab5923906064016020604051808303816000875af1158015610911573d6000803e3d6000fd5b505050506040513d601f19601f8201168201806040525081019061093591906126d8565b50505050565b600a54600b546040516302571be360e01b8152600481019190915230916001600160a01b0316906302571be390602401602060405180830381865afa158015610988573d6000803e3d6000fd5b505050506040513d601f19601f820116820180604052508101906109ac919061249c565b6001600160a01b0316146109bf57600080fd5b6109c9338361181f565b6109d257600080fd5b600a54600b546040516306ab592360e01b81526004810191909152602481018490526001600160a01b038381166044830152909116906306ab5923906064016020604051808303816000875af1158015610a30573d6000803e3d6000fd5b505050506040513d601f19601f8201168201806040525081019061069d91906126d8565b60008281526007602090815260408083208151808301909252546001600160a01b038116808352600160a01b9091046001600160601b0316928201929092528291610ac95750604080518082019091526006546001600160a01b0381168252600160a01b90046001600160601b031660208201525b602081015160009061271090610ae8906001600160601b031687612707565b610af2919061271e565b915196919550909350505050565b600d8054610b0d90612505565b80601f0160208091040260200160405190810160405280929190818152602001828054610b3990612505565b8015610b865780601f10610b5b57610100808354040283529160200191610b86565b820191906000526020600020905b815481529060010190602001808311610b6957829003601f168201915b505050505081565b61069d83838360405180602001604052806000815250610f88565b6008546040805163cdcd7fb560e01b8152905133926001600160a01b03169163cdcd7fb59160048083019260209291908290030181865afa158015610bf2573d6000803e3d6000fd5b505050506040513d601f19601f82011682018060405250810190610c16919061249c565b6001600160a01b031614610c3c5760405162461bcd60e51b81526004016105e5906124b9565b600a54600b54604051630c4b7b8560e11b815260048101919091526001600160a01b03838116602483015290911690631896f70a90604401600060405180830381600087803b158015610c8e57600080fd5b505af1158015610ca2573d6000803e3d6000fd5b5050505050565b600c5460085460405162e4decd60e31b81526004810183905233916001600160a01b031690630726f66890602401602060405180830381865afa158015610cf4573d6000803e3d6000fd5b505050506040513d601f19601f82011682018060405250810190610d18919061249c565b6001600160a01b031614610d3e5760405162461bcd60e51b81526004016105e59061264d565b6109358484846119fe565b6000818152600960205260408120544210610d6357600080fd5b61054c826114ca565b60006001600160a01b038216610dd65760405162461bcd60e51b815260206004820152602960248201527f4552433732313a2061646472657373207a65726f206973206e6f7420612076616044820152683634b21037bbb732b960b91b60648201526084016105e5565b506001600160a01b031660009081526003602052604090205490565b600c5460085460405162e4decd60e31b81526004810183905233916001600160a01b031690630726f66890602401602060405180830381865afa158015610e3d573d6000803e3d6000fd5b505050506040513d601f19601f82011682018060405250810190610e61919061249c565b6001600160a01b031614610e875760405162461bcd60e51b81526004016105e59061264d565b50600090815260076020526040812055565b6060600180546106b190612505565b6000818152600960205260408120544290610ec7906276a70090612740565b1092915050565b600e8054610b0d90612505565b6105fa338383611ac9565b600c5460085460405162e4decd60e31b81526004810183905233916001600160a01b031690630726f66890602401602060405180830381865afa158015610f31573d6000803e3d6000fd5b505050506040513d601f19601f82011682018060405250810190610f55919061249c565b6001600160a01b031614610f7b5760405162461bcd60e51b81526004016105e59061264d565b610f856000600655565b50565b610f92338361181f565b610fae5760405162461bcd60e51b81526004016105e590612691565b610fba84848484611b97565b600a54600b546040516306ab592360e01b81526004810191909152602481018490526001600160a01b038581166044830152909116906306ab5923906064016020604051808303816000875af1158015611018573d6000803e3d6000fd5b505050506040513d601f19601f82011682018060405250810190610ca291906126d8565b600a54600b546040516302571be360e01b8152600481019190915260009130916001600160a01b03909116906302571be390602401602060405180830381865afa15801561108e573d6000803e3d6000fd5b505050506040513d601f19601f820116820180604052508101906110b2919061249c565b6001600160a01b0316146110c557600080fd5b6008546040805163f340041960e01b8152905133926001600160a01b03169163f34004199160048083019260209291908290030181865afa15801561110e573d6000803e3d6000fd5b505050506040513d601f19601f82011682018060405250810190611132919061249c565b6001600160a01b0316146111585760405162461bcd60e51b81526004016105e590612753565b6000838152600960205260409020544290611177906276a70090612740565b101561118257600080fd5b61118f6276a70083612740565b6000848152600960205260409020546276a700906111ae908590612740565b6111b89190612740565b116111c257600080fd5b600083815260096020526040812080548492906111e0908490612740565b90915550506000838152600960205260409081902054905184917f9b87a00e30f1ac65d898f070f8a3488fe60517182d0a2098e1b4b93a54aa9bd69161122891815260200190565b60405180910390a2505060009081526009602052604090205490565b6000818152600260205260409020546060906001600160a01b03166112c35760405162461bcd60e51b815260206004820152602f60248201527f4552433732314d657461646174613a2055524920717565727920666f72206e6f60448201526e3732bc34b9ba32b73a103a37b5b2b760891b60648201526084016105e5565b6000600e80546112d290612505565b80601f01602080910402602001604051908101604052809291908181526020018280546112fe90612505565b801561134b5780601f106113205761010080835404028352916020019161134b565b820191906000526020600020905b81548152906001019060200180831161132e57829003601f168201915b505050505090506000815111611370576040518060200160405280600081525061139b565b8061137a84611bca565b60405160200161138b92919061279f565b6040516020818303038152906040525b9392505050565b600061087a8484846001611598565b6127106001600160601b03821611156113dc5760405162461bcd60e51b81526004016105e5906127ce565b6001600160a01b0382166114325760405162461bcd60e51b815260206004820152601960248201527f455243323938313a20696e76616c69642072656365697665720000000000000060448201526064016105e5565b604080518082019091526001600160a01b039092168083526001600160601b039091166020909201829052600160a01b90910217600655565b6000818152600260205260409020546001600160a01b0316610f855760405162461bcd60e51b8152602060048201526018602482015277115490cdcc8c4e881a5b9d985b1a59081d1bdad95b88125160421b60448201526064016105e5565b6000818152600260205260408120546001600160a01b03168061054c5760405162461bcd60e51b8152602060048201526018602482015277115490cdcc8c4e881a5b9d985b1a59081d1bdad95b88125160421b60448201526064016105e5565b600081815260046020526040902080546001600160a01b0319166001600160a01b038416908117909155819061155f826114ca565b6001600160a01b03167f8c5be1e5ebec7d5bd14f71427d1e84f3dd0314c0f7b2291e5b200ac8c7c3b92560405160405180910390a45050565b600a54600b546040516302571be360e01b8152600481019190915260009130916001600160a01b03909116906302571be390602401602060405180830381865afa1580156115ea573d6000803e3d6000fd5b505050506040513d601f19601f8201168201806040525081019061160e919061249c565b6001600160a01b03161461162157600080fd5b6008546040805163f340041960e01b8152905133926001600160a01b03169163f34004199160048083019260209291908290030181865afa15801561166a573d6000803e3d6000fd5b505050506040513d601f19601f8201168201806040525081019061168e919061249c565b6001600160a01b0316146116b45760405162461bcd60e51b81526004016105e590612753565b6116bd85610ea8565b6116c657600080fd5b6116d36276a70042612740565b6276a7006116e18542612740565b6116eb9190612740565b116116f557600080fd5b6116ff8342612740565b6000868152600960209081526040808320939093556002905220546001600160a01b0316156117315761173185611c5d565b61173b8486611c7b565b81156117c557600a54600b546040516306ab592360e01b81526004810191909152602481018790526001600160a01b038681166044830152909116906306ab5923906064016020604051808303816000875af115801561179f573d6000803e3d6000fd5b505050506040513d601f19601f820116820180604052508101906117c391906126d8565b505b6001600160a01b038416857fb3d987963d01b2f68493b4bdb130988f157ea43070d4ad840fee0466ed9370d96117fb8642612740565b60405190815260200160405180910390a36118168342612740565b95945050505050565b60008061182b83610d49565b9050806001600160a01b0316846001600160a01b031614806118665750836001600160a01b031661185b84610734565b6001600160a01b0316145b8061087a57506001600160a01b0380821660009081526005602090815260408083209388168352929052205460ff1661087a565b826001600160a01b03166118ad826114ca565b6001600160a01b0316146118d35760405162461bcd60e51b81526004016105e590612818565b6001600160a01b0382166119355760405162461bcd60e51b8152602060048201526024808201527f4552433732313a207472616e7366657220746f20746865207a65726f206164646044820152637265737360e01b60648201526084016105e5565b826001600160a01b0316611948826114ca565b6001600160a01b03161461196e5760405162461bcd60e51b81526004016105e590612818565b600081815260046020908152604080832080546001600160a01b03199081169091556001600160a01b0387811680865260038552838620805460001901905590871680865283862080546001019055868652600290945282852080549092168417909155905184937fddf252ad1be2c89b69c2b068fc378daa952ba7f163c4a11628f55a4df523b3ef91a4505050565b6127106001600160601b0382161115611a295760405162461bcd60e51b81526004016105e5906127ce565b6001600160a01b038216611a7f5760405162461bcd60e51b815260206004820152601b60248201527f455243323938313a20496e76616c696420706172616d6574657273000000000060448201526064016105e5565b6040805180820182526001600160a01b0393841681526001600160601b0392831660208083019182526000968752600790529190942093519051909116600160a01b029116179055565b816001600160a01b0316836001600160a01b031603611b2a5760405162461bcd60e51b815260206004820152601960248201527f4552433732313a20617070726f766520746f2063616c6c65720000000000000060448201526064016105e5565b6001600160a01b03838116600081815260056020908152604080832094871680845294825291829020805460ff191686151590811790915591519182527f17307eab39ab6107e8899845ad3d59bd9653f200f220920489ca2b5937696c31910160405180910390a3505050565b611ba284848461189a565b611bae84848484611c9a565b6109355760405162461bcd60e51b81526004016105e59061285d565b60606000611bd783611d98565b600101905060008167ffffffffffffffff811115611bf757611bf76120c3565b6040519080825280601f01601f191660200182016040528015611c21576020820181803683370190505b5090508181016020015b600019016f181899199a1a9b1b9c1cb0b131b232b360811b600a86061a8153600a8504945084611c2b57509392505050565b611c6681611e70565b6001600f54611c7591906128af565b600f5550565b611c858282611f05565b600f54611c93906001612740565b600f555050565b60006001600160a01b0384163b15611d9057604051630a85bd0160e11b81526001600160a01b0385169063150b7a0290611cde9033908990889088906004016128c2565b6020604051808303816000875af1925050508015611d19575060408051601f3d908101601f19168201909252611d16918101906128ff565b60015b611d76573d808015611d47576040519150601f19603f3d011682016040523d82523d6000602084013e611d4c565b606091505b508051600003611d6e5760405162461bcd60e51b81526004016105e59061285d565b805181602001fd5b6001600160e01b031916630a85bd0160e11b14905061087a565b50600161087a565b60008072184f03e93ff9f4daa797ed6e38ed64bf6a1f0160401b8310611dd75772184f03e93ff9f4daa797ed6e38ed64bf6a1f0160401b830492506040015b6d04ee2d6d415b85acef81000000008310611e03576d04ee2d6d415b85acef8100000000830492506020015b662386f26fc100008310611e2157662386f26fc10000830492506010015b6305f5e1008310611e39576305f5e100830492506008015b6127108310611e4d57612710830492506004015b60648310611e5f576064830492506002015b600a831061054c5760010192915050565b6000611e7b826114ca565b9050611e86826114ca565b600083815260046020908152604080832080546001600160a01b03199081169091556001600160a01b0385168085526003845282852080546000190190558785526002909352818420805490911690555192935084927fddf252ad1be2c89b69c2b068fc378daa952ba7f163c4a11628f55a4df523b3ef908390a45050565b6001600160a01b038216611f5b5760405162461bcd60e51b815260206004820181905260248201527f4552433732313a206d696e7420746f20746865207a65726f206164647265737360448201526064016105e5565b6000818152600260205260409020546001600160a01b031615611fc05760405162461bcd60e51b815260206004820152601c60248201527f4552433732313a20746f6b656e20616c7265616479206d696e7465640000000060448201526064016105e5565b6000818152600260205260409020546001600160a01b0316156120255760405162461bcd60e51b815260206004820152601c60248201527f4552433732313a20746f6b656e20616c7265616479206d696e7465640000000060448201526064016105e5565b6001600160a01b038216600081815260036020908152604080832080546001019055848352600290915280822080546001600160a01b0319168417905551839291907fddf252ad1be2c89b69c2b068fc378daa952ba7f163c4a11628f55a4df523b3ef908290a45050565b6001600160e01b031981168114610f8557600080fd5b6000602082840312156120b857600080fd5b813561139b81612090565b634e487b7160e01b600052604160045260246000fd5b600067ffffffffffffffff808411156120f4576120f46120c3565b604051601f8501601f19908116603f0116810190828211818310171561211c5761211c6120c3565b8160405280935085815286868601111561213557600080fd5b858560208301376000602087830101525050509392505050565b60006020828403121561216157600080fd5b813567ffffffffffffffff81111561217857600080fd5b8201601f8101841361218957600080fd5b61087a848235602084016120d9565b6001600160a01b0381168114610f8557600080fd5b80356001600160601b03811681146121c457600080fd5b919050565b600080604083850312156121dc57600080fd5b82356121e781612198565b91506121f5602084016121ad565b90509250929050565b60005b83811015612219578181015183820152602001612201565b50506000910152565b6000815180845261223a8160208601602086016121fe565b601f01601f19169290920160200192915050565b60208152600061139b6020830184612222565b60006020828403121561227357600080fd5b5035919050565b6000806040838503121561228d57600080fd5b823561229881612198565b946020939093013593505050565b6000806000606084860312156122bb57600080fd5b8335925060208401356122cd81612198565b929592945050506040919091013590565b6000806000606084860312156122f357600080fd5b83356122fe81612198565b925060208401356122cd81612198565b6000806040838503121561232157600080fd5b82359150602083013561233381612198565b809150509250929050565b6000806040838503121561235157600080fd5b50508035926020909101359150565b60006020828403121561237257600080fd5b813561139b81612198565b60008060006060848603121561239257600080fd5b8335925060208401356123a481612198565b91506123b2604085016121ad565b90509250925092565b600080604083850312156123ce57600080fd5b82356123d981612198565b91506020830135801515811461233357600080fd5b6000806000806080858703121561240457600080fd5b843561240f81612198565b9350602085013561241f81612198565b925060408501359150606085013567ffffffffffffffff81111561244257600080fd5b8501601f8101871361245357600080fd5b612462878235602084016120d9565b91505092959194509250565b6000806040838503121561248157600080fd5b823561248c81612198565b9150602083013561233381612198565b6000602082840312156124ae57600080fd5b815161139b81612198565b6020808252602c908201527f41636365737369626c653a2063616c6c6572206973206e6f742074686520706c60408201526b30ba3337b9369030b236b4b760a11b606082015260800190565b600181811c9082168061251957607f821691505b60208210810361253957634e487b7160e01b600052602260045260246000fd5b50919050565b601f82111561069d57600081815260208120601f850160051c810160208610156125665750805b601f850160051c820191505b8181101561258557828155600101612572565b505050505050565b815167ffffffffffffffff8111156125a7576125a76120c3565b6125bb816125b58454612505565b8461253f565b602080601f8311600181146125f057600084156125d85750858301515b600019600386901b1c1916600185901b178555612585565b600085815260208120601f198616915b8281101561261f57888601518255948401946001909101908401612600565b508582101561263d5787850151600019600388901b60f8161c191681555b5050505050600190811b01905550565b60208082526024908201527f4f776e61626c653a2063616c6c6572206973206e6f742074686520746c64206f6040820152633bb732b960e11b606082015260800190565b60208082526027908201527f4552433732313a2063616c6c6572206973206e6f7420617070726f766564206f604082015266391037bbb732b960c91b606082015260800190565b6000602082840312156126ea57600080fd5b5051919050565b634e487b7160e01b600052601160045260246000fd5b808202811582820484141761054c5761054c6126f1565b60008261273b57634e487b7160e01b600052601260045260246000fd5b500490565b8082018082111561054c5761054c6126f1565b6020808252602c908201527f41636365737369626c653a2063616c6c6572206973206e6f742074686520746c60408201526b321031b7b73a3937b63632b960a11b606082015260800190565b600083516127b18184602088016121fe565b8351908301906127c58183602088016121fe565b01949350505050565b6020808252602a908201527f455243323938313a20726f79616c7479206665652077696c6c206578636565646040820152692073616c65507269636560b01b606082015260800190565b60208082526025908201527f4552433732313a207472616e736665722066726f6d20696e636f72726563742060408201526437bbb732b960d91b606082015260800190565b60208082526032908201527f4552433732313a207472616e7366657220746f206e6f6e20455243373231526560408201527131b2b4bb32b91034b6b83632b6b2b73a32b960711b606082015260800190565b8181038181111561054c5761054c6126f1565b6001600160a01b03858116825284166020820152604081018390526080606082018190526000906128f590830184612222565b9695505050505050565b60006020828403121561291157600080fd5b815161139b8161209056fea26469706673582212206429926f9a512d6b36714020f71c690d781beaec3c1395ce9f6fec4a4704f6fb64736f6c63430008120033",
  "linkReferences": {},
  "deployedLinkReferences": {}
}