{
  "_format": "hh-sol-artifact-1",
  "contractName": "ERC1967Proxy",
  "sourceName": "contracts/proxy/ERC1967Proxy.sol",
  "abi": [
    {
      "inputs": [
        {
          "internalType": "address",
          "name": "_deployer",
          "type": "address"
        },
        {
          "internalType": "bytes32",
          "name": "_nameHash",
          "type": "bytes32"
        }
      ],
      "stateMutability": "payable",
      "type": "constructor"
    },
    {
      "anonymous": false,
      "inputs": [
        {
          "indexed": false,
          "internalType": "address",
          "name": "previousAdmin",
          "type": "address"
        },
        {
          "indexed": false,
          "internalType": "address",
          "name": "newAdmin",
          "type": "address"
        }
      ],
      "name": "AdminChanged",
      "type": "event"
    },
    {
      "anonymous": false,
      "inputs": [
        {
          "indexed": true,
          "internalType": "address",
          "name": "beacon",
          "type": "address"
        }
      ],
      "name": "BeaconUpgraded",
      "type": "event"
    },
    {
      "anonymous": false,
      "inputs": [
        {
          "indexed": true,
          "internalType": "address",
          "name": "implementation",
          "type": "address"
        }
      ],
      "name": "Upgraded",
      "type": "event"
    },
    {
      "stateMutability": "payable",
      "type": "fallback"
    },
    {
      "inputs": [
        {
          "internalType": "address",
          "name": "implementation",
          "type": "address"
        },
        {
          "internalType": "bytes",
          "name": "data",
          "type": "bytes"
        }
      ],
      "name": "initialize",
      "outputs": [],
      "stateMutability": "nonpayable",
      "type": "function"
    },
    {
      "stateMutability": "payable",
      "type": "receive"
    }
  ],
  "bytecode": "0x60c060405260405161064b38038061064b83398101604081905261002291610038565b6001600160a01b0390911660805260a052610072565b6000806040838503121561004b57600080fd5b82516001600160a01b038116811461006257600080fd5b6020939093015192949293505050565b60805160a0516105b8610093600039600050506000607601526105b86000f3fe6080604052600436106100225760003560e01c8063d1f578941461003957610031565b366100315761002f610059565b005b61002f610059565b34801561004557600080fd5b5061002f610054366004610418565b61006b565b6100696100646100f8565b610130565b565b336001600160a01b037f000000000000000000000000000000000000000000000000000000000000000016146100e85760405162461bcd60e51b815260206004820152601a60248201527f4552433139363750726f78793a20756e617574686f72697a656400000000000060448201526064015b60405180910390fd5b6100f482826000610159565b5050565b600061012b7f360894a13ba1a3210667c828492db98dca3e2076cc3735a920a3ca505d382bbc546001600160a01b031690565b905090565b3660008037600080366000845af43d6000803e80801561014f573d6000f35b3d6000fd5b505050565b61016283610184565b60008251118061016f5750805b156101545761017e83836101c4565b50505050565b61018d816101f0565b6040516001600160a01b038216907fbc7cd75a20ee27fd9adebab32041f755214dbc6bffa90cc0225b39da2e5c2d3b90600090a250565b60606101e9838360405180606001604052806027815260200161055c602791396102c6565b9392505050565b6001600160a01b0381163b61026d5760405162461bcd60e51b815260206004820152602d60248201527f455243313936373a206e657720696d706c656d656e746174696f6e206973206e60448201527f6f74206120636f6e74726163740000000000000000000000000000000000000060648201526084016100df565b7f360894a13ba1a3210667c828492db98dca3e2076cc3735a920a3ca505d382bbc80547fffffffffffffffffffffffff0000000000000000000000000000000000000000166001600160a01b0392909216919091179055565b6060600080856001600160a01b0316856040516102e3919061050c565b600060405180830381855af49150503d806000811461031e576040519150601f19603f3d011682016040523d82523d6000602084013e610323565b606091505b50915091506103348683838761033e565b9695505050505050565b606083156103ad5782516000036103a6576001600160a01b0385163b6103a65760405162461bcd60e51b815260206004820152601d60248201527f416464726573733a2063616c6c20746f206e6f6e2d636f6e747261637400000060448201526064016100df565b50816103b7565b6103b783836103bf565b949350505050565b8151156103cf5781518083602001fd5b8060405162461bcd60e51b81526004016100df9190610528565b7f4e487b7100000000000000000000000000000000000000000000000000000000600052604160045260246000fd5b6000806040838503121561042b57600080fd5b82356001600160a01b038116811461044257600080fd5b9150602083013567ffffffffffffffff8082111561045f57600080fd5b818501915085601f83011261047357600080fd5b813581811115610485576104856103e9565b604051601f8201601f19908116603f011681019083821181831017156104ad576104ad6103e9565b816040528281528860208487010111156104c657600080fd5b8260208601602083013760006020848301015280955050505050509250929050565b60005b838110156105035781810151838201526020016104eb565b50506000910152565b6000825161051e8184602087016104e8565b9190910192915050565b60208152600082518060208401526105478160408501602087016104e8565b601f01601f1916919091016040019291505056fe416464726573733a206c6f772d6c6576656c2064656c65676174652063616c6c206661696c6564a2646970667358221220c6aad6cd00e6f988244fb4136a61ab7abe7e289d9b73770b491f344ea47d57df64736f6c63430008120033",
  "linkReferences": {},
  "deployedLinkReferences": {}
}