{
  "_format": "hh-sol-artifact-1",
  "contractName": "Auction",
  "sourceName": "contracts/preregistration/Auction.sol",
  "abi": [
    {
      "inputs": [
        {
          "internalType": "contract ISANN",
          "name": "_sann",
          "type": "address"
        },
        {
          "internalType": "uint256",
          "name": "_identifier",
          "type": "uint256"
        },
        {
          "internalType": "contract IRegistrarController",
          "name": "_controller",
          "type": "address"
        },
        {
          "internalType": "contract PreRegistrationState",
          "name": "_state",
          "type": "address"
        },
        {
          "internalType": "contract IPlatformConfig",
          "name": "_platformConfig",
          "type": "address"
        },
        {
          "internalType": "contract PrepaidPlatformFee",
          "name": "_prepaidPlatformFee",
          "type": "address"
        }
      ],
      "stateMutability": "nonpayable",
      "type": "constructor"
    },
    {
      "inputs": [],
      "name": "AuctionEnded",
      "type": "error"
    },
    {
      "inputs": [],
      "name": "AuctionWinnerCannotWithdraw",
      "type": "error"
    },
    {
      "inputs": [
        {
          "internalType": "uint256",
          "name": "minBidAmount",
          "type": "uint256"
        }
      ],
      "name": "BidAmountTooLow",
      "type": "error"
    },
    {
      "inputs": [],
      "name": "CannotWithdrawZeroAmount",
      "type": "error"
    },
    {
      "inputs": [
        {
          "internalType": "string",
          "name": "label",
          "type": "string"
        }
      ],
      "name": "DomainNotAvailable",
      "type": "error"
    },
    {
      "anonymous": false,
      "inputs": [
        {
          "indexed": false,
          "internalType": "uint256",
          "name": "tokenID",
          "type": "uint256"
        },
        {
          "indexed": false,
          "internalType": "string",
          "name": "label",
          "type": "string"
        },
        {
          "indexed": false,
          "internalType": "address",
          "name": "bidder",
          "type": "address"
        },
        {
          "indexed": false,
          "internalType": "uint256",
          "name": "bid",
          "type": "uint256"
        }
      ],
      "name": "Bid",
      "type": "event"
    },
    {
      "inputs": [
        {
          "internalType": "string",
          "name": "name",
          "type": "string"
        }
      ],
      "name": "available",
      "outputs": [
        {
          "internalType": "bool",
          "name": "",
          "type": "bool"
        }
      ],
      "stateMutability": "view",
      "type": "function"
    },
    {
      "inputs": [],
      "name": "controller",
      "outputs": [
        {
          "internalType": "contract IRegistrarController",
          "name": "",
          "type": "address"
        }
      ],
      "stateMutability": "view",
      "type": "function"
    },
    {
      "inputs": [],
      "name": "identifier",
      "outputs": [
        {
          "internalType": "uint256",
          "name": "",
          "type": "uint256"
        }
      ],
      "stateMutability": "view",
      "type": "function"
    },
    {
      "inputs": [
        {
          "internalType": "address",
          "name": "user",
          "type": "address"
        },
        {
          "internalType": "uint256",
          "name": "tokenID",
          "type": "uint256"
        }
      ],
      "name": "isWinner",
      "outputs": [
        {
          "internalType": "bool",
          "name": "",
          "type": "bool"
        }
      ],
      "stateMutability": "view",
      "type": "function"
    },
    {
      "inputs": [
        {
          "internalType": "uint256",
          "name": "tokenID",
          "type": "uint256"
        },
        {
          "internalType": "string",
          "name": "name",
          "type": "string"
        }
      ],
      "name": "nextBidFloorPrice",
      "outputs": [
        {
          "internalType": "uint256",
          "name": "",
          "type": "uint256"
        }
      ],
      "stateMutability": "view",
      "type": "function"
    },
    {
      "inputs": [],
      "name": "ownerCanWithdraw",
      "outputs": [
        {
          "internalType": "uint256",
          "name": "",
          "type": "uint256"
        }
      ],
      "stateMutability": "view",
      "type": "function"
    },
    {
      "inputs": [],
      "name": "ownerWithdraw",
      "outputs": [],
      "stateMutability": "nonpayable",
      "type": "function"
    },
    {
      "inputs": [
        {
          "internalType": "string",
          "name": "label",
          "type": "string"
        }
      ],
      "name": "placeBid",
      "outputs": [
        {
          "internalType": "uint256",
          "name": "",
          "type": "uint256"
        }
      ],
      "stateMutability": "payable",
      "type": "function"
    },
    {
      "inputs": [],
      "name": "platformConfig",
      "outputs": [
        {
          "internalType": "contract IPlatformConfig",
          "name": "",
          "type": "address"
        }
      ],
      "stateMutability": "view",
      "type": "function"
    },
    {
      "inputs": [],
      "name": "prepaidPlatformFee",
      "outputs": [
        {
          "internalType": "contract PrepaidPlatformFee",
          "name": "",
          "type": "address"
        }
      ],
      "stateMutability": "view",
      "type": "function"
    },
    {
      "inputs": [],
      "name": "sann",
      "outputs": [
        {
          "internalType": "contract ISANN",
          "name": "",
          "type": "address"
        }
      ],
      "stateMutability": "view",
      "type": "function"
    },
    {
      "inputs": [],
      "name": "state",
      "outputs": [
        {
          "internalType": "contract PreRegistrationState",
          "name": "",
          "type": "address"
        }
      ],
      "stateMutability": "view",
      "type": "function"
    },
    {
      "inputs": [
        {
          "internalType": "uint256",
          "name": "tokenID",
          "type": "uint256"
        }
      ],
      "name": "winnerOf",
      "outputs": [
        {
          "internalType": "address",
          "name": "",
          "type": "address"
        }
      ],
      "stateMutability": "view",
      "type": "function"
    },
    {
      "inputs": [
        {
          "internalType": "string",
          "name": "label",
          "type": "string"
        }
      ],
      "name": "withdraw",
      "outputs": [
        {
          "internalType": "uint256",
          "name": "",
          "type": "uint256"
        }
      ],
      "stateMutability": "nonpayable",
      "type": "function"
    }
  ],
  "bytecode": "0x60c06040523480156200001157600080fd5b5060405162001672380380620016728339810160408190526200003491620000ac565b600080546001600160a01b039788166001600160a01b03199182161790915560a0959095529285166080526002805492861692851692909217909155600180549185169184169190911790556003805491909316911617905562000134565b6001600160a01b0381168114620000a957600080fd5b50565b60008060008060008060c08789031215620000c657600080fd5b8651620000d38162000093565b602088015160408901519197509550620000ed8162000093565b6060880151909450620001008162000093565b6080880151909350620001138162000093565b60a0880151909250620001268162000093565b809150509295509295509295565b60805160a0516114e76200018b600039600081816101c60152818161043c015281816106e9015281816109f401528181610dab0152610e460152600081816102c30152818161040d01526109c701526114e76000f3fe6080604052600436106100dd5760003560e01c80638cb5d7001161007f578063c19d93fb11610059578063c19d93fb1461025e578063d46da3871461027e578063e967e60c1461029e578063f77c4791146102b157600080fd5b80638cb5d700146101fe578063a289cf841461021e578063aeb8ce9b1461023e57600080fd5b80634311de8f116100bb5780634311de8f146101655780634d24e2361461017c5780637998a1c4146101b457806384fdec83146101e857600080fd5b80630d654751146100e257806315eb68531461011557806331fb67c214610145575b600080fd5b3480156100ee57600080fd5b506101026100fd3660046110f5565b6102e5565b6040519081526020015b60405180910390f35b34801561012157600080fd5b50610135610130366004611159565b6104d2565b604051901515815260200161010c565b34801561015157600080fd5b50610102610160366004611185565b6104fa565b34801561017157600080fd5b5061017a6106d8565b005b34801561018857600080fd5b5060015461019c906001600160a01b031681565b6040516001600160a01b03909116815260200161010c565b3480156101c057600080fd5b506101027f000000000000000000000000000000000000000000000000000000000000000081565b3480156101f457600080fd5b5061010260045481565b34801561020a57600080fd5b5061019c6102193660046111c7565b610940565b34801561022a57600080fd5b5060035461019c906001600160a01b031681565b34801561024a57600080fd5b50610135610259366004611185565b6109ad565b34801561026a57600080fd5b5060025461019c906001600160a01b031681565b34801561028a57600080fd5b5060005461019c906001600160a01b031681565b6101026102ac366004611185565b610a61565b3480156102bd57600080fd5b5061019c7f000000000000000000000000000000000000000000000000000000000000000081565b6000806102f185610940565b90506001600160a01b0381161561039957600254604051632d3f2b0560e01b8152600481018790526001600160a01b0383811660248301526000921690632d3f2b0590604401602060405180830381865afa158015610354573d6000803e3d6000fd5b505050506040513d601f19601f8201168201806040525081019061037891906111e0565b905061038560648261120f565b610390906069611231565b925050506104cb565b600254604080516344418ceb60e11b815290516000926001600160a01b03169163888319d69160048083019260209291908290030181865afa1580156103e3573d6000803e3d6000fd5b505050506040513d601f19601f8201168201806040525081019061040791906111e0565b905060007f00000000000000000000000000000000000000000000000000000000000000006001600160a01b031663fdd32ec47f0000000000000000000000000000000000000000000000000000000000000000888833876040518663ffffffff1660e01b815260040161047f959493929190611271565b602060405180830381865afa15801561049c573d6000803e3d6000fd5b505050506040513d601f19601f820116820180604052508101906104c091906111e0565b93506104cb92505050565b9392505050565b6000826001600160a01b03166104e783610940565b6001600160a01b03161490505b92915050565b600080838360405161050d9291906112bc565b604051908190039020905061052233826104d2565b156105405760405163f2d28b5b60e01b815260040160405180910390fd5b600254604051632d3f2b0560e01b8152600481018390523360248201526000916001600160a01b031690632d3f2b0590604401602060405180830381865afa158015610590573d6000803e3d6000fd5b505050506040513d601f19601f820116820180604052508101906105b491906111e0565b9050806000036105d75760405163c740c32d60e01b815260040160405180910390fd5b600254604051632cd8cde760e01b8152600481018490523360248201526001600160a01b0390911690632cd8cde790604401600060405180830381600087803b15801561062357600080fd5b505af1158015610637573d6000803e3d6000fd5b50506040516000925033915083908381818185875af1925050503d806000811461067d576040519150601f19603f3d011682016040523d82523d6000602084013e610682565b606091505b50509050806106cf5760405162461bcd60e51b81526020600482015260146024820152732330b4b632b2103a379039b2b7321022ba3432b960611b60448201526064015b60405180910390fd5b50949350505050565b60005460405162e4decd60e31b81527f0000000000000000000000000000000000000000000000000000000000000000600482018190529133916001600160a01b0390911690630726f66890602401602060405180830381865afa158015610744573d6000803e3d6000fd5b505050506040513d601f19601f8201168201806040525081019061076891906112dc565b6001600160a01b0316146107ca5760405162461bcd60e51b8152602060048201526024808201527f4f776e61626c653a2063616c6c6572206973206e6f742074686520746c64206f6044820152633bb732b960e11b60648201526084016106c6565b600260009054906101000a90046001600160a01b03166001600160a01b031663864333746040518163ffffffff1660e01b8152600401602060405180830381865afa15801561081d573d6000803e3d6000fd5b505050506040513d601f19601f8201168201806040525081019061084191906112f9565b6108815760405162461bcd60e51b8152602060048201526011602482015270185d58dd1a5bdb881b9bdd08195b991959607a1b60448201526064016106c6565b60048054600091829055908190036108ac5760405163c740c32d60e01b815260040160405180910390fd5b604051600090339083908381818185875af1925050503d80600081146108ee576040519150601f19603f3d011682016040523d82523d6000602084013e6108f3565b606091505b505090508061093b5760405162461bcd60e51b81526020600482015260146024820152732330b4b632b2103a379039b2b7321022ba3432b960611b60448201526064016106c6565b505050565b600254604051628cb5d760e81b8152600481018390526000916001600160a01b031690638cb5d70090602401602060405180830381865afa158015610989573d6000803e3d6000fd5b505050506040513d601f19601f820116820180604052508101906104f491906112dc565b6040516308d2396f60e01b81526000906001600160a01b037f000000000000000000000000000000000000000000000000000000000000000016906308d2396f90610a20907f0000000000000000000000000000000000000000000000000000000000000000908790879060040161131b565b602060405180830381865afa158015610a3d573d6000803e3d6000fd5b505050506040513d601f19601f820116820180604052508101906104cb91906112f9565b600254604080516343ddd75b60e11b815290516000926001600160a01b0316916387bbaeb69160048083019260209291908290030181865afa158015610aab573d6000803e3d6000fd5b505050506040513d601f19601f82011682018060405250810190610acf91906112f9565b610b0c5760405162461bcd60e51b815260206004820152600e60248201526d3737ba1034b71030bab1ba34b7b760911b60448201526064016106c6565b60003411610b305760405163235c188560e01b8152600160048201526024016106c6565b60008383604051610b429291906112bc565b604051908190038120600254630b1c3b2d60e31b8352336004840152602483018290529092506001600160a01b0316906358e1d96890604401600060405180830381600087803b158015610b9557600080fd5b505af1158015610ba9573d6000803e3d6000fd5b50505050610bb8818585610f8c565b600254604051634b6d21db60e11b81526004810183905260009182916001600160a01b03909116906396da43b690602401600060405180830381865afa158015610c06573d6000803e3d6000fd5b505050506040513d6000823e601f3d908101601f19168201604052610c2e9190810190611354565b925092505080421115610c545760405163283a4a6160e21b815260040160405180910390fd5b600254604051632d3f2b0560e01b81526004810185905233602482015260009134916001600160a01b0390911690632d3f2b0590604401602060405180830381865afa158015610ca8573d6000803e3d6000fd5b505050506040513d601f19601f82011682018060405250810190610ccc91906111e0565b610cd69190611438565b90506000610ce58589896102e5565b905080821015610d0b5760405163235c188560e01b8152600481018290526024016106c6565b600254604051632d3f2b0560e01b8152600481018790526001600160a01b0386811660248301526000921690632d3f2b0590604401602060405180830381865afa158015610d5d573d6000803e3d6000fd5b505050506040513d601f19601f82011682018060405250810190610d8191906111e0565b90506000610d8f828561144b565b905060008115610eb4576001546040516338ad915960e01b81527f00000000000000000000000000000000000000000000000000000000000000006004820152602481018490526001600160a01b03909116906338ad915990604401602060405180830381865afa158015610e08573d6000803e3d6000fd5b505050506040513d601f19601f82011682018060405250810190610e2c91906111e0565b90508015610eb45760035460405163b6b55f2560e01b81527f000000000000000000000000000000000000000000000000000000000000000060048201526001600160a01b039091169063b6b55f259083906024016000604051808303818588803b158015610e9a57600080fd5b505af1158015610eae573d6000803e3d6000fd5b50505050505b610ebe818361144b565b60046000828254610ecf9190611438565b9091555050600254604051632fe9aa6560e11b81526001600160a01b0390911690635fd354ca90610f0c908b908f908f9033908c9060040161145e565b600060405180830381600087803b158015610f2657600080fd5b505af1158015610f3a573d6000803e3d6000fd5b505050507fb773ce5048c68e3c2b907d5b3fbf2875976f4c973ae9494721266036d3d9af8b888c8c3389604051610f7595949392919061145e565b60405180910390a150929998505050505050505050565b610f9682826109ad565b610fb7578181604051637772f70760e01b81526004016106c6929190611495565b600254604051634b6d21db60e11b8152600481018590526000916001600160a01b0316906396da43b690602401600060405180830381865afa158015611001573d6000803e3d6000fd5b505050506040513d6000823e601f3d908101601f191682016040526110299190810190611354565b925050508060001461103b5750505050565b600254604051632fe9aa6560e11b81526001600160a01b0390911690635fd354ca9061107490879087908790600090819060040161145e565b600060405180830381600087803b15801561108e57600080fd5b505af11580156110a2573d6000803e3d6000fd5b5050505050505050565b60008083601f8401126110be57600080fd5b50813567ffffffffffffffff8111156110d657600080fd5b6020830191508360208285010111156110ee57600080fd5b9250929050565b60008060006040848603121561110a57600080fd5b83359250602084013567ffffffffffffffff81111561112857600080fd5b611134868287016110ac565b9497909650939450505050565b6001600160a01b038116811461115657600080fd5b50565b6000806040838503121561116c57600080fd5b823561117781611141565b946020939093013593505050565b6000806020838503121561119857600080fd5b823567ffffffffffffffff8111156111af57600080fd5b6111bb858286016110ac565b90969095509350505050565b6000602082840312156111d957600080fd5b5035919050565b6000602082840312156111f257600080fd5b5051919050565b634e487b7160e01b600052601160045260246000fd5b60008261122c57634e487b7160e01b600052601260045260246000fd5b500490565b80820281158282048414176104f4576104f46111f9565b81835281816020850137506000828201602090810191909152601f909101601f19169091010190565b85815260a06020820152600061128b60a083018688611248565b6001600160a01b03949094166040830152506060810191909152808203608090910152600081526020019392505050565b8183823760009101908152919050565b80516112d781611141565b919050565b6000602082840312156112ee57600080fd5b81516104cb81611141565b60006020828403121561130b57600080fd5b815180151581146104cb57600080fd5b838152604060208201526000611335604083018486611248565b95945050505050565b634e487b7160e01b600052604160045260246000fd5b60008060006060848603121561136957600080fd5b835167ffffffffffffffff8082111561138157600080fd5b818601915086601f83011261139557600080fd5b8151818111156113a7576113a761133e565b604051601f8201601f19908116603f011681019083821181831017156113cf576113cf61133e565b816040528281526020935089848487010111156113eb57600080fd5b600091505b8282101561140d57848201840151818301850152908301906113f0565b60008484830101528097505050506114268187016112cc565b93505050604084015190509250925092565b808201808211156104f4576104f46111f9565b818103818111156104f4576104f46111f9565b858152608060208201526000611478608083018688611248565b6001600160a01b0394909416604083015250606001529392505050565b6020815260006114a9602083018486611248565b94935050505056fea264697066735822122055849335977a1836f30885ae15b5c8d153474378998b993361879316abf87e2664736f6c63430008120033",
  "linkReferences": {},
  "deployedLinkReferences": {}
}