{
  "_format": "hh-sol-artifact-1",
  "contractName": "PrepaidPlatformFee",
  "sourceName": "contracts/admin/PrepaidPlatformFee.sol",
  "abi": [
    {
      "inputs": [
        {
          "internalType": "contract ISANN",
          "name": "_sann",
          "type": "address"
        },
        {
          "internalType": "contract IPlatformConfig",
          "name": "_config",
          "type": "address"
        },
        {
          "internalType": "contract IPriceOracle",
          "name": "_priceOracle",
          "type": "address"
        }
      ],
      "stateMutability": "nonpayable",
      "type": "constructor"
    },
    {
      "anonymous": false,
      "inputs": [
        {
          "indexed": false,
          "internalType": "uint256",
          "name": "identifier",
          "type": "uint256"
        },
        {
          "indexed": false,
          "internalType": "uint256",
          "name": "usdAmount",
          "type": "uint256"
        }
      ],
      "name": "PlatformFeeDeduct",
      "type": "event"
    },
    {
      "anonymous": false,
      "inputs": [
        {
          "indexed": false,
          "internalType": "uint256",
          "name": "identifier",
          "type": "uint256"
        },
        {
          "indexed": false,
          "internalType": "uint256",
          "name": "usdAmount",
          "type": "uint256"
        }
      ],
      "name": "PlatformFeeDeposit",
      "type": "event"
    },
    {
      "anonymous": false,
      "inputs": [
        {
          "indexed": false,
          "internalType": "uint256",
          "name": "amount",
          "type": "uint256"
        }
      ],
      "name": "PlatformFeeWithdraw",
      "type": "event"
    },
    {
      "inputs": [
        {
          "internalType": "uint256",
          "name": "identifier",
          "type": "uint256"
        },
        {
          "internalType": "uint256",
          "name": "amount",
          "type": "uint256"
        }
      ],
      "name": "deduct",
      "outputs": [],
      "stateMutability": "nonpayable",
      "type": "function"
    },
    {
      "inputs": [
        {
          "internalType": "uint256",
          "name": "identifier",
          "type": "uint256"
        }
      ],
      "name": "deposit",
      "outputs": [],
      "stateMutability": "payable",
      "type": "function"
    },
    {
      "inputs": [
        {
          "internalType": "uint256",
          "name": "",
          "type": "uint256"
        }
      ],
      "name": "feeCredits",
      "outputs": [
        {
          "internalType": "uint256",
          "name": "",
          "type": "uint256"
        }
      ],
      "stateMutability": "view",
      "type": "function"
    },
    {
      "inputs": [],
      "name": "platformConfig",
      "outputs": [
        {
          "internalType": "contract IPlatformConfig",
          "name": "",
          "type": "address"
        }
      ],
      "stateMutability": "view",
      "type": "function"
    },
    {
      "inputs": [],
      "name": "priceOracle",
      "outputs": [
        {
          "internalType": "contract IPriceOracle",
          "name": "",
          "type": "address"
        }
      ],
      "stateMutability": "view",
      "type": "function"
    },
    {
      "inputs": [],
      "name": "sann",
      "outputs": [
        {
          "internalType": "contract ISANN",
          "name": "",
          "type": "address"
        }
      ],
      "stateMutability": "view",
      "type": "function"
    },
    {
      "inputs": [],
      "name": "withdraw",
      "outputs": [],
      "stateMutability": "nonpayable",
      "type": "function"
    }
  ],
  "bytecode": "0x608060405234801561001057600080fd5b506040516107cd3803806107cd83398101604081905261002f91610089565b600080546001600160a01b039485166001600160a01b0319918216179091556001805493851693821693909317909255600380549190931691161790556100d6565b6001600160a01b038116811461008657600080fd5b50565b60008060006060848603121561009e57600080fd5b83516100a981610071565b60208501519093506100ba81610071565b60408501519092506100cb81610071565b809150509250925092565b6106e8806100e56000396000f3fe6080604052600436106100705760003560e01c806395d4be7f1161004e57806395d4be7f146100e9578063b6b55f2514610109578063c0325cf81461011c578063d46da3871461015757600080fd5b80632630c12f146100755780633ccfd60b146100b25780634d24e236146100c9575b600080fd5b34801561008157600080fd5b50600354610095906001600160a01b031681565b6040516001600160a01b0390911681526020015b60405180910390f35b3480156100be57600080fd5b506100c7610177565b005b3480156100d557600080fd5b50600154610095906001600160a01b031681565b3480156100f557600080fd5b506100c76101043660046105ec565b610321565b6100c761011736600461060e565b6104ba565b34801561012857600080fd5b5061014961013736600461060e565b60026020526000908152604090205481565b6040519081526020016100a9565b34801561016357600080fd5b50600054610095906001600160a01b031681565b6001546040805163853a65f960e01b8152905133926001600160a01b03169163853a65f99160048083019260209291908290030181865afa1580156101c0573d6000803e3d6000fd5b505050506040513d601f19601f820116820180604052508101906101e49190610627565b6001600160a01b0316146102595760405162461bcd60e51b815260206004820152603160248201527f4f776e61626c653a2063616c6c6572206973206e6f742074686520706c61746660448201527037b936903332b29031b7b63632b1ba37b960791b60648201526084015b60405180910390fd5b6040514790600090339083908381818185875af1925050503d806000811461029d576040519150601f19603f3d011682016040523d82523d6000602084013e6102a2565b606091505b50509050806102ea5760405162461bcd60e51b81526020600482015260146024820152732330b4b632b2103a379039b2b7321022ba3432b960611b6044820152606401610250565b6040518281527f62a23d4358c7cb06ba363801ebd01eb7a12fb4d21d960c8efb90dea5d8c6eb049060200160405180910390a15050565b6000546040805163f340041960e01b8152905133926001600160a01b03169163f34004199160048083019260209291908290030181865afa15801561036a573d6000803e3d6000fd5b505050506040513d601f19601f8201168201806040525081019061038e9190610627565b6001600160a01b0316146103f95760405162461bcd60e51b815260206004820152602c60248201527f41636365737369626c653a2063616c6c6572206973206e6f742074686520746c60448201526b321031b7b73a3937b63632b960a11b6064820152608401610250565b600082815260026020526040902054818110156104585760405162461bcd60e51b815260206004820152601760248201527f696e73756666696369656e7420666565206372656469740000000000000000006044820152606401610250565b6000838152600260205260408120805484929061047690849061066d565b909155505060408051848152602081018490527fb0c90b30c72dab97a885d72b76e652bad52e466acfbf578f5b127c73f20dd05391015b60405180910390a1505050565b600034116105035760405162461bcd60e51b81526020600482015260166024820152756465706f73697420616d6f756e7420746f6f206c6f7760501b6044820152606401610250565b34633b9aca0081111561051e5761051b600182610686565b90505b600354604051631b00721d60e21b8152600481018390526000916001600160a01b031690636c01c87490602401602060405180830381865afa158015610568573d6000803e3d6000fd5b505050506040513d601f19601f8201168201806040525081019061058c9190610699565b9050806002600085815260200190815260200160002060008282546105b19190610686565b909155505060408051848152602081018390527f75e6b035a5de3444eb98402e1d612067879a80bce29e6d6b7bbedfdccf4196eb91016104ad565b600080604083850312156105ff57600080fd5b50508035926020909101359150565b60006020828403121561062057600080fd5b5035919050565b60006020828403121561063957600080fd5b81516001600160a01b038116811461065057600080fd5b9392505050565b634e487b7160e01b600052601160045260246000fd5b8181038181111561068057610680610657565b92915050565b8082018082111561068057610680610657565b6000602082840312156106ab57600080fd5b505191905056fea2646970667358221220cbc509dc15ec50e30dcf951d336d4fee02cf4783d7d3cd19198991fa0cb474de64736f6c63430008120033",
  "linkReferences": {},
  "deployedLinkReferences": {}
}