{
  "_format": "hh-sol-artifact-1",
  "contractName": "ReverseRegistrar",
  "sourceName": "contracts/registrar/ReverseRegistrar.sol",
  "abi": [
    {
      "inputs": [
        {
          "internalType": "address",
          "name": "owner",
          "type": "address"
        }
      ],
      "stateMutability": "nonpayable",
      "type": "constructor"
    },
    {
      "anonymous": false,
      "inputs": [
        {
          "indexed": true,
          "internalType": "address",
          "name": "controller",
          "type": "address"
        },
        {
          "indexed": false,
          "internalType": "bool",
          "name": "enabled",
          "type": "bool"
        }
      ],
      "name": "ControllerChanged",
      "type": "event"
    },
    {
      "anonymous": false,
      "inputs": [
        {
          "indexed": false,
          "internalType": "uint8",
          "name": "version",
          "type": "uint8"
        }
      ],
      "name": "Initialized",
      "type": "event"
    },
    {
      "anonymous": false,
      "inputs": [
        {
          "indexed": true,
          "internalType": "address",
          "name": "previousOwner",
          "type": "address"
        },
        {
          "indexed": true,
          "internalType": "address",
          "name": "newOwner",
          "type": "address"
        }
      ],
      "name": "OwnershipTransferred",
      "type": "event"
    },
    {
      "anonymous": false,
      "inputs": [
        {
          "indexed": true,
          "internalType": "address",
          "name": "addr",
          "type": "address"
        },
        {
          "indexed": true,
          "internalType": "bytes32",
          "name": "node",
          "type": "bytes32"
        }
      ],
      "name": "ReverseClaimed",
      "type": "event"
    },
    {
      "inputs": [
        {
          "internalType": "address",
          "name": "owner",
          "type": "address"
        }
      ],
      "name": "claim",
      "outputs": [
        {
          "internalType": "bytes32",
          "name": "",
          "type": "bytes32"
        }
      ],
      "stateMutability": "nonpayable",
      "type": "function"
    },
    {
      "inputs": [
        {
          "internalType": "address",
          "name": "addr",
          "type": "address"
        },
        {
          "internalType": "address",
          "name": "owner",
          "type": "address"
        },
        {
          "internalType": "address",
          "name": "resolver",
          "type": "address"
        }
      ],
      "name": "claimForAddr",
      "outputs": [
        {
          "internalType": "bytes32",
          "name": "",
          "type": "bytes32"
        }
      ],
      "stateMutability": "nonpayable",
      "type": "function"
    },
    {
      "inputs": [
        {
          "internalType": "address",
          "name": "owner",
          "type": "address"
        },
        {
          "internalType": "address",
          "name": "resolver",
          "type": "address"
        }
      ],
      "name": "claimWithResolver",
      "outputs": [
        {
          "internalType": "bytes32",
          "name": "",
          "type": "bytes32"
        }
      ],
      "stateMutability": "nonpayable",
      "type": "function"
    },
    {
      "inputs": [
        {
          "internalType": "address",
          "name": "",
          "type": "address"
        }
      ],
      "name": "controllers",
      "outputs": [
        {
          "internalType": "bool",
          "name": "",
          "type": "bool"
        }
      ],
      "stateMutability": "view",
      "type": "function"
    },
    {
      "inputs": [],
      "name": "defaultResolver",
      "outputs": [
        {
          "internalType": "contract ReverseResolver",
          "name": "",
          "type": "address"
        }
      ],
      "stateMutability": "view",
      "type": "function"
    },
    {
      "inputs": [
        {
          "internalType": "contract SidRegistry",
          "name": "sidAddr",
          "type": "address"
        }
      ],
      "name": "initialize",
      "outputs": [],
      "stateMutability": "nonpayable",
      "type": "function"
    },
    {
      "inputs": [
        {
          "internalType": "address",
          "name": "addr",
          "type": "address"
        }
      ],
      "name": "node",
      "outputs": [
        {
          "internalType": "bytes32",
          "name": "",
          "type": "bytes32"
        }
      ],
      "stateMutability": "pure",
      "type": "function"
    },
    {
      "inputs": [],
      "name": "owner",
      "outputs": [
        {
          "internalType": "address",
          "name": "",
          "type": "address"
        }
      ],
      "stateMutability": "view",
      "type": "function"
    },
    {
      "inputs": [],
      "name": "renounceOwnership",
      "outputs": [],
      "stateMutability": "nonpayable",
      "type": "function"
    },
    {
      "inputs": [
        {
          "internalType": "address",
          "name": "addr",
          "type": "address"
        },
        {
          "internalType": "address",
          "name": "owner",
          "type": "address"
        },
        {
          "internalType": "address",
          "name": "resolver",
          "type": "address"
        },
        {
          "internalType": "string",
          "name": "name",
          "type": "string"
        },
        {
          "internalType": "uint256",
          "name": "identifier",
          "type": "uint256"
        },
        {
          "internalType": "string",
          "name": "tldName",
          "type": "string"
        }
      ],
      "name": "setAllNamesForAddr",
      "outputs": [
        {
          "internalType": "bytes32",
          "name": "",
          "type": "bytes32"
        }
      ],
      "stateMutability": "nonpayable",
      "type": "function"
    },
    {
      "inputs": [
        {
          "internalType": "address",
          "name": "controller",
          "type": "address"
        },
        {
          "internalType": "bool",
          "name": "enabled",
          "type": "bool"
        }
      ],
      "name": "setController",
      "outputs": [],
      "stateMutability": "nonpayable",
      "type": "function"
    },
    {
      "inputs": [
        {
          "internalType": "address",
          "name": "resolver",
          "type": "address"
        }
      ],
      "name": "setDefaultResolver",
      "outputs": [],
      "stateMutability": "nonpayable",
      "type": "function"
    },
    {
      "inputs": [
        {
          "internalType": "string",
          "name": "name",
          "type": "string"
        }
      ],
      "name": "setName",
      "outputs": [
        {
          "internalType": "bytes32",
          "name": "",
          "type": "bytes32"
        }
      ],
      "stateMutability": "nonpayable",
      "type": "function"
    },
    {
      "inputs": [
        {
          "internalType": "address",
          "name": "addr",
          "type": "address"
        },
        {
          "internalType": "address",
          "name": "owner",
          "type": "address"
        },
        {
          "internalType": "address",
          "name": "resolver",
          "type": "address"
        },
        {
          "internalType": "string",
          "name": "name",
          "type": "string"
        }
      ],
      "name": "setNameForAddr",
      "outputs": [
        {
          "internalType": "bytes32",
          "name": "",
          "type": "bytes32"
        }
      ],
      "stateMutability": "nonpayable",
      "type": "function"
    },
    {
      "inputs": [
        {
          "internalType": "uint256",
          "name": "identifier",
          "type": "uint256"
        },
        {
          "internalType": "string",
          "name": "name",
          "type": "string"
        }
      ],
      "name": "setTldName",
      "outputs": [
        {
          "internalType": "bytes32",
          "name": "",
          "type": "bytes32"
        }
      ],
      "stateMutability": "nonpayable",
      "type": "function"
    },
    {
      "inputs": [
        {
          "internalType": "address",
          "name": "addr",
          "type": "address"
        },
        {
          "internalType": "address",
          "name": "owner",
          "type": "address"
        },
        {
          "internalType": "address",
          "name": "resolver",
          "type": "address"
        },
        {
          "internalType": "uint256",
          "name": "identifier",
          "type": "uint256"
        },
        {
          "internalType": "string",
          "name": "name",
          "type": "string"
        }
      ],
      "name": "setTldNameForAddr",
      "outputs": [
        {
          "internalType": "bytes32",
          "name": "",
          "type": "bytes32"
        }
      ],
      "stateMutability": "nonpayable",
      "type": "function"
    },
    {
      "inputs": [],
      "name": "sid",
      "outputs": [
        {
          "internalType": "contract SidRegistry",
          "name": "",
          "type": "address"
        }
      ],
      "stateMutability": "view",
      "type": "function"
    },
    {
      "inputs": [
        {
          "internalType": "address",
          "name": "newOwner",
          "type": "address"
        }
      ],
      "name": "transferOwnership",
      "outputs": [],
      "stateMutability": "nonpayable",
      "type": "function"
    }
  ],
  "bytecode": "0x60806040523480156200001157600080fd5b506040516200126438038062001264833981016040819052620000349162000182565b6200003f3362000051565b6200004a81620000a1565b50620001b4565b600080546001600160a01b038381166001600160a01b0319831681178455604051919092169283917f8be0079c531659141344cd1fd0a4f28419497f9722a3daafe3b4186f6b6457e09190a35050565b620000ab62000124565b6001600160a01b038116620001165760405162461bcd60e51b815260206004820152602660248201527f4f776e61626c653a206e6577206f776e657220697320746865207a65726f206160448201526564647265737360d01b60648201526084015b60405180910390fd5b620001218162000051565b50565b6000546001600160a01b03163314620001805760405162461bcd60e51b815260206004820181905260248201527f4f776e61626c653a2063616c6c6572206973206e6f7420746865206f776e657260448201526064016200010d565b565b6000602082840312156200019557600080fd5b81516001600160a01b0381168114620001ad57600080fd5b9392505050565b6110a080620001c46000396000f3fe608060405234801561001057600080fd5b50600436106101165760003560e01c8063b1e8eb95116100a2578063c4d66de811610071578063c4d66de814610232578063c66485b214610245578063da8c229e14610258578063e0dba60f1461028b578063f2fde38b1461029e57600080fd5b8063b1e8eb95146101e6578063bfbefbb9146101f9578063bffbe61c1461020c578063c47f00271461021f57600080fd5b8063715018a6116100e9578063715018a61461017a5780637a806d6b14610184578063828eab0e146101975780638da5cb5b146101c257806397c3a355146101d357600080fd5b80630f5a54661461011b5780631e83409a14610141578063625e3dfa146101545780636566963114610167575b600080fd5b61012e610129366004610c0d565b6102b1565b6040519081526020015b60405180910390f35b61012e61014f366004610c46565b6102c5565b61012e610162366004610d06565b6102e7565b61012e610175366004610daa565b6103c6565b610182610648565b005b61012e610192366004610df5565b61065c565b6002546101aa906001600160a01b031681565b6040516001600160a01b039091168152602001610138565b6000546001600160a01b03166101aa565b61012e6101e1366004610e6a565b6106d7565b6001546101aa906001600160a01b031681565b61012e610207366004610ee9565b610718565b61012e61021a366004610c46565b610736565b61012e61022d366004610f30565b610791565b610182610240366004610c46565b6107ae565b610182610253366004610c46565b6108f6565b61027b610266366004610c46565b60036020526000908152604090205460ff1681565b6040519015158152602001610138565b610182610299366004610f7b565b61098f565b6101826102ac366004610c46565b6109f6565b60006102be3384846103c6565b9392505050565b6002546000906102e190339084906001600160a01b03166103c6565b92915050565b6000806102f58888886103c6565b604051637737221360e01b81529091506001600160a01b038716906377372213906103269084908990600401610fef565b600060405180830381600087803b15801561034057600080fd5b505af1158015610354573d6000803e3d6000fd5b5050604051636236a1b360e11b81526001600160a01b038916925063c46d4366915061038890849088908890600401611008565b600060405180830381600087803b1580156103a257600080fd5b505af11580156103b6573d6000803e3d6000fd5b50929a9950505050505050505050565b6000836001600160a01b0381163314806103ef57503360009081526003602052604090205460ff165b80610469575060015460405163e985e9c560e01b81526001600160a01b0383811660048301523360248301529091169063e985e9c590604401602060405180830381865afa158015610445573d6000803e3d6000fd5b505050506040513d601f19601f820116820180604052508101906104699190611030565b80610478575061047881610a6f565b6105155760405162461bcd60e51b815260206004820152605b60248201527f526576657273655265676973747261723a2043616c6c6572206973206e6f742060448201527f6120636f6e74726f6c6c6572206f7220617574686f726973656420627920616460648201527f6472657373206f7220746865206164647265737320697473656c660000000000608482015260a4015b60405180910390fd5b600061052086610ae8565b604080517f91d1777781884d03a6757a803996e38de2a42967fb37eeaca72729271025a9e2602080830191909152818301849052825180830384018152606090920192839052815191012091925081906001600160a01b038916907f6ada868dd3058cf77a48a74489fd7963688e5464b2b0fa957ace976243270e9290600090a36001546040516305ef2c7f60e41b81527f91d1777781884d03a6757a803996e38de2a42967fb37eeaca72729271025a9e26004820152602481018490526001600160a01b03888116604483015287811660648301526000608483015290911690635ef2c7f09060a4015b600060405180830381600087803b15801561062557600080fd5b505af1158015610639573d6000803e3d6000fd5b50929998505050505050505050565b610650610b4e565b61065a6000610ba8565b565b60008061066a8686866103c6565b604051637737221360e01b81529091506001600160a01b0385169063773722139061069b9084908790600401610fef565b600060405180830381600087803b1580156106b557600080fd5b505af11580156106c9573d6000803e3d6000fd5b509298975050505050505050565b6000806106e58787876103c6565b604051636236a1b360e11b81529091506001600160a01b0386169063c46d43669061060b90849088908890600401611008565b6002546000906102be90339081906001600160a01b031686866106d7565b60007f91d1777781884d03a6757a803996e38de2a42967fb37eeaca72729271025a9e261076283610ae8565b604080516020810193909352820152606001604051602081830303815290604052805190602001209050919050565b6002546000906102e190339081906001600160a01b03168561065c565b600054600160a81b900460ff16158080156107d657506000546001600160a01b90910460ff16105b806107f75750303b1580156107f75750600054600160a01b900460ff166001145b61085a5760405162461bcd60e51b815260206004820152602e60248201527f496e697469616c697a61626c653a20636f6e747261637420697320616c72656160448201526d191e481a5b9a5d1a585b1a5e995960921b606482015260840161050c565b6000805460ff60a01b1916600160a01b1790558015610887576000805460ff60a81b1916600160a81b1790555b61088f610b4e565b600180546001600160a01b0319166001600160a01b03841617905580156108f2576000805460ff60a81b19169055604051600181527f7f26b83ff96e1f2b6a682f133852f6798a09c465da95921460cefb38474024989060200160405180910390a15b5050565b6108fe610b4e565b6001600160a01b03811661096d5760405162461bcd60e51b815260206004820152603060248201527f526576657273655265676973747261723a205265736f6c76657220616464726560448201526f07373206d757374206e6f7420626520360841b606482015260840161050c565b600280546001600160a01b0319166001600160a01b0392909216919091179055565b610997610b4e565b6001600160a01b038216600081815260036020908152604091829020805460ff191685151590811790915591519182527f4c97694570a07277810af7e5669ffd5f6a2d6b74b6e9a274b8b870fd5114cf87910160405180910390a25050565b6109fe610b4e565b6001600160a01b038116610a635760405162461bcd60e51b815260206004820152602660248201527f4f776e61626c653a206e6577206f776e657220697320746865207a65726f206160448201526564647265737360d01b606482015260840161050c565b610a6c81610ba8565b50565b6000816001600160a01b0316638da5cb5b6040518163ffffffff1660e01b8152600401602060405180830381865afa925050508015610acb575060408051601f3d908101601f19168201909252610ac89181019061104d565b60015b610ad757506000919050565b6001600160a01b0316331492915050565b600060285b8015610b4257600019016f181899199a1a9b1b9c1cb0b131b232b360811b600f84161a8153601090920491600019016f181899199a1a9b1b9c1cb0b131b232b360811b600f84161a8153601083049250610aed565b50506028600020919050565b6000546001600160a01b0316331461065a5760405162461bcd60e51b815260206004820181905260248201527f4f776e61626c653a2063616c6c6572206973206e6f7420746865206f776e6572604482015260640161050c565b600080546001600160a01b038381166001600160a01b0319831681178455604051919092169283917f8be0079c531659141344cd1fd0a4f28419497f9722a3daafe3b4186f6b6457e09190a35050565b6001600160a01b0381168114610a6c57600080fd5b60008060408385031215610c2057600080fd5b8235610c2b81610bf8565b91506020830135610c3b81610bf8565b809150509250929050565b600060208284031215610c5857600080fd5b81356102be81610bf8565b634e487b7160e01b600052604160045260246000fd5b600082601f830112610c8a57600080fd5b813567ffffffffffffffff80821115610ca557610ca5610c63565b604051601f8301601f19908116603f01168101908282118183101715610ccd57610ccd610c63565b81604052838152866020858801011115610ce657600080fd5b836020870160208301376000602085830101528094505050505092915050565b60008060008060008060c08789031215610d1f57600080fd5b8635610d2a81610bf8565b95506020870135610d3a81610bf8565b94506040870135610d4a81610bf8565b9350606087013567ffffffffffffffff80821115610d6757600080fd5b610d738a838b01610c79565b94506080890135935060a0890135915080821115610d9057600080fd5b50610d9d89828a01610c79565b9150509295509295509295565b600080600060608486031215610dbf57600080fd5b8335610dca81610bf8565b92506020840135610dda81610bf8565b91506040840135610dea81610bf8565b809150509250925092565b60008060008060808587031215610e0b57600080fd5b8435610e1681610bf8565b93506020850135610e2681610bf8565b92506040850135610e3681610bf8565b9150606085013567ffffffffffffffff811115610e5257600080fd5b610e5e87828801610c79565b91505092959194509250565b600080600080600060a08688031215610e8257600080fd5b8535610e8d81610bf8565b94506020860135610e9d81610bf8565b93506040860135610ead81610bf8565b925060608601359150608086013567ffffffffffffffff811115610ed057600080fd5b610edc88828901610c79565b9150509295509295909350565b60008060408385031215610efc57600080fd5b82359150602083013567ffffffffffffffff811115610f1a57600080fd5b610f2685828601610c79565b9150509250929050565b600060208284031215610f4257600080fd5b813567ffffffffffffffff811115610f5957600080fd5b610f6584828501610c79565b949350505050565b8015158114610a6c57600080fd5b60008060408385031215610f8e57600080fd5b8235610f9981610bf8565b91506020830135610c3b81610f6d565b6000815180845260005b81811015610fcf57602081850181015186830182015201610fb3565b506000602082860101526020601f19601f83011685010191505092915050565b828152604060208201526000610f656040830184610fa9565b8381528260208201526060604082015260006110276060830184610fa9565b95945050505050565b60006020828403121561104257600080fd5b81516102be81610f6d565b60006020828403121561105f57600080fd5b81516102be81610bf856fea26469706673582212205dcc8d2c4dbbe05512a6a9eac8777b46e00196dbb8d98b13a8f793f95d9f2ba464736f6c63430008120033",
  "linkReferences": {},
  "deployedLinkReferences": {}
}