{
  "_format": "hh-sol-artifact-1",
  "contractName": "SANN",
  "sourceName": "contracts/admin/SANN.sol",
  "abi": [
    {
      "inputs": [],
      "stateMutability": "nonpayable",
      "type": "constructor"
    },
    {
      "inputs": [
        {
          "internalType": "string",
          "name": "tld",
          "type": "string"
        }
      ],
      "name": "InvalidTLD",
      "type": "error"
    },
    {
      "anonymous": false,
      "inputs": [
        {
          "indexed": false,
          "internalType": "address",
          "name": "previousAdmin",
          "type": "address"
        },
        {
          "indexed": false,
          "internalType": "address",
          "name": "newAdmin",
          "type": "address"
        }
      ],
      "name": "AdminChanged",
      "type": "event"
    },
    {
      "anonymous": false,
      "inputs": [
        {
          "indexed": true,
          "internalType": "address",
          "name": "beacon",
          "type": "address"
        }
      ],
      "name": "BeaconUpgraded",
      "type": "event"
    },
    {
      "anonymous": false,
      "inputs": [
        {
          "indexed": false,
          "internalType": "uint8",
          "name": "version",
          "type": "uint8"
        }
      ],
      "name": "Initialized",
      "type": "event"
    },
    {
      "anonymous": false,
      "inputs": [
        {
          "indexed": false,
          "internalType": "address",
          "name": "tldFactory",
          "type": "address"
        }
      ],
      "name": "NewPlatformAdmin",
      "type": "event"
    },
    {
      "anonymous": false,
      "inputs": [
        {
          "indexed": false,
          "internalType": "string",
          "name": "tld",
          "type": "string"
        },
        {
          "indexed": false,
          "internalType": "uint256",
          "name": "identifier",
          "type": "uint256"
        },
        {
          "indexed": false,
          "internalType": "address",
          "name": "owner",
          "type": "address"
        },
        {
          "indexed": false,
          "internalType": "address",
          "name": "base",
          "type": "address"
        },
        {
          "indexed": false,
          "internalType": "address",
          "name": "controller",
          "type": "address"
        }
      ],
      "name": "NewTld",
      "type": "event"
    },
    {
      "anonymous": false,
      "inputs": [
        {
          "indexed": false,
          "internalType": "address",
          "name": "tldController",
          "type": "address"
        }
      ],
      "name": "NewTldController",
      "type": "event"
    },
    {
      "anonymous": false,
      "inputs": [
        {
          "indexed": false,
          "internalType": "address",
          "name": "tldFactory",
          "type": "address"
        }
      ],
      "name": "NewTldFactory",
      "type": "event"
    },
    {
      "anonymous": false,
      "inputs": [
        {
          "indexed": false,
          "internalType": "uint256",
          "name": "identifier",
          "type": "uint256"
        },
        {
          "indexed": false,
          "internalType": "address",
          "name": "owner",
          "type": "address"
        }
      ],
      "name": "NewTldOwner",
      "type": "event"
    },
    {
      "anonymous": false,
      "inputs": [
        {
          "indexed": false,
          "internalType": "uint256",
          "name": "maxTldLength",
          "type": "uint256"
        }
      ],
      "name": "SetMaxTldLength",
      "type": "event"
    },
    {
      "anonymous": false,
      "inputs": [
        {
          "indexed": false,
          "internalType": "uint256",
          "name": "minTldLength",
          "type": "uint256"
        }
      ],
      "name": "SetMinTldLength",
      "type": "event"
    },
    {
      "anonymous": false,
      "inputs": [
        {
          "indexed": true,
          "internalType": "address",
          "name": "implementation",
          "type": "address"
        }
      ],
      "name": "Upgraded",
      "type": "event"
    },
    {
      "inputs": [],
      "name": "chainId",
      "outputs": [
        {
          "internalType": "uint256",
          "name": "",
          "type": "uint256"
        }
      ],
      "stateMutability": "view",
      "type": "function"
    },
    {
      "inputs": [],
      "name": "currentTldController",
      "outputs": [
        {
          "internalType": "address",
          "name": "",
          "type": "address"
        }
      ],
      "stateMutability": "view",
      "type": "function"
    },
    {
      "inputs": [],
      "name": "currentTldFactory",
      "outputs": [
        {
          "internalType": "address",
          "name": "",
          "type": "address"
        }
      ],
      "stateMutability": "view",
      "type": "function"
    },
    {
      "inputs": [
        {
          "internalType": "address",
          "name": "_domainRegistry",
          "type": "address"
        },
        {
          "internalType": "address",
          "name": "_platformAdmin",
          "type": "address"
        }
      ],
      "name": "initialize",
      "outputs": [],
      "stateMutability": "nonpayable",
      "type": "function"
    },
    {
      "inputs": [],
      "name": "maxTldLength",
      "outputs": [
        {
          "internalType": "uint256",
          "name": "",
          "type": "uint256"
        }
      ],
      "stateMutability": "view",
      "type": "function"
    },
    {
      "inputs": [],
      "name": "minTldLength",
      "outputs": [
        {
          "internalType": "uint256",
          "name": "",
          "type": "uint256"
        }
      ],
      "stateMutability": "view",
      "type": "function"
    },
    {
      "inputs": [],
      "name": "platformAdmin",
      "outputs": [
        {
          "internalType": "address",
          "name": "",
          "type": "address"
        }
      ],
      "stateMutability": "view",
      "type": "function"
    },
    {
      "inputs": [],
      "name": "proxiableUUID",
      "outputs": [
        {
          "internalType": "bytes32",
          "name": "",
          "type": "bytes32"
        }
      ],
      "stateMutability": "view",
      "type": "function"
    },
    {
      "inputs": [
        {
          "internalType": "string",
          "name": "tldName",
          "type": "string"
        },
        {
          "internalType": "uint256",
          "name": "identifier",
          "type": "uint256"
        },
        {
          "internalType": "address",
          "name": "owner",
          "type": "address"
        },
        {
          "internalType": "address",
          "name": "base",
          "type": "address"
        }
      ],
      "name": "registerTld",
      "outputs": [],
      "stateMutability": "nonpayable",
      "type": "function"
    },
    {
      "inputs": [],
      "name": "registry",
      "outputs": [
        {
          "internalType": "address",
          "name": "",
          "type": "address"
        }
      ],
      "stateMutability": "view",
      "type": "function"
    },
    {
      "inputs": [
        {
          "internalType": "uint256",
          "name": "_maxTldLength",
          "type": "uint256"
        }
      ],
      "name": "setMaxTldLength",
      "outputs": [],
      "stateMutability": "nonpayable",
      "type": "function"
    },
    {
      "inputs": [
        {
          "internalType": "uint256",
          "name": "_minTldLength",
          "type": "uint256"
        }
      ],
      "name": "setMinTldLength",
      "outputs": [],
      "stateMutability": "nonpayable",
      "type": "function"
    },
    {
      "inputs": [
        {
          "internalType": "address",
          "name": "_platformAdmin",
          "type": "address"
        }
      ],
      "name": "setPlatformAdmin",
      "outputs": [],
      "stateMutability": "nonpayable",
      "type": "function"
    },
    {
      "inputs": [
        {
          "internalType": "address",
          "name": "_tldController",
          "type": "address"
        }
      ],
      "name": "setTldController",
      "outputs": [],
      "stateMutability": "nonpayable",
      "type": "function"
    },
    {
      "inputs": [
        {
          "internalType": "address",
          "name": "tldFactory",
          "type": "address"
        }
      ],
      "name": "setTldFactory",
      "outputs": [],
      "stateMutability": "nonpayable",
      "type": "function"
    },
    {
      "inputs": [
        {
          "internalType": "uint256",
          "name": "identifier",
          "type": "uint256"
        },
        {
          "internalType": "address",
          "name": "newOwner",
          "type": "address"
        }
      ],
      "name": "setTldOwner",
      "outputs": [],
      "stateMutability": "nonpayable",
      "type": "function"
    },
    {
      "inputs": [
        {
          "internalType": "uint256",
          "name": "identifier",
          "type": "uint256"
        }
      ],
      "name": "tld",
      "outputs": [
        {
          "internalType": "string",
          "name": "",
          "type": "string"
        }
      ],
      "stateMutability": "view",
      "type": "function"
    },
    {
      "inputs": [
        {
          "internalType": "uint256",
          "name": "identifier",
          "type": "uint256"
        }
      ],
      "name": "tldBase",
      "outputs": [
        {
          "internalType": "address",
          "name": "",
          "type": "address"
        }
      ],
      "stateMutability": "view",
      "type": "function"
    },
    {
      "inputs": [],
      "name": "tldController",
      "outputs": [
        {
          "internalType": "address",
          "name": "",
          "type": "address"
        }
      ],
      "stateMutability": "view",
      "type": "function"
    },
    {
      "inputs": [
        {
          "internalType": "string",
          "name": "tldName",
          "type": "string"
        },
        {
          "internalType": "address",
          "name": "owner",
          "type": "address"
        }
      ],
      "name": "tldIdentifier",
      "outputs": [
        {
          "internalType": "uint256",
          "name": "",
          "type": "uint256"
        }
      ],
      "stateMutability": "view",
      "type": "function"
    },
    {
      "inputs": [
        {
          "internalType": "uint256",
          "name": "",
          "type": "uint256"
        }
      ],
      "name": "tldInfos",
      "outputs": [
        {
          "internalType": "string",
          "name": "tld",
          "type": "string"
        },
        {
          "internalType": "address",
          "name": "owner",
          "type": "address"
        },
        {
          "internalType": "address",
          "name": "base",
          "type": "address"
        }
      ],
      "stateMutability": "view",
      "type": "function"
    },
    {
      "inputs": [
        {
          "internalType": "uint256",
          "name": "identifier",
          "type": "uint256"
        }
      ],
      "name": "tldOwner",
      "outputs": [
        {
          "internalType": "address",
          "name": "",
          "type": "address"
        }
      ],
      "stateMutability": "view",
      "type": "function"
    },
    {
      "inputs": [
        {
          "internalType": "bytes32",
          "name": "node",
          "type": "bytes32"
        },
        {
          "internalType": "address",
          "name": "newOwner",
          "type": "address"
        }
      ],
      "name": "transferNodeOwner",
      "outputs": [],
      "stateMutability": "nonpayable",
      "type": "function"
    },
    {
      "inputs": [
        {
          "internalType": "address",
          "name": "newImplementation",
          "type": "address"
        }
      ],
      "name": "upgradeTo",
      "outputs": [],
      "stateMutability": "nonpayable",
      "type": "function"
    },
    {
      "inputs": [
        {
          "internalType": "address",
          "name": "newImplementation",
          "type": "address"
        },
        {
          "internalType": "bytes",
          "name": "data",
          "type": "bytes"
        }
      ],
      "name": "upgradeToAndCall",
      "outputs": [],
      "stateMutability": "payable",
      "type": "function"
    }
  ],
  "bytecode": "0x60a06040523060805234801561001457600080fd5b5061001d610022565b6100e1565b600054610100900460ff161561008e5760405162461bcd60e51b815260206004820152602760248201527f496e697469616c697a61626c653a20636f6e747261637420697320696e697469604482015266616c697a696e6760c81b606482015260840160405180910390fd5b60005460ff908116146100df576000805460ff191660ff9081179091556040519081527f7f26b83ff96e1f2b6a682f133852f6798a09c465da95921460cefb38474024989060200160405180910390a15b565b608051611d7f6101186000396000818161061b0152818161065b01528181610a6c01528181610aac0152610b3f0152611d7f6000f3fe6080604052600436106101665760003560e01c806353bdd0c6116100d15780639424bff81161008a578063a334815a11610064578063a334815a1461045a578063b202ca111461047a578063cdcd7fb514610490578063f3400419146104b057600080fd5b80639424bff8146103f757806397793e2a146104245780639a8a05921461044457600080fd5b806353bdd0c6146103375780636a0dfac1146103575780637805dca3146103775780637b103999146103975780637ee664fa146103b757806389a71c2c146103d757600080fd5b80633659cfe6116101235780633659cfe6146102805780633e696ffc146102a05780634376c801146102cf578063485cc955146102ef5780634f1ef2861461030f57806352d1902d1461032257600080fd5b80630726f6681461016b5780630975f8dd146101c15780631ce96ae7146101e35780631e038cc814610203578063261bd4c5146102315780632c7263b514610247575b600080fd5b34801561017757600080fd5b506101a46101863660046116ae565b6000908152600860205260409020600101546001600160a01b031690565b6040516001600160a01b0390911681526020015b60405180910390f35b3480156101cd57600080fd5b506101e16101dc3660046116e3565b6104ce565b005b3480156101ef57600080fd5b506101e16101fe3660046116e3565b610556565b34801561020f57600080fd5b5061022361021e366004611747565b6105ce565b6040519081526020016101b8565b34801561023d57600080fd5b5061022360065481565b34801561025357600080fd5b506101a46102623660046116ae565b6000908152600860205260409020600201546001600160a01b031690565b34801561028c57600080fd5b506101e161029b3660046116e3565b610611565b3480156102ac57600080fd5b506102c06102bb3660046116ae565b6106f0565b6040516101b8939291906117eb565b3480156102db57600080fd5b506101e16102ea36600461181e565b6107a7565b3480156102fb57600080fd5b506101e161030a36600461184a565b61086e565b6101e161031d36600461188a565b610a62565b34801561032e57600080fd5b50610223610b32565b34801561034357600080fd5b506101e161035236600461181e565b610be5565b34801561036357600080fd5b506002546101a4906001600160a01b031681565b34801561038357600080fd5b506101e16103923660046116ae565b610cbe565b3480156103a357600080fd5b506005546101a4906001600160a01b031681565b3480156103c357600080fd5b506101e16103d23660046116ae565b610d1d565b3480156103e357600080fd5b506003546101a4906001600160a01b031681565b34801561040357600080fd5b506104176104123660046116ae565b610d7c565b6040516101b8919061194c565b34801561043057600080fd5b506101e161043f3660046116e3565b610e1e565b34801561045057600080fd5b5061022360015481565b34801561046657600080fd5b506101e161047536600461195f565b610e96565b34801561048657600080fd5b5061022360075481565b34801561049c57600080fd5b506004546101a4906001600160a01b031681565b3480156104bc57600080fd5b506003546001600160a01b03166101a4565b6004546001600160a01b031633146105015760405162461bcd60e51b81526004016104f8906119cd565b60405180910390fd5b600380546001600160a01b0319166001600160a01b0383169081179091556040519081527f6cf26c4bb730d3a50074d1f62d9edaa313bf3019d6d1ddd081b934ea6d1c7102906020015b60405180910390a150565b6004546001600160a01b031633146105805760405162461bcd60e51b81526004016104f8906119cd565b600480546001600160a01b0319166001600160a01b0383169081179091556040519081527f42d3f9a40a5172c752f90ad0ba180b6be6323be2fa3431e428377a1b6aaf7b6a9060200161054b565b600060208285856040516020016105e7939291906119fa565b60408051601f19818403018152919052805160209091012060015460e01b911c1790509392505050565b6001600160a01b037f00000000000000000000000000000000000000000000000000000000000000001630036106595760405162461bcd60e51b81526004016104f890611a26565b7f00000000000000000000000000000000000000000000000000000000000000006001600160a01b03166106a2600080516020611d03833981519152546001600160a01b031690565b6001600160a01b0316146106c85760405162461bcd60e51b81526004016104f890611a72565b6106d1816111db565b604080516000808252602082019092526106ed91839190611205565b50565b60086020526000908152604090208054819061070b90611abe565b80601f016020809104026020016040519081016040528092919081815260200182805461073790611abe565b80156107845780601f1061075957610100808354040283529160200191610784565b820191906000526020600020905b81548152906001019060200180831161076757829003601f168201915b50505050600183015460029093015491926001600160a01b039081169216905083565b60008281526008602052604090206001015482906001600160a01b031633146108035760405162461bcd60e51b815260206004820152600e60248201526d37b7363c903a36321037bbb732b960911b60448201526064016104f8565b60008381526008602090815260409182902060010180546001600160a01b0319166001600160a01b0386169081179091558251868152918201527fd84dedae7e875b17c62d587f2bbfc7af84cda07be53c8bc1c867c59e300b8c6291015b60405180910390a1505050565b600054610100900460ff161580801561088e5750600054600160ff909116105b806108a85750303b1580156108a8575060005460ff166001145b61090b5760405162461bcd60e51b815260206004820152602e60248201527f496e697469616c697a61626c653a20636f6e747261637420697320616c72656160448201526d191e481a5b9a5d1a585b1a5e995960921b60648201526084016104f8565b6000805460ff19166001179055801561092e576000805461ff0019166101001790555b46600155600280546001600160a01b0319908116909155600480546001600160a01b0385169216821790556040519081527f42d3f9a40a5172c752f90ad0ba180b6be6323be2fa3431e428377a1b6aaf7b6a9060200160405180910390a1600580546001600160a01b0319166001600160a01b038516179055600360068190556040519081527f6b5c80d77bb052d8516ace3d07ad7dd68ddaf7015995199ee2e8eec9e8e591289060200160405180910390a1600560078190556040519081527f6e477cd155c7e73030167ff820363b94fb27b6fcc2f484d83b9a8c87a5c77fcf9060200160405180910390a18015610a5d576000805461ff0019169055604051600181527f7f26b83ff96e1f2b6a682f133852f6798a09c465da95921460cefb384740249890602001610861565b505050565b6001600160a01b037f0000000000000000000000000000000000000000000000000000000000000000163003610aaa5760405162461bcd60e51b81526004016104f890611a26565b7f00000000000000000000000000000000000000000000000000000000000000006001600160a01b0316610af3600080516020611d03833981519152546001600160a01b031690565b6001600160a01b031614610b195760405162461bcd60e51b81526004016104f890611a72565b610b22826111db565b610b2e82826001611205565b5050565b6000306001600160a01b037f00000000000000000000000000000000000000000000000000000000000000001614610bd25760405162461bcd60e51b815260206004820152603860248201527f555550535570677261646561626c653a206d757374206e6f742062652063616c60448201527f6c6564207468726f7567682064656c656761746563616c6c000000000000000060648201526084016104f8565b50600080516020611d0383398151915290565b6004546001600160a01b03163314610c0f5760405162461bcd60e51b81526004016104f8906119cd565b6001600160a01b038116610c545760405162461bcd60e51b815260206004820152600c60248201526b7a65726f206164647265737360a01b60448201526064016104f8565b600554604051635b0fc9c360e01b8152600481018490526001600160a01b03838116602483015290911690635b0fc9c390604401600060405180830381600087803b158015610ca257600080fd5b505af1158015610cb6573d6000803e3d6000fd5b505050505050565b6004546001600160a01b03163314610ce85760405162461bcd60e51b81526004016104f8906119cd565b60068190556040518181527f6b5c80d77bb052d8516ace3d07ad7dd68ddaf7015995199ee2e8eec9e8e591289060200161054b565b6004546001600160a01b03163314610d475760405162461bcd60e51b81526004016104f8906119cd565b60078190556040518181527f6e477cd155c7e73030167ff820363b94fb27b6fcc2f484d83b9a8c87a5c77fcf9060200161054b565b6000818152600860205260409020805460609190610d9990611abe565b80601f0160208091040260200160405190810160405280929190818152602001828054610dc590611abe565b8015610e125780601f10610de757610100808354040283529160200191610e12565b820191906000526020600020905b815481529060010190602001808311610df557829003601f168201915b50505050509050919050565b6004546001600160a01b03163314610e485760405162461bcd60e51b81526004016104f8906119cd565b600280546001600160a01b0319166001600160a01b0383169081179091556040519081527fbc133274df720db82d6c944422fee883c098d643cee44ed7c18626c59939620e9060200161054b565b6002546001600160a01b03163314610ee95760405162461bcd60e51b81526020600482015260166024820152756f6e6c792076616c696420746c6420666163746f727960501b60448201526064016104f8565b6001600160a01b038216610f375760405162461bcd60e51b8152602060048201526015602482015274696e76616c6964206f776e6572206164647265737360581b60448201526064016104f8565b6001600160a01b038116610f845760405162461bcd60e51b8152602060048201526014602482015273696e76616c69642062617365206164647265737360601b60448201526064016104f8565b610f8e8585611370565b610faf578484604051633a257dad60e21b81526004016104f8929190611b21565b60008381526008602052604090208054610fc890611abe565b1590506110175760405162461bcd60e51b815260206004820152601760248201527f544c4420686173206265656e207265676973746572656400000000000000000060448201526064016104f8565b6000838152600860205260409020611030858783611b7b565b50600083815260086020526040908190206001810180546001600160a01b038087166001600160a01b0319928316179092556002909201805485831693169290921790915560035491517fe600e4a40deb2e23ab9133f4c86b57e1605f608a7623a6e6da1171837813b7f8926110b3928992899289928992899290911690611c3c565b60405180910390a16005546040516306ab592360e01b815260006004820181905260248201869052306044830152916001600160a01b0316906306ab5923906064016020604051808303816000875af1158015611114573d6000803e3d6000fd5b505050506040513d601f19601f820116820180604052508101906111389190611c80565b90506000868660405161114c929190611c99565b6040519081900381206005546306ab592360e01b835260048301859052602483018290526001600160a01b03868116604485015291935016906306ab5923906064016020604051808303816000875af11580156111ad573d6000803e3d6000fd5b505050506040513d601f19601f820116820180604052508101906111d19190611c80565b5050505050505050565b6004546001600160a01b031633146106ed5760405162461bcd60e51b81526004016104f8906119cd565b7f4910fdfa16fed3260ed0e7147f7cc6da11a60208b5b9406d12a635614ffd91435460ff161561123857610a5d83611458565b826001600160a01b03166352d1902d6040518163ffffffff1660e01b8152600401602060405180830381865afa925050508015611292575060408051601f3d908101601f1916820190925261128f91810190611c80565b60015b6112f55760405162461bcd60e51b815260206004820152602e60248201527f45524331393637557067726164653a206e657720696d706c656d656e7461746960448201526d6f6e206973206e6f74205555505360901b60648201526084016104f8565b600080516020611d0383398151915281146113645760405162461bcd60e51b815260206004820152602960248201527f45524331393637557067726164653a20756e737570706f727465642070726f786044820152681a58589b195555525160ba1b60648201526084016104f8565b50610a5d8383836114f4565b60065460009083908390819081108061138a575060075481115b1561139b5760009350505050611452565b60005b818110156114495760008484838181106113ba576113ba611ca9565b909101356001600160f81b031916915050606160f81b81108015906113ed5750603d60f91b6001600160f81b0319821611155b1580156114235750600360fc1b6001600160f81b03198216108015906114215750603960f81b6001600160f81b0319821611155b155b1561143657600095505050505050611452565b508061144181611cbf565b91505061139e565b50600193505050505b92915050565b6001600160a01b0381163b6114c55760405162461bcd60e51b815260206004820152602d60248201527f455243313936373a206e657720696d706c656d656e746174696f6e206973206e60448201526c1bdd08184818dbdb9d1c9858dd609a1b60648201526084016104f8565b600080516020611d0383398151915280546001600160a01b0319166001600160a01b0392909216919091179055565b6114fd8361151f565b60008251118061150a5750805b15610a5d57611519838361155f565b50505050565b61152881611458565b6040516001600160a01b038216907fbc7cd75a20ee27fd9adebab32041f755214dbc6bffa90cc0225b39da2e5c2d3b90600090a250565b60606115848383604051806060016040528060278152602001611d236027913961158b565b9392505050565b6060600080856001600160a01b0316856040516115a89190611ce6565b600060405180830381855af49150503d80600081146115e3576040519150601f19603f3d011682016040523d82523d6000602084013e6115e8565b606091505b50915091506115f986838387611603565b9695505050505050565b6060831561167257825160000361166b576001600160a01b0385163b61166b5760405162461bcd60e51b815260206004820152601d60248201527f416464726573733a2063616c6c20746f206e6f6e2d636f6e747261637400000060448201526064016104f8565b508161167c565b61167c8383611684565b949350505050565b8151156116945781518083602001fd5b8060405162461bcd60e51b81526004016104f8919061194c565b6000602082840312156116c057600080fd5b5035919050565b80356001600160a01b03811681146116de57600080fd5b919050565b6000602082840312156116f557600080fd5b611584826116c7565b60008083601f84011261171057600080fd5b50813567ffffffffffffffff81111561172857600080fd5b60208301915083602082850101111561174057600080fd5b9250929050565b60008060006040848603121561175c57600080fd5b833567ffffffffffffffff81111561177357600080fd5b61177f868287016116fe565b90945092506117929050602085016116c7565b90509250925092565b60005b838110156117b657818101518382015260200161179e565b50506000910152565b600081518084526117d781602086016020860161179b565b601f01601f19169290920160200192915050565b6060815260006117fe60608301866117bf565b6001600160a01b0394851660208401529290931660409091015292915050565b6000806040838503121561183157600080fd5b82359150611841602084016116c7565b90509250929050565b6000806040838503121561185d57600080fd5b611866836116c7565b9150611841602084016116c7565b634e487b7160e01b600052604160045260246000fd5b6000806040838503121561189d57600080fd5b6118a6836116c7565b9150602083013567ffffffffffffffff808211156118c357600080fd5b818501915085601f8301126118d757600080fd5b8135818111156118e9576118e9611874565b604051601f8201601f19908116603f0116810190838211818310171561191157611911611874565b8160405282815288602084870101111561192a57600080fd5b8260208601602083013760006020848301015280955050505050509250929050565b60208152600061158460208301846117bf565b60008060008060006080868803121561197757600080fd5b853567ffffffffffffffff81111561198e57600080fd5b61199a888289016116fe565b909650945050602086013592506119b3604087016116c7565b91506119c1606087016116c7565b90509295509295909350565b60208082526013908201527237b7363c90383630ba3337b9369030b236b4b760691b604082015260600190565b6bffffffffffffffffffffffff198460601b168152818360148301376000910160140190815292915050565b6020808252602c908201527f46756e6374696f6e206d7573742062652063616c6c6564207468726f7567682060408201526b19195b1959d85d1958d85b1b60a21b606082015260800190565b6020808252602c908201527f46756e6374696f6e206d7573742062652063616c6c6564207468726f7567682060408201526b6163746976652070726f787960a01b606082015260800190565b600181811c90821680611ad257607f821691505b602082108103611af257634e487b7160e01b600052602260045260246000fd5b50919050565b81835281816020850137506000828201602090810191909152601f909101601f19169091010190565b60208152600061167c602083018486611af8565b601f821115610a5d57600081815260208120601f850160051c81016020861015611b5c5750805b601f850160051c820191505b81811015610cb657828155600101611b68565b67ffffffffffffffff831115611b9357611b93611874565b611ba783611ba18354611abe565b83611b35565b6000601f841160018114611bdb5760008515611bc35750838201355b600019600387901b1c1916600186901b178355611c35565b600083815260209020601f19861690835b82811015611c0c5786850135825560209485019460019092019101611bec565b5086821015611c295760001960f88860031b161c19848701351681555b505060018560011b0183555b5050505050565b60a081526000611c5060a08301888a611af8565b6020830196909652506001600160a01b039384166040820152918316606083015290911660809091015292915050565b600060208284031215611c9257600080fd5b5051919050565b8183823760009101908152919050565b634e487b7160e01b600052603260045260246000fd5b600060018201611cdf57634e487b7160e01b600052601160045260246000fd5b5060010190565b60008251611cf881846020870161179b565b919091019291505056fe360894a13ba1a3210667c828492db98dca3e2076cc3735a920a3ca505d382bbc416464726573733a206c6f772d6c6576656c2064656c65676174652063616c6c206661696c6564a264697066735822122098c3ed86d4de68e5cf64a223018d7349c7724c4ac68cea9db6391c6567f84c1b64736f6c63430008120033",
  "linkReferences": {},
  "deployedLinkReferences": {}
}